:020000040800F2
:105800005886002045590008A3000108F5DF00086C
:10581000A100010895660008897A010800000000CF
:10582000000000000000000000000000D15301084B
:105830003B730008000000005B590008C5750108B3
:10584000898E01085F5900085F590008F92C01088A
:105850005F5900085F5900085F5900085F59000848
:105860005F5900085F5900085F5900085F59000838
:105870005F5900085F5900085F5900085F59000828
:105880005F5900085F5900085F5900085F59000818
:105890005F5900085F5900085F5900085F59000808
:1058A0005F5900085F5900085F5900085F590008F8
:1058B0005F5900085F5900085F5900085F590008E8
:1058C0005F5900085F5900085F5900085F590008D8
:1058D0005F590008E17601085F5900086577010803
:1058E0005F5900085F5900085F5900085F590008B8
:1058F0005F5900085F5900085F5900085F590008A8
:105900005F590008713B01085F5900085F590008A2
:105910005F5900085F5900085F5900085F59000887
:105920005F5900085F5900085F5900085F59000877
:10593000DFF80CD000F080FB0048004741F101087F
:10594000588600200648804706480047FEE7FEE7E5
:10595000FEE7FEE7FEE7FEE7FEE7FEE7FEE7FEE71F
:10596000E1750108315900080649074A08685043A3
:1059700043F239021044086040087047014908604A
:1059800070470000381400206D4EC64110B5441A0F
:105990000346944209D28418114403E011F8013DF2
:1059A00004F8013D521EF9D210BD40EA0104A407DB
:1059B00003D009E010C9121F10C3042AFAD203E071
:1059C00011F8014B03F8014B521EF9D210BDD2B2AF
:1059D00001E000F8012B491EFBD270470022F6E7D8
:1059E00010B513460A4604461946FFF7F0FF204655
:1059F00010BD30B505462A460B4612F8010B13F8C8
:105A0000014B08B1A042F8D01CB1002802D06D1C97
:105A1000F1E7284630BD034611F8012B00F8012BB1
:105A2000002AF9D11846704770B5064618F020FADA
:105A3000046805460A220021304600F0DFF92C6098
:105A400070BD2DE9FE4F804681EA0300C00F0C4671
:105A5000009021F0004123F00045B8EB0200A9417D
:105A600005D24046214690461C460B46024623F08E
:105A70000040104347D0270DC7F30A00C3F30A5173
:105A80000290401A019040286BDAC3F3130040F4EF
:105A9000801B0098924620B10023D2EB030A63EBEF
:105AA0000B0B01985946C0F14002504600F075F9C1
:105AB00006460D4650465946019A00F08DF910EB06
:105AC00008006141002487EA115284EAE7731A430F
:105AD00040D0009A62B3019A012A4FEA075215DCBE
:105AE000001B61EB02014FF0004202EA0752CDE9D0
:105AF0000042001C41F5801132462B4600F0FCF9B3
:105B000003B0BDE8F08F40462146F9E7001B61EB8A
:105B10000201001C41F5801300185B412018A2F51A
:105B2000001747EB030140EAD570B6196D4111E04B
:105B30006D084FEA360645EAC0754FEA0752001B6A
:105B400061EB0201001C41F5801149084FEA300069
:105B50000019514132462B4603B0BDE8F04F00F02A
:105B6000BCB90098012240000023D0EB020263EB95
:105B7000E073009821464FEAE074B8EB000061EB57
:105B80000401E9E783F000435BE781F0004158E757
:105B90002DE9F04D81EA030404F0004B21F00045AB
:105BA00014464FF0000A23F0004150EA050220D0CD
:105BB00054EA01021DD0C5F30A570246C5F3130388
:105BC000C1F31300C1F30A5640F4801543F4801367
:105BD000A7EB0608101BD64608F2FD3873EB05004C
:105BE00002D308F1010801E092185B41B8F1000FFF
:105BF00003DA00200146BDE8F08D00204FF480114B
:105C0000064684460EE0171B73EB050705D3121BEF
:105C100063EB050306434CEA010C49084FEA3000E8
:105C200092185B4150EA0107EDD152EA030012D00D
:105C300082EA040083EA0501084305D0101BAB414A
:105C400006D20122002306E000224FF0004302E0CA
:105C50006FF0010253101AEB06004CEB085110EBE9
:105C60000A0041EB0B01BDE8F04D00F036B9C10F61
:105C700080EAE0700844CA079623002100F0FFB8CC
:105C80000EB5C10F80EAE0700844CA07002140F257
:105C900033438DE80E000A460B4600F02DF903B0A1
:105CA00000BD70B5C1F30A5201F000450024C1F3F4
:105CB000130140F2FF3341F480119A4201DA0020CF
:105CC00070BD40F233439A42A2F2334203DC5242A7
:105CD00000F072F800E090402C43F1D0404270BDDB
:105CE00000F0004230F000400AD0C10D01F56071B3
:105CF000C0F3160042EA0151C20840071143704741
:105D0000002001467047000030B5041E71F1000408
:105D100004DB4FF00044404264EB0101141E73F1B8
:105D2000000405DB1C464FF00043524263EB0403C2
:105D3000994208BF904230BD2DE9F05F0546002032
:105D400092469B4688460646814640241BE02846EC
:105D500041464746224600F02FF853465A46C01A9D
:105D6000914110D311461846224600F016F82D1A1C
:105D700067EB01084F4622460120002100F00DF894
:105D800017EB00094E41201EA4F10104DFDC484658
:105D900031462A464346BDE8F09F202A04DB203ADC
:105DA00000FA02F1002070479140C2F1200320FA6E
:105DB00003F3194390407047202A04DB203A21FA6C
:105DC00002F00021704721FA02F3D040C2F1200214
:105DD0009140084319467047202A06DBCB17203A2A
:105DE00041FA02F043EAE07306E041FA02F3D040E0
:105DF000C2F1200291400843194670472DE9F0474F
:105E000091460F4680460446002614F8015B2DB1EA
:105E100000F024F90068405DC007F6D12B2D02D0B8
:105E20002D2D18D0641E4A463946204600F01AF936
:105E300027B13968A14201D1C7F8008071054FF040
:105E400002040BD54042002803DD18F011F804606D
:105E5000A007BDE8F08746F48066E4E70028F8DA9A
:105E600018F006F804606FF00040F2E70029A8BFC0
:105E70007047401C490008BF20F00100704710B473
:105E8000B0FA80FC00FA0CF050EA010404BF10BC28
:105E9000704749B1CCF1200421FA04F411FA0CF155
:105EA00018BF012121430843A3EB0C01CB1D4FEA8E
:105EB00000614FEA102042BF002010BC704700EB89
:105EC000C35010440029A4BF10BC7047401C4900B7
:105ED00008BF20F0010010BC704710B5141E73F10C
:105EE000000408DA401C41F1000192185B411A439A
:105EF00001D120F0010010BD2DE9F04D92469B46E6
:105F000011B1B1FA81F202E0B0FA80F2203290468B
:105F1000FFF743FF04460F4640EA0A0041EA0B013F
:105F200053465A46084313D0114653EA010019D08C
:105F3000C8F140025046FFF73FFF05460E46504667
:105F400059464246FFF729FF084305D0012004E0E7
:105F500020463946BDE8F08D0020054346EAE0764C
:105F60002C4337430A986305E40AA0EB080000229B
:105F7000FD0A44EA47540A3002D500200146E9E709
:105F8000010510196941DDE9084500196941BDE8BD
:105F9000F04DA2E72DE9F04D00231A461B1A8A4165
:105FA00003DB00200146BDE8F08DC1F30A52C1F3C6
:105FB000130141F480154FF0000BD10702D10018F6
:105FC0006D41521E0027044640F2FF11384601EB96
:105FD000620A3E468046024600204FF48011FFF7D9
:105FE000EBFEC2197141BB1846EB0100B4EB030C88
:105FF00075EB000C04D3E41A65EB000517460E465A
:10600000241908F101006D4180463428E3DDF919B7
:1060100046EB0600091BA84103D24FF0FF3213469E
:1060200001E0002213461BEB070046EB0A51BDE8D6
:10603000F04DFFF752BF0000064C074D06E0E06848
:1060400040F0010394E8070098471034AC42F6D3BF
:10605000FFF772FCA4D20308C4D2030800487047BB
:10606000E8C903082DE9F05F82460078002715464D
:106070008B460AF10104B946302801D09DB113E0E6
:1060800014F8010B0127782803D0582801D045B116
:106090000AE00DB1102D07D10027102514F8010BCF
:1060A00002E0082500E00A250026B0460EE005FBC8
:1060B000080005FB06F1012701EB10461FFA80F8E6
:1060C000B6F5803F00D3B94614F8010B294600F01D
:1060D00018F80028EBDABBF1000F05D00FB1641EF1
:1060E00000E05446CBF80040B9F1000F06D017F09D
:1060F000BFFE02210160C81EBDE8F09F48EA0640CD
:10610000FAE73A2800D2303820F02002412A01D3A1
:10611000A2F13700884201D34FF0FF30704770B5CD
:106120008C1810F8015B15F0070301D110F8013B42
:106130002A1106D110F8012B03E010F8016B01F8C9
:10614000016B5B1EF9D12B0705D40023521E0DD421
:1061500001F8013BFAE710F8013BCB1A921C03E06F
:1061600013F8015B01F8015B521EF9D5A142D8D3A7
:10617000002070BD002800DC404270470749002025
:10618000C1F8A4010120C1F8AC010549C1F89C0186
:106190000449C1F88C01C1F89801FEE700002442CF
:1061A00000002242008022422DE9F05FDFF8FCE08F
:1061B0004FF0000C67469EF800104FF0010A3C4D6E
:1061C0003C4EE346DFF8F080DFF8F09007E037B1AF
:1061D000012F0BD0022F12D0032F21D118E0C5F8C8
:1061E000A4B1C6F88CA1C5F894A10EE0C5F8A4A18D
:1061F000C6F88CB1C5F894A1C5F898A110E0C5F80F
:10620000A4A1C6F88CA1C5F894B1C5F898A107E07F
:10621000C5F8A4A1C6F88CA1C5F894A1C5F898B199
:106220000020401CC0B20A28FBD3002009EB8703E2
:106230000FE070B1012808BFD5F828210BD0022843
:1062400008BFD6F8182106D0032808BFD8F81821AF
:1062500001E0D5F82C215CEA020408BF195C401C5F
:10626000C0B20428E5D3781CC7B2042FAFD31448BA
:1062700074468EF8001071B1627892B90068626855
:10628000801A64280DD9617018F036FF84F800B0C8
:106290006078BDE8F09F617819B10068606084F8AB
:1062A00001B08EF800B00020BDE8F09F380000205B
:1062B00000002442008022420000224298F501089A
:1062C0001800002010B501200CF02CFBBDE8104098
:1062D00000200CF027BB81B000F1804000F5D840D1
:1062E0000090008801B0704781B000F1804000F557
:1062F000D8400090016001B0704700002DE9F041E6
:10630000ADF5187D0021AD4809F010FF4FF4407045
:1063100009F002FFAA484FF47A7100250068B0FB2B
:10632000F1F0411EB1F1807F09D24FF0E0204161D0
:10633000A44AF02182F8141D856107210161012121
:1063400040200CF0B3FA03F04BFC05F0F3F8042006
:1063500012F082F89C480AF0B3FC012011F0B8F961
:1063600005F0A8FF012005F0E3FE022005F05EFE27
:106370000EF0ACFC02200090142380224FF49671A2
:1063800048200AF0ECFB0646002390A25021B420DE
:1063900007F09AFA012130460AF0A0FC012004F02F
:1063A0002FFC4FF4614018F0C7FFDFF838824046F9
:1063B00005F0F8FD8C4F3878002800F0E7800128C0
:1063C00000F0EA80FF2005F0EDFDDC22502187A0DF
:1063D00004F0D4FCCC23322287A102A817F034FDAC
:1063E00002A8CDE90005DC224FF4F07351000A2029
:1063F0000CF042FA0EF0C4FCA0F56F41163908BF4C
:1064000008F088FF1E2130460AF068FC7D480068CD
:1064100008F0F6FF4FF0FF1005F0C4FD01247AA04C
:10642000CDE9000432234FF487720F2100200CF0D5
:1064300023FA6FF07F4005F0B5FD7AA0CDE90004A6
:1064400019234FF487726FF0090100200CF014FA41
:10645000784805F0A7FD4FF4165018F0C9FE4FF428
:10646000E13018F00FFF39787348744F002918BFD6
:10647000C7F88C41C7F89441C0F8844118BFC7F8E9
:1064800098414FF40A716E48FFF7A8FA0DF03EFDEF
:1064900001466C482A2977D00570FF2005F082FD5F
:1064A00069A000BF17F0C0FCDC224FF4C8716AA0DD
:1064B00004F064FC142130460AF010FC012004F0C2
:1064C0009FFB0CF03DFC6648C0F884414FF4F0722D
:1064D00064491CA8FFF75AFA012148070CF0F2F9A9
:1064E000012105200CF006FA2020ADF8000018204C
:1064F0008DF8030003208DF8020069465A4803F026
:1065000027FD012102200CF0D1F900F08FFE94A8A4
:1065100000F0BDFE9495959594A91020979500F0F4
:1065200091FE0121102000F02DFEC7F88C414F484C
:106530000AF0E6FC2824214630460AF0CFFB14205E
:1065400004F05EFB611C0CB2502CF4DB09F0D0FBB4
:10655000304611F00DFD04F091FE4FF47A7004F016
:106560004FFB434845F2555101600521416040F61B
:10657000C31181604AF6AA2101604CF6CC4101604A
:106580000DF5187DBDE8F0810DE000BF4FF4E67217
:106590000A2138A004E000BF4FF4E6720A2137A0B8
:1065A00004F0ECFB16E70470404605F0FBFC00220B
:1065B0000BA1234818F02AF832A073E7005800080E
:1065C000000000200FE000E03D0C0108303A616E51
:1065D000692F41303030302F303032382E626D70BC
:1065E0000000000080FF80003811002048573A204A
:1065F000556E6B6E6F776E005625642E25303364B2
:10660000000000003C110020D8B3D98AD985D8B148
:10661000D8BA20D8ACD987D8A7D986DAAFD8B3D81A
:10662000AAD8B100D8B4D987D8B1D8A8D8A7D8B239
:10663000D98A000000FFFF00000021420000234231
:10664000401400204D1100200A0D4D6963726F53F4
:1066500044204552524F52004D6963726F534400BB
:1066600000002242A4F3010800080140247200083F
:106670000030004048573A205631000048573A2031
:10668000563200000A0D4D6963726F5344204F4B20
:1066900000000000FEE700007CB5214C05462168A3
:1066A00031F8220F4A8D104408804888CA8D104462
:1066B0004880284604F0DEFE2168498CADF80010C1
:1066C0004618284606F09EFE3044401EADF80400F1
:1066D00004F0F0FE2168898CADF802100844401ED9
:1066E000ADF80600684612F051F804E0284602F0C2
:1066F00019FF12F00DF80028F8D10A2D04D0BDF8CA
:1067000004002168401C4884206830F8221F428D14
:10671000891A01804188C28D891A41807CBD0000A0
:10672000041200202DE9F04F88468246914604214C
:10673000052000F06DFC80210A200FF0DBFA002517
:10674000274C01272E46B8F1000F0FD91AF805B0D3
:10675000C4F8B461122018F0FBFC584618F0F8FC9D
:10676000C4F8B471681CC5B2A845EFD80325C4F8B5
:10677000B461022018F0ECFC284618F0E9FCC4F8DB
:10678000B471FF254FF08A08C4F8B461404618F090
:10679000DFFC002018F0DCFCC4F8B471691E11F0B5
:1067A000FF0502D010F0040FEED0C4F8B461C4208D
:1067B00018F0CEFC002018F0CBFCC4F8B47189F8B6
:1067C0000000C4F8B461C22018F0C2FC002018F028
:1067D000BFFCC4F8B47189F80100BDE8F08F000077
:1067E0000000244210B582B00122002113A007F05E
:1067F000E1F9040004BF02B010BD0122002113A082
:1068000007F0D8F9002804BF02B010BD844208D1B7
:106810001348C4640EF0DEFD012009F091FC02B0C3
:1068200010BD04214FF47A70CDE90001002301224C
:106830000CA1184610F0D0FA02B010BDD8B1D9851D
:10684000D8B220D8ACD8AFD98AD8AF00D8AADAA9A4
:10685000D8B1D8A7D8B120D8B1D985D8B200000016
:10686000D8570020D8B1D985D8B220D8A7D8B4D865
:10687000AAD8A8D8A7D98720D8A7D8B3D8AA000063
:1068800010B5054C002205A0D4F8AC1307F092F91E
:10689000C4F8AC0310BD0000D8570020D981D8B986
:1068A000D8A7D98420D8A8D988D8AFD98620D8B17C
:1068B000D984D987202D20D985D98AD984D98A200D
:1068C000D8ABD8A7D986D98AD987000010B50A4C89
:1068D00004F2E230FFF7A8F80146002207A007F013
:1068E00069F902460AA104F2E23017F0ADFA01207C
:1068F00009F026FC10BD0000D8570020D8B1D9857A
:10690000D8B220D988D8A7D98AD981D8A7D98A005E
:106910002564000030B5144C144A83B0FB2804BF32
:10692000A1F56853B3F1A50315D05268824202BFA6
:10693000002003B030BDC1F312030DA20A21CDE93E
:10694000001202460021022010F006F80320A06287
:1069500003B0012030BD01250020D56409F0F0FB13
:106960000EF038FDA562F3E754110020D85700203F
:10697000000000002DE9F04F6748002483B0017843
:106980002646002902BF002003B0BDE8F08F634D0A
:106990002978AA294BD1296A002918BFB1F1FF3FF4
:1069A00045D05F4900270F805E490F700770202196
:1069B0005D48FFF713F80EF025F900200EF032F9CC
:1069C000642004F01DF9584A202100200EF02EFD0D
:1069D0000EF018F934200EF025F9642004F010F9B7
:1069E00000970023012251A10220019710F0F4F931
:1069F0004A48DFF85891016AD9F8080081421AD054
:106A000000230097012252A11846019710F0E4F9E3
:106A1000424847624FF4FA60C9F8087004F0F0F891
:106A200054490320086003B00120BDE8F08F03B093
:106A30000120BDE8F08F0025DFF8EC80002884BF3E
:106A40004AF6AA2ADFF830B119D900BFCBF800A066
:106A50004FF4806205F5007133480EF067F9D9F8FC
:106A6000081000206D1C18F80020401C1644224419
:106A700094B28D4203D2B0F5806FF3D1E6E7274D93
:106A8000686AB04215D00023009701223BA1184646
:106A9000019710F0A1F96F624FF4FA60C9F808701D
:106AA00004F0AEF833490320086003B00220BDE8CB
:106AB000F08FC22088F8000088F80140200A88F88A
:106AC000020008F10301D9F8080007F057FC55202F
:106AD00088F807000EF096F800200EF0A3F8642066
:106AE00004F08EF8104A202100200EF09FFC0EF0DA
:106AF00089F834200EF096F8642004F081F8002321
:106B000000971A4625A10220019710F065F940F67A
:106B1000B83004F075F8FEE755110020EC72002043
:106B2000641100205E1100203C6C0020D8A8D8B170
:106B3000D8B1D8B3D98A20D986D8B3D8AED98720CE
:106B4000D8ACD8AFD98AD8AF00000000A811002077
:106B5000D8AED8B7D8A720D8AFD8B120D8ADD8AC48
:106B6000D98520D8A7D8B7D984D8A7D8B9D8A7D8D5
:106B7000AA0000007C11002000300040D8AED8B739
:106B8000D8A720D8B5D8ADD8AA20D8A7D8B7D98447
:106B9000D8A7D8B9D8A7D8AA00000000D8A8D8B1DB
:106BA000D986D8A7D985D98720D8ACD8AFD98AD8E3
:106BB000AF20D8AFD8B1D98AD8A7D981D8AA20D840
:106BC000B4D8AF002DE9F0470E46904601034FF4CC
:106BD00080521D480EF0AAF800241B4F002E88BFDB
:106BE0004FF6FF7917D93D19FA222946002017F0F0
:106BF0001FFC95F8FB1095F8FA2009EA01211144D1
:106C000089B2814202D00120BDE8F08704F580708E
:106C100084B2B442E7D3B8F1000F18BF00200FD000
:106C200031187A5CFF2A03D139444978FF2902D010
:106C30000220BDE8F087801C80B2B0F5807FEFD3E2
:106C40000020BDE8F08700001C3B0020F0B5B14CEF
:106C50000325B5B060780A282ED0AF48006808F048
:106C6000CFFBAE4805F09EF91C2340F20712052128
:106C7000EE20009504F08CFBA94805F093F902235F
:106C80000622F021607803F0D9FFA649002081F8A0
:106C9000C70181F8B70181F8D70181F8E701607871
:106CA0000B2824BF35B0F0BDDFE800F038444C5C61
:106CB0006B8097DBF4F2F1009B4805F073F91C231D
:106CC00040F207120521EE20009504F061FB974881
:106CD0000068002814BF4FF40040FF2005F062F95F
:106CE00004221021F42004F0E3FA0B234FF4807205
:106CF0001021F42004F0F0F904220B21900104F09B
:106D0000D7FA16234FF480721021F42004F0E4F92E
:106D100004221621900104F0CBFAB6E7844D00203E
:106D2000C5F88401642005F5C27503F069FF0120F0
:106D3000286013E07FA1814810F06EFE80A007F06C
:106D4000D3F80BE07FA17D4810F066FE7CA007F031
:106D5000CBF8002818BF002040F0AF806078401CBE
:106D600000F0ABB800252561744EE56079A130468E
:106D7000656110F051FE2561E5607AA130466561DC
:106D800011E000202061E06060617A480090A0F589
:106D9000EC7000F5E47300F5D47277A102A817F047
:106DA00053F802A9654810F037FED7E75D48002583
:106DB0002561E56000F2E23300F56C7275A102A86E
:106DC000656117F041F802A95C4810F025FE607873
:106DD000401C6070A57035B0F0BD00252561734E74
:106DE000E560564F6561357071A1384610F014FEAC
:106DF00073A007F079F8002808BFA570AED06B48E3
:106E000072A1FEF7F6FD18B972A1FEF7F2FDD8B136
:106E1000A178491CC9B2A1700A299CBF35B0F0BD48
:106E20006CA1FEF7E6FD002802BF657035B0F0BD2D
:106E30002561E560656135705DA1384610F0ECFDB7
:106E4000A570657035B0F0BDA078401CC0B2A070D0
:106E500003289CBF35B0F0BD09206070A57035B027
:106E6000F0BD00202061E06060612E4842F24E7368
:106E700000F5DC72C0F8E83157A102A816F0E4FF73
:106E800002A92E4810F0C8FD6078401C15E035E0DE
:106E900016E0FFE757A007F027F848B1A078401C9C
:106EA000C0B2A0700A288EBF062035B0F0BD04E045
:106EB00028A1224810F0B0FD0920607035B0F0BD67
:106EC000002525611D4EE56026A13046656110F064
:106ED000A3FD1BA007F008F825613448E560656153
:106EE000057046A1304610F097FD48A006F0FCFF63
:106EF0006078401C6070A56035B0F0BD0120207046
:106F0000A068401CA060102884BF00202070D4D846
:106F100035B0F0BD20110020441100204040400059
:106F200080FF8000D857002000FFFF007411002070
:106F300000002242415445300A0D00000048004044
:106F40004F4B000041542B4349504D55583D300A9A
:106F50000D00000041542B43574D4F44453D310A2D
:106F60000D00000041542B4349504D4F44453D31E5
:106F70000A0D0000B059002041542B43495053548E
:106F8000413D222573222C222573222C2225732297
:106F90000A0D000041542B43574A41503D222573AE
:106FA000222C222573220A0D00000000284F002009
:106FB00041542B4349505354415455530A0D00003A
:106FC0005354415455533A32000000005354415435
:106FD00055533A006275730041542B434950535442
:106FE0004152543D22544350222C222573222C25F9
:106FF000640A0D00434F4E4E4543540041542B4309
:10700000495053454E440A0D000000003E00000068
:107010002DE9F041114D00260F460446C5F8B46134
:10702000802040EA4400C0B205F5DA7518F090F807
:10703000002018F08DF84FF00108C5F8008020EA14
:1070400007072E607E2000EA440018F081F83846D9
:1070500018F07EF8C5F80080BDE8F08100002442F9
:1070600070B5464905462A24486B10F0450F03D1F8
:10707000486B10F0450FFBD010F0040F05D003242F
:1070800004200CF009FD204670BD10F0010F05D062
:10709000012420460CF000FD204670BD0CF03CFDA4
:1070A000A84234D140F2FF500CF0F6FC00200CF066
:1070B00055FD334908425ED010F0004F1CBF1C2024
:1070C00070BD10F0804F1CBF092070BD10F0005F34
:1070D0001CBF0A2070BD10F0805F1CBF0B2070BD6C
:1070E00010F0006F1CBF0C2070BD10F0806F1CBF33
:1070F0000D2070BD10F0807F1CBF0E2070BD10F4FD
:10710000000F1CBF0F2070BD10F4800F01D01020A5
:1071100070BD10F4001F1CBF112070BD10F4801F43
:107120001CBF122070BD10F4002F1CBF132070BDB7
:1071300010F4802F1CBF142070BD10F4003F1CBF42
:10714000152070BD10F4803F1CBF162070BD10F4D8
:10715000004F1CBF172070BD10F4804F1CBF1820BB
:1071600070BD10F4005F1CBF192070BD10F0080F37
:107170001CBF1A2070BD204670BD00000080014079
:1071800008E0FFFD054A012303FA00F00029116819
:1071900014BF084321EA00001060704700740040EB
:1071A00000B5FDB04FF4F0721B496846FEF7EEFBE8
:1071B000012148070BF086FB012105200BF09AFB0B
:1071C0002020ADF8F00118208DF8F30103208DF890
:1071D000F2017CA9114802F0BBFE012102200BF054
:1071E00065FB00F023F878A800F051F800207890B3
:1071F00079907B9078A9102000F024F801211020CC
:10720000FFF7C0FF06490120C1F88C0105A009F075
:1072100077FE7DB000BD0000A4F301080008014026
:107220000000234231322E776176000010B5012133
:1072300048070BF053FBBDE8104000214FF0005011
:107240000BF04CBB0B4B10B41A6840F6FE7C0CFAEA
:1072500000FC22EA0C02D1E900C44CEA040CD1E99A
:10726000024121434CEA010101FA00F01043186089
:1072700010BC704700740040A0F6EC3081B000F103
:10728000804000F500400090016001B0704700218F
:10729000016041608160C1607047000010F0805F54
:1072A00019BF02490860024948607047040402405F
:1072B000000002400029016812BF41F001014FF6B1
:1072C000FE72114001607047002110F0805F14BF12
:1072D000034A044A1268024218BF01210846704757
:1072E000000402400000024010B40268D1F820C03F
:1072F0008B686FF30E1243EA0C03D1E904C44CEA25
:10730000040C43EA0C03D1F818C043EA0C03D1F88B
:107310001CC043EA0C03D1F824C043EA0C03D1F8A3
:1073200028C043EA0C031A430260CA6842600A6834
:1073300082604968C16010BC704770472DE9F00F4A
:10734000C37890F802C084790CEB032390F801C055
:10735000857A0CEB032390F800C0867B0CEB0323AB
:10736000D1F8A0C083EA0C0390F807C004EB0C2C02
:10737000447904EB0C2C047904EB0C2CD1F8A440D8
:107380008CEA040CC47A4FEA1C6905EB0424457AA4
:1073900005EB0424057A05EB0424D1F8A8506C40D1
:1073A000C57BC4F3074806EB0525467B007B06EB4F
:1073B000052500EB0520D1F8AC50DEB24540FC4875
:1073C000C5F307274FEA156B50F8266050F8277071
:1073D00050F8288086EA376650F8299086EA3846C1
:1073E00086EA3926D1F89070C3F307287E4050F81A
:1073F00028900CF0FF07C5F3074850F8277050F8A5
:1074000028A04FEA146887EA396750F8288087EA8D
:107410003A4787EA3827D1F89480CCF3072987EADE
:10742000080704F0FF08C3F3074A50F8288050F813
:10743000299050F82AA050F82BB088EA396888EAD9
:107440003A4888EA3B28EDB2C4F30724CCF3074C52
:1074500050F8255050F824401B0E50F82CC050F81E
:10746000233085EA346484EA3C4C8CEA3323D1F837
:107470009CC0D1F8989083EA0C04F3B288EA09081A
:1074800050F823C0C4F307234FEA146B50F823903D
:10749000C8F307438CEA396C50F823503B0E8CEA52
:1074A000354C50F82330C4F307498CEA3323D1F824
:1074B00080C0C6F3072583EA0C0307F0FF0C50F8E1
:1074C000255050F82CC050F829A08CEA356C8CEA75
:1074D0003A4C4FEA1869D1F8845050F82990C6F315
:1074E000074A8CEA392C8CEA050C08F0FF05C7F333
:1074F0000729E4B2C8F3072850F8244050F8288040
:1075000050F8255050F82990C7F3074784EA3864AB
:10751000360E50F82AA085EA396550F8277050F8E1
:107520002BB050F8266085EA3A45D1F8889084EA75
:10753000374485EA3B2584EA362485EA0905D1F8F3
:107540008C60C5F30748744050F82890DEB2C4F34D
:1075500007274FEA1C6850F8266050F8277050F84B
:10756000288086EA376686EA39460F6F86EA38262B
:107570007E400CF0FF074FEA146B50F82780C3F3EE
:10758000072750F82BB050F82790C4F3074788EA34
:10759000396850F827A02F0E88EA3A4850F827702B
:1075A000CCF3072988EA3727D1F87480E4B287EA58
:1075B000080705F0FF08C5F30725C3F3074ACCF316
:1075C000074C50F8244050F825501B0E50F82CC0A2
:1075D00050F8233084EA356484EA3C4C8CEA332347
:1075E000D1F87CC050F8288050F8299083EA0C0428
:1075F000F3B250F82AA088EA396850F823C088EA24
:107600003A48D1F87890C4F3072388EA3B2888EAFF
:10761000090850F82350C8F307434FEA176950F898
:1076200023308CEA356C50F829908CEA3343D1F83A
:1076300060C083EA392383EA0C0307F0FF0C50F89B
:107640002C50C6F3072C50F82C90C4F3074C85EA55
:10765000396550F82CA04FEA186C85EA3A4550F885
:107660002CC0C7F3072985EA3C2C4D6E50F82990B1
:107670008CEA050C08F0FF05C6F3074A50F82550C0
:107680004FEA146BE4B2C8F30728C7F3074750F872
:10769000244050F82880360E50F8277050F82660A5
:1076A00084EA386484EA374484EA3624CE6E50F89B
:1076B0002AA085EA396550F82BB0744085EA3A452E
:1076C000D1F8689085EA3B25DEB2C4F3072785EA46
:1076D000090550F8266050F82770C5F307484FEAAF
:1076E0001C6950F8288086EA376650F8299086EAA7
:1076F00038460F6D86EA39267E400CF0FF074FEAC8
:10770000146B50F82780C3F3072750F82BB050F8BC
:107710002790C4F3074788EA396850F827A02F0E4E
:1077200088EA3A4850F82770CCF3072988EA3727C7
:10773000D1F85480E4B287EA080705F0FF08C5F3E2
:107740000725C3F3074ACCF3074C50F8244050F800
:1077500025501B0E50F82CC050F8233084EA3564B5
:1077600084EA3C4C8CEA332350F8288050F8299066
:10777000D1F85CC050F82AA088EA396883EA0C0482
:10778000F3B288EA3A48D1F8589088EA3B2850F892
:1077900023C088EA0908C4F30723C8F307454FEA62
:1077A000176950F8233050F8255050F8299001E01F
:1077B000140900208CEA336383EA3543D1F840C0D2
:1077C00083EA392383EA0C0307F0FF0C4FEA146BBA
:1077D00050F82C50C6F3072C50F82BB050F82C90D2
:1077E000C4F3074C85EA396550F82CA04FEA186CB1
:1077F00085EA3A4550F82CC0C7F3072985EA3C2CA6
:107800004D6CC6F3074A8CEA050C08F0FF05E4B29C
:10781000C8F30728C7F3074750F8244050F82880DA
:10782000360E50F8277050F8266084EA386484EAEF
:10783000374450F8255050F8299084EA3624CE6C0D
:1078400050F82AA085EA3965744085EA3A45D1F8AE
:10785000489085EA3B25DEB2C4F3072785EA09058F
:1078600050F8266050F82770C5F307484FEA1C69A6
:1078700050F8288086EA376650F8299086EA38461C
:107880000F6B86EA39267E400CF0FF0750F8278000
:10789000C3F3072750F82790C4F3074788EA3968ED
:1078A00050F827A02F0E88EA3A4850F82770CCF3FA
:1078B000072988EA3727D1F8348050F8299087EAD9
:1078C000080705F0FF08C3F3074A50F828804FEA7D
:1078D000146BE4B2C5F30725CCF3074C50F82440F1
:1078E00050F825501B0E50F82CC050F8233084EA75
:1078F000356484EA3C4C8CEA3323D1F83CC050F820
:107900002AA088EA396850F82BB083EA0C0588EA87
:107910003A48D1F8389088EA3B28F3B288EA090857
:1079200050F82340C8F3074CC5F3072350F82C90B8
:1079300050F823304FEA176C84EA336350F82CC0B8
:1079400083EA394383EA3C23D1F820C083EA0C045C
:10795000FBB250F823A0C6F3072350F823C0C5F3A9
:1079600007438AEA3C6C50F823904FEA18638CEA8C
:10797000394C50F823308CEA3323D1F824C083EA01
:107980000C0308F0FF0C50F82C90C7F3072CC7F33A
:10799000074750F82CA0C6F3074C89EA3A6950F81B
:1079A0002CB04FEA156C89EA3B4950F82CC0EDB277
:1079B00089EA3C2CD1F82890360E8CEA090C50F854
:1079C0002590C8F3072550F8277050F8255050F837
:1079D000266089EA356585EA374585EA3625CE6A27
:1079E00085EA0608E5B250F82550C8F30726CCF31F
:1079F000074750F8266050F827901F0E85EA366535
:107A000050F8277085EA39450E6985EA37257540B3
:107A1000DEB2C8F3074950F82670C4F307264FEAD0
:107A20001C6A50F8266050F8299087EA366650F8AC
:107A30002AA086EA39464F6986EA3A267E400CF04B
:107A4000FF07CCF3072C50F82790C3F30727C3F3A5
:107A5000074350F827A0C4F3074750F82CC050F84C
:107A600027B04FEA186708F0FF0850F8277050F861
:107A70002880240E50F8233050F8240088EA3C6C0B
:107A80008CEA334383EA3020CB6989EA3A6989EA90
:107A90003B4980EA030889EA37274448D1F818901F
:107AA000EBB287EA0907C8F3072CC7F3074450F87D
:107AB000233050F82CC050F82490340E83EA3C63F5
:107AC00050F8244083EA394383EA3423C5F307247A
:107AD000D1F800C050F8249083EA0C03C8F307449F
:107AE00006F0FF0C50F824A050F82CC03C0E8CEA95
:107AF000396C50F824408CEA3A4C8CEA342C4C68AF
:107B00008CEA040CFCB2C7F3072750F82490C6F3A4
:107B10000724C6F3074650F824A0C5F3074489EAB2
:107B20003A6950F824B04FEA186408F0FF0850F89A
:107B3000244089EA3B492D0E89EA342450F82880F4
:107B400050F8277050F82660D1F8089050F82500BA
:107B500088EA376585EA3645C96885EA30204840B5
:107B6000190ED170190C9170190A517013704FEAE7
:107B70001C61D1714FEA1C4191714FEA1C21517176
:107B800084EA090482F804C0210ED172210C91729A
:107B9000210A51721472010ED173010C9173010A02
:107BA00051731073BDE8F00F70470000140D0020F2
:107BB0002DE9F0478046494882B0914600780F464B
:107BC00000281CBF02B0BDE8F087DFF814A15046C2
:107BD00004F0E8F9434D03240094287840F2DB12C6
:107BE00000F20F1300F1FA0140F2451003F0D0FB50
:107BF0004FF6FF7004F0D6F90094287840F2DB12BB
:107C000000F20F1300F1FA0140F2451003F0EEFA12
:107C10006FF07F4004F0C6F90226CDE9009640F2ED
:107C20000F1340F2DB12F02140F245100AF024FE5F
:107C3000504604F0B7F90094287840F23B1200F265
:107C40000F1300F1FA01A52003F0A2FB4FF6FF701D
:107C500004F0A8F90094287840F23B1200F20F13C8
:107C600000F1FA01A52003F0C1FA6FF07F4004F0A3
:107C700099F9CDE9007640F20F1340F23B12F02162
:107C8000A5200AF0F9FD504604F08CF900942878FC
:107C90009B2200F20F1300F1FA01052003F078FB9C
:107CA0004FF6FF7004F07EF9009428789B2200F2D2
:107CB0000F1300F1FA01052003F098FA6FF07F40EE
:107CC00004F070F9CDE9008640F20F139B22F021F9
:107CD00005200AF0D1FD02B0BDE8F0873811002080
:107CE000006C0B00501100202DE9F04F83B09A4634
:107CF000164689468346072A0FD22EB1062E08BFA4
:107D0000B9F1070F03D004E0B9F1070F01D34FF029
:107D1000010A0027002425468FE0B01F4FF0010A1A
:107D2000C7B2F7E72234BAF1000F04D17819B04294
:107D300018BF48457BD17819B04210D10620454A7A
:107D400000904549CDE9011204F121034FF48772F7
:107D5000A11C002003F030F94FF6FF701CE000205A
:107D600004F020F90620009004F120034FF48772FC
:107D7000E11C002003F00CFB6FF07F4004F012F9CF
:107D80000620009004F121034FF48772A11C00200B
:107D900003F02CFA4FF47F4004F004F998F81C002B
:107DA00018B3642816D3A0F16401012088402B4940
:107DB00080B24FF001030978884305D028A2A11DA5
:107DC000E62005F081FD16E026A2A11DE62005F0C3
:107DD0007BFD10E021494FF001030978884205D16D
:107DE00021A2A11DE62005F06FFD04E01FA2A11D48
:107DF000E62005F069FD1E48D8F810C00023017880
:107E0000ADF80030601A00F123020844ADF802001A
:107E10004FF482738818ADF804304FF00108ADF8C4
:107E20000600434642466946604602F0AFFF6D1CBD
:107E3000072DA4BF03B0BDE8F08FE8190BEB401885
:107E4000D8F80000007800287FF46CAF03B0BDE8DC
:107E5000F08F00000028280000DCDC00A4110020C6
:107E600030313000303131003031350030313400C4
:107E7000501100202DE9F04F83B09A4616468846EF
:107E800081460C2A0FD22EB10B2E08BFB8F10C0F71
:107E900003D004E0B8F10C0F01D34FF0010A002722
:107EA00000252C4641E0A6F10B004FF0010AC7B2B5
:107EB000F6E72335BAF1000F04D13819B04218BFE4
:107EC00040452CD13819B0420CD11D491D48CDE98F
:107ED000000105F124034FF488722946002003F0C5
:107EE000A1F80CE06FF07F411748CDE9000105F1E2
:107EF00024034FF488722946002003F093F80020F1
:107F000004F050F80C2109EB4B00CDE9000105F11C
:107F100023034FF48772294600200AF0ADFC641C4D
:107F20000C2CA4BF03B0BDE8F08FE019C0EB001B20
:107F300019F81B000028BCD103B0BDE8F08F000089
:107F400041ACFF000160F700E4DFDA0000B583B068
:107F50000CF058FE00200CF065FE642002F050FE8C
:107F6000012200210FA005F025FE39284FF0000066
:107F70001CBF03B000BD0090002301901A4612A15F
:107F800018460EF029FF0CF061FE07F04FFB0CF0D5
:107F900039FE34200CF046FE642002F031FE03B0BE
:107FA00000BD0000212121D8ADD8A7D981D8B8D9EA
:107FB0008720D9BED8A7DAA920D985D98A20D8B4F4
:107FC000D988D8AF21212100D8A2D985D8A7D8AF88
:107FD000D98720D8B3D8A7D8B2D98A20D8ADD8A706
:107FE000D981D8B8D98700002DE9F05F354D364CDE
:107FF000364FA87800264FF002084FF00E094FF0D8
:10800000040A4FF0630B80B16878002808BFBDE810
:10801000F09F282028702E480078AA281CBF2E70B8
:108020006E702AD00120BDE8F09F84F8008084F8AB
:1080300001903888A070000AE07084F804A066718E
:1080400084F806B0A020E071267266720922611CD5
:10805000002016F0EDF9A072000AE07203202073F0
:1080600019490D200FF002FE0120A880A8780028F1
:108070001CBF68780028CCD1D4E7A8880028D1D0CC
:1080800084F8008084F801903988A170090AE170B1
:1080900084F804A0667184F806B0A021E171207212
:1080A000000A60720922611C002016F0C1F9A0725A
:1080B000000AE0720320207303490D200FF0D6FD63
:1080C000B0E70000A81100203C6C0020D857002029
:1080D000EC7200200248002181604160C16070475D
:1080E000800000202DE9F00FC37890F802C0847959
:1080F0000CEB032390F801C0857A0CEB032390F876
:1081000000C0867B0CEB0323D1F800C083EA0C038C
:1081100090F807C04FEA136A04EB0C2C447904EB87
:108120000C2C047904EB0C2C4C688CEA040CC47AFB
:10813000CCF3072705EB0424457A4FEA1C6B05EBCB
:108140000424057A05EB04248D686C40C57B06EB9E
:108150000525467B007B06EB052500EB0520CD6859
:10816000DEB24540FB484FEA156950F8278050F8C9
:108170002660C4F3074786EA386650F8277050F83F
:10818000299086EA37460F6986EA39267E400CF048
:10819000FF07C4F3072850F8277050F82880C5F36C
:1081A000074987EA386750F8299050F82AA087EAEB
:1081B0003947D1F8148087EA3A2787EA080704F09C
:1081C000FF08C5F30729C3F3074A50F8288050F881
:1081D000299050F82AA050F82BB088EA396888EA2C
:1081E0003A4888EA3B28EDB2C3F3072350F82550FC
:1081F00050F82330CCF3074C240E50F82CC085EAFD
:10820000336350F8244083EA3C43D1F81CC083EA2E
:10821000342383EA0C04F3B2D1F8189050F823C049
:10822000C7F3072388EA090850F82330C8F3074545
:108230004FEA146950F825508CEA336350F82990BE
:1082400083EA354383EA3923D1F820C0C4F30749D0
:1082500083EA0C0307F0FF0C50F8299050F82C50DB
:10826000C8F3072C4FEA166A50F82CC050F82AA021
:1082700085EA3C6C8CEA394C8CEA3A2CC4F3072929
:108280004D6AC6F3074A8CEA050C08F0FF054FEA71
:10829000176BE4B2C6F3072650F8244050F8266066
:1082A000C7F3074750F8255050F8299050F8277029
:1082B0004FEA186884EA366450F82AA085EA3965DE
:1082C00050F8288084EA374450F82BB085EA3A45C4
:1082D000D1F8289084EA3824CCF3072785EA3B2597
:1082E00085EA0905CE6A50F82780C5F30747744030
:1082F00050F82790DEB2270E50F8266050F827700D
:1083000086EA386686EA394686EA37260F6BC5F371
:1083100007287E400CF0FF0750F8289050F827708F
:10832000C4F3074887EA396750F828804FEA136A90
:1083300087EA384750F82AA0D1F8348087EA3A27EC
:10834000C4F3072987EA0807C3F3074A05F0FF08C3
:108350004FEA1C6BE4B2C3F30723CCF3074C50F88D
:10836000244050F8233050F82CC02D0E84EA33639B
:1083700050F8288050F8299050F8255083EA3C4363
:10838000D1F83CC050F82AA088EA396883EA35233E
:1083900083EA0C0488EA3A48F3B250F82BB0D1F8DB
:1083A000389050F823C088EA3B28C7F3072388EAAF
:1083B000090850F82350C8F307438CEA356C50F88D
:1083C00023304FEA14698CEA334350F82990D1F8EE
:1083D00040C083EA392383EA0C0307F0FF0CC8F39B
:1083E000072550F82CC050F82550C4F307494FEA30
:1083F000166A50F829908CEA356C50F82AA08CEA5D
:10840000394C4D6C8CEA3A2C8CEA050C08F0FF05CF
:10841000C4F3072950F8255050F82990C6F3074AAD
:108420004FEA176B50F82AA085EA396550F82BB04F
:1084300085EA3A4585EA3B25D1F84890C6F30726F8
:1084400085EA090550F82690E4B2C7F3074650F8CC
:10845000244050F826604FEA186784EA396450F8DF
:10846000277084EA3644CE6C84EA37247440DEB246
:10847000C5F3074850F82670CCF307264FEA146975
:1084800050F8266050F8288087EA366650F8299020
:1084900086EA38460F6D86EA39267E400CF0FF07E3
:1084A0004FEA1C6B50F82780C5F30727CCF3074C25
:1084B00050F82790C4F3074788EA396850F827A096
:1084C0001F0E88EA3A4850F82770C4F3072988EA53
:1084D0003727D1F85480C3F3074A87EA080705F025
:1084E000FF08E4B2C3F3072350F8244050F82330C8
:1084F00050F82CC02D0E84EA336350F8255083EADF
:108500003C4350F8288050F82990D1F85CC083EAA9
:10851000352350F82AA088EA396883EA0C0450F819
:108520002BB0F3B288EA3A48D1F8589088EA3B2851
:1085300050F8233088EA0908C7F3072C4FEA14697A
:1085400050F82C50C8F3074C50F8299050F82CC024
:1085500002E000001401002083EA356383EA3C4313
:10856000D1F860C083EA392383EA0C0307F0FF0CDB
:108570004FEA166A50F82C50C8F3072C50F82AA07E
:1085800050F82C90C4F3074C85EA396550F82CC09C
:10859000C4F3072985EA3C4C8CEA3A2C4D6EC6F3AD
:1085A000074A8CEA050C08F0FF05E4B2C6F307267B
:1085B0004FEA176B50F8244050F82660C7F307477E
:1085C0004FEA186850F8277084EA366450F828801B
:1085D00084EA3744CE6E84EA3824744050F825503B
:1085E00050F82990DEB250F82AA085EA396550F893
:1085F000267050F82BB0CCF3072685EA3A45D1F81F
:10860000689085EA3B2550F8268085EA0905C5F380
:10861000074687EA386750F82690260E87EA3947DA
:1086200050F82660C5F3072887EA36260F6F50F802
:1086300028907E40C4F307480CF0FF0750F828A0AC
:1086400050F827704FEA136887EA396750F8288096
:1086500087EA3A4787EA3827D1F87480C4F30729B4
:1086600087EA080705F0FF0850F8299050F828809D
:10867000C3F3074A4FEA1C6B50F82AA088EA39680E
:1086800050F82BB088EA3A48D1F8789088EA3B282D
:10869000C3F3072388EA090850F82390E4B2CCF327
:1086A000074350F824404FEA156C50F8233050F837
:1086B0002CC084EA396484EA334383EA3C23D1F84A
:1086C0007CC083EA0C05C7F3072CF3B250F82C40AA
:1086D000C8F3074C50F8233050F82CC04FEA156906
:1086E00083EA346350F8299083EA3C43D1F880C090
:1086F00083EA392383EA0C04FBB250F823C0C8F3A1
:10870000072350F82390C5F307438CEA396C50F8DF
:1087100023A0330E8CEA3A4C50F823304FEA176905
:108720008CEA3323D1F884C050F8299083EA0C03F3
:1087300008F0FF0C50F82CA0C5F3072CEDB250F850
:108740002CB0C6F3074C8AEA3B6A50F82CC08AEA80
:108750003C4C8CEA392CD1F888908CEA090C50F802
:108760002590C6F30725C7F3074650F8255050F863
:1087700026604FEA186789EA356550F8277085EA60
:108780003645D1F88C6085EA372585EA0608E5B2DA
:1087900050F82550C3F30726CCF3074750F826605E
:1087A0004FEA186950F8277085EA366550F8299025
:1087B00085EA3745D1F8906085EA39257540DEB203
:1087C0004FEA146A50F82670CCF3072650F82AA016
:1087D00050F82690C8F3074687EA396750F82660B4
:1087E000C8F3072987EA364686EA3A26D1F8947014
:1087F000C4F3074A7E400CF0FF074FEA136B50F8B2
:10880000277050F8299050F82AA050F82BB008F0A3
:10881000FF08C4F30724C3F307434FEA1C6C50F866
:10882000288050F8244050F8233050F82C0088EA73
:10883000346C8CEA334383EA3020D1F89C3087EAE9
:10884000396780EA0308484887EA3A47D1F89890A0
:1088500087EA3B2787EA0907EBB2C6F3072CC7F381
:10886000074450F8233050F82CC050F824904FEAB9
:10887000186483EA3C6350F8244083EA3943D1F812
:10888000A0C083EA342383EA0C0306F0FF0C4FEA0E
:10889000156A50F82C40C7F3072C50F82AA050F85E
:1088A0002C90C8F3074C84EA396450F82CC084EA51
:1088B0003C4C8CEA3A2CD1F8A440C5F3074A8CEA28
:1088C000040407F0FF0C4FEA166B50F82C90C8F325
:1088D000072C08F0FF0850F82CC0C5F3072550F806
:1088E0002AA089EA3C6CC6F3074650F82BB050F832
:1088F000288050F825503F0ED1F8A89050F82660F7
:1089000050F8270088EA356585EA3645D1F8AC107D
:1089100085EA30204840190ED170190C9170190A5F
:1089200051701370210ED171210C91718CEA3A4C67
:10893000210A8CEA3B2C51718CEA090C14714FEA24
:108940001C61D1724FEA1C4191724FEA1C21517295
:1089500082F808C0010ED173010C9173010A5173A2
:108960001073BDE8F00F70471405002010B400220A
:108970000F4B0124944600BFC3F88841C821002052
:10898000C1EB011100BF401CB0EB410FFAD3C3F89B
:1089900088C150210020C1EB011100BF401CB0EB89
:1089A000410FFAD3521CB2F5C87FE5D310BC704713
:1089B0000000234270B50D460446C0F30B01060BC0
:1089C00000223046FEF7FEF860B120460AF008FEAD
:1089D000C4F30B0100223046FEF7F4F800281CBF58
:1089E000012070BD4FF48072214628460CF09EF99C
:1089F000FA222946002015F01BFD95F8FB104FF6D2
:108A0000FF7202EA012195F8FA20114489B28142ED
:108A100014BF0220002070BD2DE9F05F0446000560
:108A20000E46000D4FEA143716D004F5807001058C
:108A3000090D30D0C4F30B0101223846FEF7C2F80D
:108A400068B120460AF0CCFDC4F30B010122384680
:108A5000FEF7B8F818B12AE038460CF011F94FF4D7
:108A60008072214630460CF04BFB012808BFBDE860
:108A7000F09F4FF48072214645480CF057F9444D61
:108A800000202A5C315C8A420ED1401C80B2B0F5D5
:108A9000807FF6D30EE0B0F5401F2CBF4FF400707E
:108AA000000B0CF0EDF8C5E7B0F5807F02D2012095
:108AB000BDE8F09F04F50019C9F30B0000284FEA48
:108AC000193804BF40460CF0DBF84FF48072494679
:108AD00030460CF015FB4FF0000A4FF0010B012857
:108AE00013D04FF48072494629480CF01FF900203A
:108AF000295C325C914205D1401C80B2B0F5807F88
:108B0000F6D341E0B0F5807F3ED239034FF4805276
:108B10001F480CF00BF940460CF0B2F81D4F002432
:108B20001B4804EB083906194FF48075C7F8B0A14B
:108B300006200CF01FF8C7F8B0B1C7F8B0A10220AA
:108B40000CF018F8C9F307400CF014F8C9F307202B
:108B50000CF010F809F0FF000CF00CF84FF00009D1
:108B600016F809000CF006F809F101001FFA80F967
:108B7000A945F5D3C7F8B0B10CF024F904F580701D
:108B800084B2B4F5805FCBD30020BDE8F09F000035
:108B90001C3B0020008021422DE9F04F002583B0CE
:108BA0000446A84601F05CFFDFF86091DFF860A1A1
:108BB0005848CDE900A901784FF4887201F12303E8
:108BC000002002F02FFA01232A4600212046FFF759
:108BD0008BF8514E376844F6206B3068C01B5845FF
:108BE00070D20CF021FD002818BF3768F5D00F288F
:108BF00068D008DC0B2842D00C2828D00D280AD0D9
:108C00000E28EAD17DE01E287BD04C2837D0522890
:108C10001DD07828E1D104EB4511087F002852D0FF
:108C2000642838BF804660D3A0F1640101208840E9
:108C300080B230EA080103BF4FF6FF71484000EAF6
:108C4000080848EA000018BF00F0FF084DE004EBF8
:108C50004510006A007850B1681CC2B20090002331
:108C600029462046FFF740F80098C5B2B5E7002333
:108C70001A4629462046FFF737F80025ADE7002DB4
:108C800008BF00200AD0681EC2B200900023294607
:108C90002046FFF729F80098C5B29EE704EB401183
:108CA0000968097800291CBF401C80B2F6D1401E1B
:108CB000C2B20090002329462046FFF715F800981D
:108CC000C5B28AE71DE0886978B18047642814D06E
:108CD0000CF0AAFC01F0C4FECDE900A90021232379
:108CE0004FF48872084602F09DF937682A4601233E
:108CF00011462046FEF7F8FF6FE703B00020BDE8FD
:108D0000F08F03B04046BDE8F08F00000A0A0A0069
:108D1000EAE6E30050110020180000202DE9F0439E
:108D200083B00746002401F09BFE2C492C48CDE976
:108D30000001002123234FF48872084602F072F9E3
:108D40000123224600213846FFF794F8254D2E686E
:108D500043F698282868801B40453BD20CF064FC01
:108D6000002818BF2E68F5D00E2833D014DC0C284C
:108D700016D00D28EED1C4EB041007EB40011A4EBB
:108D800000254D7706F56C70FCF745FE86F8CD534F
:108D900003B02046BDE8F0830F281BD05228D9D15C
:108DA000C4EB041007EB4000807F58B104F10109C7
:108DB00009F0FF02002321463846FFF75BF809F06F
:108DC000FF04C7E700231A4621463846FFF752F84A
:108DD0000024BFE703B0FF20BDE8F0830A0A0A00C1
:108DE000EAE6E30018000020D85700202DE9FF4FE5
:108DF000ED48002693460F460078042105228DB0E9
:108E00009946B046B44601282AD0152337210228B6
:108E100020D00328E54802702BD0142242708170C4
:108E200080F803C01D990025E14C0D601E994AF69B
:108E3000AA2A0D60DF48C0F800A0684605F098F93E
:108E4000E0B1684605F094F9C0B1761C142EF1D358
:108E500000F09CB9D54802704370817020210BE06E
:108E6000D2480170102141703921817080F803C00F
:108E7000D8E7437081704021C170D3E7681CC5B248
:108E80000098002620600AF029FA28B3616839604A
:108E90002C2819D00CDC042812D00B28CAD1A068C9
:108EA000CBF800006068386011B00B20BDE8F08F8F
:108EB00037280DD05A28BDD111B00620BDE8F08F5B
:108EC00011B00220BDE8F08F11B00E20BDE8F08F88
:108ED00011B00F20BDE8F08F386800281FBF61680F
:108EE0008142092011B018BFBDE8F08F606838607A
:108EF000A068DBF80010CBF8000088421EBF0A20F3
:108F000011B0BDE8F08F0026AB48AC49AC4F0078FB
:108F10000978C0EB001001EB800BA54906EB0612A7
:108F2000002007EB82040A5C235C9A4204D1401CB7
:108F3000C0B20428F7D301E0042828D3022E26D299
:108F4000207D617DC0EB001001EB8000BBEB0000D9
:108F500048BF40420A2806DA214644229448FCF7DA
:108F600015FD4FF0010800206060A060E061A06185
:108F70002062607320732061207560756062A0625A
:108F8000E06220636063A063E06320642060701C83
:108F9000C6B2022EC1D3864C2099B8F1000F607B77
:108FA00008701F99208A08801D99E069086037D1F0
:108FB000E169C4F8189021620D9961737E492046D9
:108FC000097821757D49097861751C992161217B9A
:108FD000491CC9B20173122924BF00210173219ACF
:108FE00011700D99012912D002291EBF052011B060
:108FF000BDE8F08FC169494521BF1B9A8A42A1EBA8
:109000000901E1610AD211B00320BDE8F08FC16906
:109010001B9A4944914298BFE161F4D808F07EF868
:10902000012D18BF002607D162480025C0F800A016
:1090300038E0012D08BF02255E48C0F800A0012DD0
:1090400030D9684605F094F898B1761C142EF0D308
:10905000B8F1000F18BF00207DD000BF00EB001159
:1090600007EB81014968B1B3401CC0B20228F5D3B7
:1090700081E020789DF8001088420FD161789DF83A
:1090800001202046914209D181789DF80220914229
:1090900004D1E1789DF80300814203D011B004208F
:1090A000BDE8F08F207B47490026A1FB002149083D
:1090B000494201EBC1010844C0B24FF02C0B092812
:1090C0001ED2DFE800F01D05090C0F1215181B0059
:1090D0004FF02D0B14E04CE04FF02E0B10E04FF052
:1090E000300B0DE04FF0310B0AE04FF0320B07E090
:1090F0004FF0340B04E04FF0350B01E04FF0360B2E
:109100004FEA9B00352104F077FF002891D1A1465A
:1091100004F13401584605F053F810BBDFF88C8099
:1091200098F8021098F8000004F066FFC8B909F139
:10913000240198F8010005F043F890B904A998F8C3
:10914000010004F0B3FF002808BF04A909D100BF43
:1091500009EB000200E019E092F824300A5C934227
:1091600002D04FF0010864E7401CC0B21028EFD3D2
:1091700010E0022800D3002000EB001007EB800075
:1091800044220B49FCF702FC142E03D311B001203A
:10919000BDE8F08F1D98E16901601E98216A0160A9
:1091A00011B00020BDE8F08F4E11002014110020F6
:1091B000284B0020003000404400002045000020E3
:1091C0006C4B0020398EE33870B4012200EB0211A1
:1091D0000C6804F08033A3EBD31303F01B3304F0CB
:1091E0007F3C83EA4C0303F0803CACEBDC1C0CF0CE
:1091F0001B3C03F07F358CEA450C0CF08035A5EB69
:10920000D51505F01B350CF07F3685EA46056C4018
:1092100083EA0C067540634085EA33238CEA040C2C
:1092200083EA3C4383EA34630B604C6804F0803388
:10923000A3EBD31303F01B3304F07F3C83EA4C030E
:1092400003F0803CACEBDC1C0CF01B3C03F07F35E6
:109250008CEA450C0CF08035A5EBD51505F01B35D7
:109260000CF07F3685EA46056C4083EA0C067540B3
:10927000634085EA33238CEA040C83EA3C4383EAA7
:1092800034634B608C6804F08033A3EBD31303F09A
:109290001B3304F07F3C83EA4C0303F0803CACEBCF
:1092A000DC1C0CF01B3C03F07F358CEA450C0CF009
:1092B0008035A5EBD51505F01B350CF07F3685EA1A
:1092C00046056C4083EA0C067540634085EA33230B
:1092D0008CEA040C83EA3C4383EA34638B60CC68F9
:1092E000521C04F08033A3EBD31303F01B3304F0C0
:1092F0007F3C83EA4C0303F0803CACEBDC1C0CF0BD
:109300001B3C03F07F358CEA450C0CF08035A5EB57
:10931000D51505F01B350CF07F3685EA46056C4007
:1093200083EA0C067540634085EA33238CEA040C1B
:1093300083EA3C4383EA3463CB60092A7FF646AF75
:1093400070BC70472DE9F003C27812020A6083787E
:109350001A4412020A6043781A4412020A6003781F
:109360001A440A60C27912024A6083791A441202CE
:109370004A6043791A4412024A6003791A444A60E7
:10938000C27A12028A60837A1A4412028A60437A8D
:109390001A4412028A60037A1A448A60C27B12025B
:1093A000CA60837B1A441202CA60437B1A441202C9
:1093B000CA60007B204B104400220124A3F27C49A8
:1093C000C1F80C0001EB8200C5684FEA352C0CF0A7
:1093D000FF0653F82680CCF3072653F82670CCF30B
:1093E00007464FEA1C6C53F8266053F82CC088EAF5
:1093F000376787EA364686EA3C2C51F82260121D10
:109400008CEA060C59F82460641C8CEA060CC0F83F
:1094100010C04668282A86EA0C0CC0F814C086687A
:1094200086EA0C0CC0F818C085EA0C0CC0F81CC009
:10943000C8DBBDE8F0037047140500208000A0F1F0
:10944000C0400029016812BF41F00101014A1140EA
:1094500001607047FEFF0F00D0E901121143D0E90F
:1094600003231A4311434269114382691143C269BC
:109470001143026A1143426A1143826A1143C26A6C
:109480001143026B0A4301688900A1F1C0410A60DF
:109490008168082907D101688900A1F1C0410A68E3
:1094A00042F040020A60416BD1E9002342EA031214
:1094B0008B68B1F80CC01B0243EA0C431A430B8AB9
:1094C00042EA03520B7D896942EA03621143026852
:1094D0009200A2F1C0425160C16AB1F5804F08D03C
:1094E00000686FF070418000A0F1C040C0F8041126
:1094F0007047816BD1E9002342EA03128B68B1F80F
:1095000010C01B0243EA0C531A430B7D896942EADF
:109510000362006811438000A0F1C040C0F804114C
:109520007047000010B504460A280FD00D2C11D04A
:1095300009480068C06901682046884707480168F3
:10954000002907D02046BDE810400847BDE810407C
:1095500001F086BB10BD0000041200202C12002078
:109560002DE9F0430446C56887B09046894600203F
:1095700002F01AFD064625B1287910B146F0020026
:1095800001E026F0020002F00FFD2069012558B12C
:10959000D4E902128DE826000395638822880468C6
:1095A00041464846A0471EE0124F134B21463868FB
:1095B0001B68427CE068984730B9E088012801D0F8
:1095C000002001E03868806BA288E388A1680095DC
:1095D000CDE90410CDE90232019563882288414625
:1095E000484604F02BFF07B03046BDE8F04302F0D8
:1095F000DBBC000004120020FC1100201CB500247C
:10960000019401AC009400F0E7F81CBD2DE9FF4F78
:1096100083B0814606988A46A0EB0A08109E002077
:109620000090A2EB09043568934654EA080018D06C
:109630002046FCF79FFD07464046FCF79BFD87420E
:109640000BDA2046444680464846D1468246584674
:10965000DDF818B0069001200090002C07DD2046B0
:1096600006E007B04846BDE8F04F00F03BB9604265
:10967000A0420AD04846D9466442C8F10008834651
:109680004FF0FF37DDF818A000E001275148B8F18E
:10969000000F11D004EBD4714FEA610B01DACBF16A
:1096A000000B4C480068807E88B3002F02DA3068D7
:1096B0002044306000257BE000990029016821D01A
:1096C000897E11B10027804615E007B05A46494609
:1096D0005046BDE8F04F05F015B828466D1C13F054
:1096E000FFFC38B9D8F8000009EB0701C06E4268EA
:1096F000504690477F1CA742EFDD6D1E356007B0D6
:10970000BDE8F08F8A7E1AB10027804617E019E085
:10971000C86E5A465146036807B04846BDE8F04F48
:10972000184728466D1C13F0DBFC38B9D8F8001038
:1097300009EB0700C96E4A68514690477F1CA74253
:10974000EFDDDAE700250FE008FB05B090FBF4F150
:1097500001EB0A00009951B11E4A09EB050112689C
:10976000D26E526890476D1CA542EDDDC7E71949DE
:1097700009EB05030968C96E4A6801461846F1E716
:1097800008FB05B090FBF4F101EB0A000190306892
:109790003844306013F0A4FC48B9009890B10D48EB
:1097A00009EB05010068C06E4268019890476D1C86
:1097B000A542E5DD3068002F01DA20443060C01B8F
:1097C00030609CE7034909EB05000968C96E4A68E7
:1097D0000199EBE7041200202DE9FF470F464049AD
:1097E0001646804609680C981D460A7E012A1CD040
:1097F000A8EB0600791B50EA01031CD0A2F1010975
:1098000014F050FB00F58060824604F02FF800FB56
:1098100009F4504604F02EF800FB09F1002C0CDA94
:10982000C4F50070801240420AE00090324639468A
:109830004046FFF7EBFEBDE8FF8704F50074A01279
:10984000002904DAC1F5007189124C4202E001F5E9
:1098500000718C12002804DD411C01EBD17149100C
:1098600003E000EBD0714910401E00EBD0704210B5
:10987000002C04DD601C00EBD070401003E004EB12
:10988000D4704010641E04EBD47308EB0104ADF8EF
:1098900000403C18ADF80240A8EB02045B10B21A7D
:1098A000ADF80440ADF808203144FC1AEA1AADF8CE
:1098B0000C102844ADF80A20ADF80E000023ADF8D6
:1098C00006401A460421684600F07AF839464046B8
:1098D00011F090FB2946304611F08CFBABE70000FD
:1098E00004120020064A13681A7E012A05D0521E6F
:1098F00002EBD272521000F005B8DA6E52681047CF
:10990000041200202DE9F05F0646884640F2C3208D
:1099100050434FF47A7190FBF1F702FB02F002EB37
:10992000D27100EB610B254914467F1C0968324453
:10993000301BC96E0B684146984701253AE000BFCD
:1099400005FB05F004FB040159451CDDBC4219DD93
:109950001A4B06EB050AA6EB05091B68AAF10102E2
:1099600008EB0401DB6E09F101001B689847134BFB
:10997000AAF10102A8EB04011B6809F10100DB6EEA
:109980001B689847641E0D4806EB040AA6EB040901
:10999000006808EB05015246C06E036848469847C8
:1099A0000648A8EB050152460068C06E03684846A9
:1099B00098476D1CBD42C3DDBDE8F09F0412002036
:1099C0002DE9FF4F40F6FF740F46664283B09B4679
:1099D000814600210BE000BF09EB8100B0F90200D5
:1099E000A04200DA0446B04200DD0646491CB942F6
:1099F000F2DB68480068406900280DD0B0F9061015
:109A00001A46A1EB0B01B14200DA0E46B0F9020092
:109A1000801AA04200DD0446B5E0DFF87CA10020FA
:109A20000546CAF8000089E0781E854201DA6B1C01
:109A300000E0002309EB850C09EB8302BCF902006E
:109A4000B2F90210A04245D1A14215D139F9233013
:109A5000059A39F9251003EB020C4E4A0598126855
:109A6000084404EB0B01D26E6045136801DA6246CC
:109A70002BE00246604628E02846A4464FF0000846
:109A80007A1E0BE008B1401E00E0781E09EB80034F
:109A9000B3F90230634504D108F101089045F1DBC8
:109AA0002346A34249D0A3EB040239F92500A1EBD8
:109AB000040C059B92EA0C0209D4364A184404EBC4
:109AC0000B011268D26E13680246984735E00FF01A
:109AD00015FA32E0A14230D001DBA04203DDA04202
:109AE0002BDBA14229DCE04688420ADC0346A04287
:109AF00023DC0846A14220DBB8F900C0B2F900100F
:109B000008E00B46A14218DCA04216DBB2F900C007
:109B1000B8F90010E21AA1EB0C0151430029A0EBA7
:109B2000030202DD01EB620102E0A1EB6201491CCC
:109B3000C01A91FBF0F06044C9E76D1CBD42FFF60E
:109B400073AF0598009004EB0B0001900020804655
:109B5000054613E01149B8F1000F31F915A009D0FD
:109B6000009901EB0A0208440A490968C96E0B68AA
:109B70000199984788F0010850466D1C064909680C
:109B80008D42E7DB641CB4427FF747AF07B0BDE806
:109B9000F08F0000041200203812002058740020BA
:109BA00010B5002002F0FAF96FF07F4002F0FAF9E8
:109BB000012002F029FA002002F02EFA002002F023
:109BC00035FA002002F0F0F90448006802F0EEF9DE
:109BD000BDE81040002002F0F3B9000000120020A0
:109BE0002DE9F84F0121052008F084FE012109200C
:109BF00008F080FE0121112008F07CFE01212120C7
:109C000008F078FE0121412008F074FE0121812036
:109C100008F070FE012140F2011008F06BFE1826DA
:109C2000ADF8006048278DF8037003248DF80240DA
:109C30006946BF4800F08CF9BE484FF001084FF06C
:109C4000280A80F80080ADF80080DFF8ECB28DF8CB
:109C500003A08DF802406946584600F079F94FF4A8
:109C60008160ADF800004FF004098DF803908DF885
:109C700002406946584600F06BF94FF48170ADF828
:109C8000000010258DF803508DF8024069465846B3
:109C900000F05EF94FF40170ADF800008DF803603C
:109CA0008DF802406946584600F052F9ADF8008040
:109CB0008DF803A08DF802406946A04800F048F9ED
:109CC0004020ADF800008DF803708DF80240694621
:109CD0009A4800F03DF9E801ADF800008DF80390D6
:109CE0008DF802406946954800F032F941F2A20031
:109CF000ADF800008DF803508DF8024069468F489A
:109D000000F026F94FF4806AADF800A08DF80360EA
:109D10008DF802406946894800F01AF97420ADF8C0
:109D200000008DF803708DF802406946844800F009
:109D30000FF942F23A00ADF800008DF803508DF8AB
:109D4000024069467E4800F003F92802ADF80000A1
:109D50008DF803608DF802406946794800F0F8F804
:109D60004FF47060ADF800008DF803608DF802408C
:109D70006946734800F0ECF84FF48250ADF80000EB
:109D80008DF803708DF8024069466E4800F0E0F8E7
:109D90004FF0080BADF800B08DF803508DF802407D
:109DA0006946684800F0D4F84EF63770ADF8000008
:109DB0008DF803608DF802406946624800F0C8F8EB
:109DC0007C20ADF800008DF803508DF80240694604
:109DD0005D4800F0BDF84FF68370ADF800008DF8D7
:109DE00003608DF802406946574800F0B1F848F228
:109DF000C020ADF800008DF803508DF80240694690
:109E0000524800F0A5F84FF45060ADF800008DF80E
:109E100003708DF8024069464C4800F099F847F20B
:109E20003F00ADF800008DF803608DF802406946F0
:109E3000464800F08DF84AF22020ADF800008DF879
:109E400003508DF802406946394800F081F84FF41C
:109E50008340ADF800008DF803708DF8024069462C
:109E6000334800F075F845F21F00ADF800008DF89A
:109E700003608DF8024069462D4800F069F88020A3
:109E8000ADF800008DF803608DF8024069462D485A
:109E900000F05EF8ADF800A014208DF803008DF8F6
:109EA00002406946254800F053F8ADF800808DF86F
:109EB00003508DF802406946214800F049F8A0029D
:109EC000ADF800008DF803708DF80240694618481F
:109ED00000F03EF84FF41870ADF800008DF8035014
:109EE0008DF802406946124800F032F8ADF800B033
:109EF0008DF803508DF802406946134800F028F8A9
:109F00004FF46050ADF800008DF803508DF802401A
:109F100069460C4800F01CF8ADF800908DF803502D
:109F20008DF802406946024800F012F8BDE8F88F4B
:109F3000002001403811002000080140000C0140C1
:109F4000001001400014014000180140001C0140B5
:109F50002DE9F003CB7803F00F0213F0100F1CBFB4
:109F60008B781A430B784FF00F0713F0FF0F4FF069
:109F700001081FD0046800235FF008050E8808FA66
:109F800003FC3CEA060611D19E0007FA06F924EA12
:109F9000090402FA06F63443CE78282E08BFC0F82A
:109FA00014C003D0482E08BFC0F810C05B1C6D1E43
:109FB000E4D104600B88FF2B9CBFBDE8F003704721
:109FC00044684FF0000C08250CF108030E8808FACD
:109FD00003F333EA060607D06D1E0CF1010CF3D132
:109FE0004460BDE8F00370474FEA8C0607FA06F9B3
:109FF00024EA090402FA06F63443CE78282E08BF74
:10A000004361CE78482E08BF0361E5E701617047E0
:10A0100070B50C46054600F0F1F8A8682168C162E9
:10A0200061680163A1684163490707D5D0E9002150
:10A03000C0E90012D0E90221C0E90212A18981849D
:10A040002169002903D001DC4FF00001016270BDDD
:10A050002DE9F0411E4617468846054600F0CEF829
:10A06000AC686822414604F58470FBF78FFC2846F3
:10A07000B8472846B047286980688047A062BDE895
:10A08000F081000010B5044600F0B8F8A0680E4951
:10A090004C30114AC1650D4981650D4901660D4974
:10A0A00081660021C166136843660C4BC0E91E310E
:10A0B0005168416730F8261C21F0030120F8261C66
:10A0C0000749416410BD0000A5D1010811D3010862
:10A0D0006DD10108D3CC010880120020A3CD010866
:10A0E000B1D0010810B5044600F088F8A4680C4807
:10A0F0009034102120650B4860650B48A0650B4823
:10A10000E0650B48E0600B482061206BA06654F8C6
:10A110009029204690471020A0630748606410BD36
:10A1200011A5010895B601083DA100086DA200081F
:10A130008DCC01088DD60108F0C50308F8B58468F8
:10A1400015460F4694F8260080074CD5D4F8FC300D
:10A15000204698470646D4F800312A46394620461C
:10A160009847D4F8943005461BB1002201212046BF
:10A1700098472069B04201DD012000E00020A1697C
:10A18000B14201DA012100E0002108436169A942DE
:10A1900001DD012100E000210843E169A94201DA63
:10A1A000012100E0002108430AD06068401E0090B1
:10A1B0002368D4F8A4705B1E002211462046B847DD
:10A1C000D4F8A8302A46314620469847D4F89C1047
:10A1D00020468847D4F8943005466BB1012200210F
:10A1E0002046984708E0D4F8A83020469847D4F88D
:10A1F0009C102046884705462846F8BD70B50446A1
:10A200008068002812D14FF4B875284600F0BCFAD7
:10A210002A460021A06003F0D9FAA0680221C18477
:10A220000121046401620249C0F8041170BD0000FC
:10A2300035A2000810B590B0044620220A496846AD
:10A24000FBF7A4FB08492022203108A8FBF79EFB5E
:10A25000606B5DF82010C4F8FC1008A951F82000CC
:10A26000C4F8000110B010BD6CB102082DE9F8432C
:10A2700084689846154694F826000F46800740D516
:10A28000D4F8FC30204698470646D4F800312A46D8
:10A2900039462046984705462069B04201DD012035
:10A2A00000E00020A169B14201DA012100E00021B3
:10A2B00008436169A94201DD012100E00021084352
:10A2C000E169A94201DA012100E0002108430AD036
:10A2D0006068401E00902368D4F8A4705B1E0022C2
:10A2E00011462046B847D4F8A8302A4631462046C1
:10A2F0009847D4F8A02001B041462046BDE8F0437D
:10A300001047D4F8A830F2E72DE9F04FDFF828B174
:10A3100091B04FF0FF35DBF80030B3F92210069111
:10A32000DE69B3F924A0F469A189814206D8E289E3
:10A33000824203D3471AD4F8008012E0D4E90181A5
:10A34000002970D00A8882426DD84D8885426AD330
:10A35000801A82B2486800EB8200B0F90070B0F950
:10A360000250781C5FD0307EA27C014600FB02F9CF
:10A37000207CCDE90810B3F92A60304604F0AEFC29
:10A38000C0B20E90DBF8001007FB0980A37C8A6B3B
:10A390000127CDE90402CDE90273C869DDE908327D
:10A3A000C17E807ECDE900015146069804F046F852
:10A3B000681C18D046F0020004F090FCDBF80000A6
:10A3C000A37C05FB0981826BCDE90273CDE9041200
:10A3D000C069DDE90832C17E807ECDE900015146C9
:10A3E000069804F02BF8DBF800005D46C069417E5A
:10A3F000007E814214D9022E12D086F0040004F0AF
:10A400006DFC2868C069027EC37E857E02FB03A1C5
:10A41000437E099A0698534402FB050204F09CF916
:10A420000E9804F05BFCDBF80000627C418C114468
:10A43000418411B0BDE8F08F041200200448006888
:10A44000C069C06909B1027C0A60407C70470000A5
:10A4500004120020022008807047C06982898A4265
:10A4600002D8C2898A4210D2806880B102888A42AA
:10A470000DD843888B420AD3406800EB8100A0EBE3
:10A480008200B0F90000002801DB012070470020A5
:10A49000704700002DE9F0432F4C034687B0206839
:10A4A0001946B0F92A80C069C06900F0EEF80028AA
:10A4B0004ED041680088181A01EBC0054046AE78BE
:10A4C00004F00CFC814620686A680123816BCDE9A9
:10A4D0000236CDE90421C169CB7E8A7ECDE9002315
:10A4E0000B7EB0F924102A78B0F9220003F0A6FF01
:10A4F0002068C069477E067EB7421DD9C07E4743AB
:10A500004643B8F1020F17D000F0C4FF804600F0B8
:10A51000A9FF01F047FD21682A78CB69B1F9220033
:10A52000B1F92410DB7E02FB0302CB19314404F0A5
:10A5300013F9404601F036FD484604F0CFFB206891
:10A540006A78C369B0F922109B7E02FB0311418433
:10A5500007B0BDE8F0830000041200202DE9F35F8E
:10A560000E46002500F096FFDFF8A8808346D8F855
:10A57000000090F82A00400702D500F08BFF01E0B0
:10A5800000F070FF01F00EFDD8F800000024C26951
:10A59000B0F92290B0F92470517ED27E01FB02FA0C
:10A5A0001EE0684601F08EFE0546D8F800002946F8
:10A5B000C069C06900F032F890B141680088281A7B
:10A5C00000EB400001EB800090F902100079084494
:10A5D000D8F80010C969897E4843002800DD04448A
:10A5E000761EDED51DB1284602F00CFF044407EBB1
:10A5F0000A0309EB04025B1E4846521E394604F06A
:10A60000ABF8584601F0CEFC034901200870BDE8C4
:10A61000FC9F000004120020E813002006E00288DE
:10A620008A4202D842888A4202D280680028F6D143
:10A630007047000030B50E4C05460B462068294691
:10A64000C069C06900F021F8002810D04168008876
:10A6500024682A1A0120E46900EBC200085CA47E89
:10A660006043002B03D011F832106143196030BDF4
:10A670000412002001200880704700B5C06900F076
:10A6800004F8002800D0012000BD06E002888A42BC
:10A6900002D842888A4202D280680028F6D17047E8
:10A6A000FEB50E4EDDE908543668367C16F003061A
:10A6B0000CD0012E03D0022E0DD0032E05D1084E52
:10A6C000CDE90054029610F091FAFEBDCDE9005498
:10A6D00010F03AFAFEBD034EF2E70000041200202B
:10A6E0009DED000815ED0008002801D00EF05EBCBD
:10A6F000704738B50546FFF7F7FF040009D000F0B2
:10A70000C5F82A460021009003F060F8684600F082
:10A7100007F9204638BD0000024A106021F003000E
:10A7200050607047D473002010B5002814D0044640
:10A730000A48006B10F8341000290DD002290BD202
:10A74000042101EBC401415848680EF0F3FB204698
:10A75000BDE8104012F088BA10BD00001873002048
:10A76000002805D0034A916B016001B148609063F5
:10A77000704700001873002010B504460068FFF70A
:10A78000D3FF0020206010BD2DE9F041044611F0F8
:10A790000DFE2648E41C24F00305C16B2D1DA942C3
:10A7A00000D90D46846B13E054F8042CAA420ED154
:10A7B00084B1216809B162684A60616809B12268A0
:10A7C0000A60826BA2422ED1216881632BE024684B
:10A7D000002CE9D18046416B80680F1857F8040CB3
:10A7E0003E1A306838B1002012F048FB57F8040CCC
:10A7F0003E1A3068B8B97068A84214DB3044441B74
:10A80000304612F0F3FAD8F80810491BC8F80810BF
:10A81000D8F810102944C8F8101070683146401B51
:10A820000EF088FB20C42046BDE8F081187300209C
:10A8300010B5002411F0BAFD0C490F2001EBC00245
:10A84000126C1AB101EBC000006C08E0401EF5D597
:10A8500008E04168A14200D90C46806810B18068C8
:10A860000028F6D1A4F10C0010BD000018730020E0
:10A87000002138B10449042202EBC000096B0858DA
:10A8800041680C39084670471873002005498A69E9
:10A89000521C8A61096B01EBC0010A78521C0A70D4
:10A8A00000F056B8187300207CB506460C460846E2
:10A8B000FFF71AFF05001CD0DEB13046FFF7D8FFC6
:10A8C000A04200DA04462846FFF7E0FF0090304639
:10A8D000FFF7DCFF0146019022460098FBF756F88F
:10A8E000684600F01DF801A800F01AF83046FFF79E
:10A8F0001BFF28467CBD000010B5FFF799FF6422BE
:10A900000649B0F5800F04D990FBF2F0C9694843BD
:10A9100010BDC9694143B1FBF2F010BD18730020AE
:10A920000A4902680B6B52F8082C03EBC202137839
:10A93000022B03D38B690BB15B1E8B611178491E0F
:10A940001170002101600846704700001873002054
:10A95000002806D00349042202EBC000096B085806
:10A96000083070471873002070B50C46054600F09B
:10A9700013FEC1B223462846BDE87040002200F015
:10A9800001B80000F0B52D271C68B0F1004F08D0C9
:10A99000002500280DDA661C1E6027704042012445
:10A9A00008E0661C01251E606FF000402770491EFC
:10A9B00001E00024091BC9B22AB3491EC9B222E032
:10A9C0000C46491EC9B2944205D1124C27781C6826
:10A9D000661C1E602770104C54F8216090FBF6F442
:10A9E000E4B20A2C11D804FB160011B90DB1641C95
:10A9F000E4B20A2C02D10124491CC9B21E683034C9
:10AA0000771C1F6034700029DAD1196800200870A3
:10AA1000F0BD0000F811002048AD030810B5C2B227
:10AA2000CBB2D21A02D5C2F1000212B293B2C0F375
:10AA30000722C1F3072403FB03F3121B01D5524283
:10AA400012B2000C92B2A0EB114002FB023200B233
:10AA5000002801DA404200B280B200FB002010BDA5
:10AA600010B50021084600F05BFD40F6FF72504231
:10AA7000BDE8104013460146AFF300802DE9FC41CC
:10AA800007461C4615460E46042004F027F980466A
:10AA90001148C068C16C006D0F4406440D44044465
:10AAA000ADF80070ADF80450ADF80260ADF80640A6
:10AAB00068460DF06BFE07E023462A4631463846CD
:10AAC00003F04AFE0DF024FE0028F5D1404604F0C4
:10AAD00005F9BDE8FC810000F81100202DE9F041E6
:10AAE0001C4616460D460746022B02DB0020BDE839
:10AAF000F0811C20FFF748FE0028F8D00DB1056159
:10AB00000AE0094A52F8241009B905E011460A681A
:10AB1000002AFBD1096901618461868200210160FC
:10AB20004160C0E90217E2E71C12002070B51D4623
:10AB3000FFF7D4FF040001D000F00EF8E0680068D1
:10AB400020B90348006800EB85008465204670BD8D
:10AB500004120020FFF704BE70B590B38269022A88
:10AB600030DA1C4C54F8221019B944F822002FE0B6
:10AB700019464B68002BFBD106E0CB68C5681B6803
:10AB80002D68AB4203DD09680029F6D11AE0C1B196
:10AB9000CB68C6681B683668B3420CD1838A012B28
:10ABA00005D008E01946DB681B68AB4203DB0B6885
:10ABB000002BF7D129B14B6833B118604A68426065
:10ABC00004E0FFE7012070BD44F822004860016006
:10ABD000002070BD1C12002012F02CBD022801DBE9
:10ABE00000207047054951F8200004E0C168096859
:10ABF0000029F6D000680028F8D170471C12002008
:10AC000070B5044601F0CCFC051908E000F036FBF5
:10AC1000052C01DD052000E0204601F0B5FC01F027
:10AC2000BFFC2C1A002CF1DC70BD0000024B1B682D
:10AC300059849A84FBF730BD041200207FB51E466C
:10AC400014460D46CDF80CD003AB00223146FFF779
:10AC500099FE22462946684600F090F87FBD000024
:10AC600000B500F01FFC044909688A8C10448884F0
:10AC7000088C488400BD0000041200202DE9FC4728
:10AC800006005BD000F00EFC3B4C81462068B0F91A
:10AC9000228000F01DFC216807468A8CD01B888426
:10ACA00041E000BF47F6FF71304602F073FB824679
:10ACB0000146304602F044FB2168054691F82C001D
:10ACC00000F0030001283FD0022839D000204A8C30
:10ACD000101A4884ADF800006A1E1044ADF8040054
:10ACE000888CADF80200A9F101010844ADF8060016
:10ACF0006A465146304602F021F82168BDF802004C
:10AD000088845146304601F009FB064430780A2811
:10AD10001CD00D281AD0BDF80000216828444884B2
:10AD2000307818B1761C30780028BBD12068818C2F
:10AD300039448184818D21F003018185BDE8FC8740
:10AD400005EBD5704010C2E72846C0E7206890F8B0
:10AD50002C1001F0030101290BD0022909D0018C2C
:10AD6000418431780A29DBD1828C02EB090181848C
:10AD7000D6E7A0F82280F4E704120020024B1B68FB
:10AD800059849A84FFF77ABF041200202DE9FF4FFF
:10AD900085B090468A46070078D00C68DAF80460DF
:10ADA00021B230B2401A401C029000F07BFB0546F5
:10ADB00018F00C0F1ED03846089A029901F0C9FB12
:10ADC00008F00C01042904D0082902D00C2911D163
:10ADD00004E0311400FB1510401C09E02114C1EB04
:10ADE000264200FB1520401C00EBD07001EB6000F8
:10ADF00060F31F44504601F0D3F8A5F1010B049015
:10AE00003846089A029902F0AFFC03904FEA2449B1
:10AE100009EB0B0060F31F46CDE900463846039965
:10AE200002F08EFA18F003010ED0012928D0022971
:10AE30000ED1BAF90420BAF90010521A101A00EB18
:10AE4000D07001EB600001E0BAF80000ADF800003E
:10AE50006A463846039901F071FF3846089A02990C
:10AE600002F078FC074409EB050060F31F443878D2
:10AE70000028C5D1049809B0BDE8F04F01F090B8A2
:10AE8000BAF80410081A401CE0E7FFE709B0BDE873
:10AE9000F08F00007CB5064610480068C36C006D5A
:10AEA0005D1884183188681E0844ADF80400ADF8B8
:10AEB00000507188601E0844ADF80600ADF80240ED
:10AEC00068460DF063FC06E0224629463046FEF750
:10AED00047FB0DF01DFC0028F6D17CBD04120020BC
:10AEE0002DE9F04F0C46164987B00D68DDE9109842
:10AEF000E96C0F18286D8D180619C418ADF810707C
:10AF0000ADF81450ADF81260ADF8164004A80DF07D
:10AF10003DFC002811D0DFF82CB04FF0000ACDE93D
:10AF20000098CDE902BA2B462246394630460FF04A
:10AF300010FF0DF0EDFB0028F1D107B0BDE8F08F58
:10AF40000412002005E700082DE9F04F0C461849CF
:10AF500087B00D68DDE91198E96CDDF840A00F18A5
:10AF6000286D8D180619C418ADF81470ADF8185076
:10AF7000ADF81660ADF81A4005A80DF007FC0028E2
:10AF800012D04FF0000B0B49CDE900A9CDE90281A9
:10AF90002B462246CDF810B0394630460FF096FFCA
:10AFA0000DF0B6FB0028EED107B0BDE8F08F000031
:10AFB0000412002005E700082DE9F04F174C87B078
:10AFC0002568DDE91198EC6CDDF840A02718286DA4
:10AFD000A5184618C418ADF81470ADF81850ADF89F
:10AFE0001660ADF81A4005A80DF0D0FB002812D06D
:10AFF0004FF0010B0A49CDE900A9CDE902812346B2
:10B000002A46CDF810B0314638460FF05FFF0DF0FC
:10B010007FFB0028EED107B0BDE8F08F04120020BE
:10B0200045E600082DE9F04F164C87B02568DDE9AC
:10B030001098EC6C2718286DA5184618C418ADF8A0
:10B040001070ADF81450ADF81260ADF8164004A8B9
:10B050000DF09CFB002811D0DFF82CB04FF0010A56
:10B06000CDE90098CDE902BA23462A463146384652
:10B070000FF06FFE0DF04CFB0028F1D107B0BDE8DA
:10B08000F08F00000412002045E600082DE9FC4185
:10B09000104F04463B68D86C4518196DADF8005048
:10B0A0000E198418ADF80440ADF80260ADF80660E2
:10B0B00068460DF06BFB08E0386822463146C06EEA
:10B0C0000368284698470DF023FB0028F4D1BDE81B
:10B0D000FC810000041200202DE9F0410B4C256892
:10B0E000EC6C2718286DA5184618C41800200DF020
:10B0F0004DFB07E023462A4631463846FEF77EFAE6
:10B100000DF006FB0028F5D1BDE8F0810412002007
:10B110002DE9FC411C4C2468E66C94F818C03718E3
:10B12000206DACF1010C4518C418A7EB0C001644B7
:10B13000ADF8000006EB0C00ADF80400A5EB0C0028
:10B14000ADF8020004EB0C00ADF8060068460DF007
:10B150001DFB15E032462946384603F073FA3246A5
:10B160002146384603F06EFA621E691C384603F029
:10B17000C9FA621E691C304603F0C4FA0DF0C8FA21
:10B180000028E7D1BDE8FC81041200202DE9FF472B
:10B19000DDE90C76012E15D0134C2468E56C246D86
:10B1A00005EB000804EB010915441C44ADF80880C8
:10B1B000ADF80C50ADF80A90ADF80E4002A80DF0B5
:10B1C000E5FA0EE0009700F011F8BDE8FF87CDE941
:10B1D000007623462A46494640460FF05FFF0DF0B1
:10B1E00097FA0028F3D1F0E7041200202DE9FE437E
:10B1F000114CDDF828802568EC6C2718286DA518FF
:10B200004618C418ADF80470ADF80850ADF80660E3
:10B21000ADF80A4001A80DF0B9FA09E023462A4624
:10B2200031463846CDF800800FF0CAFF0DF070FAB5
:10B230000028F3D1BDE8FE83041200207CB50E4B3C
:10B240001B68DC6C2618186DADF800604518841872
:10B25000ADF80460ADF80250ADF8064068460DF058
:10B2600095FA06E022462946304603F04BFA0DF0E7
:10B270004FFA0028F6D17CBD0412002010B500243E
:10B2800000E0012400F004F80028FAD1204610BDA7
:10B29000064810B50068002410B1804700B10124B1
:10B2A0000CF0CAFE00B10124204610BD241200207B
:10B2B00070B51646094A1268D36C1C18106D4518F3
:10B2C00000200DF063FA06E0324629462046FEF7DC
:10B2D00019FB0DF01DFA0028F6D170BD04120020F4
