:020000040800F2
:1058000050890020695A00081704010879E200084D
:1058100015040108A56900084D7E0108000000007C
:10582000000000000000000000000000E556010834
:105830003F760008000000007F5A00080179010847
:1058400051920108835A0008835A000891310108D7
:10585000835A0008835A0008835A0008835A0008B4
:10586000835A0008835A0008835A0008835A0008A4
:10587000835A0008835A0008835A0008835A000894
:10588000835A0008835A0008835A0008835A000884
:10589000835A0008835A0008835A0008835A000874
:1058A000835A0008835A0008835A0008835A000864
:1058B000835A0008835A0008835A0008835A000854
:1058C000835A0008835A0008835A0008835A000844
:1058D000835A00081D7A0108835A0008A17A01083A
:1058E000835A0008835A0008835A0008835A000824
:1058F000835A0008835A0008835A0008835A000814
:10590000835A0008C53E0108835A0008835A0008DC
:10591000835A0008835A0008835A0008835A0008F3
:10592000835A0008835A0008835A0008835A0008E3
:1059300000F002F800F06DF80AA090E8000C824434
:105940008344AAF10107DA4501D100F062F8AFF211
:10595000090EBAE80F0013F0010F18BFFB1A43F04D
:105960000103184724850300448503000A444FF0CF
:10597000000C10F8013B13F0070408BF10F8014BAE
:105980001D1108BF10F8015B641E05D010F8016BF3
:10599000641E01F8016BF9D113F0080F1EBF10F857
:1059A000014BAD1C0C1B09D16D1E58BF01F801CB7A
:1059B000FAD505E014F8016B01F8016B6D1EF9D5FD
:1059C0009142D6D370470000002300240025002612
:1059D000103A28BF78C1FBD8520728BF30C148BF52
:1059E0000B607047642900F0C380732900F0A7831F
:1059F000002070471FB500F0B6F900F089FC0400E4
:105A00000020002119F0E8FC401C60601FBD10B5AB
:105A100010BDDFF810D0FFF7EDFF19F0ABFB00F081
:105A200089FC00005089002003B4FFF7F0FF03BC9D
:105A300018F081FC0B49D1F800C04A685CF8043BBF
:105A40001068184442F8040B8C4528BFA1F1DC0C07
:105A50008A4228BFA1F1DC02C1F800C04A6020F0F0
:105A600000407047E8780020064880470648004715
:105A7000FEE7FEE7FEE7FEE7FEE7FEE7FEE7FEE7FE
:105A8000FEE7FEE71D790108315900087047000064
:105A90000FB4044910B503AA029800F055FB10BCDE
:105AA0005DF814FBB40000200FB41CB5074B06AA28
:105AB0007B4469460090059800F017FB002069467A
:105AC00000F026FB1CBC5DF814FB00005D06000026
:105AD00070B5044685690068C10601D5302600E02E
:105AE0002026C00707D070BDD4E901213046904779
:105AF000206A401C20626D1EF6D570BD70B504464C
:105B000085690078C00707D170BDD4E90121202044
:105B10009047206A401C20626D1EF6D570BD70B59E
:105B20000C460546012A05D02878800600D5EA698A
:105B3000002302E0012305E05B1C934202D2E05CFB
:105B40000028F9D1A869E618C01AA861286A184483
:105B500028622846FFF7BCFF04E0D5E9012114F8CC
:105B6000010B9047B442F8D32846FFF7C7FF70BD3A
:105B70002DE9F0410646002410687529314616A526
:105B800010D0AFF30080002802DA404213A507E0EE
:105B900031688A0701D512A502E0490704D511A58D
:105BA000012401E0AFF3008000210A2206F124075E
:105BB00009E0B0FBF2FCB0FBF2F302FB1C0030305A
:105BC00078541846491C0028F3D123462A4630460B
:105BD000BDE8F04100F02BBA000000002D000000ED
:105BE0002B000000200000002DE9F05F89460446EC
:105BF0004FF0000ADFF824B1FB44C0F820A0204693
:105C0000E168884700287DD0252806D0D4E9012105
:105C10009047206A401C2062F1E700255F4620463D
:105C2000E16888472028064607DB312E05D2B819DF
:105C300010F8200C08B10543F1E7A80701D525F0BD
:105C40000405C4F81CA00027C4F818A02A2E09D007
:105C5000304618F069FB38B304EB8708303EC8F8CB
:105C6000186019E059F8041B204604EB8702916183
:105C7000E1688847012F064618D1E069002820DA3C
:105C800025F020051DE0D8F8180000EB800006EB99
:105C900040003038C8F818002046E16888470646BA
:105CA00018F042FB0028EED1012F0AD02E2E08D189
:105CB0002046E16888477F1C0646022F45F02005F4
:105CC000C4DBA069002803DA404245F00105A06169
:105CD000E80701D025F01005A6B1A6F1410019286A
:105CE00002D8203645F400654A46314620462560F4
:105CF0004D46FFF777FE60B1012807D0ED1D25F076
:105D0000070000E007E000F1080978E705F1040961
:105D100075E730467AE7206ABDE8F09F047A030011
:105D200070B5064600F074F90468054630460A224C
:105D3000002100F01BFA2C6070BD00000B4910B56B
:105D4000A1F17C020A4CC2E93712372106E000EBD0
:105D5000104342F82130074B00FB03400B1EA1F11A
:105D60000101F4DC10BD0120E8E700008878002084
:105D7000E119D666CD0D0100401ECAB210F8011F10
:105D80008A4202D00029F9D10020704730B505467B
:105D90000B462A4613F8014B12F8010B08B1A0423A
:105DA000F8D01CB1002802D06D1CF1E7284630BDA8
:105DB00040EA0103024630B59B0710D14FF0013491
:105DC00000E008C208C91D1B9D4315EAC41FF8D096
:105DD00013F0FF0102F8011B0DD01B0AF8E711F8C0
:105DE000013B002B02F8013B05D011F8013B002BD1
:105DF00002F8013BF3D130BD032A40F2308010F0AD
:105E0000030C00F0158011F8013BBCF1020F624455
:105E100098BF11F801CB00F8013B38BF11F8013BE6
:105E2000A2F1040298BF00F801CB38BF00F8013B93
:105E300011F0030300F06780083AC0F0088051F8C1
:105E4000043B083A51F804CBA0E80810F5E7121D0E
:105E50005CBF51F8043B40F8043BAFF30080D2072D
:105E600024BF11F8013B11F801CB48BF11F8012BF9
:105E700024BF00F8013B00F801CB48BF00F8012B1C
:105E80007047431A28BF9A427FF6B6AF032A1044E0
:105E9000114440F2268010F0030F1EBF11F8013D9F
:105EA000521E00F8013D10F0030F7FF4F6AF11F021
:105EB000030300F0A681083AC0F00B8051F8043DBE
:105EC000083A51F804CD40F8043D40F804CDFFF7FE
:105ED000F3BF121D5CBF51F8043D40F8043DAFF321
:105EE0000080D20724BF11F8013D11F801CD48BF51
:105EF00011F8012C24BF00F8013D00F801CD48BF86
:105F000000F8012C704710B5203AC0F00B80B1E8C2
:105F10001850203AA0E81850B1E81850A0E81850DE
:105F2000BFF4F5AF5FEA027C24BFB1E81850A0E8E7
:105F3000185044BF18C918C0BDE810405FEA827C01
:105F400024BF51F8043B40F8043B08BF7047D20718
:105F500028BF31F8023B48BF11F8012B28BF20F8B9
:105F6000023B48BF00F8012B704702F0FF0343EAF1
:105F7000032242EA024200F002B84FF00002042974
:105F8000C0F0128010F0030C00F01B80CCF1040C68
:105F9000BCF1020F18BF00F8012BA8BF20F8022B9C
:105FA000A1EB0C0100F00DB85FEAC17C24BF00F842
:105FB000012B00F8012B48BF00F8012B70474FF070
:105FC000000200B5134694469646203922BFA0E849
:105FD0000C50A0E80C50B1F12001BFF4F7AF090755
:105FE00028BFA0E80C5048BF0CC05DF804EB890046
:105FF00028BF40F8042B08BF704748BF20F8022B89
:1060000011F0804F18BF00F8012B70477047000057
:1060100000487047F078002010B5FFF7F9FF0068DE
:1060200010BD10B50446FFF7F3FF046010BD2DE965
:10603000F0470D4699469246044600F1240801684F
:10604000880604D5E06921F01001216000E00120FC
:10605000A84201DD471B00E00027A1697A1902EB85
:106060000900081AA0612078C00602D42046FFF774
:106070002FFD002608E0D4E901211AF80600904718
:10608000206A401C761C20624E45F4DB2078C00656
:106090000AD52046FFF71CFD06E0D4E90121302097
:1060A0009047206A401C2062381EA7F10107F4DCEB
:1060B00007E0D4E9012118F805009047206A401C48
:1060C0002062281EA5F10105F3DC2046FFF716FD2E
:1060D0002078000602D50220BDE8F0870120FBE70A
:1060E00001694A1C02610878704700B58FB0CDE99C
:1060F00001310021059105497944CDE9031011468C
:106100006846FFF771FD0FB000BD0000E5FFFFFF1F
:106110000A6802F8010B0A60704710B5436913B1B1
:10612000AFF3008001E0FFF7FAFC012010BD127808
:1061300000F124010A7000224A700122EDE7116883
:106140004FF0FF32E9E70000074B70B50D467B4486
:10615000FFF7CBFF0446284600F0D5F810B14FF00A
:10616000FF3070BD204670BD4B8D01002DE9F0471A
:1061700091460F4680460446002614F8015B2DB177
:1061800000F06AF80068405DC007F6D12B2D02D000
:106190002D2D18D0641E4A463946204600F064F87A
:1061A00027B13968A14201D1C7F800804FF002043D
:1061B00071050BD54042002803DDFFF729FF04607D
:1061C000A007BDE8F08746F48066E4E70028F8DA27
:1061D000FFF71EFF04606FF00040F2E7431A28BF8C
:1061E0009A427FF690AE104410F0030F11441EBF88
:1061F00011F8013D521E00F8013D10F0030F7FF42D
:10620000F6AF103AC0F00A8010B531E91850103AD4
:1062100020E91850BFF4F9AFBDE81040530724BF80
:1062200031E9081020E9081044BF51F8043D40F856
:10623000043D12F0030F08BF7047D20728BF31F8A2
:10624000023D48BF11F8012C28BF20F8023D48BF8D
:1062500000F8012C7047000010B500F059F8001D3F
:1062600010BD00BF759101002DE9F05F8246154613
:106270008B4600270AF10104B9460078302801D086
:106280009DB113E014F8010B0127782803D058289A
:1062900001D045B10AE00DB1102D07D1002714F847
:1062A000010B102502E0082500E00A250026B04673
:1062B0000EE005FB080005FB06F101271FFA80F838
:1062C00001EB1046B6F5803F00D3B94614F8010B38
:1062D000294600F021F80028EBDABBF1000F05D0C9
:1062E0000FB1641E00E05446CBF80040B9F1000F36
:1062F00006D0FFF78DFE02210160C81EBDE8F09FA9
:1063000048EA0640FAE7007B00F080007047000092
:1063100000487047107900203A2800D2303820F029
:106320002002412A01D3A2F13700884201D34FF065
:10633000FF30704710B50446AFF300802046BDE83B
:106340001040FFF771BB00004FF0013C50F8042BE8
:1063500051F8043B9A4221D1A2EB0C03934313EA78
:10636000CC1317D150F8042B51F8043B9A4215D1A5
:10637000A2EB0C03934313EACC130BD150F8042B7C
:1063800051F8043B9A4209D1A2EB0C03934313EA60
:10639000CC13DBD04FF00000704700BFD01A01BA19
:1063A000B1FA81F101F0180122FA01F0CB40C1F1FC
:1063B0002001DBB2C0B2C01A2CFA01F3D11A91430A
:1063C00011EAC311E6D17047002800DC4042704753
:1063D00007490020C1F8A4010120C1F8AC0105491A
:1063E000C1F89C010449C1F88C01C1F89801FEE78D
:1063F0000000244200002242008022422DE9F05F8A
:10640000DFF834E14FF0000C67469EF80010E346D9
:106410004FF0010A494D4A4EDFF82881DFF82891F4
:1064200007E037B1012F0BD0022F12D0032F21D15B
:1064300018E0C5F8A4B1C6F88CA1C5F894A10EE087
:10644000C5F8A4A1C6F88CB1C5F894A1C5F898A167
:1064500010E0C5F8A4A1C6F88CA1C5F894B1C5F8A0
:1064600098A107E0C5F8A4A1C6F88CA1C5F894A12D
:10647000C5F898B10020401CC0B20A28FBD3002008
:1064800009EB87030FE070B1012808BFD5F8282178
:106490000BD0022808BFD6F8182106D0032808BF61
:1064A000D8F8182101E0D5F82C215CEA020408BFD5
:1064B000195C401CC0B20428E5D3781CC7B2042F75
:1064C000AFD38EF80010214A9EF8010049B140BBBD
:1064D0001068DEF80420801A642888BF8EF8011046
:1064E00025E0F0B11168DEF80430C91AB1F57A7F01
:1064F00009D90B2808BF102003D00C2808BF0F2093
:1065000001D18EF801001068CEF804008EF800B0BA
:106510009EF801408EF801B018F008FE2046BDE854
:10652000F09FC0B2084304BF1068CEF804008EF894
:1065300000B00020BDE8F09F5C0000200000244275
:106540000080224200002242E405020834000020BC
:1065500010B501200CF032FCBDE8104000200CF01A
:106560002DBC81B000F1804000F5D840009000883B
:1065700001B0704781B000F1804000F5D840009034
:10658000016001B0704700002DE9F047ADF5187DBE
:106590000021C64809F084FF4FF4407009F076FFEF
:1065A000C3484FF47A714FF000080068B0FBF1F077
:1065B000411EB1F1807F0AD24FF0E0204161BD4A17
:1065C000F02182F8141DC0F8188007210161012113
:1065D00040200CF0B7FB03F08FFBB748D0F8200148
:1065E000B64D012400280CBF2C7085F8008085F87A
:1065F000008005F039F8042012F00AF9B0480AF0DA
:1066000029FD012011F002FA05F0EEFE012005F04F
:1066100029FE022005F0A4FD0EF006FD28780225D3
:1066200001284FF01403009500F01C81E8225F213F
:1066300014200AF05EFC06460023A2A26FF00E01B1
:106640005FF0500007F0DAF9012130460AF010FD42
:10665000012004F06FFB4FF4614018F087FEDFF873
:106660007CA2504605F038FDDFF8749299F80000DE
:10667000002800F00381012800F00681FF2005F0CA
:106680002BFDDC22502197A004F012FC40F20513F0
:10669000322297A102A8FFF707FA02AFCDE90078EE
:1066A000DC224FF4F07351000A200CF031FB0EF0A5
:1066B00015FDA0F56F41163908BF08F085FF1E21B2
:1066C00030460AF0D5FC8D48006808F0F3FF4FF023
:1066D000FF1005F001FD8AA0CDE90004322340F24D
:1066E000D7120F2100200CF013FB6FF07F4005F054
:1066F000F3FC8AA0CDE900052D234FF487720A210F
:1067000000200CF005FB8D4805F0E6FC4FF4165018
:1067100018F088FD4FF4E13018F0CEFD99F8001024
:106720008748DFF82092002918BFC9F88C41C9F8C2
:106730009441C0F8844118BFC9F898414FF40A71D8
:106740008148FFF73CFC0DF08BFD01467F482A296C
:106750007DD080F80080FF2005F0BEFC7CA000BF4B
:10676000FFF796F9DC224FF4C8717DA004F0A0FB7E
:10677000142130460AF07CFC012004F0DBFA0CF016
:106780002BFD7948C0F884414FF4F07277491CA87A
:10679000FFF7B9FB012148070CF0E0FA01210520C1
:1067A0000CF0F4FA2020ADF8000018208DF803005A
:1067B00003208DF8020069466D4803F06BFC01214F
:1067C00002200CF0BFFA00F0B3FE94A800F0E1FE46
:1067D000CDF85082CDF8548294A91020CDF85C8277
:1067E00000F0B2FE0121102000F04EFEC9F88C41ED
:1067F00060480AF04FFD2824214630460AF038FC54
:10680000142004F097FA611C0CB2502CF4DB9F2486
:1068100009F010FC224658A102A8FFF745F9CDE97E
:106820000075DC234FF4F072A02100200CF070FA08
:10683000304611F079FD04F0BBFD514845F2555149
:1068400001600521416040F6C311816000E022E053
:106850004AF6AA2101604CF6CC4101600DF5187D85
:10686000BDE8F08780224FF4967148200AF041FB82
:1068700006460023502113A2B420E3E64FF4E6724B
:106880000A2140A004E000BF4FF4E6720A213FA0B5
:1068900004F00EFBFAE60470504605F01DFC0022E1
:1068A0000DA1294817F05EFE3AA059E700580008EC
:1068B0001C0000200FE000E00080234201000020C7
:1068C000D10F0108303A616E692F41303030302FDE
:1068D000303032382E626D700000000080FF800082
:1068E0000000002048573A20556E6B6E6F776E009F
:1068F0005625642E25303364000000000800002077
:10690000D8B3D98AD985D8B1D8BA20D8ACD987D844
:10691000A7D986DAAFD8B3D8AAD8B100D8B4D98766
:10692000D8B1D8A8D8A7D8B2D98A20D9BED8A7D9E3
:1069300084D8A7D8AFD98AD988D9850000FFFF00AD
:106940000000214200002342342A002019000020C8
:106950000A0D4D6963726F5344204552524F5200E5
:106960004D6963726F53440000002242F003020835
:106970000008014028750008202564202A20000016
:106980000030004048573A205631000048573A201E
:10699000563200000A0D4D6963726F5344204F4B0D
:1069A00000000000FEE7CA78120202608B781A44E9
:1069B000120202604B781A441202026009781144F4
:1069C000016070477CB5214C0546216831F8220FE3
:1069D0004A8D104408804888CA8D10444880284653
:1069E00004F0E2FD2168498CADF8001046182846F5
:1069F00006F0A2FD3044401EADF8040004F0F4FDA2
:106A00002168898CADF802100844401EADF80600DC
:106A1000684612F097F804E0284602F00FFE12F0E4
:106A200053F80028F8D10A2D04D0BDF804002168DD
:106A3000401C4884206830F8221F428D891A01804A
:106A40004188C28D891A41807CBD0000101200204F
:106A50002DE9F04F8846824691460421052000F03A
:106A600059FC80210A200FF07DFA0025274C0127D0
:106A70002E46B8F1000F0FD91AF805B0C4F8B4616A
:106A8000122018F07FFB584618F07CFBC4F8B47154
:106A9000681CC5B2A845EFD80325C4F8B46102202C
:106AA00018F070FB284618F06DFBC4F8B471FF2590
:106AB0004FF08A08C4F8B461404618F063FB002028
:106AC00018F060FBC4F8B471691E11F0FF0502D024
:106AD00010F0040FEED0C4F8B461C42018F052FBDB
:106AE000002018F04FFBC4F8B47189F80000C4F816
:106AF000B461C22018F046FB002018F043FBC4F834
:106B0000B47189F80100BDE8F08F00000000244254
:106B100010B582B00122002113A007F09FF9041ED6
:106B200004BF02B010BD0122002113A007F096F9A6
:106B3000002804BF02B010BD844208D11348046588
:106B40000EF0D2FD012009F0B5FC02B010BD042109
:106B50004FF47A70CDE90001002301220CA1184600
:106B600010F0CEFA02B010BDD8B1D985D8B220D875
:106B7000ACD8AFD98AD8AF00D8AADAA9D8B1D8A7EB
:106B8000D8B120D8B1D985D8B20000004414002073
:106B9000D8B1D985D8B220D8A7D8B4D8AAD8A8D87F
:106BA000A7D98720D8A7D8B3D8AA000010B5054C1C
:106BB000002205A0D4F8B01307F050F9C4F8B003D0
:106BC00010BD000044140020D981D8B9D8A7D984B9
:106BD00020D8A8D988D8AFD98620D8B1D984D98768
:106BE000202D20D985D98AD984D98A20D8ABD8A795
:106BF000D986D98AD987000010B50A4C04F2E6304C
:106C0000FFF78EF80146002207A007F027F9024699
:106C10000AA104F2E630FEF747FF012009F04AFC22
:106C200010BD000044140020D8B1D985D8B220D9B5
:106C300088D8A7D98AD981D8A7D98A002564000025
:106C400030B5144C144A83B0FB2804BFA1F5685337
:106C5000B3F1A50315D09268824202BF002003B0B1
:106C600030BDC1F312030DA20A21CDE90012024684
:106C7000002102200FF0C0FF0320A06203B001201A
:106C800030BD01250020156509F014FC0EF02CFD27
:106C9000A562F3E77C1100204414002000000000EE
:106CA0002DE9F04F6B4D002483B028782646AA28A2
:106CB0004ED1286A002818BFB0F1FF3F48D066487F
:106CC0004FF000074FF020010780644807706448C8
:106CD00007706448FFF751F90EF042F900200EF0FA
:106CE0004FF9642004F026F85E4A202100200EF0BF
:106CF00027FD0EF035F934200EF042F9642004F03F
:106D000019F800970023012257A10220019710F0E3
:106D1000F7F95048DFF87091016AD9F8080081420C
:106D20001AD000230097012258A11846019710F0AD
:106D3000E7F9484847624FF4FA60C9F8087003F071
:106D4000F9FF5B490320086003B00120BDE8F08F24
:106D500003B00120BDE8F08F0025DFF858B1DFF85F
:106D600004814AF6AA2A002803D817E0B0F5806FFC
:106D70000BD1CBF800A04FF4806205F500713948C3
:106D80000EF082F9D9F8081000206D1C18F80020C8
:106D9000401C1644224494B28D42E7D32D4D686ABC
:106DA000B04215D000230097012243A11846019755
:106DB00010F0A6F96F624FF4FA60C9F8087003F09A
:106DC000B9FF3B490320086003B00220BDE8F08F03
:106DD000CBF800A0C22088F8000088F80140200A03
:106DE00088F80200D9F8081088F803100A0A88F811
:106DF00004200A0C88F80520090E88F80610552092
:106E000088F807000EF0ACF800200EF0B9F8642006
:106E100003F090FF134A202100200EF091FC0EF0A9
:106E20009FF834200EF0ACF8642003F083FF0023B9
:106E300000971A4628A10220019710F061F940F648
:106E4000B83003F077FF4FF4C07250217F2012F06A
:106E50000BFAFEE7CC6F00208C1100208611002079
:106E60007D1100200C700020D8A8D8B1D8B1D8B3BB
:106E7000D98A20D986D8B3D8AED98720D8ACD8AF94
:106E8000D98AD8AF0000000064110020D8AED8B76E
:106E9000D8A720D8AFD8B120D8ADD8ACD98520D8C4
:106EA000A7D8B7D984D8A7D8B9D8A7D8AA0000003E
:106EB000A411002000300040D8AED8B7D8A720D801
:106EC000B5D8ADD8AA20D8A7D8B7D984D8A7D8B96B
:106ED000D8A7D8AA00000000D8A8D8B1D986D8A7CA
:106EE000D985D98720D8ACD8AFD98AD8AF20D8AF28
:106EF000D8B1D98AD8A7D981D8AA20D8B4D8AF0018
:106F0000F0B5C44C0325B5B020780A282ED0C2486D
:106F1000006808F0CFFBC14805F0DEF81C2340F202
:106F200007120521EE20009504F0CCFABC4805F0CC
:106F3000D3F802230622F021207803F019FFB94884
:106F4000002180F8CB1180F8BB1180F8DB1180F8AC
:106F5000EB1120780B2824BF35B0F0BDDFE800F03E
:106F600038444C5C758FABF9F7F6F500AE4805F088
:106F7000B3F81C2340F207120521EE20009504F01F
:106F8000A1FAAA480068002814BF4FF40040FF206F
:106F900005F0A2F804221021F42004F023FA0B23B8
:106FA0004FF480721021F42004F030F904220B21F8
:106FB000900104F017FA16234FF480721021F42088
:106FC00004F024F904221621900104F00BFAB6E72C
:106FD000974D0020C5F88401642005F5C27503F0C3
:106FE000A9FE0120286013E092A1944810F0F6FE5B
:106FF00093A007F0CDF80BE092A1904810F0EEFEC0
:107000008FA007F0C5F8002818BF002040F0CE8000
:107010002078401C00F0CAB800252561E5604FF4D7
:1070200096618C486561FEF7A8FF844E8AA13046C0
:1070300010F0D4FE2561E5604FF4966185486561E6
:10704000FEF79BFF88A1304616E000202061E0603B
:1070500060614FF496617F48FEF78FFF864800908D
:10706000A0F5EE7000F5E67300F5D67283A102A8D4
:10707000FEF71AFD02A9714810F0B0FEC8E700251E
:107080002561E5604FF4966172486561FEF775FF12
:10709000644881A100F2E63300F56D7202A8FEF7A4
:1070A00003FD02A9654810F099FE2078401C20706D
:1070B000657035B0F0BD00252561E5604FF496613F
:1070C00064486561FEF759FF794E5C4F79A13570D0
:1070D000384610F083FE7BA007F05AF8002808BF5E
:1070E000657095D072487AA1FEF750FE18B97AA162
:1070F000FEF74CFEE0B16178491CC9B261700A2903
:107100009CBF35B0F0BD74A1FEF740FE68B12561AB
:10711000E5604FF496614F486561FEF72EFF3570CC
:1071200064A1384610F05AFE6570257035B0F0BD88
:107130006078401CC0B2607003289CBF35B0F0BDC1
:1071400009202070657035B0F0BD58E030E01BE0DC
:10715000FFE700202061E06060614FF496613D48E8
:10716000FEF70BFF2F4840F2BC4300F5DE72C0F87B
:10717000EC315AA102A8FEF797FC02A92F4810F0A3
:107180002DFE2078401C11E05BA007F001F840B113
:107190006078401C10F0FF00607018BF0620D2D04D
:1071A00004E02DA1254810F019FE09202070CAE73F
:1071B00000252561E5604FF4966126486561FEF77C
:1071C000DCFE1E4E28A1304610F008FE1CA006F082
:1071D000DFFF2561E5604FF496611E486561FEF7AB
:1071E000CCFE334846A10570304610F0F7FD48A0AC
:1071F00006F0CEFF2078401C2070A560A3E7012098
:10720000A070A068401CA060242884BF0020A0704B
:10721000CCD898E7441100201400002040404000E2
:1072200080FF80004414002000FFFF009C1100201C
:1072300000002242415445300A0D00000048004041
:107240004F4B000041542B4349504D55583D300A97
:107250000D0000001C69002041542B43574D4F4442
:10726000453D310A0D00000041542B4349504D4F1C
:1072700044453D310A0D00002016002041542B43A7
:1072800049505354413D222573222C222573222C30
:10729000222573220A0D000041542B43574A4150C6
:1072A0003D222573222C222573220A0D00000000A6
:1072B0001C65002041542B434950535441545553AD
:1072C0000A0D00005354415455533A320000000057
:1072D0005354415455533A006275730041542B4343
:1072E000495053544152543D22544350222C22259C
:1072F00073222C25640A0D00434F4E4E4543540023
:1073000041542B43495053454E440A0D00000000A0
:107310003E0000002DE9F041114D00260F460446C5
:10732000C5F8B461802040EA4400C0B205F5DA75C2
:1073300017F028FF002017F025FF4FF00108C5F8CF
:10734000008020EA07072E607E2000EA440017F044
:1073500019FF384617F016FFC5F80080BDE8F08128
:107360000000244270B5464905462A24486B10F0B7
:10737000450F03D1486B10F0450FFBD010F0040F00
:1073800005D0032404200CF031FD204670BD10F020
:10739000010F05D0012420460CF028FD204670BDC9
:1073A0000CF064FDA84234D140F2FF500CF01EFDF9
:1073B00000200CF07DFD334908425ED010F0004FF4
:1073C0001CBF1C2070BD10F0804F1CBF092070BD79
:1073D00010F0005F1CBF0A2070BD10F0805F1CBF62
:1073E0000B2070BD10F0006F1CBF0C2070BD10F0A2
:1073F000806F1CBF0D2070BD10F0807F1CBF0E2061
:1074000070BD10F4000F1CBF0F2070BD10F4800F72
:1074100001D0102070BD10F4001F1CBF112070BDE2
:1074200010F4801F1CBF122070BD10F4002F1CBF71
:10743000132070BD10F4802F1CBF142070BD10F4F9
:10744000003F1CBF152070BD10F4803F1CBF1620EC
:1074500070BD10F4004F1CBF172070BD10F4804F9A
:107460001CBF182070BD10F4005F1CBF192070BD38
:1074700010F0080F1CBF1A2070BD204670BD000020
:107480000080014008E0FFFD054A012303FA00F0F7
:107490000029116814BF084321EA000010607047FA
:1074A0000074004000B5FDB04FF4F0721B4968460F
:1074B000FEF729FD012148070BF050FC01210520B2
:1074C0000BF064FC2020ADF8F00118208DF8F301DA
:1074D00003208DF8F2017CA9114802F0DBFD0121A7
:1074E00002200BF02FFC00F023F878A800F051F8F0
:1074F0000020789079907B9078A9102000F024F8F3
:1075000001211020FFF7C0FF06490120C1F88C01BE
:1075100005A009F0BFFE7DB000BD0000F003020829
:10752000000801400000234231322E7761760000CE
:1075300010B5012148070BF01DFCBDE810400021EB
:107540004FF000500BF016BC0B4B10B41A6840F60D
:10755000FE7C0CFA00FC22EA0C02D1E900C44CEAE1
:10756000040CD1E9024121434CEA010101FA00F087
:107570001043186010BC704700740040A0F6EC3057
:1075800081B000F1804000F500400090016001B042
:1075900070470021016041608160C1607047000058
:1075A00010F0805F19BF02490860024948607047C7
:1075B00004040240000002400029016812BF41F0AB
:1075C00001014FF6FE72114001607047002110F07A
:1075D000805F14BF034A044A1268024218BF0121A7
:1075E00008467047000402400000024010B40268E0
:1075F000D1F820C08B686FF30E1243EA0C03D1E977
:1076000004C44CEA040C43EA0C03D1F818C043EA62
:107610000C03D1F81CC043EA0C03D1F824C043EAA0
:107620000C03D1F828C043EA0C031A430260CA686D
:1076300042600A6882604968C16010BC7047704748
:107640002DE9F00FC37890F802C084790CEB032386
:1076500090F801C0857A0CEB032390F800C0867B7C
:107660000CEB0323D1F8A0C083EA0C0390F807C009
:1076700004EB0C2C447904EB0C2C047904EB0C2C5B
:10768000D1F8A4408CEA040CC47A4FEA1C6905EBDB
:107690000424457A05EB0424057A05EB0424D1F88B
:1076A000A8506C40C57BC4F3074806EB0525467B14
:1076B000007B06EB052500EB0520D1F8AC50DEB2CF
:1076C0004540FC48C5F307274FEA156B50F8266084
:1076D00050F8277050F8288086EA376650F82990CD
:1076E00086EA384686EA3926D1F89070C3F307282F
:1076F0007E4050F828900CF0FF07C5F3074850F87B
:10770000277050F828A04FEA146887EA396750F8C4
:10771000288087EA3A4787EA3827D1F89480CCF363
:10772000072987EA080704F0FF08C3F3074A50F85F
:10773000288050F8299050F82AA050F82BB088EAF9
:10774000396888EA3A4888EA3B28EDB2C4F307244E
:10775000CCF3074C50F8255050F824401B0E50F83D
:107760002CC050F8233085EA346484EA3C4C8CEA1F
:107770003323D1F89CC0D1F8989083EA0C04F3B27B
:1077800088EA090850F823C0C4F307234FEA146BB2
:1077900050F82390C8F307438CEA396C50F8235013
:1077A0003B0E8CEA354C50F82330C4F307498CEA81
:1077B0003323D1F880C0C6F3072583EA0C0307F012
:1077C000FF0C50F8255050F82CC050F829A08CEA36
:1077D000356C8CEA3A4C4FEA1869D1F8845050F86D
:1077E0002990C6F3074A8CEA392C8CEA050C08F07C
:1077F000FF05C7F30729E4B2C8F3072850F824406F
:1078000050F8288050F8255050F82990C7F30747C2
:1078100084EA3864360E50F82AA085EA396550F8B3
:10782000277050F82BB050F8266085EA3A45D1F819
:10783000889084EA374485EA3B2584EA362485EA41
:107840000905D1F88C60C5F30748744050F82890BA
:10785000DEB2C4F307274FEA1C6850F8266050F8E0
:10786000277050F8288086EA376686EA39460F6F17
:1078700086EA38267E400CF0FF074FEA146B50F87A
:107880002780C3F3072750F82BB050F82790C4F394
:10789000074788EA396850F827A02F0E88EA3A4847
:1078A00050F82770CCF3072988EA3727D1F874807D
:1078B000E4B287EA080705F0FF08C5F30725C3F31C
:1078C000074ACCF3074C50F8244050F825501B0EC3
:1078D00050F82CC050F8233084EA356484EA3C4CDC
:1078E0008CEA3323D1F87CC050F8288050F82990D6
:1078F00083EA0C04F3B250F82AA088EA396850F8F9
:1079000023C088EA3A48D1F87890C4F3072388EA7C
:107910003B2888EA090850F82350C8F307434FEA88
:10792000176950F823308CEA356C50F829908CEAAE
:107930003343D1F860C083EA392383EA0C0307F0AC
:10794000FF0C50F82C50C6F3072C50F82C90C4F3C1
:10795000074C85EA396550F82CA04FEA186C85EA87
:107960003A4550F82CC0C7F3072985EA3C2C4D6EE8
:1079700050F829908CEA050C08F0FF05C6F3074A79
:1079800050F825504FEA146BE4B2C8F30728C7F348
:10799000074750F8244050F82880360E50F82770DA
:1079A00050F8266084EA386484EA374484EA36244E
:1079B000CE6E50F82AA085EA396550F82BB0744095
:1079C00085EA3A45D1F8689085EA3B25DEB2C4F3F2
:1079D000072785EA090550F8266050F82770C5F397
:1079E00007484FEA1C6950F8288086EA376650F845
:1079F000299086EA38460F6D86EA39267E400CF0DB
:107A0000FF074FEA146B50F82780C3F3072750F89D
:107A10002BB050F82790C4F3074788EA396850F82C
:107A200027A02F0E88EA3A4850F82770CCF3072990
:107A300088EA3727D1F85480E4B287EA080705F0CE
:107A4000FF08C5F30725C3F3074ACCF3074C50F8EA
:107A5000244050F825501B0E50F82CC050F823300D
:107A600084EA356484EA3C4C8CEA332350F828805D
:107A700050F82990D1F85CC050F82AA088EA3968FB
:107A800083EA0C04F3B288EA3A48D1F8589088EABD
:107A90003B2850F823C088EA0908C4F30723C8F339
:107AA00007454FEA176950F8233050F8255050F831
:107AB000299001E0380900208CEA336383EA3543DA
:107AC000D1F840C083EA392383EA0C0307F0FF0CA6
:107AD0004FEA146B50F82C50C6F3072C50F82BB01B
:107AE00050F82C90C4F3074C85EA396550F82CA067
:107AF0004FEA186C85EA3A4550F82CC0C7F30729BD
:107B000085EA3C2C4D6CC6F3074A8CEA050C08F05C
:107B1000FF05E4B2C8F30728C7F3074750F824402D
:107B200050F82880360E50F8277050F8266084EA06
:107B3000386484EA374450F8255050F8299084EA94
:107B40003624CE6C50F82AA085EA3965744085EA5F
:107B50003A45D1F8489085EA3B25DEB2C4F30727C1
:107B600085EA090550F8266050F82770C5F30748E4
:107B70004FEA1C6950F8288086EA376650F8299049
:107B800086EA38460F6B86EA39267E400CF0FF07FE
:107B900050F82780C3F3072750F82790C4F307470E
:107BA00088EA396850F827A02F0E88EA3A4850F83A
:107BB0002770CCF3072988EA3727D1F8348050F8AA
:107BC000299087EA080705F0FF08C3F3074A50F831
:107BD00028804FEA146BE4B2C5F30725CCF3074CB9
:107BE00050F8244050F825501B0E50F82CC050F887
:107BF000233084EA356484EA3C4C8CEA3323D1F8A0
:107C00003CC050F82AA088EA396850F82BB083EAC3
:107C10000C0588EA3A48D1F8389088EA3B28F3B254
:107C200088EA090850F82340C8F3074CC5F3072336
:107C300050F82C9050F823304FEA176C84EA3363E5
:107C400050F82CC083EA394383EA3C23D1F820C0A2
:107C500083EA0C04FBB250F823A0C6F3072350F8C4
:107C600023C0C5F307438AEA3C6C50F823904FEADF
:107C700018638CEA394C50F823308CEA3323D1F85E
:107C800024C083EA0C0308F0FF0C50F82C90C7F3D3
:107C9000072CC7F3074750F82CA0C6F3074C89EA16
:107CA0003A6950F82CB04FEA156C89EA3B4950F814
:107CB0002CC0EDB289EA3C2CD1F82890360E8CEA23
:107CC000090C50F82590C8F3072550F8277050F894
:107CD000255050F8266089EA356585EA374585EAFA
:107CE0003625CE6A85EA0608E5B250F82550C8F375
:107CF0000726CCF3074750F8266050F827901F0E50
:107D000085EA366550F8277085EA39450E6985EAB7
:107D100037257540DEB2C8F3074950F82670C4F322
:107D200007264FEA1C6A50F8266050F8299087EA27
:107D3000366650F82AA086EA39464F6986EA3A261E
:107D40007E400CF0FF07CCF3072C50F82790C3F3CC
:107D50000727C3F3074350F827A0C4F3074750F899
:107D60002CC050F827B04FEA186708F0FF0850F809
:107D7000277050F82880240E50F8233050F8240043
:107D800088EA3C6C8CEA334383EA3020CB6989EA89
:107D90003A6989EA3B4980EA030889EA3727444877
:107DA000D1F81890EBB287EA0907C8F3072CC7F39C
:107DB000074450F8233050F82CC050F82490340E6B
:107DC00083EA3C6350F8244083EA394383EA34234E
:107DD000C5F30724D1F800C050F8249083EA0C03BF
:107DE000C8F3074406F0FF0C50F824A050F82CC04C
:107DF0003C0E8CEA396C50F824408CEA3A4C8CEA00
:107E0000342C4C688CEA040CFCB2C7F3072750F8FA
:107E10002490C6F30724C6F3074650F824A0C5F300
:107E2000074489EA3A6950F824B04FEA186408F028
:107E3000FF0850F8244089EA3B492D0E89EA342492
:107E400050F8288050F8277050F82660D1F8089034
:107E500050F8250088EA376585EA3645C96885EA1D
:107E600030204840190ED170190C9170190A5170C8
:107E700013704FEA1C61D1714FEA1C4191714FEAB6
:107E80001C21517184EA090482F804C0210ED172C8
:107E9000210C9172210A51721472010ED173010CDE
:107EA0009173010A51731073BDE8F00F7047000021
:107EB000380D00202DE9F0478046494882B09146B0
:107EC00000780F4600281CBF02B0BDE8F087DFF83D
:107ED00014A1504604F000F9434D0324009428787F
:107EE00040F2DB1200F20F1300F1FA0140F24510EC
:107EF00003F0E8FA4FF6FF7004F0EEF800942878EB
:107F000040F2DB1200F20F1300F1FA0140F24510CB
:107F100003F006FA6FF07F4004F0DEF80226CDE9A8
:107F2000009640F20F1340F2DB12F02140F24510B0
:107F30000AF0EEFE504604F0CFF80094287840F2A4
:107F40003B1200F20F1300F1FA01A52003F0BAFA78
:107F50004FF6FF7004F0C0F80094287840F23B120E
:107F600000F20F1300F1FA01A52003F0D9F96FF028
:107F70007F4004F0B1F8CDE9007640F20F1340F2F3
:107F80003B12F021A5200AF0C3FE504604F0A4F8ED
:107F9000009428789B2200F20F1300F1FA010520CB
:107FA00003F090FA4FF6FF7004F096F800942878EA
:107FB0009B2200F20F1300F1FA01052003F0B0F943
:107FC0006FF07F4004F088F8CDE9008640F20F138F
:107FD0009B22F02105200AF09BFE02B0BDE8F0874D
:107FE00000000020006C0B00040000202DE9F04F81
:107FF00083B09A46164689468346072A0FD22EB189
:10800000062E08BFB9F1070F03D004E0B9F1070F3E
:1080100001D34FF0010A00270024254691E0B01F4C
:108020004FF0010AC7B2F7E72234BAF1000F04D1CA
:108030007819B04218BF48457DD107EB0500B04222
:1080400010D10620454A00904549CDE9011204F1BE
:1080500021034FF48772A11C002003F047F84FF66C
:10806000FF701CE0002004F037F80620009004F1B7
:1080700020034FF48772E11C002003F023FA6FF015
:108080007F4004F029F80620009004F121034FF40A
:108090008772A11C002003F043F94FF47F4004F0E5
:1080A0001BF898F81C0018B3642816D3A0F16401DB
:1080B000012088402B4980B24FF0010309788843A2
:1080C00005D029A2A11DE62005F098FC16E027A204
:1080D000A11DE62005F092FC10E022494FF00103BB
:1080E0000978884205D122A2A11DE62005F086FC70
:1080F00004E020A2A11DE62005F080FC1E49D8F86E
:1081000010C000230878ADF800304FF48273ADF84A
:108110000430201A097800F123020844ADF8020067
:1081200088184FF00108ADF80600434642466946FC
:10813000604602F0C5FE6D1C072DA4BF03B0BDE86C
:10814000F08FE8190BEB4018D8F8000000780028F1
:108150007FF46AAF03B0BDE8F08F0000002828006C
:1081600000DCDC00601100203031300030313100A3
:108170003031350030313400040000202DE9F04F5B
:1081800083B09A461646884681460C2A0FD22EB1F5
:108190000B2E08BFB8F10C0F03D004E0B8F10C0FA0
:1081A00001D34FF0010A002700252C4642E0A6F13A
:1081B0000B004FF0010AC7B2F6E72335BAF1000F02
:1081C00004D13819B04218BF40452DD107EB040047
:1081D000B0420CD11C491D48CDE9000105F1240332
:1081E0004FF488722946002002F0B6FF0CE06FF0D1
:1081F0007F411748CDE9000105F124034FF488724F
:108200002946002002F0A8FF002003F065FF0C21A2
:1082100009EB4B00CDE9000105F123034FF4877210
:10822000294600200AF074FD641C0C2CA4BF03B086
:10823000BDE8F08FE019C0EB001B19F81B00002807
:10824000BBD103B0BDE8F08F41ACFF000160F70087
:10825000E4DFDA0000B583B00CF082FE00200CF001
:108260008FFE642002F066FD012200210FA005F0C0
:10827000F5FD39284FF000001CBF03B000BD009091
:10828000002301901A4612A118460EF039FF0CF097
:108290008BFE07F06BFB0CF063FE34200CF070FEDD
:1082A000642002F047FD03B000BD0000212121D869
:1082B000ADD8A7D981D8B8D98720D9BED8A7DAA98F
:1082C00020D985D98A20D8B4D988D8AF21212100D6
:1082D000D8A2D985D8A7D8AFD98720D8B3D8A7D85E
:1082E000B2D98A20D8ADD8A7D981D8B8D98700000B
:1082F0002DE9F05F6FF07F4003F0EEFE0F210522C5
:10830000084603F06FF8384D384C394FA8780026EE
:108310004FF002084FF00E094FF0040A4FF0630BC4
:1083200080B16878002808BFBDE8F09F2820287039
:1083300030480078AA281CBF2E706E702AD0012009
:10834000BDE8F09F84F8008084F801903888A07020
:10835000000AE07084F804A0667184F806B0A020DA
:10836000E071267266720922611C002016F00CF87A
:10837000A072000AE072032020731C490D200FF048
:1083800057FE0120A880A87800281CBF6878002824
:10839000CCD1D4E7A8880028D1D084F8008084F814
:1083A00001903988A1704FEA1121E17084F804A08E
:1083B000667184F806B04FF0A001E17120724FEAB7
:1083C000102060724FF0090204F101014FF000002B
:1083D00015F0DAFFA072000AE0720320207303494F
:1083E0000D200FF025FEAAE7641100200C7000207C
:1083F00044140020CC6F00200248002181604160BD
:10840000C1607047A40000202DE9F00FC37890F8F8
:1084100002C084790CEB032390F801C0857A0CEB41
:10842000032390F800C0867B0CEB0323D1F800C037
:1084300083EA0C0390F807C04FEA136A04EB0C2C94
:10844000447904EB0C2C047904EB0C2C4C688CEA7A
:10845000040CC47ACCF3072705EB0424457A4FEAD1
:108460001C6B05EB0424057A05EB04248D686C4035
:10847000C57B06EB0525467B007B06EB052500EB5F
:108480000520CD68DEB24540FB484FEA156950F83B
:10849000278050F82660C4F3074786EA386650F80C
:1084A000277050F8299086EA37460F6986EA392600
:1084B0007E400CF0FF07C4F3072850F8277050F8EF
:1084C0002880C5F3074987EA386750F8299050F8A3
:1084D0002AA087EA3947D1F8148087EA3A2787EA41
:1084E000080704F0FF08C5F30729C3F3074A50F84B
:1084F000288050F8299050F82AA050F82BB088EA2C
:10850000396888EA3A4888EA3B28EDB2C3F3072382
:1085100050F8255050F82330CCF3074C240E50F877
:108520002CC085EA336350F8244083EA3C43D1F8F9
:108530001CC083EA342383EA0C04F3B2D1F8189008
:1085400050F823C0C7F3072388EA090850F82330FE
:10855000C8F307454FEA146950F825508CEA336395
:1085600050F8299083EA354383EA3923D1F820C0B3
:10857000C4F3074983EA0C0307F0FF0C50F8299075
:1085800050F82C50C8F3072C4FEA166A50F82CC04C
:1085900050F82AA085EA3C6C8CEA394C8CEA3A2CDB
:1085A000C4F307294D6AC6F3074A8CEA050C08F0A4
:1085B000FF054FEA176BE4B2C6F3072650F82440D4
:1085C00050F82660C7F3074750F8255050F8299017
:1085D00050F827704FEA186884EA366450F82AA0E9
:1085E00085EA396550F8288084EA374450F82BB082
:1085F00085EA3A45D1F8289084EA3824CCF3072755
:1086000085EA3B2585EA0905CE6A50F82780C5F33F
:108610000747744050F82790DEB2270E50F82660C6
:1086200050F8277086EA386686EA394686EA3726A1
:108630000F6BC5F307287E400CF0FF0750F8289019
:1086400050F82770C4F3074887EA396750F8288044
:108650004FEA136A87EA384750F82AA0D1F83480E5
:1086600087EA3A27C4F3072987EA0807C3F3074ACA
:1086700005F0FF084FEA1C6BE4B2C3F30723CCF309
:10868000074C50F8244050F8233050F82CC02D0EE1
:1086900084EA336350F8288050F8299050F8255028
:1086A00083EA3C43D1F83CC050F82AA088EA3968F4
:1086B00083EA352383EA0C0488EA3A48F3B250F897
:1086C0002BB0D1F8389050F823C088EA3B28C7F384
:1086D000072388EA090850F82350C8F307438CEAB7
:1086E000356C50F823304FEA14698CEA334350F864
:1086F0002990D1F840C083EA392383EA0C0307F0BC
:10870000FF0CC8F3072550F82CC050F82550C4F3CF
:1087100007494FEA166A50F829908CEA356C50F8F0
:108720002AA08CEA394C4D6C8CEA3A2C8CEA050C68
:1087300008F0FF05C4F3072950F8255050F8299098
:10874000C6F3074A4FEA176B50F82AA085EA396545
:1087500050F82BB085EA3A4585EA3B25D1F8489098
:10876000C6F3072685EA090550F82690E4B2C7F358
:10877000074650F8244050F826604FEA186784EA0C
:10878000396450F8277084EA3644CE6C84EA372482
:108790007440DEB2C5F3074850F82670CCF30726C4
:1087A0004FEA146950F8266050F8288087EA366648
:1087B00050F8299086EA38460F6D86EA39267E40C1
:1087C0000CF0FF074FEA1C6B50F82780C5F3072712
:1087D000CCF3074C50F82790C4F3074788EA396870
:1087E00050F827A01F0E88EA3A4850F82770C4F3C3
:1087F000072988EA3727D1F85480C3F3074A87EA64
:10880000080705F0FF08E4B2C3F3072350F824403B
:1088100050F8233050F82CC02D0E84EA336350F802
:10882000255083EA3C4350F8288050F82990D1F82D
:108830005CC083EA352350F82AA088EA396883EAC5
:108840000C0450F82BB0F3B288EA3A48D1F85890AB
:1088500088EA3B2850F8233088EA0908C7F3072C38
:108860004FEA146950F82C50C8F3074C50F829907F
:1088700050F82CC002E000003801002083EA356384
:1088800083EA3C43D1F860C083EA392383EA0C03CE
:1088900007F0FF0C4FEA166A50F82C50C8F3072C6B
:1088A00050F82AA050F82C90C4F3074C85EA39659B
:1088B00050F82CC0C4F3072985EA3C4C8CEA3A2CCA
:1088C0004D6EC6F3074A8CEA050C08F0FF05E4B2CA
:1088D000C6F307264FEA176B50F8244050F826607D
:1088E000C7F307474FEA186850F8277084EA3664E0
:1088F00050F8288084EA3744CE6E84EA38247440E5
:1089000050F8255050F82990DEB250F82AA085EA98
:10891000396550F8267050F82BB0CCF3072685EA5D
:108920003A45D1F8689085EA3B2550F8268085EADB
:108930000905C5F3074687EA386750F82690260EE2
:1089400087EA394750F82660C5F3072887EA3626B4
:108950000F6F50F828907E40C4F307480CF0FF07D3
:1089600050F828A050F827704FEA136887EA396753
:1089700050F8288087EA3A4787EA3827D1F8748088
:10898000C4F3072987EA080705F0FF0850F8299083
:1089900050F82880C3F3074A4FEA1C6B50F82AA00E
:1089A00088EA396850F82BB088EA3A48D1F87890CC
:1089B00088EA3B28C3F3072388EA090850F8239084
:1089C000E4B2CCF3074350F824404FEA156C50F85A
:1089D000233050F82CC084EA396484EA334383EAB4
:1089E0003C23D1F87CC083EA0C05C7F3072CF3B213
:1089F00050F82C40C8F3074C50F8233050F82CC0E6
:108A00004FEA156983EA346350F8299083EA3C43BE
:108A1000D1F880C083EA392383EA0C04FBB250F812
:108A200023C0C8F3072350F82390C5F307438CEA0B
:108A3000396C50F823A0330E8CEA3A4C50F82330AE
:108A40004FEA17698CEA3323D1F884C050F8299093
:108A500083EA0C0308F0FF0C50F82CA0C5F3072C98
:108A6000EDB250F82CB0C6F3074C8AEA3B6A50F8D6
:108A70002CC08AEA3C4C8CEA392CD1F888908CEADC
:108A8000090C50F82590C6F30725C7F3074650F8A0
:108A9000255050F826604FEA186789EA356550F886
:108AA000277085EA3645D1F88C6085EA372585EA56
:108AB0000608E5B250F82550C3F30726CCF3074764
:108AC00050F826604FEA186950F8277085EA366535
:108AD00050F8299085EA3745D1F8906085EA392524
:108AE0007540DEB24FEA146A50F82670CCF30726C0
:108AF00050F82AA050F82690C8F3074687EA39674D
:108B000050F82660C8F3072987EA364686EA3A26EF
:108B1000D1F89470C4F3074A7E400CF0FF074FEA87
:108B2000136B50F8277050F8299050F82AA050F88D
:108B30002BB008F0FF08C4F30724C3F307434FEA40
:108B40001C6C50F8288050F8244050F8233050F81E
:108B50002C0088EA346C8CEA334383EA3020D1F865
:108B60009C3087EA396780EA0308484887EA3A4731
:108B7000D1F8989087EA3B2787EA0907EBB2C6F35A
:108B8000072CC7F3074450F8233050F82CC050F896
:108B900024904FEA186483EA3C6350F8244083EA47
:108BA0003943D1F8A0C083EA342383EA0C0306F0EA
:108BB000FF0C4FEA156A50F82C40C7F3072C50F809
:108BC0002AA050F82C90C8F3074C84EA396450F876
:108BD0002CC084EA3C4C8CEA3A2CD1F8A440C5F372
:108BE000074A8CEA040407F0FF0C4FEA166B50F8B2
:108BF0002C90C8F3072C08F0FF0850F82CC0C5F3E0
:108C0000072550F82AA089EA3C6CC6F3074650F8BD
:108C10002BB050F8288050F825503F0ED1F8A8907E
:108C200050F8266050F8270088EA356585EA364511
:108C3000D1F8AC1085EA30204840190ED170190CDB
:108C40009170190A51701370210ED171210C91711C
:108C50008CEA3A4C210A8CEA3B2C51718CEA090CC3
:108C600014714FEA1C61D1724FEA1C4191724FEAB4
:108C70001C21517282F808C0010ED173010C91734E
:108C8000010A51731073BDE8F00F704738050020DA
:108C900010B400220F4B0124944600BFC3F8884152
:108CA000C8210020C1EB011100BF401CB0EB410FF7
:108CB000FAD3C3F888C150210020C1EB011100BFD5
:108CC000401CB0EB410FFAD3521CB2F5C87FE5D37C
:108CD00010BC7047000023422DE9F04F002583B0FF
:108CE0000446A84601F056FFDFF86091DFF860A166
:108CF0005848CDE900A901784FF4887201F12303A7
:108D0000002002F029FA01232A4600212046FFF71D
:108D10006DF9514E376844F6206B3068C01B5845DA
:108D200070D20CF0FFFD002818BF3768F5D00F286F
:108D300068D008DC0B282AD00C2840D00D280AD097
:108D40000E28EAD17DE01E287BD04C281FD0522867
:108D500035D07828E1D104EB4511087F002852D0A6
:108D6000642838BF804660D3A0F1640101208840A8
:108D700080B230EA080103BF4FF6FF71484000EAB5
:108D8000080848EA000018BF00F0FF084DE004EBB7
:108D90004510006A007850B1681CC2B200900023F0
:108DA00029462046FFF722F90098C5B2B5E700230F
:108DB0001A4629462046FFF719F90025ADE7002D90
:108DC00008BF00200AD0681EC2B2009000232946C6
:108DD0002046FFF70BF90098C5B29EE704EB40115F
:108DE0000968097800291CBF401C80B2F6D1401EDA
:108DF000C2B20090002329462046FFF7F7F80098FA
:108E0000C5B28AE71DE0886978B18047642814D02C
:108E10000CF088FD01F0BEFECDE900A9002123235E
:108E20004FF48872084602F097F937682A46012302
:108E300011462046FFF7DAF86FE703B00020BDE8DF
:108E4000F08F03B04046BDE8F08F00000A0A0A0028
:108E5000EAE6E30004000020340000202DE9F0439E
:108E600083B00746002401F095FE2C492C48CDE93B
:108E70000001002123234FF48872084602F06CF9A8
:108E80000123224600213846FFF778F9254D2E6848
:108E900043F698282868801B40453BD20CF042FDE1
:108EA000002818BF2E68F5D00E2833D014DC0C280B
:108EB00016D00D28EED1C4EB041007EB40011A4E7A
:108EC00000254D7706F56D70FCF772FF86F8D153DB
:108ED00003B02046BDE8F0830F281BD05228D9D11B
:108EE000C4EB041007EB4000807F58B104F1010986
:108EF00009F0FF02002321463846FFF73FF909F049
:108F0000FF04C7E700231A4621463846FFF736F923
:108F10000024BFE703B0FF20BDE8F0830A0A0A007F
:108F2000EAE6E30034000020441400202DE9FF4F5E
:108F30008846E3498DB0042008701020002748704F
:108F400039208870CF701D99DFF878B3DE4D0F603F
:108F50001E991646B9463C464AF6AA2AC1F8007040
:108F6000CBF800A0684605F035FA40B1684605F038
:108F700031FA20B17F1C142FF2D300F092B9601C9B
:108F8000C4B20098002728600AF008FC30B3696872
:108F9000C8F800102C2819D00CDC042812D00B289B
:108FA000DED1A86830606868C8F8000011B00B20F6
:108FB000BDE8F08F37280DD05A28D1D111B0062046
:108FC000BDE8F08F11B00220BDE8F08F11B00E2087
:108FD000BDE8F08F11B00F20BDE8F08FD8F8000089
:108FE00000281FBF69688142092011B018BFBDE881
:108FF000F08F2A466868C8F80000A868316888427F
:1090000018D0B2498B6841F6E7018B4207BFA0F543
:109010002063B3F1E60330600A201CBF11B0BDE845
:10902000F08F40F6E4435068A0F5E6403C389842A3
:1090300098BF316090683060A548A649DFF89882F3
:1090400000780978C0EB0010002601EB80079E49EC
:1090500006EB0612002008EB82050A5C2B5C9A42A4
:1090600004D1401CC0B20428F7D301E0042827D360
:10907000022E25D2297D687DC1EB011100EB810014
:10908000381A48BF40420A2806DA442229468E4848
:10909000FCF739FF4FF0010900206860A860E86123
:1090A000A8612862687328732861287568756862EA
:1090B000A862E86228636863A863E863286428609C
:1090C000701CC6B2022EC2D37F4D2098B9F1000F9A
:1090D000697B01701F99288A08801D99E8690860DA
:1090E0003DD1E86928621098A86179480D9A6A73A1
:1090F000007828757748007868751C982861287B67
:10910000401CC2B22A73122A24BF002028732846AA
:10911000219A2B7B13700D9901F00F01012914D0B6
:1091200002291EBF052011B0BDE8F08FEB69109831
:109130001A9A181A904204DB1B9A934298BFE8616E
:109140000BD911B00320BDE8F08FC26910995318F4
:109150001B9A934298BFEB61F3D808F0A9F9012C50
:1091600006BF0024CBF800A0002737D002E0012C76
:1091700008BF0224CBF800A0012C2FD9684605F0C7
:1091800029F990B17F1C142FF1D3B9F1000F18BF4A
:10919000002073D000EB001108EB81014968A1B3F6
:1091A000401CC0B20228F5D370E028789DF800106A
:1091B00088420FD169789DF801202846914209D153
:1091C00081789DF80220914204D1E8789DF803103F
:1091D000884203D011B00420BDE8F08F287B3F49BE
:1091E0000027A1FB00214908494201EBC1010844C5
:1091F000C0B22C26092816D2DFE800F01505080AAF
:109200000C0E101214002D260DE03DE02E260AE073
:10921000302608E0312606E0322604E0342602E05B
:10922000352600E03626B008352105F027F800285D
:109230009DD105F13401304605F0F4F8D8B9204E3F
:10924000B178307805F01AF8A8B9A94605F12401DB
:10925000707805F0E7F870B904A9707805F068F83F
:10926000002808BF04A906D109EB00020B5C92F8A4
:1092700024209A4203D04FF0010978E711E0401C06
:10928000C0B21028F0D310E0022800D3002000EB79
:10929000001008EB800044220B49FCF734FE142F29
:1092A00003D311B00120BDE8F08F1D98E96901607A
:1092B0001E98296A016011B00020BDE8F08F0000FF
:1092C00038110020003000401C61002044140020B0
:1092D000680000206900002060610020398EE338BA
:1092E00070B4012200EB02110C6804F08033A3EB90
:1092F000D31303F01B3304F07F3C83EA4C0303F0E9
:10930000803CACEBDC1C0CF01B3C03F07F358CEAA2
:10931000450C0CF08035A5EBD51505F01B350CF090
:109320007F3685EA46056C4083EA0C06754063404B
:1093300085EA33238CEA040C83EA3C4383EA3463F2
:109340000B604C6804F08033A3EBD31303F01B33A2
:1093500004F07F3C83EA4C0303F0803CACEBDC1C64
:109360000CF01B3C03F07F358CEA450C0CF080358B
:10937000A5EBD51505F01B350CF07F3685EA4605C3
:109380006C4083EA0C067540634085EA33238CEA1F
:10939000040C83EA3C4383EA34634B608C6804F03A
:1093A0008033A3EBD31303F01B3304F07F3C83EA39
:1093B0004C0303F0803CACEBDC1C0CF01B3C03F0DA
:1093C0007F358CEA450C0CF08035A5EBD51505F002
:1093D0001B350CF07F3685EA46056C4083EA0C06A7
:1093E0007540634085EA33238CEA040C83EA3C43EE
:1093F00083EA34638B60CC68521C04F08033A3EBA7
:10940000D31303F01B3304F07F3C83EA4C0303F0D7
:10941000803CACEBDC1C0CF01B3C03F07F358CEA91
:10942000450C0CF08035A5EBD51505F01B350CF07F
:109430007F3685EA46056C4083EA0C06754063403A
:1094400085EA33238CEA040C83EA3C4383EA3463E1
:10945000CB60092A7FF646AF70BC70472DE9F00358
:10946000C27812020A6083781A4412020A604378B2
:109470001A4412020A6003781A440A60C27912027E
:109480004A6083791A4412024A6043791A441202EC
:109490004A6003791A444A60C27A12028A60837A67
:1094A0001A4412028A60437A1A4412028A60037ACA
:1094B0001A448A60C27B1202CA60837B1A44120279
:1094C000CA60437B1A441202CA60007B204B1044DE
:1094D00000220124A3F27C49C1F80C0001EB8200B8
:1094E000C5684FEA352C0CF0FF0653F82680CCF304
:1094F000072653F82670CCF307464FEA1C6C53F846
:10950000266053F82CC088EA376787EA364686EA31
:109510003C2C51F82260121D8CEA060C59F824608C
:10952000641C8CEA060CC0F810C04668282A86EA3B
:109530000C0CC0F814C0866886EA0C0CC0F818C081
:1095400085EA0C0CC0F81CC0C8DBBDE8F00370470E
:10955000380500208000A0F1C0400029016812BF3A
:1095600041F00101014A114001607047FEFF0F0008
:10957000D0E901121143D0E903231A431143426990
:10958000114382691143C2691143026A1143426A5D
:109590001143826A1143C26A1143026B0A43016894
:1095A0008900A1F1C0410A608168082907D10168DA
:1095B0008900A1F1C0410A6842F040020A60416B93
:1095C000D1E9002342EA03128B68B1F80CC01B02F8
:1095D00043EA0C431A430B8A42EA03520B7D896922
:1095E00042EA0362114302689200A2F1C042516054
:1095F000C16AB1F5804F08D000686FF070418000FB
:10960000A0F1C040C0F804117047816BD1E900237C
:1096100042EA03128B68B1F810C01B0243EA0C53F4
:109620001A430B7D896942EA036200681143800096
:10963000A0F1C040C0F804117047000010B5044606
:109640000A280FD00D2C11D009480068C0690168A4
:109650002046884707480168002907D02046BDE812
:1096600010400847BDE8104001F094BB10BD000059
:1096700010120020381200202DE9F0430446C5687E
:1096800087B090468946002002F028FD064625B1A5
:10969000287910B146F0020001E026F0020002F045
:1096A0001DFD2069012558B1D4E902128DE826007C
:1096B000039563882288046841464846A0471EE017
:1096C000124F134B214638681B68427CE06898476C
:1096D00030B9E088012801D0002001E03868806BB3
:1096E000A288E388A1680095CDE90410CDE9023293
:1096F0000195638822884146484604F0F7FF07B089
:109700003046BDE8F04302F0E9BC00001012002032
:10971000081200201CB50024019401AC009400F054
:10972000E7F81CBD2DE9FF4F83B0814606988A46B5
:10973000A0EB0A08109E00200090A2EB09043568F7
:10974000934654EA080018D02046FCF73DFE074631
:109750004046FCF739FE87420BDA204644468046F5
:109760004846D14682465846DDF818B0069001209A
:109770000090002C07DD204606E007B04846BDE813
:10978000F04F00F03BB96042A0420AD04846D946AB
:109790006442C8F1000883464FF0FF37DDF818A097
:1097A00000E001275148B8F1000F11D004EBD4714B
:1097B0004FEA610B01DACBF1000B4C480068807E68
:1097C00088B3002F02DA30682044306000257BE047
:1097D00000990029016821D0897E11B100278046B7
:1097E00015E007B05A4649465046BDE8F04F05F02F
:1097F000E1B828466D1C13F08BFE38B9D8F800008C
:1098000009EB0701C06E4268504690477F1CA74293
:10981000EFDD6D1E356007B0BDE8F08F8A7E1AB1AE
:109820000027804617E019E0C86E5A465146036883
:1098300007B04846BDE8F04F184728466D1C13F0A6
:1098400067FE38B9D8F8001009EB0700C96E4A68FE
:10985000514690477F1CA742EFDDDAE700250FE075
:1098600008FB05B090FBF4F101EB0A00009951B13F
:109870001E4A09EB05011268D26E526890476D1CB2
:10988000A542EDDDC7E7194909EB05030968C96E73
:109890004A6801461846F1E708FB05B090FBF4F171
:1098A00001EB0A00019030683844306013F030FE5C
:1098B00048B9009890B10D4809EB05010068C06EE9
:1098C0004268019890476D1CA542E5DD3068002F85
:1098D00001DA20443060C01B30609CE7034909EB8B
:1098E00005000968C96E4A680199EBE7101200206B
:1098F0002DE9FF470F4640491646804609680C98F7
:109900001D460A7E012A1CD0A8EB0600791B50EAEE
:1099100001031CD0A2F1010914F09EFC00F5806047
:10992000824604F03DF800FB09F4504604F03CF890
:1099300000FB09F1002C0CDAC4F5007080124042E3
:109940000AE00090324639464046FFF7EBFEBDE89C
:10995000FF8704F50074A012002904DAC1F5007134
:1099600089124C4202E001F500718C12002804DDDE
:10997000411C01EBD171491003E000EBD07149109B
:10998000401E00EBD0704210002C04DD601C00EB88
:10999000D070401003E004EBD4704010641E04EB60
:1099A000D47308EB0104ADF800403C18ADF8024058
:1099B000A8EB02045B10B21AADF80440ADF8082021
:1099C0003144FC1AEA1AADF80C102844ADF80A200C
:1099D000ADF80E000023ADF806401A460421684693
:1099E00000F07AF83946404611F01CFD2946304611
:1099F00011F018FDABE7000010120020064A1368B2
:109A00001A7E012A05D0521E02EBD272521000F0CB
:109A100005B8DA6E52681047101200202DE9F05F89
:109A20000646884640F2C32050434FF47A7190FBBB
:109A3000F1F702FB02F002EBD27100EB610B25495A
:109A400014467F1C09683244301BC96E0B684146BE
:109A5000984701253AE000BF05FB05F004FB04012F
:109A600059451CDDBC4219DD1A4B06EB050AA6EB75
:109A700005091B68AAF1010208EB0401DB6E09F17C
:109A800001001B689847134BAAF10102A8EB0401DF
:109A90001B6809F10100DB6E1B689847641E0D48C6
:109AA00006EB040AA6EB0409006808EB0501524620
:109AB000C06E0368484698470648A8EB0501524621
:109AC0000068C06E0368484698476D1CBD42C3DD00
:109AD000BDE8F09F101200202DE9FF4F40F6FF7403
:109AE0000F46664283B09B46814600210BE000BFD3
:109AF00009EB8100B0F90200A04200DA0446B0424E
:109B000000DD0646491CB942F2DB6848006840693E
:109B100000280DD0B0F906101A46A1EB0B01B14296
:109B200000DA0E46B0F90200801AA04200DD0446B9
:109B3000B5E0DFF87CA100200546CAF8000089E006
:109B4000781E854201DA6B1C00E0002309EB850CCE
:109B500009EB8302BCF90200B2F90210A04245D120
:109B6000A14215D139F92330059A39F9251003EBB3
:109B7000020C4E4A05981268084404EB0B01D26EA1
:109B80006045136801DA62462BE00246604628E031
:109B90002846A4464FF000087A1E0BE008B1401E8C
:109BA00000E0781E09EB8003B3F90230634504D16D
:109BB00008F101089045F1DB2346A34249D0A3EB0D
:109BC000040239F92500A1EB040C059B92EA0C0272
:109BD00009D4364A184404EB0B011268D26E13689C
:109BE0000246984735E00FF0A1FB32E0A14230D0A9
:109BF00001DBA04203DDA0422BDBA14229DCE046D1
:109C000088420ADC0346A04223DC0846A14220DB4E
:109C1000B8F900C0B2F9001008E00B46A14218DC08
:109C2000A04216DBB2F900C0B8F90010E21AA1EBAD
:109C30000C0151430029A0EB030202DD01EB62019C
:109C400002E0A1EB6201491CC01A91FBF0F06044F4
:109C5000C9E76D1CBD42FFF673AF0598009004EB99
:109C60000B00019000208046054613E01149B8F131
:109C7000000F31F915A009D0009901EB0A02084440
:109C80000A490968C96E0B680199984788F001086C
:109C900050466D1C064909688D42E7DB641CB442DE
:109CA0007FF747AF07B0BDE8F08F0000101200202B
:109CB000441200200C76002010B5002002F008FAB3
:109CC0006FF07F4002F008FA012002F037FA00201E
:109CD00002F03CFA002002F043FA002002F0FEF904
:109CE0000448006802F0FCF9BDE81040002002F0D2
:109CF00001BA00000C1200202DE9F84F01210520C7
:109D000009F044F80121092009F040F8012111204F
:109D100009F03CF80121212009F038F80121412007
:109D200009F034F80121812009F030F8012140F2D6
:109D3000011009F02BF81825ADF8005048268DF8D1
:109D4000036003248DF802406946CA4800F0A2F976
:109D5000C94801274FF028080770ADF80070DFF8F8
:109D60001CA38DF803808DF802406946504600F030
:109D700091F94FF48160ADF800004FF004098DF8BF
:109D800003908DF802406946504600F083F94FF485
:109D90008170ADF8000010208DF803008DF80240AE
:109DA0006946504600F076F94FF40170ADF80000B6
:109DB0008DF803508DF802406946504600F06AF96C
:109DC000ADF800708DF803808DF802406946AC480C
:109DD00000F060F94020ADF800008DF803608DF8C8
:109DE00002406946A64800F055F9F802ADF80000B7
:109DF0008DF803908DF802406946A14800F04AF9B9
:109E000041F2A200ADF8000010208DF803008DF89B
:109E1000024069469A4800F03DF94FF4806AADF877
:109E200000A08DF803508DF802406946944800F078
:109E300031F97420ADF800008DF803608DF8024010
:109E40006946904800F026F942F23A00ADF8000069
:109E500010208DF803008DF802406946894800F013
:109E600019F93803ADF800008DF803508DF8024061
:109E70006946844800F00EF94FF47060ADF80000B8
:109E80008DF803508DF8024069467E4800F002F9D3
:109E90004FF48250ADF800008DF803608DF8024059
:109EA0006946794800F0F6F80820ADF80000102067
:109EB0008DF803008DF802406946734800F0EAF817
:109EC0004EF63770ADF800008DF803508DF8024063
:109ED00069466D4800F0DEF87C20ADF800001020E7
:109EE0008DF803008DF802406946684800F0D2F80A
:109EF0004FF68370ADF800008DF803508DF80240E6
:109F00006946624800F0C6F848F2C020ADF800008B
:109F100010208DF803008DF8024069465C4800F07F
:109F2000B9F84FF4406BADF800B08DF803608DF8D0
:109F300002406946564800F0ADF83802ADF800001E
:109F40008DF803808DF802406946514800F0A2F870
:109F500047F23F00ADF800008DF803508DF8024045
:109F600069464B4800F096F84AF22020ADF8000010
:109F700010208DF80300DFF8FC808DF80240694660
:109F8000404600F087F84FF48340ADF800008DF8AC
:109F900003608DF802406946404600F07BF845F2C8
:109FA0001F00ADF800008DF803508DF8024069469F
:109FB000404600F06FF88020ADF800008DF80350A7
:109FC0008DF802406946304800F064F8ADF800A012
:109FD00014208DF803008DF802406946284800F0EF
:109FE00059F8ADF8007010208DF803008DF802408C
:109FF0006946244800F04EF8ADF800B08DF80360D3
:10A000008DF802406946404600F044F84FF418705D
:10A01000ADF8000010208DF803008DF8024069466D
:10A02000404600F037F80820ADF8000010208DF809
:10A0300003008DF802406946144800F02BF84FF4F5
:10A040006050ADF8000010208DF803008DF802403C
:10A0500069460D4800F01EF8ADF8009010208DF80C
:10A0600003008DF802406946404600F013F8BDE851
:10A07000F88F00000020014000000020000801408F
:10A08000000C014000100140001401400018014084
:10A09000001C01402DE9F001CB78002203F00F0CE9
:10A0A00013F0100F1CBF8B7843EA0C0C0B784FF0A9
:10A0B0000F0613F0FF0F4FF0010518BF046819D009
:10A0C0000F8805FA02F31F409F420FD1970006FA4E
:10A0D00007F824EA08040CFA07F73C43CF78282F46
:10A0E00008BF436102D0482F08BF0361521C082AF1
:10A0F000E6D304600A88FF2A87BF44680022BDE8CF
:10A10000F001704702F108030F8805FA03F31F40BE
:10A110009F420FD1970006FA07F824EA08040CFAC8
:10A1200007F73C43CF78282F08BF4361CF78482FEB
:10A1300008BF0361521C082AE4D34460BDE8F00163
:10A1400070470161704770B50C46054600F0F0F8A5
:10A15000A8682168C16261680163A1684163490719
:10A1600007D5D0E90021C0E90012D0E90221C0E9F9
:10A170000212A18981842169002903D001DC4FF0FA
:10A180000001016270BD2DE9F0411E461746884668
:10A19000054600F0CDF8AC686822414604F58470AD
:10A1A000FBF7B1FE2846B8472846B04728698068C3
:10A1B0008047A062BDE8F08110B5044600F0B8F811
:10A1C000A0680E494C30114AC1650D4981650D49A1
:10A1D00001660D4981660021C166136843660C4B18
:10A1E000C0E91E315168416730F8261C21F0030197
:10A1F00020F8261C0749416410BD0000D5D5010890
:10A2000041D701089DD5010803D101088C12002017
:10A21000D3D10108E1D4010810B5044600F088F854
:10A22000A4680C489034102120650B4860650B48E9
:10A23000A0650B48E0650B48E0600B482061206B8F
:10A24000A06654F89029204690471020A063074844
:10A25000606410BD41A90108C5BA010871A20008D7
:10A26000A1A30008BDD00108BDDA01088CD2030803
:10A27000F8B5846815460F4694F8260080074CD53B
:10A28000D4F8FC30204698470646D4F800312A46D8
:10A29000394620469847D4F8943005461BB1002231
:10A2A0000121204698472069B04201DD012000E0ED
:10A2B0000020A169B14201DA012100E00021084338
:10A2C0006169A94201DD012100E000210843E16943
:10A2D000A94201DA012100E0002108430AD06068A8
:10A2E000401E00902368D4F8A4705B1E0022114623
:10A2F0002046B847D4F8A8302A4631462046984729
:10A30000D4F89C1020468847D4F8943005466BB1A9
:10A31000012200212046984708E0D4F8A8302046C2
:10A320009847D4F89C102046884705462846F8BD33
:10A3300070B504468068002812D14FF4B8752846DD
:10A3400000F0BCFA2A460021A06003F0D9FAA06808
:10A350000221C1840121046401620249C0F8041190
:10A3600070BD000069A3000810B590B0044620221B
:10A370000A496846FBF7C7FD08492022203108A892
:10A38000FBF7C1FD606B5DF82010C4F8FC1008A954
:10A3900051F82000C4F8000110B010BD08BE02083A
:10A3A0002DE9F84384689846154694F826000F4630
:10A3B000800740D5D4F8FC30204698470646D4F8AC
:10A3C00000312A4639462046984705462069B04262
:10A3D00001DD012000E00020A169B14201DA012184
:10A3E00000E0002108436169A94201DD012100E08C
:10A3F00000210843E169A94201DA012100E00021BE
:10A4000008430AD06068401E00902368D4F8A47006
:10A410005B1E002211462046B847D4F8A8302A46D1
:10A42000314620469847D4F8A02001B04146204646
:10A43000BDE8F0431047D4F8A830F2E72DE9F04F1B
:10A44000DFF828B191B04FF0FF35DBF80030B3F9F9
:10A4500022100691DE69B3F924A0F469A189814232
:10A4600006D8E289824203D3471AD4F8008012E06A
:10A47000D4E90181002970D00A8882426DD84D88C4
:10A4800085426AD3801A82B2486800EB8200B0F934
:10A490000070B0F90250781C5FD0307EA27C01467B
:10A4A00000FB02F9207CCDE90810B3F92A603046A0
:10A4B00004F06CFDC0B20E90DBF8001007FB0980C1
:10A4C000A37C8A6B0127CDE90402CDE90273C86938
:10A4D000DDE90832C17E807ECDE900015146069853
:10A4E00004F004F9681C18D046F0020004F04EFD98
:10A4F000DBF80000A37C05FB0981826BCDE90273C8
:10A50000CDE90412C069DDE90832C17E807ECDE963
:10A5100000015146069804F0E9F8DBF800005D46BA
:10A52000C069417E007E814214D9022E12D086F08D
:10A53000040004F02BFD2868C069027EC37E857E7E
:10A5400002FB03A1437E099A0698534402FB0502CD
:10A5500004F05AFA0E9804F019FDDBF80000627C52
:10A56000418C1144418411B0BDE8F08F10120020DD
:10A5700004480068C069C06909B1027C0A60407C77
:10A580007047000010120020022008807047C06948
:10A5900082898A4202D8C2898A4210D2806880B1F8
:10A5A00002888A420DD843888B420AD3406800EB68
:10A5B0008100A0EB8200B0F90000002801DB01203F
:10A5C00070470020704700002DE9F0432F4C0346F0
:10A5D00087B020681946B0F92A80C069C06900F0C8
:10A5E000EEF800284ED041680088181A01EBC0052B
:10A5F0004046AE7804F0CAFC814620686A680123B0
:10A60000816BCDE90236CDE90421C169CB7E8A7E1A
:10A61000CDE900230B7EB0F924102A78B0F922008E
:10A6200004F064F82068C069477E067EB7421DD9F1
:10A63000C07E47434643B8F1020F17D000F0C4FF75
:10A64000804600F0A9FF01F047FD21682A78CB6918
:10A65000B1F92200B1F92410DB7E02FB0302CB1911
:10A66000314404F0D1F9404601F036FD484604F08B
:10A670008DFC20686A78C369B0F922109B7E02FBCA
:10A680000311418407B0BDE8F083000010120020E0
:10A690002DE9F35F0E46002500F096FFDFF8A88055
:10A6A0008346D8F8000090F82A00400702D500F051
:10A6B0008BFF01E000F070FF01F00EFDD8F8000004
:10A6C0000024C269B0F92290B0F92470517ED27E84
:10A6D00001FB02FA1EE0684601F08EFE0546D8F83E
:10A6E00000002946C069C06900F032F890B14168A5
:10A6F0000088281A00EB400001EB800090F902105E
:10A7000000790844D8F80010C969897E48430028B8
:10A7100000DD0444761EDED51DB1284602F00CFF94
:10A72000044407EB0A0309EB04025B1E4846521E71
:10A73000394604F069F9584601F0CEFC034901207E
:10A740000870BDE8FC9F000010120020F4130020E8
:10A7500006E002888A4202D842888A4202D2806891
:10A760000028F6D17047000030B50E4C05460B4668
:10A7700020682946C069C06900F021F8002810D07F
:10A780004168008824682A1A0120E46900EBC200AD
:10A79000085CA47E6043002B03D011F832106143A3
:10A7A000196030BD1012002001200880704700B5EC
:10A7B000C06900F004F8002800D0012000BD06E0C8
:10A7C00002888A4202D842888A4202D280680028DF
:10A7D000F6D17047FEB50E4EDDE908543668367C7A
:10A7E00016F003060CD0012E03D0022E0DD0032E3E
:10A7F00005D1084ECDE90054029610F00FFCFEBDC5
:10A80000CDE9005410F0B8FBFEBD034EF2E70000A6
:10A81000101200204DF00008C5EF0008002801D0FC
:10A820000EF0DCBD704738B50546FFF7F7FF0400B2
:10A8300009D000F0C5F82A460021009003F060F826
:10A84000684600F007F9204638BD0000024A106053
:10A8500021F00300506070478875002010B5002873
:10A8600014D004460A48006B10F8341000290DD0AB
:10A8700002290BD2042101EBC401415848680EF0B3
:10A8800071FD2046BDE8104012F006BC10BD00006E
:10A89000CC740020002805D0034A916B016001B1FF
:10A8A0004860906370470000CC74002010B50446E7
:10A8B0000068FFF7D3FF0020206010BD2DE9F041B4
:10A8C000044611F08BFF2648E41C24F00305C16BFD
:10A8D0002D1DA94200D90D46846B13E054F8042CB9
:10A8E000AA420ED184B1216809B162684A606168E8
:10A8F00009B122680A60826BA2422ED1216881636D
:10A900002BE02468002CE9D18046416B80680F1849
:10A9100057F8040C3E1A306838B1002012F0C6FC1B
:10A9200057F8040C3E1A3068B8B97068A84214DBB6
:10A930003044441B304612F071FCD8F80810491B13
:10A94000C8F80810D8F810102944C8F8101070681A
:10A950003146401B0EF006FD20C42046BDE8F081C4
:10A96000CC74002010B5002411F038FF0C490F20E2
:10A9700001EBC002126C1AB101EBC000006C08E0E0
:10A98000401EF5D508E04168A14200D90C46806818
:10A9900010B180680028F6D1A4F10C0010BD0000B1
:10A9A000CC740020002138B10449042202EBC0001D
:10A9B000096B085841680C3908467047CC74002070
:10A9C00005498A69521C8A61096B01EBC0010A784A
:10A9D000521C0A7000F056B8CC7400207CB50646B4
:10A9E0000C460846FFF71AFF05001CD0DEB13046C2
:10A9F000FFF7D8FFA04200DA04462846FFF7E0FF41
:10AA000000903046FFF7DCFF014601902246009897
:10AA1000FBF7F2F9684600F01DF801A800F01AF8FB
:10AA20003046FFF71BFF28467CBD000010B5FFF73E
:10AA300099FF64220649B0F5800F04D990FBF2F02B
:10AA4000C969484310BDC9694143B1FBF2F010BD6B
:10AA5000CC7400200A4902680B6B52F8082C03EBF7
:10AA6000C2021378022B03D38B690BB15B1E8B617F
:10AA70001178491E117000210160084670470000DE
:10AA8000CC740020002806D00349042202EBC00049
:10AA9000096B085808307047CC74002070B50C461C
:10AAA000054600F013FEC1B223462846BDE87040BB
:10AAB000002200F001B80000F0B52D271C68B0F1AD
:10AAC000004F08D0002500280DDA661C1E60277094
:10AAD0004042012408E0661C01251E606FF0004022
:10AAE0002770491E01E00024091BC9B22AB3491E80
:10AAF000C9B222E00C46491EC9B2944205D1124C9B
:10AB000027781C68661C1E602770104C54F8216062
:10AB100090FBF6F4E4B20A2C11D804FB160011B92C
:10AB20000DB1641CE4B20A2C02D10124491CC9B243
:10AB30001E683034771C1F6034700029DAD1196820
:10AB400000200870F0BD000004120020E4B90308E2
:10AB500010B5C2B2CBB2D21A02D5C2F1000212B203
:10AB600093B2C0F30722C1F3072403FB03F3121BC4
:10AB700001D5524212B2000C92B2A0EB114002FB7E
:10AB8000023200B2002801DA404200B280B200FB7B
:10AB9000002010BD10B50021084600F05BFD40F616
:10ABA000FF725042BDE8104013460146AFF30080EB
:10ABB0002DE9FC4107461C4615460E46042004F0CC
:10ABC000E5F980461148C068C16C006D0F44064429
:10ABD0000D440444ADF80070ADF80450ADF80260C7
:10ABE000ADF8064068460DF0ADFF07E023462A4663
:10ABF0003146384603F008FF0DF066FF0028F5D116
:10AC0000404604F0C3F9BDE8FC81000004120020B6
:10AC10002DE9F0411C4616460D460746022B02DB85
:10AC20000020BDE8F0811C20FFF748FE0028F8D086
:10AC30000DB105610AE0094A52F8241009B905E08E
:10AC400011460A68002AFBD1096901618461868284
:10AC5000002101604160C0E90217E2E728120020EC
:10AC600070B51D46FFF7D4FF040001D000F00EF8C8
:10AC7000E068006820B90348006800EB850084653F
:10AC8000204670BD10120020FFF704BE70B590B3CF
:10AC90008269022A30DA1C4C54F8221019B944F89F
:10ACA00022002FE019464B68002BFBD106E0CB6851
:10ACB000C5681B682D68AB4203DD09680029F6D121
:10ACC0001AE0C1B1CB68C6681B683668B3420CD1C4
:10ACD000838A012B05D008E01946DB681B68AB426C
:10ACE00003DB0B68002BF7D129B14B6833B1186037
:10ACF0004A68426004E0FFE7012070BD44F822008A
:10AD000048600160002070BD2812002012F0AABE29
:10AD1000022801DB00207047054951F8200004E0BB
:10AD2000C16809680029F6D000680028F8D170478A
:10AD30002812002070B5044601F0CCFC051908E08B
:10AD400000F036FB052C01DD052000E0204601F077
:10AD5000B5FC01F0BFFC2C1A002CF1DC70BD00002A
:10AD6000024B1B6859849A84FBF72CBE10120020FA
:10AD70007FB51E4614460D46CDF80CD003AB00221D
:10AD80003146FFF799FE22462946684600F090F8C2
:10AD90007FBD000000B500F01FFC044909688A8CE3
:10ADA00010448884088C488400BD000010120020E4
:10ADB0002DE9FC4706005BD000F00EFC3B4C8146C1
:10ADC0002068B0F9228000F01DFC216807468A8CBB
:10ADD000D01B888441E000BF47F6FF71304602F087
:10ADE00073FB82460146304602F044FB216805466B
:10ADF00091F82C0000F0030001283FD0022839D040
:10AE000000204A8C101A4884ADF800006A1E1044D5
:10AE1000ADF80400888CADF80200A9F101010844E6
:10AE2000ADF806006A465146304602F021F8216826
:10AE3000BDF8020088845146304601F009FB064403
:10AE400030780A281CD00D281AD0BDF800002168DF
:10AE500028444884307818B1761C30780028BBD15B
:10AE60002068818C39448184818D21F003018185A2
:10AE7000BDE8FC8705EBD5704010C2E72846C0E767
:10AE8000206890F82C1001F0030101290BD0022951
:10AE900009D0018C418431780A29DBD1828C02EB04
:10AEA00009018184D6E7A0F82280F4E7101200207F
:10AEB000024B1B6859849A84FFF77ABF1012002056
:10AEC0002DE9FF4F85B090468A46070078D00C6880
:10AED000DAF8046021B230B2401A401C029000F04F
:10AEE0007BFB054618F00C0F1ED03846089A0299D5
:10AEF00001F0C9FB08F00C01042904D0082902D094
:10AF00000C2911D104E0311400FB1510401C09E09C
:10AF10002114C1EB264200FB1520401C00EBD07031
:10AF200001EB600060F31F44504601F0D3F8A5F137
:10AF3000010B04903846089A029902F0AFFC039086
:10AF40004FEA244909EB0B0060F31F46CDE90046A8
:10AF50003846039902F08EFA18F003010ED0012949
:10AF600028D002290ED1BAF90420BAF90010521AD9
:10AF7000101A00EBD07001EB600001E0BAF800009D
:10AF8000ADF800006A463846039901F071FF384673
:10AF9000089A029902F078FC074409EB050060F377
:10AFA0001F4438780028C5D1049809B0BDE8F04F97
:10AFB00001F090B8BAF80410081A401CE0E7FFE767
:10AFC00009B0BDE8F08F00007CB506461048006867
:10AFD000C36C006D5D1884183188681E0844ADF894
:10AFE0000400ADF800507188601E0844ADF80600FA
:10AFF000ADF8024068460DF0A5FD06E02246294660
:10B000003046FEF739FB0DF05FFD0028F6D17CBD20
:10B01000101200202DE9F04F0C46164987B00D683C
:10B02000DDE91098E96C0F18286D8D180619C41801
:10B03000ADF81070ADF81450ADF81260ADF81640D0
:10B0400004A80DF07FFD002811D0DFF82CB04FF0E0
:10B05000000ACDE90098CDE902BA2B4622463946CE
:10B06000304610F08EF80DF02FFD0028F1D107B01A
:10B07000BDE8F08F10120020B5E900082DE9F04F6F
:10B080000C46184987B00D68DDE91198E96CDDF8C8
:10B0900040A00F18286D8D180619C418ADF814704B
:10B0A000ADF81850ADF81660ADF81A4005A80DF0CF
:10B0B00049FD002812D04FF0000B0B49CDE900A943
:10B0C000CDE902812B462246CDF810B039463046F4
:10B0D00010F014F90DF0F8FC0028EED107B0BDE82F
:10B0E000F08F000010120020B5E900082DE9F04FA4
:10B0F000174C87B02568DDE91198EC6CDDF840A0AD
:10B100002718286DA5184618C418ADF81470ADF8A6
:10B110001850ADF81660ADF81A4005A80DF012FDF4
:10B12000002812D04FF0010B0A49CDE900A9CDE962
:10B13000028123462A46CDF810B03146384610F039
:10B14000DDF80DF0C1FC0028EED107B0BDE8F08FAE
:10B1500010120020F5E800082DE9F04F164C87B0DA
:10B160002568DDE91098EC6C2718286DA51846189D
:10B17000C418ADF81070ADF81450ADF81260ADF809
:10B18000164004A80DF0DEFC002811D0DFF82CB02A
:10B190004FF0010ACDE90098CDE902BA23462A46CC
:10B1A000314638460FF0EDFF0DF08EFC0028F1D14E
:10B1B00007B0BDE8F08F000010120020F5E800088D
:10B1C0002DE9FC41104F04463B68D86C4518196DB9
:10B1D000ADF800500E198418ADF80440ADF80260C7
:10B1E000ADF8066068460DF0ADFC08E03868224610
:10B1F0003146C06E0368284698470DF065FC00286C
:10B20000F4D1BDE8FC810000101200202DE9F041CE
:10B210000B4C2568EC6C2718286DA5184618C41827
:10B2200000200DF08FFC07E023462A4631463846C1
:10B23000FEF770FA0DF048FC0028F5D1BDE8F0816A
:10B24000101200202DE9FC411C4C2468E66C94F897
:10B2500018C03718206DACF1010C4518C418A7EBC5
:10B260000C001644ADF8000006EB0C00ADF804002D
:10B27000A5EB0C00ADF8020004EB0C00ADF80600E5
:10B2800068460DF05FFC15E032462946384603F06B
:10B2900031FB32462146384603F02CFB621E691C06
:10B2A000384603F087FB621E691C304603F082FBC0
:10B2B0000DF00AFC0028E7D1BDE8FC811012002047
:10B2C0002DE9FF47DDE90C76012E15D0134C2468DB
:10B2D000E56C246D05EB000804EB010915441C44E2
