:020000040800F2
:10580000D08D00204559000807FF000831E6000848
:1058100005FF0008ED6E0008D184010800000000BB
:10582000000000000000000000000000A16401086A
:105830005B770008000000005B590008957D0108B7
:10584000299801085F5900085F590008BD30010818
:105850005F5900085F5900085F5900085F59000848
:105860005F5900085F5900085F5900085F59000838
:105870005F5900085F5900085F5900085F59000828
:105880005F5900085F5900085F5900085F59000818
:105890005F5900085F5900085F5900085F59000808
:1058A0005F5900085F5900085F5900085F590008F8
:1058B0005F5900085F5900085F5900085F590008E8
:1058C0005F5900085F5900085F5900085F590008D8
:1058D0005F590008B17E0108357F01086580010825
:1058E0005F5900085F5900085F5900085F590008B8
:1058F0005F5900085F5900085F5900085F590008A8
:105900005F590008BD4C01085F5900085F59000845
:105910005F5900085F5900085F5900085F59000887
:105920005F5900085F5900085F5900085F59000877
:10593000DFF80CD000F0BCFD00480047D10202089F
:10594000D08D00200648804706480047FEE7FEE766
:10595000FEE7FEE7FEE7FEE7FEE7FEE7FEE7FEE71F
:10596000B17D0108315900080649074A08685043CB
:1059700043F239021044086040087047014908604A
:10598000704700004C1600206D4EC64110B5441AF9
:105990000346944209D28418114403E011F8013DF2
:1059A00004F8013D521EF9D210BD40EA0104A407DB
:1059B00003D009E010C9121F10C3042AFAD203E071
:1059C00011F8014B03F8014B521EF9D210BDD2B2AF
:1059D00001E000F8012B491EFBD270470022F6E7D8
:1059E00010B513460A4604461946FFF7F0FF204655
:1059F00010BD30B504460020034600E05B1C934216
:105A000003D2E05CCD5C401BF8D030BD70B50646DB
:105A100018F0E6FD046805460A220021304600F031
:105A200011FC2C6070BD70B5064618F0D9FD0468F5
:105A300005460A220021304600F004FC2C6070BDAF
:105A4000F0B480EA0102D40F4200B2EB410F02D25F
:105A50000246084611464A0042D0C30DDDB2C1F3EA
:105A6000C752AD1A202D35DAC1F3160141F40002F8
:105A700004B15242C5F1200602FA06F12A4110444F
:105A8000B3EBD05F23D0C4B1012DA0EBC35009DC30
:105A9000F0BC4FF0004202EAC352DBB200F5000056
:105AA00000F011BC400000F1807000EBC350A0F189
:105AB000807040EAD170490009E0490841EAC071AC
:105AC000A0EBC35000F50000400800EBC350F0BC51
:105AD00000F0F0BB6142012202EB4101001BF6E73E
:105AE000F0BC704781F00041AAE780F00040A7E7D2
:105AF00080EA010210B502F00043400022D04A00C3
:105B00001FD0010E01EB1261C0F35600C2F3560222
:105B100040F4000042F40002A0FB022000047F39A0
:105B2000140400D0401C50EA124001D44000491E29
:105B3000C2B20C0604EBD010401C4008802A02D0F0
:105B400003E0002010BD20F00100002900DA002051
:105B5000184310BD30B480EA010202F0004530F075
:105B6000004221F0004013D090B1C30DD40DC2F318
:105B70001601C0F31600E41A41F4000140F40002DB
:105B80007D34914201D3641C00E04900002C02DA0C
:105B900030BC002070474FF400000023914201D335
:105BA000891A034340084FEA4101F7D151B19142AC
:105BB00002D14FF0004105E002D24FF0010101E0B7
:105BC0006FF0010103EBC450284430BC00F072BBFD
:105BD0002DE9FE4F804681EA0300C00F0C4600907D
:105BE00021F0004123F00045B8EB0200A94105D2A5
:105BF0004046214690461C460B46024623F0004094
:105C0000104347D0270DC7F30A00C3F30A5102908F
:105C1000401A019040286BDAC3F3130040F4801B54
:105C20000098924620B10023D2EB030A63EB0B0BE2
:105C300001985946C0F14002504600F084FA0646E9
:105C40000D4650465946019A00F09CFA10EB0800A8
:105C50006141002487EA115284EAE7731A4340D075
:105C6000009A62B3019A012A4FEA075215DC001B21
:105C700061EB02014FF0004202EA0752CDE9004217
:105C8000001C41F5801132462B4600F059FB03B051
:105C9000BDE8F08F40462146F9E7001B61EB0201A9
:105CA000001C41F5801300185B412018A2F5001775
:105CB00047EB030140EAD570B6196D4111E06D085C
:105CC0004FEA360645EAC0754FEA0752001B61EB02
:105CD0000201001C41F5801149084FEA300000190B
:105CE000514132462B4603B0BDE8F04F00F019BBDE
:105CF0000098012240000023D0EB020263EBE07326
:105D0000009821464FEAE074B8EB000061EB040113
:105D1000E9E783F000435BE781F0004158E72DE9B4
:105D2000FE4F81EA030404F0004421F00041009496
:105D30004FF0000B23F0004350EA01045ED052EA1A
:105D400003045BD0C3F30A54C1F30A552C44A4F2F4
:105D5000F3340194A0FB0254C1F3130141F4801108
:105D6000C3F3130343F4801301FB024400FB034E0F
:105D7000840A970A44EA815447EA8357A4FB0768D8
:105D800002958D0A05FB07854FEA932C04FB0C5402
:105D90002705029D4FEA065847EA1637B5EB080576
:105DA0006EEB070C870E920E47EA811742EA8312C8
:105DB000A7FB0201B6EB0B0164EB00042B0D43EAD9
:105DC0000C335E1844EB1C50DA465146E7FB0201E7
:105DD000C5F313044FEA0B3343EA14534FEA04327A
:105DE000019C43EA0603A4F10C040294009CCDE953
:105DF00000B400F0A5FA03B0BDE8F08F0020014622
:105E0000F9E72DE9F04D81EA030404F0004B21F09D
:105E1000004514464FF0000A23F0004150EA050205
:105E200020D054EA01021DD0C5F30A570246C5F33B
:105E30001303C1F31300C1F30A5640F4801543F471
:105E40008013A7EB0608101BD64608F2FD3873EB4B
:105E5000050002D308F1010801E092185B41B8F196
:105E6000000F03DA00200146BDE8F08D00204FF45A
:105E70008011064684460EE0171B73EB050705D319
:105E8000121B63EB050306434CEA010C49084FEA79
:105E9000300092185B4150EA0107EDD152EA03004D
:105EA00012D082EA040083EA0501084305D0101BE2
:105EB000AB4106D20122002306E000224FF000434E
:105EC00002E06FF0010253101AEB06004CEB085190
:105ED00010EB0A0041EB0B01BDE8F04D00F021BAD8
:105EE00070B521F0004303430CD0C1F30A550024E0
:105EF000D5EB040564EB0403D617AD1AB34102DBFE
:105F00000020014670BD201841EB025170BDC10F49
:105F100080EAE0700844CA079623002100F0D3B954
:105F200096230022114600F0CEB90EB5C10F80EACB
:105F3000E0700844CA07002140F233438DE80E00A8
:105F40000A460B4600F0FCF903B000BD20F000400B
:105F5000C10DC0F3160040F400007F2901DA0020D3
:105F60007047962903DCC1F19601C8407047963905
:105F70008840704770B5C1F30A5201F00045002413
:105F8000C1F3130140F2FF3341F480119A4201DA68
:105F9000002070BD40F233439A42A2F2334203DC48
:105FA000524200F0DFF800E090402C43F1D0404234
:105FB00070BDC1F30A5210B5C1F3130140F2FF33B3
:105FC00041F480119A4201DA002010BD40F23343BF
:105FD0009A42A2F2334203DC524200F0C3F810BDF1
:105FE000904010BD00F0004230F000400AD0C10DDA
:105FF00001F56071C0F3160042EA0151C208400782
:1060000011437047002001467047000030B5041E60
:1060100071F1000404DB4FF00044404264EB0101E5
:10602000141E73F1000405DB1C464FF0004352427E
:1060300063EB04038B4208BF824230BD30B5041EBF
:1060400071F1000404DB4FF00044404264EB0101B5
:10605000141E73F1000405DB1C464FF0004352424E
:1060600063EB0403994208BF904230BD01F0004346
:1060700030B421F0004150EA010206D00A0DA2F529
:106080006072C1F31301002A02DC30BC00207047AB
:10609000440F44EAC104C100E01830BC00EBC25018
:1060A00000F008B9002801DBC0F10040002901DB45
:1060B000C1F100418142704730B50B4601460020D6
:1060C0002022012409E021FA02F59D4205D303FABA
:1060D00002F5491B04FA02F52844151EA2F101023B
:1060E000F1DC30BD2DE9F05F0546002092469B466D
:1060F00088460646814640241BE0284641464746DE
:10610000224600F02FF853465A46C01A914110D348
:1061100011461846224600F016F82D1A67EB0108C2
:106120004F4622460120002100F00DF817EB000930
:106130004E41201EA4F10104DFDC484631462A46C8
:106140004346BDE8F09F202A04DB203A00FA02F122
:10615000002070479140C2F1200320FA03F3194355
:1061600090407047202A04DB203A21FA02F00021F7
:10617000704721FA02F3D040C2F120029140084357
:1061800019467047202A06DBCB17203A41FA02F065
:1061900043EAE07306E041FA02F3D040C2F1200284
:1061A00091400843194670470FB4002300B589B0E9
:1061B0000CA900910B996FF00042CB601E4B069327
:1061C0001E4B07930423CDE901321D4A0892024673
:1061D0006B46002000F00CFA09B05DF814FB70B5B6
:1061E00086B006464FF0FF300091CDE90101002056
:1061F00015460C4604903246694604A8FFF7D4FFC2
:1062000003460498211825B108B10A4600E0224649
:106210002A6000280DD0002B02DD0098884208D0AB
:10622000081B0094CDE901043246694604A8FFF733
:10623000BBFF06B070BD0000296800084768000871
:10624000DD6400082DE9F04791460F46804604467C
:10625000002614F8015B2DB100F03CF90068405DA8
:10626000C007F6D12B2D02D02D2D18D0641E4A4622
:106270003946204600F0F8FA27B13968A14201D129
:10628000C7F8008071054FF002040BD5404200288A
:1062900003DD18F0A5F90460A007BDE8F08746F417
:1062A0008066E4E70028F8DA18F09AF904606FF0E5
:1062B0000040F2E70029A8BF7047401C490008BF12
:1062C00020F00100704710B4B0FA80FC00FA0CF026
:1062D00050EA010404BF10BC704749B1CCF120045E
:1062E00021FA04F411FA0CF118BF012121430843EB
:1062F000A3EB0C01CB1D4FEA00614FEA102042BF17
:10630000002010BC704700EBC35010440029A4BF0C
:1063100010BC7047401C490008BF20F0010010BCB1
:10632000704710B5141E73F1000408DA401C41F1E7
:10633000000192185B411A4301D120F0010010BD09
:106340002DE9F04D92469B4611B1B1FA81F202E07F
:10635000B0FA80F220329046FFF7F5FE04460F4671
:1063600040EA0A0041EA0B0153465A46084313D05B
:10637000114653EA010019D0C8F140025046FFF718
:10638000F1FE05460E46504659464246FFF7DBFEF3
:10639000084305D0012004E020463946BDE8F08DD1
:1063A0000020054346EAE0762C4337430A9863050C
:1063B000E40AA0EB08000022FD0A44EA47540A3030
:1063C00002D500200146E9E7010510196941DDE920
:1063D000084500196941BDE8F04DA2E72DE9F04DEF
:1063E00000231A461B1A8A4103DB00200146BDE840
:1063F000F08DC1F30A52C1F3130141F480154FF03F
:10640000000BD10702D100186D41521E002704462F
:1064100040F2FF11384601EB620A3E4680460246D2
:1064200000204FF48011FFF79DFEC2197141BB1887
:1064300046EB0100B4EB030C75EB000C04D3E41A3B
:1064400065EB000517460E46241908F101006D4161
:1064500080463428E3DDF91946EB0600091BA84104
:1064600003D24FF0FF32134601E0002213461BEB2C
:10647000070046EB0A51BDE8F04DFFF752BFC1F3EC
:106480000A52C1F3130140F2FF3341F480119A42E2
:1064900002DA00200146704740F233439A42A2F2EA
:1064A000334202DC5242FFF75DBEFFF74CBE0000F4
:1064B000064C074D06E0E06840F0010394E8070051
:1064C00098471034AC42F6D3FFF736FAAC4F0308C6
:1064D000CC4F0308004870473C46030810B50446FB
:1064E000FFF7F8FF0068005D00F0010010BD00003C
:1064F0002DE9FF4F087881B09946FF2805D0491C47
:106500002D2804D00024002308E000230BE0012400
:10651000F9E703EB830300EB4303491C0878FF28EA
:10652000F7D104B15B4200200090147801462D2C75
:1065300001D02B2C04D1521C2D2C12D000240094FD
:1065400000251678FF2E0ED00A24A0FB04C801FBFC
:106550000481002700FB0711521C16EB0C00694157
:10656000EFE70124EBE7994450EA01020ED0002442
:10657000AA4D2646DFF8A88200F0D3F982468B4662
:10658000B9F1000009DAC9F100071BE00198002108
:10659000C0E9001105B0BDE8F08F074612E0F8072A
:1065A00007D022462B4630464146FFF7B8FB064649
:1065B000884622462B4610461946FFF7B0FB044694
:1065C0000D467F10002FEAD1B9F1000F3246434645
:1065D0005046594602DAFFF714FC01E0FFF79FFB33
:1065E000009A0AB181F00041019AC2E90001D1E7A5
:1065F0002DE9FF4F1F468DB0D7E901464FF0FF3818
:106600002E2045464FF000090B90B9696D1C0E987D
:106610008847396A824688470028F6D1BAF1FF3F99
:106620000AD024F4D064002E11DDBAF12B0F08D06B
:10663000BAF12D0F0BD102E0404611B0ABE744F4A4
:106640008064B9696D1C0E9888478246761E69463B
:10665000600501D52D2000E02B208DF8000001F110
:10666000010B0DF1200809E0B9696D1C0E988847EF
:1066700082460F9844F40074761E0560002E02DDF9
:10668000BAF1300FF0D00B998A453ED144F0800426
:1066900006E00F99681CA9F1010944F40074086030
:1066A000B9696D1C761E0E98884782463028F0D056
:1066B0002BE00B998A4505D1200603D444F08004D1
:1066C000761E18E0504618F02DF908B30DF11301AD
:1066D000761E44F400748B4508D2AAF130000BF802
:1066E000010B200607D5A9F1010003E0200602D422
:1066F00009F101008146A00502D50F99681C0860C8
:10670000B9696D1C0E9888478246002ED1DC53E093
:10671000002E51DDBAF1650F02D0BAF1450F4BD111
:10672000A00549D5B9696D1C24F44074761E0E98F5
:1067300088478246002E0CDD2B2804D0BAF12D0F9D
:1067400007D144F48074B9696D1C0E98884782465D
:10675000761EE00501D52D2100E02B2108F8011B54
:10676000CDF82C8021E00DF12901761E44F400744F
:1067700088450CD2AAF1300010F0FF0088F8000024
:1067800002D10B99884509D908F1010806E0E00516
:1067900001D5244801E042F20F708146B9696D1CB1
:1067A0000E98884782460F980560002E04DD5046FB
:1067B00018F0B8F80028D6D1F9690E988847FF205C
:1067C0008BF8000088F800000020069007904B46E8
:1067D0006A4608A906A8FFF78BFEA00502D46FF051
:1067E00001002AE714F0240F0AD0E00714D1DDE9F4
:1067F00006123868031D3B600068C0E900120BE018
:10680000DDE90601FFF732FC0146E00704D13868F4
:10681000021D3A600068016028460EE7000024402F
:106820000000F03FF1D8FFFF426842B1016811F863
:10683000013B23B1521EC0E90012184670470121E6
:10684000C160881E704742685AB1C368016843B985
:1068500083688B4205D0491E521CC0E900120020FB
:1068600070474FF0FF3070472DE9F05F82460078A7
:10687000002715468B460AF10104B946302801D09D
:106880009DB113E014F8010B0127782803D0582894
:1068900001D045B10AE00DB1102D07D10027102518
:1068A00014F8010B02E0082500E00A250026B04696
:1068B0000EE005FB080005FB06F1012701EB104681
:1068C0001FFA80F8B6F5803F00D3B94614F8010BE3
:1068D000294600F018F80028EBDABBF1000F05D0CC
:1068E0000FB1641E00E05446CBF80040B9F1000F30
:1068F00006D017F075FE02210160C81EBDE8F09FAA
:1069000048EA0640FAE73A2800D2303820F0200260
:10691000412A01D3A2F13700884201D34FF0FF3062
:1069200070470EB540F2334202920022CDE90022B8
:106930001346FFF705FD03B000BD70B58C1810F8C5
:10694000015B15F0070301D110F8013B2A1106D1B4
:1069500010F8012B03E010F8016B01F8016B5B1ECE
:10696000F9D12B0705D40023521E0DD401F8013BA9
:10697000FAE710F8013BCB1A921C03E013F8015B15
:1069800001F8015B521EF9D5A142D8D3002070BD99
:10699000002800DC4042704707490020C1F8A401EC
:1069A0000120C1F8AC010549C1F89C010449C1F8B6
:1069B0008C01C1F89801FEE7000024420000224249
:1069C000008022422DE9F05FDFF8FCE04FF0000C80
:1069D00067469EF800104FF0010A3C4D3C4EE346DE
:1069E000DFF8F080DFF8F09007E037B1012F0BD02F
:1069F000022F12D0032F21D118E0C5F8A4B1C6F898
:106A00008CA1C5F894A10EE0C5F8A4A1C6F88CB17C
:106A1000C5F894A1C5F898A110E0C5F8A4A1C6F8DE
:106A20008CA1C5F894B1C5F898A107E0C5F8A4A158
:106A3000C6F88CA1C5F894A1C5F898B10020401CF7
:106A4000C0B20A28FBD3002009EB87030FE070B126
:106A5000012808BFD5F828210BD0022808BFD6F896
:106A6000182106D0032808BFD8F8182101E0D5F86E
:106A70002C215CEA020408BF195C401CC0B2042847
:106A8000E5D3781CC7B2042FAFD3144874468EF8F0
:106A9000001071B1627892B900686268801A642847
:106AA0000DD9617019F042FA84F800B06078BDE841
:106AB000F09F617819B10068606084F801B08EF8C9
:106AC00000B00020BDE8F09F4401002000002442F7
:106AD0000080224200002242F03C02081800002000
:106AE00010B501200CF000F9BDE8104000200CF0BA
:106AF000FBB881B000F1804000F5D84000900088DC
:106B000001B0704781B000F1804000F5D84000909E
:106B1000016001B0704700002DE9F047ADF5187D28
:106B20000021B94809F034FA4FF4407009F026FA10
:106B3000B6484FF47A714FF000080068B0FBF1F0EE
:106B4000411EB1F1807F0AD24FF0E0204161B04A8E
:106B5000F02182F8141DC0F818800721016101217D
:106B600040200CF085F803F033F905F007F8042015
:106B700012F042F9A74809F0D5FF012011F090F971
:106B800005F0BCFE012005F0F7FD022005F072FDC6
:106B90000FF042F9022514234FF4A8724FF49671B6
:106BA0004820009509F00DFF074600239AA25021C6
:106BB000B42007F0D3F80121384609F0C1FF0120C5
:106BC00004F0B8FB4FF461401CF062FFDFF860A2F4
:106BD000504605F00BFDDFF85C9299F800000028A4
:106BE00000F0FA80012800F0FD80FF2005F0FEFC97
:106BF000DC22502190A004F043FCCF23322291A14B
:106C000002A817F0D5FC02AECDE90068DC224FF4F3
:106C1000F07351000A200CF011F80FF057F9A0F5AD
:106C20006F41163908BF08F0FFFD1E21384609F0F4
:106C300087FF8748006808F06DFE4FF0FF1005F0F1
:106C4000D5FC012483A0CDE90004322340F2D71201
:106C50000F2100200BF0F2FF6FF07F4005F0C6FC23
:106C600083A0CDE9000419234FF487726FF0090166
:106C700000200BF0E3FF834805F0B8FC4FF41650FA
:106C80001CF062FE4FF4E1301CF0A8FE99F80010F1
:106C90007D48DFF8F891002918BFC9F88C41C9F880
:106CA0009441C0F8844118BFC9F898414FF40A7163
:106CB0007748FEF793FE0EF0CFF9014675482A2972
:106CC0007ED080F80080FF2005F090FC72A000BF0D
:106CD00017F05EFCDC224FF4C87173A004F0D0FB07
:106CE0001421384609F02CFF012004F023FB0CF09E
:106CF00009FA6F48C0F884414FF4F0726D491CA83E
:106D0000FEF744FE012148070BF0BEFF01210520DC
:106D10000BF0D2FF2020ADF8000018208DF8030002
:106D200003208DF802006946634803F009FA012147
:106D300002200BF09DFF00F089FC94A800F0B7FC46
:106D4000CDF85082CDF8548294A91020CDF85C8201
:106D500000F088FC0121102000F024FCC9F88C41CF
:106D600056480AF057F828242146384609F0E8FE2C
:106D7000142004F0DFFA601C04B2502CF4DB07F09E
:106D800055FD02464EA102A817F012FCCDE90065A0
:106D9000DC234FF4F072A02100200BF04FFF0DF028
:106DA0003BFD384611F0B4FD04F08CFD464845F239
:106DB000555101600521416040F6C311816000E03A
:106DC00017E04AF6AA2101604CF6CC4101600DF5AE
:106DD000187DBDE8F08700BF4FF4E6720A213BA0A2
:106DE00004E000BF4FF4E6720A213AA004F048FB29
:106DF00003E70470504605F0F9FB00220BA124487C
:106E000018F060FA35A063E7005800080000002081
:106E10000FE000E0A10A0108303A616E692F4130AD
:106E20003030302F303032382E626D70000000006C
:106E300080FF80002C12002048573A20556E6B6E60
:106E40006F776E005625642E2530336400000000F5
:106E500030120020D8B3D98AD985D8B1D8BA20D871
:106E6000ACD987D8A7D986DAAFD8B3D8AAD8B10019
:106E7000D8AFD8B1D8A820D8A7D8AAD988D8A8D9A7
:106E800088D8B30000FFFF00000021420000234229
:106E900054160020451200200A0D4D6963726F538D
:106EA00044204552524F52004D6963726F53440063
:106EB00000002242FC3A0208000801404476000823
:106EC000202564202A2000000030004048573A2046
:106ED0005631000048573A20563200000A0D4D69DD
:106EE00063726F5344204F4B00000000FEE7CA78E6
:106EF000120202608B781A44120202604B781A4424
:106F000012020260097811440160704710B582B026
:106F10000122002113A007F001F9040004BF02B010
:106F200010BD0122002113A007F0F8F8002804BFCB
:106F300002B010BD844208D11348C4640FF0B2FA05
:106F4000012009F02FF802B010BD04214FF47A702F
:106F5000CDE90001002301220CA1184610F060F9D0
:106F600002B010BDD8B1D985D8B220D8ACD8AFD92D
:106F70008AD8AF00D8AADAA9D8B1D8A7D8B120D872
:106F8000B1D985D8B2000000F05C0020D8B1D98515
:106F9000D8B220D8A7D8B4D8AAD8A8D8A7D987203B
:106FA000D8A7D8B3D8AA000010B5054C002205A078
:106FB000D4F8AC1307F0B2F8C4F8AC0310BD00006D
:106FC000F05C0020D981D8B9D8A7D98420D8A8D915
:106FD00088D8AFD98620D8B1D984D987202D20D997
:106FE00085D98AD984D98A20D8ABD8A7D986D98A15
:106FF000D98700002DE9F0470024DFF89491C2B052
:107000002646274661A1484611F01AFA61A007F00A
:107010004BF800281EBF012042B0BDE8F0875EA1FA
:10702000484611F00DFA5FA007F03EF800281EBF99
:10703000022042B0BDE8F087DFF8748198F8FD01C6
:10704000022809D0032801D0142805D059A14846A8
:1070500011F0F6F95A4D0BE05AA1484611F0F0F93B
:10706000F8E7484611F0D2F9601CC4B20C2C02D2E9
:10707000295D0029F5D12321484611F0C7F90D21DA
:10708000484611F0C3F943A007F00EF800281EBFD0
:10709000032042B0BDE8F0874D4C2068DFF834A1F2
:1070A000C5B241F270792068854203DC2068401B3C
:1070B000484503DB42B00020BDE8F087DAF818004D
:1070C000B8B102208DF800000B208DF80100B8F84F
:1070D00000008DF80200000A8DF8030000208DF8F2
:1070E00004008DF805001F208DF8060007246D466A
:1070F00011E0012004F01EF9D5E73046711CCEB234
:107100000A2824BF9DF80001202804D3C82802D8EB
:107110002855601CC4B240A803F0DAFA002818BF52
:10712000DC2CEAD3A01FC11700EB11618DF804001D
:10713000080A8DF80500601CC0B22F55390A295481
:10714000401CC0B203212954401CC6B2224800781A
:1071500010B101280ED011E00024002E88BF1F4F6F
:107160000CD9295D384611F051F9601CC4B2A64211
:10717000F7D803E06946304603F042F8012008F0F2
:1071800011FF42B00020BDE8F087000061740A00E2
:10719000004800404F4B000061742B637265673FED
:1071A0000A000000435245473A20302C31000000CD
:1071B000F05C00206174642A3134312A0000000040
:1071C000A73F00206174642A3134302A2300000074
:1071D00018000020600000205512002000380140F7
:1071E00000B50C4A83B05268824202BF002003B04F
:1071F00000BD0FF2240C0A22CDE9002C0B460246FA
:10720000002102200FF000FE04490320886203B031
:10721000012000BDF05C0020000000004C120020A6
:107220002DE9F04F6B48002483B0017826460029F1
:1072300002BF002003B0BDE8F08F674D2978AA296E
:107240004BD1296A002918BFB1F1FF3F45D06349EE
:1072500000270F8062490F70077020216148FEF7F8
:10726000BDFB0EF075FD00200EF082FD642004F0E1
:1072700061F85C4A202100200FF040F90EF068FD13
:1072800034200EF075FD642004F054F800970023BC
:10729000012255A1022001970FF0C2FF4E48DFF8EE
:1072A0006891016AD9F8080081421AD0002300973A
:1072B000012256A1184601970FF0B2FF46484762D7
:1072C0004FF4FA60C9F8087004F034F85849032004
:1072D000086003B00120BDE8F08F03B00120BDE8D5
:1072E000F08F0025DFF8FC80002884BF4AF6AA2A28
:1072F000DFF840B119D900BFCBF800A04FF480628D
:1073000005F5007137480EF0B7FDD9F808100020D8
:107310006D1C18F80020401C1644224494B28D4283
:1073200003D2B0F5806FF3D1E6E72B4D686AB04227
:1073300015D00023009701223FA1184601970FF0B6
:107340006FFF6F624FF4FA60C9F8087003F0F2FF44
:1073500037490320086003B00220BDE8F08FC22047
:1073600088F8000088F80140200A88F80200D9F85F
:10737000081088F803100A0A88F804200A0C88F814
:107380000520090E88F80610552088F807000EF031
:10739000DFFC00200EF0ECFC642003F0CBFF114A70
:1073A000202100200FF0AAF80EF0D2FC34200EF0BD
:1073B000DFFC642003F0BEFF002300971A4626A1DD
:1073C000022001970FF02CFF40F6B83003F0B2FF17
:1073D000FEE7000052120020887800205E12002094
:1073E00057120020A8710020D8A8D8B1D8B1D8B3BE
:1073F000D98A20D986D8B3D8AED98720D8ACD8AF0F
:10740000D98AD8AF00000000F8120020D8AED8B753
:10741000D8A720D8AFD8B120D8ADD8ACD98520D83E
:10742000A7D8B7D984D8A7D8B9D8A7D8AA000000B8
:107430007412002000300040D8AED8B7D8A720D8AA
:10744000B5D8ADD8AA20D8A7D8B7D984D8A7D8B9E5
:10745000D8A7D8AA00000000D8A8D8B1D986D8A744
:10746000D985D98720D8ACD8AFD98AD8AF20D8AFA2
:10747000D8B1D98AD8A7D981D8AA20D8B4D8AF0092
:1074800070B5464905462A24486B10F0450F03D1D4
:10749000486B10F0450FFBD010F0040F05D003240B
:1074A00004200DF09FFB204670BD10F0010F05D0A9
:1074B000012420460DF096FB204670BD0DF0D2FB56
:1074C000A84234D140F2FF500DF08CFB00200DF0AB
:1074D000EBFB334908425ED010F0004F1CBF1C206C
:1074E00070BD10F0804F1CBF092070BD10F0005F10
:1074F0001CBF0A2070BD10F0805F1CBF0B2070BD48
:1075000010F0006F1CBF0C2070BD10F0806F1CBF0E
:107510000D2070BD10F0807F1CBF0E2070BD10F4D8
:10752000000F1CBF0F2070BD10F4800F01D0102081
:1075300070BD10F4001F1CBF112070BD10F4801F1F
:107540001CBF122070BD10F4002F1CBF132070BD93
:1075500010F4802F1CBF142070BD10F4003F1CBF1E
:10756000152070BD10F4803F1CBF162070BD10F4B4
:10757000004F1CBF172070BD10F4804F1CBF182097
:1075800070BD10F4005F1CBF192070BD10F0080F13
:107590001CBF1A2070BD204670BD00000080014055
:1075A00008E0FFFD054A012303FA00F000291168F5
:1075B00014BF084321EA00001060704700740040C7
:1075C00000B5FDB04FF4F0721B496846FEF7DEF9D6
:1075D000012148070BF058FB012105200BF06CFB43
:1075E0002020ADF8F00118208DF8F30103208DF86C
:1075F000F2017CA9114802F0A3FD012102200BF049
:1076000037FB00F023F878A800F051F800207890BC
:1076100079907B9078A9102000F024F801211020A7
:10762000FFF7C0FF06490120C1F88C0105A009F051
:10763000F1FB7DB000BD0000FC3A020800080140EB
:107640000000234231322E776176000010B501210F
:1076500048070BF025FBBDE8104000214FF000501B
:107660000BF01EBB0B4B10B41A6840F6FE7C0CFAF4
:1076700000FC22EA0C02D1E900C44CEA040CD1E976
:10768000024121434CEA010101FA00F01043186065
:1076900010BC704700740040A0F6EC3081B000F1DF
:1076A000804000F500400090016001B0704700216B
:1076B000016041608160C1607047000010F0805F30
:1076C00019BF02490860024948607047040402403B
:1076D000000002400029016812BF41F001014FF68D
:1076E000FE72114001607047002110F0805F14BFEE
:1076F000034A044A1268024218BF01210846704733
:10770000000402400000024010B40268D1F820C01A
:107710008B686FF30E1243EA0C03D1E904C44CEA00
:10772000040C43EA0C03D1F818C043EA0C03D1F867
:107730001CC043EA0C03D1F824C043EA0C03D1F87F
:1077400028C043EA0C031A430260CA6842600A6810
:1077500082604968C16010BC704770472DE9F00F26
:10776000C37890F802C084790CEB032390F801C031
:10777000857A0CEB032390F800C0867B0CEB032387
:10778000D1F8A0C083EA0C0390F807C004EB0C2CDE
:10779000447904EB0C2C047904EB0C2CD1F8A440B4
:1077A0008CEA040CC47A4FEA1C6905EB0424457A80
:1077B00005EB0424057A05EB0424D1F8A8506C40AD
:1077C000C57BC4F3074806EB0525467B007B06EB2B
:1077D000052500EB0520D1F8AC50DEB24540FC4851
:1077E000C5F307274FEA156B50F8266050F827704D
:1077F00050F8288086EA376650F8299086EA38469D
:1078000086EA3926D1F89070C3F307287E4050F8F5
:1078100028900CF0FF07C5F3074850F8277050F880
:1078200028A04FEA146887EA396750F8288087EA69
:107830003A4787EA3827D1F89480CCF3072987EABA
:10784000080704F0FF08C3F3074A50F8288050F8EF
:10785000299050F82AA050F82BB088EA396888EAB5
:107860003A4888EA3B28EDB2C4F30724CCF3074C2E
:1078700050F8255050F824401B0E50F82CC050F8FA
:10788000233085EA346484EA3C4C8CEA3323D1F813
:107890009CC0D1F8989083EA0C04F3B288EA0908F6
:1078A00050F823C0C4F307234FEA146B50F8239019
:1078B000C8F307438CEA396C50F823503B0E8CEA2E
:1078C000354C50F82330C4F307498CEA3323D1F800
:1078D00080C0C6F3072583EA0C0307F0FF0C50F8BD
:1078E000255050F82CC050F829A08CEA356C8CEA51
:1078F0003A4C4FEA1869D1F8845050F82990C6F3F1
:10790000074A8CEA392C8CEA050C08F0FF05C7F30E
:107910000729E4B2C8F3072850F8244050F828801B
:1079200050F8255050F82990C7F3074784EA386487
:10793000360E50F82AA085EA396550F8277050F8BD
:107940002BB050F8266085EA3A45D1F8889084EA51
:10795000374485EA3B2584EA362485EA0905D1F8CF
:107960008C60C5F30748744050F82890DEB2C4F329
:1079700007274FEA1C6850F8266050F8277050F827
:10798000288086EA376686EA39460F6F86EA382607
:107990007E400CF0FF074FEA146B50F82780C3F3CA
:1079A000072750F82BB050F82790C4F3074788EA10
:1079B000396850F827A02F0E88EA3A4850F8277007
:1079C000CCF3072988EA3727D1F87480E4B287EA34
:1079D000080705F0FF08C5F30725C3F3074ACCF3F2
:1079E000074C50F8244050F825501B0E50F82CC07E
:1079F00050F8233084EA356484EA3C4C8CEA332323
:107A0000D1F87CC050F8288050F8299083EA0C0403
:107A1000F3B250F82AA088EA396850F823C088EAFF
:107A20003A48D1F87890C4F3072388EA3B2888EADB
:107A3000090850F82350C8F307434FEA176950F874
:107A400023308CEA356C50F829908CEA3343D1F816
:107A500060C083EA392383EA0C0307F0FF0C50F877
:107A60002C50C6F3072C50F82C90C4F3074C85EA31
:107A7000396550F82CA04FEA186C85EA3A4550F861
:107A80002CC0C7F3072985EA3C2C4D6E50F829908D
:107A90008CEA050C08F0FF05C6F3074A50F825509C
:107AA0004FEA146BE4B2C8F30728C7F3074750F84E
:107AB000244050F82880360E50F8277050F8266081
:107AC00084EA386484EA374484EA3624CE6E50F877
:107AD0002AA085EA396550F82BB0744085EA3A450A
:107AE000D1F8689085EA3B25DEB2C4F3072785EA22
:107AF000090550F8266050F82770C5F307484FEA8B
:107B00001C6950F8288086EA376650F8299086EA82
:107B100038460F6D86EA39267E400CF0FF074FEAA3
:107B2000146B50F82780C3F3072750F82BB050F898
:107B30002790C4F3074788EA396850F827A02F0E2A
:107B400088EA3A4850F82770CCF3072988EA3727A3
:107B5000D1F85480E4B287EA080705F0FF08C5F3BE
:107B60000725C3F3074ACCF3074C50F8244050F8DC
:107B700025501B0E50F82CC050F8233084EA356491
:107B800084EA3C4C8CEA332350F8288050F8299042
:107B9000D1F85CC050F82AA088EA396883EA0C045E
:107BA000F3B288EA3A48D1F8589088EA3B2850F86E
:107BB00023C088EA0908C4F30723C8F307454FEA3E
:107BC000176950F8233050F8255050F8299001E0FB
:107BD000200A00208CEA336383EA3543D1F840C0A1
:107BE00083EA392383EA0C0307F0FF0C4FEA146B96
:107BF00050F82C50C6F3072C50F82BB050F82C90AE
:107C0000C4F3074C85EA396550F82CA04FEA186C8C
:107C100085EA3A4550F82CC0C7F3072985EA3C2C81
:107C20004D6CC6F3074A8CEA050C08F0FF05E4B278
:107C3000C8F30728C7F3074750F8244050F82880B6
:107C4000360E50F8277050F8266084EA386484EACB
:107C5000374450F8255050F8299084EA3624CE6CE9
:107C600050F82AA085EA3965744085EA3A45D1F88A
:107C7000489085EA3B25DEB2C4F3072785EA09056B
:107C800050F8266050F82770C5F307484FEA1C6982
:107C900050F8288086EA376650F8299086EA3846F8
:107CA0000F6B86EA39267E400CF0FF0750F82780DC
:107CB000C3F3072750F82790C4F3074788EA3968C9
:107CC00050F827A02F0E88EA3A4850F82770CCF3D6
:107CD000072988EA3727D1F8348050F8299087EAB5
:107CE000080705F0FF08C3F3074A50F828804FEA59
:107CF000146BE4B2C5F30725CCF3074C50F82440CD
:107D000050F825501B0E50F82CC050F8233084EA50
:107D1000356484EA3C4C8CEA3323D1F83CC050F8FB
:107D20002AA088EA396850F82BB083EA0C0588EA63
:107D30003A48D1F8389088EA3B28F3B288EA090833
:107D400050F82340C8F3074CC5F3072350F82C9094
:107D500050F823304FEA176C84EA336350F82CC094
:107D600083EA394383EA3C23D1F820C083EA0C0438
:107D7000FBB250F823A0C6F3072350F823C0C5F385
:107D800007438AEA3C6C50F823904FEA18638CEA68
:107D9000394C50F823308CEA3323D1F824C083EADD
:107DA0000C0308F0FF0C50F82C90C7F3072CC7F316
:107DB000074750F82CA0C6F3074C89EA3A6950F8F7
:107DC0002CB04FEA156C89EA3B4950F82CC0EDB253
:107DD00089EA3C2CD1F82890360E8CEA090C50F830
:107DE0002590C8F3072550F8277050F8255050F813
:107DF000266089EA356585EA374585EA3625CE6A03
:107E000085EA0608E5B250F82550C8F30726CCF3FA
:107E1000074750F8266050F827901F0E85EA366510
:107E200050F8277085EA39450E6985EA372575408F
:107E3000DEB2C8F3074950F82670C4F307264FEAAC
:107E40001C6A50F8266050F8299087EA366650F888
:107E50002AA086EA39464F6986EA3A267E400CF027
:107E6000FF07CCF3072C50F82790C3F30727C3F381
:107E7000074350F827A0C4F3074750F82CC050F828
:107E800027B04FEA186708F0FF0850F8277050F83D
:107E90002880240E50F8233050F8240088EA3C6CE7
:107EA0008CEA334383EA3020CB6989EA3A6989EA6C
:107EB0003B4980EA030889EA37274448D1F81890FB
:107EC000EBB287EA0907C8F3072CC7F3074450F859
:107ED000233050F82CC050F82490340E83EA3C63D1
:107EE00050F8244083EA394383EA3423C5F3072456
:107EF000D1F800C050F8249083EA0C03C8F307447B
:107F000006F0FF0C50F824A050F82CC03C0E8CEA70
:107F1000396C50F824408CEA3A4C8CEA342C4C688A
:107F20008CEA040CFCB2C7F3072750F82490C6F380
:107F30000724C6F3074650F824A0C5F3074489EA8E
:107F40003A6950F824B04FEA186408F0FF0850F876
:107F5000244089EA3B492D0E89EA342450F82880D0
:107F600050F8277050F82660D1F8089050F8250096
:107F700088EA376585EA3645C96885EA3020484091
:107F8000190ED170190C9170190A517013704FEAC3
:107F90001C61D1714FEA1C4191714FEA1C21517152
:107FA00084EA090482F804C0210ED172210C917276
:107FB000210A51721472010ED173010C9173010ADE
:107FC00051731073BDE8F00F70470000200E0020C1
:107FD00010B50C4C0AA1204610F032FA0AA006F0A7
:107FE00063F800281CBF012010BD08A1204610F036
:107FF00027FA05A006F058F8002818BF022010BD87
:1080000061740A00004800404F4B000061742B630C
:108010006D67643D312C340A000000002DE9F04703
:108020008046494882B0914600780F4600281CBF20
:1080300002B0BDE8F087DFF814A1504604F0D6FA8C
:10804000434D03240094287840F2DB1200F20F1312
:1080500000F1FA0140F2451003F0BEFC4FF6FF704C
:1080600004F0C4FA0094287840F2DB1200F20F13F7
:1080700000F1FA0140F2451003F0DCFB6FF07F40A5
:1080800004F0B4FA0226CDE9009640F20F1340F254
:10809000DB12F02140F245100AF0D0FD504604F00A
:1080A000A5FA0094287840F23B1200F20F1300F179
:1080B000FA01A52003F090FC4FF6FF7004F096FA49
:1080C0000094287840F23B1200F20F1300F1FA01FD
:1080D000A52003F0AFFB6FF07F4004F087FACDE9F5
:1080E000007640F20F1340F23B12F021A5200AF077
:1080F000A5FD504604F07AFA009428789B2200F2FD
:108100000F1300F1FA01052003F066FC4FF6FF7033
:1081100004F06CFA009428789B2200F20F1300F10F
:10812000FA01052003F086FB6FF07F4004F05EFA51
:10813000CDE9008640F20F139B22F02105200AF0C2
:108140007DFD02B0BDE8F0872C120020006C0B0012
:10815000461200202DE9F04F83B09A461646894614
:108160008346072A0FD22EB1062E08BFB9F1070F9A
:1081700003D004E0B9F1070F01D34FF0010A002743
:10818000002425468FE0B01F4FF0010AC7B2F7E781
:108190002234BAF1000F04D17819B04218BF484513
:1081A0007BD17819B04210D10620454A009045494C
:1081B000CDE9011204F1210340F2D712A11C0020E5
:1081C00003F01EFA4FF6FF701CE0002004F00EFAD8
:1081D0000620009004F1200340F2D712E11C002099
:1081E00003F0FAFB6FF07F4004F000FA06200090E5
:1081F00004F1210340F2D712A11C002003F01AFB66
:108200004FF47F4004F0F2F998F81C0018B364288A
:1082100016D3A0F16401012088402B4980B24FF0B1
:1082200001030978884305D028A2A11DE62005F0A6
:1082300095FD16E026A2A11DE62005F08FFD10E0B9
:1082400021494FF001030978884205D121A2A11DDF
:10825000E62005F083FD04E01FA2A11DE62005F045
:108260007DFD1E48D8F810C000230178ADF800301D
:10827000601A00F123020844ADF8020040F2CD1369
:108280008818ADF804304FF00108ADF806004346F9
:1082900042466946604603F0FBF86D1C072DA4BFFB
:1082A00003B0BDE8F08FE8190BEB4018D8F80000D8
:1082B000007800287FF46CAF03B0BDE8F08F0000B9
:1082C0000028280000DCDC00F512002030313000EE
:1082D0003031310030313500303134004612002069
:1082E00000B583B00DF034FD00200DF041FD642099
:1082F00003F020F8012200210FA005F00FFF39281C
:108300004FF000001CBF03B000BD0090002301909F
:108310001A4612A118460EF083FF0DF03DFD07F03E
:108320003BFC0DF015FD34200DF022FD642003F020
:1083300001F803B000BD0000212121D8ADD8A7D994
:1083400081D8B8D98720D9BED8A7DAA920D985D9AC
:108350008A20D8B4D988D8AF21212100D8A2D985C4
:10836000D8A7D8AFD98720D8B3D8A7D8B2D98A2070
:10837000D8ADD8A7D981D8B8D98700000248002144
:1083800081604160C16070478C0100202DE9F00FD1
:10839000C37890F802C084790CEB032390F801C0F5
:1083A000857A0CEB032390F800C0867B0CEB03234B
:1083B000D1F800C083EA0C0390F807C04FEA136AB3
:1083C00004EB0C2C447904EB0C2C047904EB0C2CFE
:1083D0004C688CEA040CC47ACCF3072705EB042420
:1083E000457A4FEA1C6B05EB0424057A05EB04245F
:1083F0008D686C40C57B06EB0525467B007B06EB54
:10840000052500EB0520CD68DEB24540FB484FEA6C
:10841000156950F8278050F82660C4F3074786EAAC
:10842000386650F8277050F8299086EA37460F6969
:1084300086EA39267E400CF0FF07C4F3072850F87F
:10844000277050F82880C5F3074987EA386750F845
:10845000299050F82AA087EA3947D1F8148087EA92
:108460003A2787EA080704F0FF08C5F30729C3F392
:10847000074A50F8288050F8299050F82AA050F860
:108480002BB088EA396888EA3A4888EA3B28EDB296
:10849000C3F3072350F8255050F82330CCF3074C92
:1084A000240E50F82CC085EA336350F8244083EA48
:1084B0003C43D1F81CC083EA342383EA0C04F3B2B2
:1084C000D1F8189050F823C0C7F3072388EA0908A9
:1084D00050F82330C8F307454FEA146950F8255087
:1084E0008CEA336350F8299083EA354383EA3923D1
:1084F000D1F820C0C4F3074983EA0C0307F0FF0C4E
:1085000050F8299050F82C50C8F3072C4FEA166AFF
:1085100050F82CC050F82AA085EA3C6C8CEA394C03
:108520008CEA3A2CC4F307294D6AC6F3074A8CEA51
:10853000050C08F0FF054FEA176BE4B2C6F30726F7
:1085400050F8244050F82660C7F3074750F82550EC
:1085500050F8299050F827704FEA186884EA36647A
:1085600050F82AA085EA396550F8288084EA374413
:1085700050F82BB085EA3A45D1F8289084EA38249F
:10858000CCF3072785EA3B2585EA0905CE6A50F832
:108590002780C5F30747744050F82790DEB2270EB6
:1085A00050F8266050F8277086EA386686EA394621
:1085B00086EA37260F6BC5F307287E400CF0FF07CD
:1085C00050F8289050F82770C4F3074887EA3967B5
:1085D00050F828804FEA136A87EA384750F82AA0F3
:1085E000D1F8348087EA3A27C4F3072987EA0807D5
:1085F000C3F3074A05F0FF084FEA1C6BE4B2C3F36C
:108600000723CCF3074C50F8244050F8233050F89F
:108610002CC02D0E84EA336350F8288050F829903E
:1086200050F8255083EA3C43D1F83CC050F82AA0CA
:1086300088EA396883EA352383EA0C0488EA3A48F1
:10864000F3B250F82BB0D1F8389050F823C088EA34
:108650003B28C7F3072388EA090850F82350C8F3DA
:1086600007438CEA356C50F823304FEA14698CEAE2
:10867000334350F82990D1F840C083EA392383EA84
:108680000C0307F0FF0CC8F3072550F82CC050F876
:108690002550C4F307494FEA166A50F829908CEA2E
:1086A000356C50F82AA08CEA394C4D6C8CEA3A2C87
:1086B0008CEA050C08F0FF05C4F3072950F8255093
:1086C00050F82990C6F3074A4FEA176B50F82AA0D2
:1086D00085EA396550F82BB085EA3A4585EA3B25AD
:1086E000D1F84890C6F3072685EA090550F8269088
:1086F000E4B2C7F3074650F8244050F826604FEA2A
:10870000186784EA396450F8277084EA3644CE6CDE
:1087100084EA37247440DEB2C5F3074850F8267067
:10872000CCF307264FEA146950F8266050F82880E9
:1087300087EA366650F8299086EA38460F6D86EA51
:1087400039267E400CF0FF074FEA1C6B50F827805B
:10875000C5F30727CCF3074C50F82790C4F307471D
:1087600088EA396850F827A01F0E88EA3A4850F87E
:108770002770C4F3072988EA3727D1F85480C3F358
:10878000074A87EA080705F0FF08E4B2C3F30723A6
:1087900050F8244050F8233050F82CC02D0E84EAB5
:1087A000336350F8255083EA3C4350F8288050F852
:1087B0002990D1F85CC083EA352350F82AA088EAD2
:1087C000396883EA0C0450F82BB0F3B288EA3A48CF
:1087D000D1F8589088EA3B2850F8233088EA0908F5
:1087E000C7F3072C4FEA146950F82C50C8F3074C14
:1087F00050F8299050F82CC002E000002002002020
:1088000083EA356383EA3C43D1F860C083EA3923C5
:1088100083EA0C0307F0FF0C4FEA166A50F82C505D
:10882000C8F3072C50F82AA050F82C90C4F3074C3A
:1088300085EA396550F82CC0C4F3072985EA3C4C19
:108840008CEA3A2C4D6EC6F3074A8CEA050C08F008
:10885000FF05E4B2C6F307264FEA176B50F8244031
:1088600050F82660C7F307474FEA186850F827709A
:1088700084EA366450F8288084EA3744CE6E84EA6D
:108880003824744050F8255050F82990DEB250F842
:108890002AA085EA396550F8267050F82BB0CCF341
:1088A000072685EA3A45D1F8689085EA3B2550F8D5
:1088B000268085EA0905C5F3074687EA386750F838
:1088C0002690260E87EA394750F82660C5F3072818
:1088D00087EA36260F6F50F828907E40C4F3074889
:1088E0000CF0FF0750F828A050F827704FEA1368E3
:1088F00087EA396750F8288087EA3A4787EA3827B5
:10890000D1F87480C4F3072987EA080705F0FF0847
:1089100050F8299050F82880C3F3074A4FEA1C6B9F
:1089200050F82AA088EA396850F82BB088EA3A480B
:10893000D1F8789088EA3B28C3F3072388EA09082E
:1089400050F82390E4B2CCF3074350F824404FEAA8
:10895000156C50F8233050F82CC084EA396484EA4E
:10896000334383EA3C23D1F87CC083EA0C05C7F388
:10897000072CF3B250F82C40C8F3074C50F82330C2
:1089800050F82CC04FEA156983EA346350F82990F7
:1089900083EA3C43D1F880C083EA392383EA0C049C
:1089A000FBB250F823C0C8F3072350F82390C5F357
:1089B00007438CEA396C50F823A0330E8CEA3A4C0A
:1089C00050F823304FEA17698CEA3323D1F884C07A
:1089D00050F8299083EA0C0308F0FF0C50F82CA003
:1089E000C5F3072CEDB250F82CB0C6F3074C8AEA59
:1089F0003B6A50F82CC08AEA3C4C8CEA392CD1F8FE
:108A000088908CEA090C50F82590C6F30725C7F327
:108A1000074650F8255050F826604FEA186789EA53
:108A2000356550F8277085EA3645D1F88C6085EABF
:108A3000372585EA0608E5B250F82550C3F3072626
:108A4000CCF3074750F826604FEA186950F82770B2
:108A500085EA366550F8299085EA3745D1F8906067
:108A600085EA39257540DEB24FEA146A50F826705F
:108A7000CCF3072650F82AA050F82690C8F30746F2
:108A800087EA396750F82660C8F3072987EA36462F
:108A900086EA3A26D1F89470C4F3074A7E400CF077
:108AA000FF074FEA136B50F8277050F8299050F8E1
:108AB0002AA050F82BB008F0FF08C4F30724C3F332
:108AC00007434FEA1C6C50F8288050F8244050F8B7
:108AD000233050F82C0088EA346C8CEA334383EA64
:108AE0003020D1F89C3087EA396780EA030848488B
:108AF00087EA3A47D1F8989087EA3B2787EA09073F
:108B0000EBB2C6F3072CC7F3074450F8233050F8F4
:108B10002CC050F824904FEA186483EA3C6350F864
:108B2000244083EA3943D1F8A0C083EA342383EA9E
:108B30000C0306F0FF0C4FEA156A50F82C40C7F3FF
:108B4000072C50F82AA050F82C90C8F3074C84EA60
:108B5000396450F82CC084EA3C4C8CEA3A2CD1F8A9
:108B6000A440C5F3074A8CEA040407F0FF0C4FEA5F
:108B7000166B50F82C90C8F3072C08F0FF0850F83B
:108B80002CC0C5F3072550F82AA089EA3C6CC6F32F
:108B9000074650F82BB050F8288050F825503F0E6B
:108BA000D1F8A89050F8266050F8270088EA35657B
:108BB00085EA3645D1F8AC1085EA30204840190ED8
:108BC000D170190C9170190A51701370210ED17166
:108BD000210C91718CEA3A4C210A8CEA3B2C5171A0
:108BE0008CEA090C14714FEA1C61D1724FEA1C41E6
:108BF00091724FEA1C21517282F808C0010ED173A4
:108C0000010C9173010A51731073BDE8F00F7047A6
:108C10002006002010B400220F4B0124944600BF10
:108C2000C3F88841C8210020C1EB011100BF401CDE
:108C3000B0EB410FFAD3C3F888C150210020C1EB3B
:108C4000011100BF401CB0EB410FFAD3521CB2F52A
:108C5000C87FE5D310BC7047000023422DE9F04FD8
:108C6000002583B00446A84602F094FADFF860912C
:108C7000DFF860A15848CDE900A901784FF4887267
:108C800001F12303002002F0F1FC01232A46002118
:108C90002046FFF75FFA514E376844F6206B306884
:108CA000C01B584570D20DF0A1FC002818BF3768D2
:108CB000F5D00F2868D008DC0B2842D00C2828D02B
:108CC0000D280AD00E28EAD17DE01E287BD04C2842
:108CD00037D052281DD07828E1D104EB4511087F08
:108CE000002852D0642838BF804660D3A0F16401C8
:108CF0000120884080B230EA080103BF4FF6FF71BF
:108D0000484000EA080848EA000018BF00F0FF08E1
:108D10004DE004EB4510006A007850B1681CC2B207
:108D20000090002329462046FFF714FA0098C5B2A8
:108D3000B5E700231A4629462046FFF70BFA00251F
:108D4000ADE7002D08BF00200AD0681EC2B2009017
:108D5000002329462046FFF7FDF90098C5B29EE79B
:108D600004EB40110968097800291CBF401C80B23F
:108D7000F6D1401EC2B20090002329462046FFF7DC
:108D8000E9F90098C5B28AE71DE0886978B18047A3
:108D9000642814D00DF02AFC02F0FCF9CDE900A9FA
:108DA000002123234FF48872084602F05FFC3768E5
:108DB0002A46012311462046FFF7CCF96FE703B09E
:108DC0000020BDE8F08F03B04046BDE8F08F000002
:108DD0000A0A0A00EAE6E300461200201800002012
:108DE0002DE9FF4FED48002693460F4600780421F9
:108DF00005228DB09946B046B44601282AD01523E5
:108E00003721022820D00328E54802702BD01422F5
:108E10004270817080F803C01D990025E14C0D60FF
:108E20001E994AF6AA2A0D60DF48C0F800A06846DD
:108E300005F002FCE0B1684605F0FEFBC0B1761C0F
:108E4000142EF1D300F09CB9D548027043708170A4
:108E500020210BE0D248017010214170392181702E
:108E600080F803C0D8E7437081704021C170D3E718
:108E7000681CC5B20098002620600BF0D3FA28B316
:108E8000616839602C2819D00CDC042812D00B281A
:108E9000CAD1A068CBF800006068386011B00B2020
:108EA000BDE8F08F37280DD05A28BDD111B006206B
:108EB000BDE8F08F11B00220BDE8F08F11B00E2098
:108EC000BDE8F08F11B00F20BDE8F08F38680028A2
:108ED0001FBF61688142092011B018BFBDE8F08F43
:108EE00060683860A068DBF80010CBF800008842AA
:108EF0001EBF0A2011B0BDE8F08F0026AB48AC4978
:108F0000AC4F00780978C0EB001001EB800BA5494D
:108F100006EB0612002007EB82040A5C235C9A42EF
:108F200004D1401CC0B20428F7D301E0042828D3A0
:108F3000022E26D2207D617DC0EB001001EB800067
:108F4000BBEB000048BF40420A2806DA2146442213
:108F50009448FCF71BFD4FF0010800206060A06002
:108F6000E061A061206260732073206120756075EC
:108F70006062A062E06220636063A063E0632064DB
:108F80002060701CC6B2022EC1D3864C2099B8F165
:108F9000000F607B08701F99208A08801D99E06986
:108FA000086037D1E169C4F8189021620D996173A6
:108FB0007E492046097821757D49097861751C999B
:108FC0002161217B491CC9B20173122924BF0021F0
:108FD0000173219A11700D99012912D002291EBF27
:108FE000052011B0BDE8F08FC169494521BF1B9A2A
:108FF0008A42A1EB0901E1610AD211B00320BDE868
:10900000F08FC1691B9A4944914298BFE161F4D83D
:1090100008F00EF8012D18BF002607D16248002580
:10902000C0F800A038E0012D08BF02255E48C0F856
:1090300000A0012D30D9684605F0FEFA98B1761CE3
:10904000142EF0D3B8F1000F18BF00207DD000BF60
:1090500000EB001107EB81014968B1B3401CC0B2BD
:109060000228F5D381E020789DF8001088420FD1C6
:1090700061789DF801202046914209D181789DF8C0
:109080000220914204D1E1789DF80300814203D08F
:1090900011B00420BDE8F08F207B47490026A1FBDA
:1090A00000214908494201EBC1010844C0B24FF018
:1090B0002C0B09281ED2DFE800F01D05090C0F1249
:1090C00015181B004FF02D0B14E04CE04FF02E0B49
:1090D00010E04FF0300B0DE04FF0310B0AE04FF095
:1090E000320B07E04FF0340B04E04FF0350B01E09A
:1090F0004FF0360B4FEA9B00352105F09AFA002815
:1091000091D1A14604F13401584605F0A3FA10BBF1
:10911000DFF88C8098F8021098F8000005F089FAC2
:10912000C8B909F1240198F8010005F093FA90B943
:1091300004A998F8010005F07DFA002808BF04A9E9
:1091400009D100BF09EB000200E019E092F82430D9
:109150000A5C934202D04FF0010864E7401CC0B2A1
:109160001028EFD310E0022800D3002000EB0010FD
:1091700007EB800044220B49FCF708FC142E03D3B4
:1091800011B00120BDE8F08F1D98E16901601E98C3
:10919000216A016011B00020BDE8F08F2D1200207F
:1091A00020120020F0580020003000405001002024
:1091B0005101002034590020398EE3382DE9F04F59
:1091C0004FF000087D4FD1B04446C146C2464546E7
:1091D00079A138460FF034F979A004F065FF002832
:1091E0001EBF012051B0BDE8F08F76A138460FF0C8
:1091F00027F977A004F058FF002817BF0220774E08
:1092000051B0BDE8F08F06E038460FF0FFF8601C63
:10921000C4B2322C02D2315D0029F5D168A004F02D
:1092200043FF00281EBF032051B0BDE8F08F6C4CF7
:1092300026686C4F41F2707BB8690A2812D8206802
:10924000864203D951B00420BDE8F08F2068801B0E
:10925000584503D351B00520BDE8F08F012002F03E
:1092600069F8E9E702208DF800000B208DF8010075
:109270005D4820210DF5987B00888DF80200000ADA
:109280008DF8030000208DF804008DF805008DF89E
:109290000610072407466E4651E000BF9DF82C01DA
:1092A000392804D010DCA0F1300108291ED8BAF109
:1092B000010F04BF4FF0000A57460BF80700781C57
:1092C000C7B2042D32D127E061281AD008DC41282A
:1092D00017D0492810D04C2818D052280AD005E0C1
:1092E000692809D06C2811D0722803D000254FF0CE
:1092F000010A1BE0012519E0012D08BF022515D048
:1093000008E0022D08BF032510D003E0032D08BF9D
:10931000042501D0002509E0B8F1000F06D1002096
:109320000BF807004CA8FCF77EFB80469DF82C014B
:10933000202804D3C82802D83055601CC4B24BA8DA
:1093400001F08EF9002818BFDC2CA7D3A01FC1178D
:1093500000EB11618DF80400080A8DF80500601C0F
:10936000C0B206F804904FEA19213154401CC0B233
:1093700003213154401CC5B21C48007810B10128AB
:109380000ED011E00024002D88BF194F0CD9315D9B
:1093900038460FF03BF8601CC4B2A542F7D803E092
:1093A0006946284600F02CFF012006F0FBFD51B075
:1093B0004046BDE8F08F000061740A00004800409C
:1093C0004F4B000061742B637265673F0A00000019
:1093D000435245473A20302C31000000A73F00207F
:1093E0001800002060000020F05C002055120020D2
:1093F0000038014070B4012200EB02110C6804F047
:109400008033A3EBD31303F01B3304F07F3C83EAD8
:109410004C0303F0803CACEBDC1C0CF01B3C03F079
:109420007F358CEA450C0CF08035A5EBD51505F0A1
:109430001B350CF07F3685EA46056C4083EA0C0646
:109440007540634085EA33238CEA040C83EA3C438D
:1094500083EA34630B604C6804F08033A3EBD313CE
:1094600003F01B3304F07F3C83EA4C0303F0803CA1
:10947000ACEBDC1C0CF01B3C03F07F358CEA450C9C
:109480000CF08035A5EBD51505F01B350CF07F36BB
:1094900085EA46056C4083EA0C067540634085EA20
:1094A00033238CEA040C83EA3C4383EA34634B6045
:1094B0008C6804F08033A3EBD31303F01B3304F068
:1094C0007F3C83EA4C0303F0803CACEBDC1C0CF0EB
:1094D0001B3C03F07F358CEA450C0CF08035A5EB86
:1094E000D51505F01B350CF07F3685EA46056C4036
:1094F00083EA0C067540634085EA33238CEA040C4A
:1095000083EA3C4383EA34638B60CC68521C04F0EA
:109510008033A3EBD31303F01B3304F07F3C83EAC7
:109520004C0303F0803CACEBDC1C0CF01B3C03F068
:109530007F358CEA450C0CF08035A5EBD51505F090
:109540001B350CF07F3685EA46056C4083EA0C0635
:109550007540634085EA33238CEA040C83EA3C437C
:1095600083EA3463CB60092A7FF646AF70BC70474C
:109570002DE9F003C27812020A6083781A441202BD
:109580000A6043781A4412020A6003781A440A6097
:10959000C27912024A6083791A4412024A604379FE
:1095A0001A4412024A6003791A444A60C27A1202CB
:1095B0008A60837A1A4412028A60437A1A44120239
:1095C0008A60037A1A448A60C27B1202CA60837B73
:1095D0001A441202CA60437B1A441202CA60007B1A
:1095E000204B104400220124A3F27C49C1F80C0056
:1095F00001EB8200C5684FEA352C0CF0FF0653F8EA
:109600002680CCF3072653F82670CCF307464FEAA2
:109610001C6C53F8266053F82CC088EA376787EA39
:10962000364686EA3C2C51F82260121D8CEA060C64
:1096300059F82460641C8CEA060CC0F810C0466817
:10964000282A86EA0C0CC0F814C0866886EA0C0C3E
:10965000C0F818C085EA0C0CC0F81CC0C8DBBDE817
:10966000F0037047200600208000A0F1C0400029D0
:10967000016812BF41F00101014A114001607047C9
:10968000FEFF0F00D0E901121143D0E903231A4372
:1096900011434269114382691143C2691143026A4D
:1096A0001143426A1143826A1143C26A1143026B39
:1096B0000A4301688900A1F1C0410A608168082954
:1096C00007D101688900A1F1C0410A6842F0400257
:1096D0000A60416BD1E9002342EA03128B68B1F8BA
:1096E0000CC01B0243EA0C431A430B8A42EA0352A2
:1096F0000B7D896942EA0362114302689200A2F17C
:10970000C0425160C16AB1F5804F08D000686FF067
:1097100070418000A0F1C040C0F804117047816B17
:10972000D1E9002342EA03128B68B1F810C01B0292
:1097300043EA0C531A430B7D896942EA03620068CD
:1097400011438000A0F1C040C0F804117047000030
:109750002DE9F0430446C56887B09046894600204D
:1097600002F046FF064625B1287910B146F0020006
:1097700001E026F0020002F03BFF2069012558B10C
:10978000D4E902128DE826000395638822880468D4
:1097900041464846A0471EE0124F134B2146386809
:1097A0001B68427CE068984730B9E088012801D006
:1097B000002001E03868806BA288E388A1680095EA
:1097C000CDE90410CDE90232019563882288414633
:1097D000484605F0EBF807B03046BDE8F04302F02C
:1097E00007BF000028140020201400201CB500240E
:1097F000019401AC009400F0E7F81CBD2DE9FF4F87
:1098000083B0814606988A46A0EB0A08109E002085
:109810000090A2EB09043568934654EA080018D07A
:109820002046FDF7B5F807464046FDF7B1F88742F8
:109830000BDA2046444680464846D1468246584682
:10984000DDF818B0069001200090002C07DD2046BE
:1098500006E007B04846BDE8F04F00F03BB9604273
:10986000A0420AD04846D9466442C8F1000883465F
:109870004FF0FF37DDF818A000E001275148B8F19C
:10988000000F11D004EBD4714FEA610B01DACBF178
:10989000000B4C480068807E88B3002F02DA3068E5
:1098A0002044306000257BE000990029016821D028
:1098B000897E11B10027804615E007B05A46494617
:1098C0005046BDE8F04F05F0D5B928466D1C13F0A1
:1098D000BBFF38B9D8F8000009EB0701C06E426839
:1098E000504690477F1CA742EFDD6D1E356007B0E4
:1098F000BDE8F08F8A7E1AB10027804617E019E094
:10990000C86E5A465146036807B04846BDE8F04F56
:10991000184728466D1C13F097FF38B9D8F8001087
:1099200009EB0700C96E4A68514690477F1CA74261
:10993000EFDDDAE700250FE008FB05B090FBF4F15E
:1099400001EB0A00009951B11E4A09EB05011268AA
:10995000D26E526890476D1CA542EDDDC7E71949EC
:1099600009EB05030968C96E4A6801461846F1E724
:1099700008FB05B090FBF4F101EB0A0001903068A0
:109980003844306013F060FF48B9009890B10D483A
:1099900009EB05010068C06E4268019890476D1C94
:1099A000A542E5DD3068002F01DA20443060C01B9D
:1099B00030609CE7034909EB05000968C96E4A68F5
:1099C0000199EBE7281400202DE9FF470F46404995
:1099D0001646804609680C981D460A7E012A1CD04E
:1099E000A8EB0600791B50EA01031CD0A2F1010983
:1099F00014F07EFE00F58060824604F081F900FBE1
:109A000009F4504604F080F900FB09F1002C0CDA4F
:109A1000C4F50070801240420AE000903246394698
:109A20004046FFF7EBFEBDE8FF8704F50074A01287
:109A3000002904DAC1F5007189124C4202E001F5F7
:109A400000718C12002804DD411C01EBD17149101A
:109A500003E000EBD0714910401E00EBD0704210C3
:109A6000002C04DD601C00EBD070401003E004EB20
:109A7000D4704010641E04EBD47308EB0104ADF8FD
:109A800000403C18ADF80240A8EB02045B10B21A8B
:109A9000ADF80440ADF808203144FC1AEA1AADF8DC
:109AA0000C102844ADF80A20ADF80E000023ADF8E4
:109AB00006401A460421684600F07AF839464046C6
:109AC00011F058FF2946304611F054FFABE7000073
:109AD00028140020064A13681A7E012A05D0521E57
:109AE00002EBD272521000F005B8DA6E52681047DD
:109AF000281400202DE9F05F0646884640F2C32076
:109B000050434FF47A7190FBF1F702FB02F002EB45
:109B1000D27100EB610B254914467F1C0968324461
:109B2000301BC96E0B684146984701253AE000BFDB
:109B300005FB05F004FB040159451CDDBC4219DDA1
:109B40001A4B06EB050AA6EB05091B68AAF10102F0
:109B500008EB0401DB6E09F101001B689847134B09
:109B6000AAF10102A8EB04011B6809F10100DB6EF8
:109B70001B689847641E0D4806EB040AA6EB04090F
:109B8000006808EB05015246C06E036848469847D6
:109B90000648A8EB050152460068C06E03684846B7
:109BA00098476D1CBD42C3DDBDE8F09F281400201E
:109BB0002DE9FF4F40F6FF740F46664283B09B4687
:109BC000814600210BE000BF09EB8100B0F90200E3
:109BD000A04200DA0446B04200DD0646491CB94204
:109BE000F2DB68480068406900280DD0B0F9061023
:109BF0001A46A1EB0B01B14200DA0E46B0F90200A1
:109C0000801AA04200DD0446B5E0DFF87CA1002008
:109C10000546CAF8000089E0781E854201DA6B1C0F
:109C200000E0002309EB850C09EB8302BCF902007C
:109C3000B2F90210A04245D1A14215D139F9233021
:109C4000059A39F9251003EB020C4E4A0598126863
:109C5000084404EB0B01D26E6045136801DA6246DA
:109C60002BE00246604628E02846A4464FF0000854
:109C70007A1E0BE008B1401E00E0781E09EB80035D
:109C8000B3F90230634504D108F101089045F1DBD6
:109C90002346A34249D0A3EB040239F92500A1EBE6
:109CA000040C059B92EA0C0209D4364A184404EBD2
:109CB0000B011268D26E13680246984735E00FF028
:109CC000EDFD32E0A14230D001DBA04203DDA04235
:109CD0002BDBA14229DCE04688420ADC0346A04295
:109CE00023DC0846A14220DBB8F900C0B2F900101D
:109CF00008E00B46A14218DCA04216DBB2F900C016
:109D0000B8F90010E21AA1EB0C0151430029A0EBB5
:109D1000030202DD01EB620102E0A1EB6201491CDA
:109D2000C01A91FBF0F06044C9E76D1CBD42FFF61C
:109D300073AF0598009004EB0B0001900020804663
:109D4000054613E01149B8F1000F31F915A009D00B
:109D5000009901EB0A0208440A490968C96E0B68B8
:109D60000199984788F0010850466D1C064909681A
:109D70008D42E7DB641CB4427FF747AF07B0BDE814
:109D8000F08F0000281400205C140020FC7B0020D1
:109D900010B5002002F026FC6FF07F4002F026FC98
:109DA000012002F055FC002002F05AFC002002F0D5
:109DB00061FC002002F01CFC0448006802F01AFC60
:109DC000BDE81040002002F01FBC00002414002059
:109DD0002DE9F84F0121052008F06EFF012109202F
:109DE00008F06AFF0121112008F066FF01212120FF
:109DF00008F062FF0121412008F05EFF012181206F
:109E000008F05AFF012140F2011008F055FF182612
:109E1000ADF8006048278DF8037003248DF80240E8
:109E20006946BF4800F08CF9BE484FF001084FF07A
:109E3000280A80F80080ADF80080DFF8ECB28DF8D9
:109E400003A08DF802406946584600F079F94FF4B6
:109E50008160ADF800004FF004098DF803908DF893
:109E600002406946584600F06BF94FF48170ADF836
:109E7000000010258DF803508DF8024069465846C1
:109E800000F05EF94FF40170ADF800008DF803604A
:109E90008DF802406946584600F052F9ADF800804E
:109EA0008DF803A08DF802406946A04800F048F9FB
:109EB0004020ADF800008DF803708DF8024069462F
:109EC0009A4800F03DF9E801ADF800008DF80390E4
:109ED0008DF802406946954800F032F941F2A2003F
:109EE000ADF800008DF803508DF8024069468F48A8
:109EF00000F026F94FF4806AADF800A08DF80360F9
:109F00008DF802406946894800F01AF97420ADF8CE
:109F100000008DF803708DF802406946844800F017
:109F20000FF942F23A00ADF800008DF803508DF8B9
:109F3000024069467E4800F003F92802ADF80000AF
:109F40008DF803608DF802406946794800F0F8F812
:109F50004FF47060ADF800008DF803608DF802409A
:109F60006946734800F0ECF84FF48250ADF80000F9
:109F70008DF803708DF8024069466E4800F0E0F8F5
:109F80004FF0080BADF800B08DF803508DF802408B
:109F90006946684800F0D4F84EF63770ADF8000016
:109FA0008DF803608DF802406946624800F0C8F8F9
:109FB0007C20ADF800008DF803508DF80240694612
:109FC0005D4800F0BDF84FF68370ADF800008DF8E5
:109FD00003608DF802406946574800F0B1F848F236
:109FE000C020ADF800008DF803508DF8024069469E
:109FF000524800F0A5F84FF45060ADF800008DF81D
:10A0000003708DF8024069464C4800F099F847F219
:10A010003F00ADF800008DF803608DF802406946FE
:10A02000464800F08DF84AF22020ADF800008DF887
:10A0300003508DF802406946394800F081F84FF42A
:10A040008340ADF800008DF803708DF8024069463A
:10A05000334800F075F845F21F00ADF800008DF8A8
:10A0600003608DF8024069462D4800F069F88020B1
:10A07000ADF800008DF803608DF8024069462D4868
:10A0800000F05EF8ADF800A014208DF803008DF804
:10A0900002406946254800F053F8ADF800808DF87D
:10A0A00003508DF802406946214800F049F8A002AB
:10A0B000ADF800008DF803708DF80240694618482D
:10A0C00000F03EF84FF41870ADF800008DF8035022
:10A0D0008DF802406946124800F032F8ADF800B041
:10A0E0008DF803508DF802406946134800F028F8B7
:10A0F0004FF46050ADF800008DF803508DF8024029
:10A1000069460C4800F01CF8ADF800908DF803503B
:10A110008DF802406946024800F012F8BDE8F88F59
:10A12000002001402C12002000080140000C0140DA
:10A13000001001400014014000180140001C0140C3
:10A140002DE9F003CB7803F00F0213F0100F1CBFC2
:10A150008B781A430B784FF00F0713F0FF0F4FF077
:10A1600001081FD0046800235FF008050E8808FA74
:10A1700003FC3CEA060611D19E0007FA06F924EA20
:10A18000090402FA06F63443CE78282E08BFC0F838
:10A1900014C003D0482E08BFC0F810C05B1C6D1E51
:10A1A000E4D104600B88FF2B9CBFBDE8F00370472F
:10A1B00044684FF0000C08250CF108030E8808FADB
:10A1C00003F333EA060607D06D1E0CF1010CF3D140
:10A1D0004460BDE8F00370474FEA8C0607FA06F9C1
:10A1E00024EA090402FA06F63443CE78282E08BF82
:10A1F0004361CE78482E08BF0361E5E701617047EF
:10A200002DE9F0470446454888460025016BC561A5
:10A210008561491C05620163DFF8109140A1484641
:10A220000EF00EF94FF47A70B4FBF0F0404EA6FB3E
:10A230000021C908494201EB810110EB410005D022
:10A2400000F1300148460EF0E1F801253948A0FB45
:10A2500004104009A6FB0021C908494201EB810115
:10A2600010EB410006D000F1300148460EF0CEF868
:10A27000012504E01DB1302148460EF0C7F8A6FBC9
:10A280000410C708A6FB0710C008404200EB80007E
:10A2900017EB400006D000F1300148460EF0B6F84A
:10A2A000012504E01DB1302148460EF0AFF8784298
:10A2B00000EB800014EB400005D000F1300148466F
:10A2C0000EF0A4F804E01DB1302148460EF09EF8CF
:10A2D0000D214E4648460EF099F817A003F0E4FE13
:10A2E00000281CBF0220BDE8F0870025002C07D9FC
:10A2F00018F8051030460EF089F86D1CAC42F7D8FE
:10A300004AF2FF5002F072F904220B214FF49670CA
:10A3100001F0F2FA0020BDE8F087000060000020A4
:10A3200061742B63697073656E643D000048004082
:10A33000CDCCCCCC1F85EB513E0000002DE9F04F79
:10A340007D4883B002784178303A02EB82036FF0A7
:10A350002F0202EB430319448378CCB2303BC1781F
:10A3600003EB830302EB430319440379CDB2303B83
:10A37000417903EB830302EB4303194490F8A430C3
:10A3800001F0FF08303B90F8A51003EB830302EBCC
:10A390004303194490F8A23001F5FA6C303B90F871
:10A3A000A31003EB830302EB4303194490F8A1309D
:10A3B00090F8A000C9B2303800EB800002EB4000FA
:10A3C0001844C2B2ACF2DE70072822BF022003B0EC
:10A3D000BDE8F08F1FFA8CF90F461646574B6046C2
:10A3E00015F038FC554ADFF858C1EA465178DCE9E7
:10A3F000003C50681278CDE9003CDFF848C10023EA
:10A40000ACFB00BC4FEADC0CCCF1000C0CEB4C1CA0
:10A410000CEB000C1AF803B0DC4501D1012304E079
:10A420005B1CDBB2082BF5D30023A1F1010CBCF1BE
:10A43000050F94BF04F1040C04F1030C0CF0FF04AD
:10A44000062902BF1F2AA4F1010C0CF0FF0405F13C
:10A450001E0C0CF0FF053C2D0FD3DFF8ECC0ACFB5D
:10A4600005AC4FEA5C1CACEB0C1C05EB8C0C0CF047
:10A47000FF0504F1010C0CF0FF04182C3ED3DFF8AB
:10A48000CCC01F2AACFB04AC4FEA1C1CACEB8C0C00
:10A4900004EBCC0C0CF0FF0402D2062900D871B9F1
:10A4A0001E2A06D20B2901D8072908D20BB10C2984
:10A4B00005D01D2A06D2002B08BF0C291ED1521C24
:10A4C000D2B21BE01F2A07D01E2A09D01D2A04BFC2
:10A4D000002B0C290FD011E006290FD821B90DE06F
:10A4E0000B2905D8072903D30122491CC9B205E06D
:10A4F00023B10C2902D101221146401C144B80B219
:10A500001880144B1970144B1A70144B1C70144B98
:10A510001D70144B83F8008003F096FD12493246FB
:10A5200023460870CDE900583946484608F04EFEEB
:10A5300003B00020BDE8F08FCC3800205C01002083
:10A54000F0E80008E1830F3E89888888ABAAAAAAB0
:10A55000580100204E0100204F0100205001002032
:10A56000510100205201002053010020344991F88C
:10A57000A52002F5FA6391F8A420303A02EB820C90
:10A580006FF02F0202EB4C0C63449BB2A3F2DE731C
:10A59000072B24BF0220704710B591F800C04B78FC
:10A5A000ACF1300C0CEB8C0C8C7802EB4C0C634453
:10A5B000303C91F803C004EB840402EB4404A4444F
:10A5C0004C790979DBB2303901EB810102EB4101B1
:10A5D0002144CCB20CF11E01CAB23C2A0AD319495B
:10A5E000A1FB02C14909A1EB011102EB8101CAB231
:10A5F000591CCBB214490978062994BF191DD91CDE
:10A60000C9B2172908D9114BA3FB01C31B09A3EB3E
:10A61000830301EBC301C9B2DFF834C00A238CF80D
:10A6200001300C4B1B788B4206D128B10A480270CE
:10A630000A480470002010BDFFF780FEFAE7000012
:10A64000CC380020898888884E010020ABAAAAAAAD
:10A65000380000205001002051010020520100204C
:10A660002DE9F047164C07462568DFF85890164E3E
:10A670004AF6AA282068854203D82068401BC828CB
:10A6800002D30020BDE8F087B06998B10F48316A65
:10A69000405C3870306A401C3062B0F5966F24BF61
:10A6A00000203062B06900281CBF401EB06101204C
:10A6B000BDE8F087012000F03DFEC9F80080D9E731
:10A6C000180000200030004060000020D93F00202A
:10A6D0002DE9F047174C07462568DFF85CA0174EB8
:10A6E00041F270784AF6AA292068854203DC206886
:10A6F000401B404502DB0020BDE8F087B06998B1FF
:10A700000F48316A405C3870306A401C3062B0F5E6
:10A71000966F24BF00203062B06900281CBF401E25
:10A72000B0610120BDE8F087012000F003FECAF807
:10A730000090D9E7180000200030004060000020A1
:10A74000D93F002070B50C46054600F0F1F8A86826
:10A750002168C16261680163A1684163490707D547
:10A76000D0E90021C0E90012D0E90221C0E90212BB
:10A77000A18981842169002903D001DC4FF0000107
:10A78000016270BD2DE9F0411E4617468846054618
:10A7900000F0CEF8AC686822414604F58470FBF7FF
:10A7A000F5F82846B8472846B047286980688047AA
:10A7B000A062BDE8F081000010B5044600F0B8F8D2
:10A7C000A0680E494C30114AC1650D4981650D499B
:10A7D00001660D4981660021C166136843660C4B12
:10A7E000C0E91E315168416730F8261C21F0030191
:10A7F00020F8261C0749416410BD00000DD901084E
:10A8000079DA0108D5D801083BD40108A414002046
:10A810000BD5010819D8010810B5044600F088F8D6
:10A82000A4680C489034102120650B4860650B48E3
:10A83000A0650B48E0650B48E0600B482061206B89
:10A84000A06654F89029204690471020A06307483E
:10A85000606410BD91AE010815C0010871A8000820
:10A86000A1A90008F5D30108F5DD0108004203089D
:10A87000F8B5846815460F4694F8260080074CD535
:10A88000D4F8FC30204698470646D4F800312A46D2
:10A89000394620469847D4F8943005461BB100222B
:10A8A0000121204698472069B04201DD012000E0E7
:10A8B0000020A169B14201DA012100E00021084332
:10A8C0006169A94201DD012100E000210843E1693D
:10A8D000A94201DA012100E0002108430AD06068A2
:10A8E000401E00902368D4F8A4705B1E002211461D
:10A8F0002046B847D4F8A8302A4631462046984723
:10A90000D4F89C1020468847D4F8943005466BB1A3
:10A91000012200212046984708E0D4F8A8302046BC
:10A920009847D4F89C102046884705462846F8BD2D
:10A9300070B504468068002812D14FF4B8752846D7
:10A9400000F0BCFA2A460021A06003F089F9A06853
:10A950000221C1840121046401620249C0F804118A
:10A9600070BD000069A9000810B590B0044620220F
:10A970000A496846FBF70AF808492022203108A84E
:10A98000FBF704F8606B5DF82010C4F8FC1008A910
:10A9900051F82000C4F8000110B010BD2C4E020880
:10A9A0002DE9F84384689846154694F826000F462A
:10A9B000800740D5D4F8FC30204698470646D4F8A6
:10A9C00000312A4639462046984705462069B0425C
:10A9D00001DD012000E00020A169B14201DA01217E
:10A9E00000E0002108436169A94201DD012100E086
:10A9F00000210843E169A94201DA012100E00021B8
:10AA000008430AD06068401E00902368D4F8A47000
:10AA10005B1E002211462046B847D4F8A8302A46CB
:10AA2000314620469847D4F8A02001B04146204640
:10AA3000BDE8F0431047D4F8A830F2E72DE9F04F15
:10AA4000DFF828B191B04FF0FF35DBF80030B3F9F3
:10AA500022100691DE69B3F924A0F469A18981422C
:10AA600006D8E289824203D3471AD4F8008012E064
:10AA7000D4E90181002970D00A8882426DD84D88BE
:10AA800085426AD3801A82B2486800EB8200B0F92E
:10AA90000070B0F90250781C5FD0307EA27C014675
:10AAA00000FB02F9207CCDE90810B3F92A6030469A
:10AAB00004F09EFBC0B20E90DBF8001007FB09808B
:10AAC000A37C8A6B0127CDE90402CDE90273C86932
:10AAD000DDE90832C17E807ECDE90001514606984D
:10AAE00003F064FF681C18D046F0020004F080FBFD
:10AAF000DBF80000A37C05FB0981826BCDE90273C2
:10AB0000CDE90412C069DDE90832C17E807ECDE95D
:10AB100000015146069803F049FFDBF800005D464E
:10AB2000C069417E007E814214D9022E12D086F087
:10AB3000040004F05DFB2868C069027EC37E857E48
:10AB400002FB03A1437E099A0698534402FB0502C7
:10AB500004F0BAF80E9804F04BFBDBF80000627CBE
:10AB6000418C1144418411B0BDE8F08F28140020BD
:10AB700004480068C069C06909B1027C0A60407C71
:10AB80007047000028140020022008807047C06928
:10AB900082898A4202D8C2898A4210D2806880B1F2
:10ABA00002888A420DD843888B420AD3406800EB62
:10ABB0008100A0EB8200B0F90000002801DB012039
:10ABC00070470020704700002DE9F0432F4C0346EA
:10ABD00087B020681946B0F92A80C069C06900F0C2
:10ABE000EEF800284ED041680088181A01EBC00525
:10ABF0004046AE7804F0FCFA814620686A6801237A
:10AC0000816BCDE90236CDE90421C169CB7E8A7E14
:10AC1000CDE900230B7EB0F924102A78B0F9220088
:10AC200003F0C4FE2068C069477E067EB7421DD986
:10AC3000C07E47434643B8F1020F17D000F04EFFE5
:10AC4000804600F033FF01F0D1FC21682A78CB69FF
:10AC5000B1F92200B1F92410DB7E02FB0302CB190B
:10AC6000314404F031F8404601F0C0FC484604F09D
:10AC7000BFFA20686A78C369B0F922109B7E02FB94
:10AC80000311418407B0BDE8F083000028140020C0
:10AC90002DE9F35F0E46002500F020FFDFF8A880C5
:10ACA0008346D8F8000090F82A00400702D500F04B
:10ACB00015FF01E000F0FAFE01F098FCD8F8000062
:10ACC0000024C269B0F92290B0F92470517ED27E7E
:10ACD00001FB02FA1EE0684601F018FE0546D8F8AE
:10ACE00000002946C069C06900F032F890B141689F
:10ACF0000088281A00EB400001EB800090F9021058
:10AD000000790844D8F80010C969897E48430028B2
:10AD100000DD0444761EDED51DB1284602F0BCFDE0
:10AD2000044407EB0A0309EB04025B1E4846521E6B
:10AD3000394603F0C9FF584601F058FC0349012089
:10AD40000870BDE8FC9F0000281400200C160020AD
:10AD500006E002888A4202D842888A4202D280688B
:10AD60000028F6D17047000030B50E4C05460B4662
:10AD700020682946C069C06900F021F8002810D079
:10AD80004168008824682A1A0120E46900EBC200A7
:10AD9000085CA47E6043002B03D011F8321061439D
:10ADA000196030BD2814002001200880704700B5CC
:10ADB000C06900F004F8002800D0012000BD06E0C2
:10ADC00002888A4202D842888A4202D280680028D9
:10ADD000F6D17047FEB50E4EDDE908543668367C74
:10ADE00016F003060CD0012E03D0022E0DD0032E38
:10ADF00005D1084ECDE90054029610F0B7FBFEBD18
:10AE0000CDE9005410F060FBFEBD034EF2E70000F8
:10AE100028140020B1F2000829F20008002801D00F
:10AE20000EF094BD704738B50546FFF7F7FF0400F4
:10AE300009D000F0C5F82A460021009002F010FF6A
:10AE4000684600F007F9204638BD0000024A10604D
:10AE500021F0030050607047787B002010B5002877
:10AE600014D004460A48006B10F8341000290DD0A5
:10AE700002290BD2042101EBC401415848680EF0AD
:10AE800029FD2046BDE8104012F0A2BA10BD000016
:10AE9000BC7A0020002805D0034A916B016001B103
:10AEA0004860906370470000BC7A002010B50446EB
:10AEB0000068FFF7D3FF0020206010BD2DE9F041AE
:10AEC000044611F033FF2648E41C24F00305C16B4F
:10AED0002D1DA94200D90D46846B13E054F8042CB3
:10AEE000AA420ED184B1216809B162684A606168E2
:10AEF00009B122680A60826BA2422ED12168816367
:10AF00002BE02468002CE9D18046416B80680F1843
:10AF100057F8040C3E1A306838B1002012F062FB7A
:10AF200057F8040C3E1A3068B8B97068A84214DBB0
:10AF30003044441B304612F00DFBD8F80810491B72
:10AF4000C8F80810D8F810102944C8F81010706814
:10AF50003146401B0EF0BEFC20C42046BDE8F08107
:10AF6000BC7A002010B5002411F0E0FE0C490F203F
:10AF700001EBC002126C1AB101EBC000006C08E0DA
:10AF8000401EF5D508E04168A14200D90C46806812
:10AF900010B180680028F6D1A4F10C0010BD0000AB
:10AFA000BC7A0020002138B10449042202EBC00021
:10AFB000096B085841680C3908467047BC7A002074
:10AFC00005498A69521C8A61096B01EBC0010A7844
:10AFD000521C0A7000F056B8BC7A00207CB50646B8
:10AFE0000C460846FFF71AFF05001CD0DEB13046BC
:10AFF000FFF7D8FFA04200DA04462846FFF7E0FF3B
:10B0000000903046FFF7DCFF014601902246009891
:10B01000FAF7BCFC684600F01DF801A800F01AF829
:10B020003046FFF71BFF28467CBD000010B5FFF738
:10B0300099FF64220649B0F5800F04D990FBF2F025
:10B04000C969484310BDC9694143B1FBF2F010BD65
:10B05000BC7A00200A4902680B6B52F8082C03EBFB
:10B06000C2021378022B03D38B690BB15B1E8B6179
:10B070001178491E117000210160084670470000D8
:10B08000BC7A0020002806D00349042202EBC0004D
:10B09000096B085808307047BC7A002070B50C4620
:10B0A000054600F09DFDC1B223462846BDE870402C
:10B0B000002200F001B80000F0B52D271C68B0F1A7
:10B0C000004F08D0002500280DDA661C1E6027708E
:10B0D0004042012408E0661C01251E606FF000401C
:10B0E0002770491E01E00024091BC9B22AB3491E7A
:10B0F000C9B222E00C46491EC9B2944205D1124C95
:10B1000027781C68661C1E602770104C54F821605C
:10B1100090FBF6F4E4B20A2C11D804FB160011B926
:10B120000DB1641CE4B20A2C02D10124491CC9B23D
:10B130001E683034771C1F6034700029DAD119681A
:10B1400000200870F0BD00001C14002070390308B6
:10B1500010B5C2B2CBB2D21A02D5C2F1000212B2FD
:10B1600093B2C0F30722C1F3072403FB03F3121BBE
:10B1700001D5524212B2000C92B2A0EB114002FB78
:10B18000023200B2002801DA404200B280B200FB75
:10B19000002010BD10B50021084600F0E5FC40F687
:10B1A000FF725042BDE8104013460146AFF30080E5
:10B1B0002DE9FC4107461C4615460E46042004F0C6
:10B1C00017F880461148C068C16C006D0F440644F2
:10B1D0000D440444ADF80070ADF80450ADF80260C1
:10B1E000ADF8064068460DF0A1FF07E023462A4669
:10B1F0003146384603F068FD0DF05AFF0028F5D1BE
:10B20000404603F0F5FFBDE8FC8100001C1400205F
:10B210002DE9F0411C4616460D460746022B02DB7F
:10B220000020BDE8F0811C20FFF748FE0028F8D080
:10B230000DB105610AE0094A52F8241009B905E088
:10B2400011460A68002AFBD109690161846186827E
:10B25000002101604160C0E90217E2E740140020CC
:10B2600070B51D46FFF7D4FF040001D000F00EF8C2
:10B27000E068006820B90348006800EB8500846539
:10B28000204670BD28140020FFF704BE70B590B3AF
:10B290008269022A30DA1C4C54F8221019B944F899
:10B2A00022002FE019464B68002BFBD106E0CB684B
:10B2B000C5681B682D68AB4203DD09680029F6D11B
:10B2C0001AE0C1B1CB68C6681B683668B3420CD1BE
:10B2D000838A012B05D008E01946DB681B68AB4266
