:020000040800F2
:10580000D89300204559000885EC000821CD0008F8
:10581000E5EB0008416C0008B959010800000000E0
:10582000000000000000000000000000CD3801086A
:1058300013760008000000005B5900087D52010843
:10584000216D01085F5900085F590008B91101086E
:105850005F5900085F5900085F5900085F59000848
:105860005F5900085F5900085F5900085F59000838
:105870005F5900085F5900085F5900085F59000828
:105880005F5900085F5900085F5900085F59000818
:105890005F5900085F5900085F5900085F59000808
:1058A0005F5900085F5900085F5900085F590008F8
:1058B0005F5900085F5900085F5900085F590008E8
:1058C0005F5900085F5900085F5900085F590008D8
:1058D0005F590008995301081D5401084D550108EE
:1058E0005F5900085F5900085F5900085F590008B8
:1058F0005F5900085F5900085F5900085F590008A8
:105900005F590008E92001085F5900085F59000845
:105910005F5900085F5900085F5900085F59000887
:105920005F5900085F5900085F5900085F59000877
:10593000DFF80CD000F082FC00480047B1D301082A
:10594000D89300200648804706480047FEE7FEE758
:10595000FEE7FEE7FEE7FEE7FEE7FEE7FEE7FEE71F
:10596000995201083159000810B5441A034694426F
:1059700009D28418114403E011F8013D04F8013DF7
:10598000521EF9D210BD40EA0104A40703D009E079
:1059900010C9121F10C3042AFAD203E011F8014BF8
:1059A00003F8014B521EF9D210BDD2B201E000F84B
:1059B000012B491EFBD270470022F6E710B51346B3
:1059C0000A4604461946FFF7F0FF204610BD70B5A1
:1059D000064616F08BF8046805460A220021304678
:1059E00000F0F6FA2C6070BD70B5064616F07EF831
:1059F000046805460A220021304600F0E9FA2C60CE
:105A000070BD2DE9FE4F804681EA0300C00F0C46B1
:105A1000009021F0004123F00045B8EB0200A941BD
:105A200005D24046214690461C460B46024623F0CE
:105A30000040104347D0270DC7F30A00C3F30A51B3
:105A40000290401A019040286BDAC3F3130040F42F
:105A5000801B0098924620B10023D2EB030A63EB2F
:105A60000B0B01985946C0F14002504600F031FA44
:105A700006460D4650465946019A00F049FA10EB89
:105A800008006141002487EA115284EAE7731A434F
:105A900040D0009A62B3019A012A4FEA075215DCFE
:105AA000001B61EB02014FF0004202EA0752CDE910
:105AB0000042001C41F5801132462B4600F006FBE7
:105AC00003B0BDE8F08F40462146F9E7001B61EBCB
:105AD0000201001C41F5801300185B412018A2F55B
:105AE000001747EB030140EAD570B6196D4111E08C
:105AF0006D084FEA360645EAC0754FEA0752001BAB
:105B000061EB0201001C41F5801149084FEA3000A9
:105B10000019514132462B4603B0BDE8F04F00F06A
:105B2000C6BA0098012240000023D0EB020263EBCA
:105B3000E073009821464FEAE074B8EB000061EB97
:105B40000401E9E783F000435BE781F0004158E797
:105B50002DE9FE4F81EA030404F0004421F00041E6
:105B600000944FF0000B23F0004350EA01045ED094
:105B700052EA03045BD0C3F30A54C1F30A552C4420
:105B8000A4F2F3340194A0FB0254C1F3130141F4D5
:105B90008011C3F3130343F4801301FB024400FBA1
:105BA000034E840A970A44EA815447EA8357A4FBC8
:105BB000076802958D0A05FB07854FEA932C04FBC5
:105BC0000C542705029D4FEA065847EA1637B5EBF5
:105BD00008056EEB070C870E920E47EA811742EA22
:105BE0008312A7FB0201B6EB0B0164EB00042B0D43
:105BF00043EA0C335E1844EB1C50DA465146E7FB8F
:105C00000201C5F313044FEA0B3343EA14534FEA7E
:105C10000432019C43EA0603A4F10C040294009CA4
:105C2000CDE900B400F052FA03B0BDE8F08F0020D7
:105C30000146F9E72DE9F04D81EA030404F0004B39
:105C400021F0004514464FF0000A23F0004150EACD
:105C5000050220D054EA01021DD0C5F30A570246BE
:105C6000C5F31303C1F31300C1F30A5640F48015C2
:105C700043F48013A7EB0608101BD64608F2FD3844
:105C800073EB050002D308F1010801E092185B41B3
:105C9000B8F1000F03DA00200146BDE8F08D0020C6
:105CA0004FF48011064684460EE0171B73EB050780
:105CB00005D3121B63EB050306434CEA010C4908AC
:105CC0004FEA300092185B4150EA0107EDD152EAE9
:105CD000030012D082EA040083EA0501084305D0DC
:105CE000101BAB4106D20122002306E000224FF038
:105CF000004302E06FF0010253101AEB06004CEB78
:105D0000085110EB0A0041EB0B01BDE8F04D00F02B
:105D1000CEB9C10F80EAE0700844CA07962300217B
:105D200000F097B90EB5C10F80EAE0700844CA07C9
:105D3000002140F233438DE80E000A460B4600F086
:105D4000C5F903B000BD70B5C1F30A5201F00045BA
:105D50000024C1F3130140F2FF3341F480119A4251
:105D600001DA002070BD40F233439A42A2F233427E
:105D700003DC524200F0BCF800E090402C43F1D02C
:105D8000404270BDC1F30A5210B5C1F3130140F295
:105D9000FF3341F480119A4201DA002010BD40F235
:105DA00033439A42A2F2334203DC524200F0A0F89D
:105DB00010BD904010BD00F0004230F000400AD00D
:105DC000C10D01F56071C0F3160042EA0151C2082D
:105DD00040071143704700200146704730B5041E4C
:105DE00071F1000404DB4FF00044404264EB010118
:105DF000141E73F1000405DB1C464FF000435242B1
:105E000063EB0403994208BF904230BD01F00043A8
:105E100030B421F0004150EA010206D00A0DA2F58B
:105E20006072C1F31301002A02DC30BC002070470D
:105E3000440F44EAC104C100E01830BC00EBC2507A
:105E400000F0FEB830B50B460146002020220124A8
:105E500009E021FA02F59D4205D303FA02F5491B38
:105E600004FA02F52844151EA2F10102F1DC30BD4E
:105E70002DE9F05F0546002092469B46884606467F
:105E8000814640241BE0284641464746224600F012
:105E90002FF853465A46C01A914110D3114618465E
:105EA000224600F016F82D1A67EB01084F462246ED
:105EB0000120002100F00DF817EB00094E41201ED3
:105EC000A4F10104DFDC484631462A464346BDE8DA
:105ED000F09F202A04DB203A00FA02F100207047EC
:105EE0009140C2F1200320FA03F319439040704718
:105EF000202A04DB203A21FA02F00021704721FA1F
:105F000002F3D040C2F12002914008431946704785
:105F1000202A06DBCB17203A41FA02F043EAE0736D
:105F200006E041FA02F3D040C2F12002914008435A
:105F3000194670470FB4002300B589B00CA9009131
:105F40000B996FF00042CB601E4B06931E4B0793DC
:105F50000423CDE901321D4A089202466B46002017
:105F600000F00CFA09B05DF814FB70B586B0064677
:105F70004FF0FF300091CDE90101002015460C469D
:105F800004903246694604A8FFF7D4FF03460498FC
:105F9000211825B108B10A4600E022462A600028EF
:105FA0000DD0002B02DD0098884208D0081B009419
:105FB000CDE901043246694604A8FFF7BBFF06B0ED
:105FC00070BD0000B5650008D3650008696200086F
:105FD0002DE9F04791460F4680460446002614F806
:105FE000015B2DB100F03CF90068405DC007F6D1BF
:105FF0002B2D02D02D2D18D0641E4A46394620463E
:1060000000F0F8FA27B13968A14201D1C7F8008041
:1060100071054FF002040BD54042002803DD15F056
:1060200065FD0460A007BDE8F08746F48066E4E7FC
:106030000028F8DA15F05AFD04606FF00040F2E72E
:106040000029A8BF7047401C490008BF20F001008C
:10605000704710B4B0FA80FC00FA0CF050EA01046A
:1060600004BF10BC704749B1CCF1200421FA04F4FC
:1060700011FA0CF118BF012121430843A3EB0C01D5
:10608000CB1D4FEA00614FEA102042BF002010BC38
:10609000704700EBC35010440029A4BF10BC7047E8
:1060A000401C490008BF20F0010010BC704710B52B
:1060B000141E73F1000408DA401C41F1000192182B
:1060C0005B411A4301D120F0010010BD2DE9F04DD4
:1060D00092469B4611B1B1FA81F202E0B0FA80F229
:1060E00020329046FFF7F5FE04460F4640EA0A00CC
:1060F00041EA0B0153465A46084313D0114653EA6E
:10610000010019D0C8F140025046FFF7F1FE0546E4
:106110000E46504659464246FFF7DBFE084305D07F
:10612000012004E020463946BDE8F08D00200543FB
:1061300046EAE0762C4337430A986305E40AA0EB6D
:1061400008000022FD0A44EA47540A3002D5002024
:106150000146E9E7010510196941DDE90845001923
:106160006941BDE8F04DA2E72DE9F04D00231A4644
:106170001B1A8A4103DB00200146BDE8F08DC1F304
:106180000A52C1F3130141F480154FF0000BD107FF
:1061900002D100186D41521E0027044640F2FF1143
:1061A000384601EB620A3E468046024600204FF424
:1061B0008011FFF79DFEC2197141BB1846EB01002B
:1061C000B4EB030C75EB000C04D3E41A65EB00058B
:1061D00017460E46241908F101006D418046342807
:1061E000E3DDF91946EB0600091BA84103D24FF085
:1061F000FF32134601E0002213461BEB070046EB7B
:106200000A51BDE8F04DFFF752BFC1F30A52C1F386
:10621000130140F2FF3341F480119A4202DA002068
:106220000146704740F233439A42A2F2334202DC05
:106230005242FFF75DBEFFF74CBE0000064C074D13
:1062400006E0E06840F0010394E807009847103446
:10625000AC42F6D3FFF770FBF8EA020818EB02082D
:10626000004870478CE1020810B50446FFF7F8FFBC
:106270000068005D00F0010010BD00002DE9FF4F37
:10628000087881B09946FF2805D0491C2D2804D0F4
:106290000024002308E000230BE00124F9E703EBCE
:1062A000830300EB4303491C0878FF28F7D104B1AE
:1062B0005B4200200090147801462D2C01D02B2C3D
:1062C00004D1521C2D2C12D00024009400251678E5
:1062D000FF2E0ED00A24A0FB04C801FB0481002776
:1062E00000FB0711521C16EB0C006941EFE701247B
:1062F000EBE7994450EA01020ED00024AA4D26464D
:10630000DFF8A88200F0D3F982468B46B9F100008D
:1063100009DAC9F100071BE001980021C0E900116A
:1063200005B0BDE8F08F074612E0F80707D0224617
:106330002B4630464146FFF70BFC06468846224670
:106340002B4610461946FFF703FC04460D467F1006
:10635000002FEAD1B9F1000F324643465046594664
:1063600002DAFFF767FC01E0FFF7F2FB009A0AB1DF
:1063700081F00041019AC2E90001D1E72DE9FF4F08
:106380001F468DB0D7E901464FF0FF382E20454615
:106390004FF000090B90B9696D1C0E988847396A57
:1063A000824688470028F6D1BAF1FF3F0AD024F48C
:1063B000D064002E11DDBAF12B0F08D0BAF12D0FE9
:1063C0000BD102E0404611B0ABE744F48064B969F8
:1063D0006D1C0E9888478246761E6946600501D579
:1063E0002D2000E02B208DF8000001F1010B0DF1B4
:1063F000200809E0B9696D1C0E98884782460F98FD
:1064000044F40074761E0560002E02DDBAF1300FF0
:10641000F0D00B998A453ED144F0800406E00F99F4
:10642000681CA9F1010944F400740860B9696D1C85
:10643000761E0E98884782463028F0D02BE00B99C4
:106440008A4505D1200603D444F08004761E18E066
:10645000504615F085FC08B30DF11301761E44F487
:1064600000748B4508D2AAF130000BF8010B20060E
:1064700007D5A9F1010003E0200602D409F10100CB
:106480008146A00502D50F99681C0860B9696D1C8A
:106490000E9888478246002ED1DC53E0002E51DD55
:1064A000BAF1650F02D0BAF1450F4BD1A00549D51D
:1064B000B9696D1C24F44074761E0E988847824694
:1064C000002E0CDD2B2804D0BAF12D0F07D144F497
:1064D0008074B9696D1C0E9888478246761EE00567
:1064E00001D52D2100E02B2108F8011BCDF82C80CF
:1064F00021E00DF12901761E44F4007488450CD288
:10650000AAF1300010F0FF0088F8000002D10B99CA
:10651000884509D908F1010806E0E00501D52448BD
:1065200001E042F20F708146B9696D1C0E988847F0
:1065300082460F980560002E04DD504615F010FCD1
:106540000028D6D1F9690E988847FF208BF8000003
:1065500088F800000020069007904B466A4608A97C
:1065600006A8FFF78BFEA00502D46FF001002AE712
:1065700014F0240F0AD0E00714D1DDE906123868C0
:10658000031D3B600068C0E900120BE0DDE9060175
:10659000FFF73CFC0146E00704D13868021D3A6071
:1065A0000068016028460EE7000024400000F03F2C
:1065B000F1D8FFFF426842B1016811F8013B23B1F5
:1065C000521EC0E90012184670470121C160881EA2
:1065D000704742685AB1C368016843B983688B4207
:1065E00005D0491E521CC0E90012002070474FF030
:1065F000FF3070472DE9F05F82460078002715468E
:106600008B460AF10104B946302801D09DB113E050
:1066100014F8010B0127782803D0582801D045B180
:106620000AE00DB1102D07D10027102514F8010B39
:1066300002E0082500E00A250026B0460EE005FB32
:10664000080005FB06F1012701EB10461FFA80F850
:10665000B6F5803F00D3B94614F8010B294600F087
:1066600018F80028EBDABBF1000F05D00FB1641E5B
:1066700000E05446CBF80040B9F1000F06D015F009
:1066800035FA02210160C81EBDE8F09F48EA0640C5
:10669000FAE73A2800D2303820F02002412A01D30C
:1066A000A2F13700884201D34FF0FF3070470EB59A
:1066B00040F2334202920022CDE900221346FFF756
:1066C00005FD03B000BD70B58C1810F8015B15F026
:1066D000070301D110F8013B2A1106D110F8012B54
:1066E00003E010F8016B01F8016B5B1EF9D12B0779
:1066F00005D40023521E0DD401F8013BFAE710F82F
:10670000013BCB1A921C03E013F8015B01F8015B1B
:10671000521EF9D5A142D8D3002070BD002800DC5C
:106720004042704707490020C1F8A4010120C1F888
:10673000AC010549C1F89C010449C1F88C01C1F8BC
:106740009801FEE70000244200002242008022421D
:106750002DE9F05FDFF8FCE04FF0000C67469EF893
:1067600000104FF0010A3C4D3C4EE346DFF8F0804C
:10677000DFF8F09007E037B1012F0BD0022F12D0D5
:10678000032F21D118E0C5F8A4B1C6F88CA1C5F833
:1067900094A10EE0C5F8A4A1C6F88CB1C5F894A1E7
:1067A000C5F898A110E0C5F8A4A1C6F88CA1C5F859
:1067B00094B1C5F898A107E0C5F8A4A1C6F88CA1CA
:1067C000C5F894A1C5F898B10020401CC0B20A28B1
:1067D000FBD3002009EB87030FE070B1012808BF4D
:1067E000D5F828210BD0022808BFD6F8182106D0EA
:1067F000032808BFD8F8182101E0D5F82C215CEA5D
:10680000020408BF195C401CC0B20428E5D3781C00
:10681000C7B2042FAFD3144874468EF8001071B17C
:10682000627892B900686268801A64280DD9617034
:1068300016F09AFD84F800B06078BDE8F09F6178AA
:1068400019B10068606084F801B08EF800B00020D3
:10685000BDE8F09F64010020000024420080224235
:1068600000002242F4E001083800002010B50120A9
:106870000AF0EEFABDE8104000200AF0E9BA81B053
:1068800000F1804000F5D8400090008801B07047CA
:106890002DE9F047ADF5187D0021B14808F038FA30
:1068A0004FF4407008F02AFAAE484FF47A714FF076
:1068B00000080068B0FBF1F0411EB1F1807F0AD200
:1068C0004FF0E0204161A84AF02182F8141DC0F881
:1068D000188007210161012140200AF07DFA01F0B2
:1068E00025FF03F067FC04200FF0FAFC9F4808F036
:1068F00023FB01200EF048FD04F01CFB012004F0F6
:1069000057FA022004F0D2F90CF09CFC0225142363
:1069100040F249124FF496714820009508F05BFA56
:106920000746002392A25021B42005F033FD012137
:10693000384608F00FFB012003F018F84FF46140CF
:1069400016F032FEDFF840A2504604F06BF9DFF893
:106950003C9299F80000002800F0EA80012800F03D
:10696000ED80FF2004F05EF9DC22502188A003F0C6
:10697000A3F8F523322289A102A815F0A3F802AEEC
:10698000CDE90068DC224FF4F07351000A200AF0D0
:1069900009FA0CF0B1FCA0F56F41163908BF07F0F9
:1069A00041FB1E21384608F0D5FA7F48006807F001
:1069B000C5FB4FF0FF1004F035F901247BA0CDE9B1
:1069C0000004322340F2D7120F2100200AF0EAF926
:1069D0006FF07F4004F026F97BA0CDE90004192375
:1069E0004FF487726FF0090100200AF0DBF97B4851
:1069F00004F018F94FF4165016F032FD4FF4E13060
:106A000016F078FD99F800107548DFF8D891002944
:106A100018BFC9F88C41C9F89441C0F8844118BF27
:106A2000C9F898414FF40A716F48FEF7C5FF0BF0A3
:106A300029FD01466D482A2979D080F80080FF2081
:106A400004F0F0F86AA000BF15F02CF8DC224FF437
:106A5000C8716BA003F030F81421384608F07AFAB8
:106A6000012002F083FF0AF0BFFB6748C0F88441B1
:106A70004FF4F07265491CA8FEF776FF0121480724
:106A80000AF0B6F9012105200AF0CAF92020ADF874
:106A9000000018208DF8030003208DF802006946DD
:106AA0005B4801F0FBFF012102200AF095F900F09C
:106AB00029FD94A800F057FDCDF85082CDF85482FE
:106AC00094A91020CDF85C8200F028FD012110204F
:106AD00000F0C4FCC9F88C414E4808F04DFB282456
:106AE0002146384608F036FA142002F03FFF611CB8
:106AF0000CB2502CF4DB9F2407F0ACFF224646A1D9
:106B000002A814F0DFFFCDE90065DC234FF4F0723A
:106B1000A02100200AF046F90BF094F838460FF057
:106B20006BF903F0EBF90DF5187DBDE8F0870CE08B
:106B30004FF4E6720A213AA004E000BF4FF4E67277
:106B40000A2139A002F0B8FF13E70470504604F0A0
:106B500069F800220BA1244815F0D2FD34A073E798
:106B600000580008200000200FE000E0B5EE00080B
:106B7000303A616E692F41303030302F303032384A
:106B80002E626D700000000080FF80000000002079
:106B900048573A20556E6B6E6F776E005625642EFF
:106BA000253033640000000008000020D8B3D98AE3
:106BB000D985D8B1D8BA20D8ACD987D8A7D986DAA0
:106BC000AFD8B3D8AAD8B100D8AFD8B1D8A820D8F8
:106BD000A7D8AAD988D8A8D988D8B30000FFFF00C1
:106BE0000000214200002342D01A00201D00002096
:106BF0000A0D4D6963726F5344204552524F520043
:106C00004D6963726F5344000000224200DF0108A7
:106C100000080140FC740008202564202A200000A0
:106C200048573A205631000048573A205632000063
:106C30000A0D4D6963726F5344204F4B00000000F2
:106C4000FEE7CA78120202608B781A4412020260D0
:106C50004B781A44120202600978114401607047AF
:106C60002DE9F04F8846824691460421052000F028
:106C700003FB80210A200DF0BBF90025274C0127DA
:106C80002E46B8F1000F0FD91AF805B0C4F8B46158
:106C9000122016F095FB584616F092FBC4F8B4711A
:106CA000681CC5B2A845EFD80325C4F8B46102201A
:106CB00016F086FB284616F083FBC4F8B471FF2556
:106CC0004FF08A08C4F8B461404616F079FB002002
:106CD00016F076FBC4F8B471691E11F0FF0502D0FE
:106CE00010F0040FEED0C4F8B461C42016F068FBB5
:106CF000002016F065FBC4F8B47189F80000C4F8F0
:106D0000B461C22016F05CFB002016F059FBC4F8F9
:106D1000B47189F80100BDE8F08F00000000244242
:106D200010B582B00122002113A005F06FFD040010
:106D300004BF02B010BD0122002113A005F066FDC2
:106D4000002804BF02B010BD844208D11348C464B7
:106D50000CF0BEFD012007F0E5FF02B010BD0421DC
:106D60004FF47A70CDE90001002301220CA11846EE
:106D70000DF034FD02B010BDD8B1D985D8B220D8FD
:106D8000ACD8AFD98AD8AF00D8AADAA9D8B1D8A7D9
:106D9000D8B120D8B1D985D8B2000000E4040020D1
:106DA000D8B1D985D8B220D8A7D8B4D8AAD8A8D86D
:106DB000A7D98720D8A7D8B3D8AA00002DE9F047D3
:106DC0000024DFF89491C2B02646274661A14846C8
:106DD0000EF0AAFD61A005F0DFFC00281EBF012017
:106DE00042B0BDE8F0875EA148460EF09DFD5FA071
:106DF00005F0D2FC00281EBF022042B0BDE8F0879B
:106E0000DFF8748198F8FD01022809D0032801D029
:106E1000142805D059A148460EF086FD5A4D0BE0C6
:106E20005AA148460EF080FDF8E748460EF062FD94
:106E3000601CC4B20C2C02D2295D0029F5D123219B
:106E400048460EF057FD0D2148460EF053FD43A075
:106E500005F0A2FC00281EBF032042B0BDE8F08769
:106E60004D4C2068DFF834A1C5B241F2707920683A
:106E7000854203DC2068401B484503DB42B000200C
:106E8000BDE8F087DAF81800B8B102208DF80000EC
:106E90000B208DF80100B8F800008DF80200000A00
:106EA0008DF8030000208DF804008DF805001F20E8
:106EB0008DF8060007246D4611E0012002F056FD12
:106EC000D5E73046711CCEB20A2824BF9DF80001D8
:106ED000202804D3C82802D82855601CC4B240A872
:106EE00001F012FF002818BFDC2CEAD3A01FC11745
:106EF00000EB11618DF80400080A8DF80500601C94
:106F0000C0B22F55390A2954401CC0B2032129545C
:106F1000401CC6B22248007810B101280ED011E002
:106F20000024002E88BF1F4F0CD9295D38460EF073
:106F3000E1FC601CC4B2A642F7D803E069463046C3
:106F400001F00CFE012007F0EDFE42B00020BDE88C
:106F5000F087000061740A00004800404F4B0000B9
:106F600061742B637265673F0A0000004352454716
:106F70003A20302C31000000E40400206174642ABF
:106F80003134312A00000000236000206174642A3B
:106F90003134302A23000000380000208000002017
:106FA000E30100200038014030B5194CDFF864C01F
:106FB00083B0FB2804BFA1F56852B2F1A20215D03C
:106FC000DCF80420824202BF002003B030BD12A3CF
:106FD0000A22CDE900230B460246002102200DF0D3
:106FE0002FF90320606203B0012030BDDCF80000FF
:106FF0000125012812BFCCF800500220CCF8000077
:10700000022007F08FFE0CF063FC6562EBE70000E6
:10701000D8010020E4040020000000002DE9F04F1A
:107020006A4D002483B028782646AA284CD1286AC5
:10703000002818BFB0F1FF3F46D065480027202147
:10704000078064480770644807706448FEF7B4FC22
:107050000CF094F800200CF0A1F8642002F086FCFB
:107060005E4A202100200CF051FC0CF087F83420FF
:107070000CF094F8642002F079FC009700230122C0
:1070800057A1022001970DF0A9FB5048DFF870913D
:10709000016AD9F8080081421AD000230097012222
:1070A00058A1184601970DF099FB484847624FF4E4
:1070B000FA60C9F8087002F059FC5B4903200860C7
:1070C00003B00120BDE8F08F03B00120BDE8F08FD0
:1070D0000025DFF858B1DFF804814AF6AA2A002813
:1070E00003D817E0B0F5806F0BD1CBF800A04FF4B8
:1070F000806205F5007139480CF0D4F8D9F8081011
:1071000000206D1C18F80020401C1644224494B244
:107110008D42E7D32D4D686AB04215D00023009709
:10712000012243A1184601970DF058FB6F624FF4FE
:10713000FA60C9F8087002F019FC3B4903200860A6
:1071400003B00220BDE8F08FCBF800A0C22088F881
:10715000000088F80140200A88F80200D9F80810D9
:1071600088F803100A0A88F804200A0C88F8052019
:10717000090E88F80610552088F807000BF0FEFF6E
:1071800000200CF00BF8642002F0F0FB134A2021E1
:1071900000200CF0BBFB0BF0F1FF34200BF0FEFFE6
:1071A000642002F0E3FB002300971A4628A1022086
:1071B00001970DF013FB40F6B83002F0D7FB4FF407
:1071C000C07250217F200FF0B7FDFEE7787B0020D2
:1071D000EC010020E5010020E0010020E47B00201C
:1071E000D8A8D8B1D8B1D8B3D98A20D986D8B3D83D
:1071F000AED98720D8ACD8AFD98AD8AF000000006C
:10720000C4010020D8AED8B7D8A720D8AFD8B120B5
:10721000D8ADD8ACD98520D8A7D8B7D984D8A7D825
:10722000B9D8A7D8AA000000FC0100200030004017
:10723000D8AED8B7D8A720D8B5D8ADD8AA20D8A767
:10724000D8B7D984D8A7D8B9D8A7D8AA0000000041
:10725000D8A8D8B1D986D8A7D985D98720D8ACD80D
:10726000AFD98AD8AF20D8AFD8B1D98AD8A7D98119
:10727000D8AA20D8B4D8AF002DE9F041114D00268E
:107280000F460446C5F8B461802040EA4400C0B20D
:1072900005F5DA7516F094F8002016F091F84FF025
:1072A0000108C5F8008020EA07072E607E2000EA6A
:1072B000440016F085F8384616F082F8C5F80080CC
:1072C000BDE8F0810000244270B5464905462A24F5
:1072D000486B10F0450F03D1486B10F0450FFBD001
:1072E00010F0040F05D0032404200AF091FE20467C
:1072F00070BD10F0010F05D0012420460AF088FE71
:10730000204670BD0AF0C4FEA84234D140F2FF50BE
:107310000AF07EFE00200AF0DDFE334908425ED00E
:1073200010F0004F1CBF1C2070BD10F0804F1CBF20
:10733000092070BD10F0005F1CBF0A2070BD10F066
:10734000805F1CBF0B2070BD10F0006F1CBF0C20B5
:1073500070BD10F0806F1CBF0D2070BD10F0807FDD
:107360001CBF0E2070BD10F4000F1CBF0F2070BD9D
:1073700010F4800F01D0102070BD10F4001F1CBF4E
:10738000112070BD10F4801F1CBF122070BD10F4BE
:10739000002F1CBF132070BD10F4802F1CBF1420C1
:1073A00070BD10F4003F1CBF152070BD10F4803F6D
:1073B0001CBF162070BD10F4004F1CBF172070BDFD
:1073C00010F4804F1CBF182070BD10F4005F1CBF6C
:1073D000192070BD10F0080F1CBF1A2070BD204688
:1073E00070BD00000080014008E0FFFD2DE9F001C4
:1073F0000025DFF864C02C462026ACF1480720E0C9
:107400007A2B9DBF0B55621C94B2002217D900BF86
:107410001CF80280434504D0521C92B2242AF7D3B0
:1074200001E0242A02D30E55621C07E037F812202F
:10743000130A0B55631C9BB2CA545A1C94B26A1CA3
:1074400095B2435D002B18BFC82DD9D30020085535
:10745000BDE8F00170470000E0D90108054A0123AA
:1074600003FA00F00029116814BF084321EA000064
:10747000106070470074004000B5FDB04FF4F0722A
:107480001B496846FEF770FA0121480709F0B0FC75
:107490000121052009F0C4FC2020ADF8F0011820DE
:1074A0008DF8F30103208DF8F2017CA9114801F059
:1074B000F5FA0121022009F08FFC00F023F878A8EA
:1074C00000F051F80020789079907B9078A91020F6
:1074D00000F024F801211020FFF7C0FF0649012029
:1074E000C1F88C0105A007F047FE7DB000BD00008B
:1074F00000DF0108000801400000234231322E77EE
:107500006176000010B50121480709F07DFCBDE857
:10751000104000214FF0005009F076BC0B4B10B426
:107520001A6840F6FE7C0CFA00FC22EA0C02D1E953
:1075300000C44CEA040CD1E9024121434CEA0101A8
:1075400001FA00F01043186010BC7047007400404E
:10755000A0F6EC3081B000F1804000F500400090D2
:10756000016001B070470021016041608160C1602D
:107570007047000010F0805F19BF0249086002499F
:10758000486070470404024000000240002901687E
:1075900012BF41F001014FF6FE72114001607047C9
:1075A000002110F0805F14BF034A044A12680242AF
:1075B00018BF012108467047000402400000024045
:1075C00010B40268D1F820C08B686FF30E1243EA42
:1075D0000C03D1E904C44CEA040C43EA0C03D1F8CF
:1075E00018C043EA0C03D1F81CC043EA0C03D1F8DD
:1075F00024C043EA0C03D1F828C043EA0C031A4321
:107600000260CA6842600A6882604968C16010BC52
:107610007047704710B50C4C0AA120460EF084F953
:107620000AA005F0B9F800281CBF012010BD08A170
:1076300020460EF079F905A005F0AEF8002818BF35
:10764000022010BD61740A00004800404F4B00004A
:1076500061742B636D67643D312C340A00000000B7
:107660002DE9F0478046494882B0914600780F46A0
:1076700000281CBF02B0BDE8F087DFF814A1504617
:1076800003F0D0FA434D03240094287840F2DB1233
:1076900000F20F1300F1FA0140F2451002F0B8FCBD
:1076A0004FF6FF7003F0BEFA0094287840F2DB1228
:1076B00000F20F1300F1FA0140F2451002F0D6FB80
:1076C0006FF07F4003F0AEFA0226CDE9009640F25B
:1076D0000F1340F2DB12F02140F2451009F062FB7B
:1076E000504603F09FFA0094287840F23B1200F2D3
:1076F0000F1300F1FA01A52002F08AFC4FF6FF708B
:1077000003F090FA0094287840F23B1200F20F1335
:1077100000F1FA01A52002F0A9FB6FF07F4003F011
:1077200081FACDE9007640F20F1340F23B12F021CE
:10773000A52009F037FB504603F074FA009428782E
:107740009B2200F20F1300F1FA01052002F060FC09
:107750004FF6FF7003F066FA009428789B2200F23F
:107760000F1300F1FA01052002F080FB6FF07F405B
:1077700003F058FACDE9008640F20F139B22F02166
:10778000052009F00FFB02B0BDE8F08700000020E3
:10779000006C0B00040000202DE9F04F83B09A46E6
:1077A000164689468346072A0FD22EB1062E08BFF9
:1077B000B9F1070F03D004E0B9F1070F01D34FF07F
:1077C000010A0027002425468FE0B01F4FF0010A70
:1077D000C7B2F7E72234BAF1000F04D17819B042EA
:1077E00018BF48457BD17819B04210D10620454AD0
:1077F00000904549CDE9011204F1210340F2D7126E
:10780000A11C002002F018FA4FF6FF701CE00020C7
:1078100003F008FA0620009004F1200340F2D7128A
:10782000E11C002002F0F4FB6FF07F4003F0FAF956
:107830000620009004F1210340F2D712A11C002081
:1078400002F014FB4FF47F4003F0ECF998F81C00B1
:1078500018B3642816D3A0F16401012088402B4995
:1078600080B24FF001030978884305D028A2A11DFA
:10787000E62004F08FFD16E026A2A11DE62004F00C
:1078800089FD10E021494FF001030978884205D1B4
:1078900021A2A11DE62004F07DFD04E01FA2A11D90
:1078A000E62004F077FD1E48D8F810C000230178C8
:1078B000ADF80030601A00F123020844ADF8020070
:1078C00040F2CD138818ADF804304FF00108ADF840
:1078D0000600434642466946604602F0F5F86D1CD4
:1078E000072DA4BF03B0BDE8F08FE8190BEB4018DB
:1078F000D8F80000007800287FF46CAF03B0BDE832
:10790000F08F00000028280000DCDC00C30100200C
:107910003031300030313100303135003031340019
:10792000040000202DE9F04F0027DFF8C4B0DFF895
:10793000C4A083B09146804623243D46E81908EB55
:10794000401630680078002804BF03B0BDE8F08F0F
:10795000781948450ED128492848CDE9000104F19D
:10796000230340F2DF122146002002F09BF94FF67C
:10797000FF700EE06FF07F412148CDE9000104F176
:10798000230340F2DF122146002002F08BF94FF46E
:10799000004003F047F9307F9BF80010884206D181
:1079A000012318A2611D40F2C71004F0F3FC00236C
:1079B0003069ADF800304FF4E173ADF804309AF857
:1079C000003004F12301194403EB040C0122ADF84B
:1079D0000610ADF802C01346694602F075F804F1CE
:1079E00023006D1CC4B2082DA8DB03B0BDE8F08FE6
:1079F000C30100200400002041ACFF000160F7003B
:107A0000E4DFDA00303A69636F6E732F72312E62F1
:107A10006D70000000B583B00BF0B0FB00200BF0E0
:107A2000BDFB642001F0A2FF012200210FA004F0A1
:107A3000EDFE39284FF000001CBF03B000BD0090E0
:107A4000002301901A4612A118460CF0C7FE0BF055
:107A5000B9FB06F051FC0BF091FB34200BF09EFBC0
:107A6000642001F083FF03B000BD0000212121D874
:107A7000ADD8A7D981D8B8D98720D9BED8A7DAA9D7
:107A800020D985D98A20D8B4D988D8AF212121001E
:107A9000D8A2D985D8A7D8AFD98720D8B3D8A7D8A6
:107AA000B2D98A20D8ADD8A7D981D8B8D987000053
:107AB00010B56FF07F4003F0B5F80F21052208469E
:107AC00002F036FA0E4CA07870B16078002808BF3A
:107AD00010BD282020700B480078AA280DD0002067
:107AE00020706070012010BD0AF06EF8A0780028A8
:107AF0001CBF60780028ECD1F4E70AF023F8F1E726
:107B0000C4010020787B0020024800218160416090
:107B1000C1607047AC01002010B400220F4B01245B
:107B2000944600BFC3F88841C8210020C1EB011171
:107B300000BF401CB0EB410FFAD3C3F888C15021FD
:107B40000020C1EB011100BF401CB0EB410FFAD384
:107B5000521CB2F5C87FE5D310BC70470000234229
:107B60002DE9F04F002583B00446A84601F02EFE13
:107B7000DFF86091DFF860A15848CDE900A90178ED
:107B80004FF4887201F12303002002F08BF80123E7
:107B90002A4600212046FFF7FFFD514E376844F684
:107BA000206B3068C01B584570D20BF04FFF002887
:107BB00018BF3768F5D00F2868D008DC0B2842D0F2
:107BC0000C2828D00D280AD00E28EAD17DE01E28E6
:107BD0007BD04C2837D052281DD07828E1D104EB37
:107BE0004511087F002852D0642838BF804660D3F2
:107BF000A0F164010120884080B230EA080103BF8F
:107C00004FF6FF71484000EA080848EA000018BF34
:107C100000F0FF084DE004EB4510006A007850B119
:107C2000681CC2B20090002329462046FFF7B4FD2D
:107C30000098C5B2B5E700231A4629462046FFF74B
:107C4000ABFD0025ADE7002D08BF00200AD0681E5F
:107C5000C2B20090002329462046FFF79DFD009800
:107C6000C5B29EE704EB40110968097800291CBFE2
:107C7000401C80B2F6D1401EC2B2009000232946BB
:107C80002046FFF789FD0098C5B28AE71DE08869A4
:107C900078B18047642814D00BF0D8FE01F096FD2F
:107CA000CDE900A9002123234FF48872084601F092
:107CB000F9FF37682A46012311462046FFF76CFD7D
:107CC0006FE703B00020BDE8F08F03B04046BDE889
:107CD000F08F00000A0A0A00EAE6E3000400002030
:107CE00038000020F0B583B00F460546002401F0AF
:107CF0006DFD23492348CDE9000123484FF4F0727C
:107D00000178002001F1230301F0CCFF224600217D
:107D10002846FFF707FE00BF0BF098FE0F2808D09B
:107D20000ADC0B2821D00C2811D00D280AD00E28EF
:107D3000F2D103B03846F0BD4C2816D0522806D0F8
:107D40007828E9D105EB4410007F03B0F0BD05EBC6
:107D50004410006A00780028DED0661CF2B221468A
:107D60002846FFF7DFFDF4B2D6E7002CD4D0661E1C
:107D7000F2B221462846FFF7D5FDF4B2CCE7000069
:107D80000A0A0A00EAE6E300040000202DE9F04FA9
:107D90004FF000087D4FD1B04446C146C24645462B
:107DA00079A138460DF0C0FD79A004F0F5FC00285B
:107DB0001EBF012051B0BDE8F08F76A138460DF00E
:107DC000B3FD77A004F0E8FC002817BF0220774E2F
:107DD00051B0BDE8F08F06E038460DF08BFD601C19
:107DE000C4B2322C02D2315D0029F5D168A004F072
:107DF000D3FC00281EBF032051B0BDE8F08F6C4CAF
:107E000026686C4F41F2707BB8690A2812D8206846
:107E1000864203D951B00420BDE8F08F2068801B52
:107E2000584503D351B00520BDE8F08F012001F083
:107E30009DFDE9E702208DF800000B208DF8010080
:107E40005D4820210DF5987B00888DF80200000A1E
:107E50008DF8030000208DF804008DF805008DF8E2
:107E60000610072407466E4651E000BF9DF82C011E
:107E7000392804D010DCA0F1300108291ED8BAF14D
:107E8000010F04BF4FF0000A57460BF80700781C9B
:107E9000C7B2042D32D127E061281AD008DC41286E
:107EA00017D0492810D04C2818D052280AD005E005
:107EB000692809D06C2811D0722803D000254FF012
:107EC000010A1BE0012519E0012D08BF022515D08C
:107ED00008E0022D08BF032510D003E0032D08BFE2
:107EE000042501D0002509E0B8F1000F06D10020DB
:107EF0000BF807004CA8FDF777FD80469DF82C0194
:107F0000202804D3C82802D83055601CC4B24BA81E
:107F100000F0C2FE002818BFDC2CA7D3A01FC11799
:107F200000EB11618DF80400080A8DF80500601C53
:107F3000C0B206F804904FEA19213154401CC0B277
:107F400003213154401CC5B21C48007810B10128EF
:107F50000ED011E00024002D88BF194F0CD9315DDF
:107F600038460DF0C7FC601CC4B2A542F7D803E048
:107F70006946284600F0F2FD012006F0D3FE51B01C
:107F80004046BDE8F08F000061740A0000480040E0
:107F90004F4B000061742B637265673F0A0000005D
:107FA000435245473A20302C310000002360002026
:107FB0003800002080000020E4040020E3010020BD
:107FC000003801408000A0F1C0400029016812BFC4
:107FD00041F00101014A114001607047FEFF0F00AE
:107FE000D0E901121143D0E903231A431143426936
:107FF000114382691143C2691143026A1143426A03
:108000001143826A1143C26A1143026B0A43016839
:108010008900A1F1C0410A608168082907D101687F
:108020008900A1F1C0410A6842F040020A60416B38
:10803000D1E9002342EA03128B68B1F80CC01B029D
:1080400043EA0C431A430B8A42EA03520B7D8969C7
:1080500042EA0362114302689200A2F1C0425160F9
:10806000C16AB1F5804F08D000686FF070418000A0
:10807000A0F1C040C0F804117047816BD1E9002322
:1080800042EA03128B68B1F810C01B0243EA0C539A
:108090001A430B7D896942EA03620068114380003C
:1080A000A0F1C040C0F80411704700002DE9F04372
:1080B0000446C56887B090468946002002F0B4FDAA
:1080C000064625B1287910B146F0020001E026F0FD
:1080D000020002F0A9FD2069012558B1D4E902127D
:1080E0008DE8260003956388228804684146484647
:1080F000A0471EE0124F134B214638681B68427C94
:10810000E068984730B9E088012801D0002001E0FC
:108110003868806BA288E388A1680095CDE90410D7
:10812000CDE902320195638822884146484605F030
:108130003BF807B03046BDE8F04302F075BD0000E3
:10814000BC020020B40200201CB50024019401AC44
:10815000009400F0E7F81CBD2DE9FF4F83B0814685
:1081600006988A46A0EB0A08109E00200090A2EB19
:1081700009043568934654EA080018D02046FEF7F3
:10818000CDFA07464046FEF7C9FA87420BDA204689
:10819000444680464846D14682465846DDF818B0E7
:1081A000069001200090002C07DD204606E007B075
:1081B0004846BDE8F04F00F03BB96042A0420AD00B
:1081C0004846D9466442C8F1000883464FF0FF375D
:1081D000DDF818A000E001275148B8F1000F11D0D8
:1081E00004EBD4714FEA610B01DACBF1000B4C4880
:1081F0000068807E88B3002F02DA30682044306047
:1082000000257BE000990029016821D0897E11B109
:108210000027804615E007B05A4649465046BDE85B
:10822000F04F05F025B928466D1C12F097FD38B9BE
:10823000D8F8000009EB0701C06E4268504690472D
:108240007F1CA742EFDD6D1E356007B0BDE8F08FE3
:108250008A7E1AB10027804617E019E0C86E5A4698
:108260005146036807B04846BDE8F04F1847284616
:108270006D1C12F073FD38B9D8F8001009EB070037
:10828000C96E4A68514690477F1CA742EFDDDAE786
:1082900000250FE008FB05B090FBF4F101EB0A00AC
:1082A000009951B11E4A09EB05011268D26E52685D
:1082B00090476D1CA542EDDDC7E7194909EB0503A1
:1082C0000968C96E4A6801461846F1E708FB05B01F
:1082D00090FBF4F101EB0A00019030683844306003
:1082E00012F03CFD48B9009890B10D4809EB05012A
:1082F0000068C06E4268019890476D1CA542E5DD9C
:108300003068002F01DA20443060C01B30609CE7E9
:10831000034909EB05000968C96E4A680199EBE752
:10832000BC0200202DE9FF470F4640491646804613
:1083300009680C981D460A7E012A1CD0A8EB06008D
:10834000791B50EA01031CD0A2F1010913F0EEFBE6
:1083500000F58060824603F0EFFF00FB09F4504611
:1083600003F0EEFF00FB09F1002C0CDAC4F50070FD
:10837000801240420AE00090324639464046FFF7FC
:10838000EBFEBDE8FF8704F50074A012002904DAB3
:10839000C1F5007189124C4202E001F500718C12A6
:1083A000002804DD411C01EBD171491003E000EB12
:1083B000D0714910401E00EBD0704210002C04DD3B
:1083C000601C00EBD070401003E004EBD470401050
:1083D000641E04EBD47308EB0104ADF800403C18B4
:1083E000ADF80240A8EB02045B10B21AADF80440ED
:1083F000ADF808203144FC1AEA1AADF80C102844F4
:10840000ADF80A20ADF80E000023ADF806401A467C
:108410000421684600F07AF83946404610F034FDF1
:108420002946304610F030FDABE70000BC020020CA
:10843000064A13681A7E012A05D0521E02EBD27238
:10844000521000F005B8DA6E52681047BC020020E6
:108450002DE9F05F0646884640F2C32050434FF4B2
:108460007A7190FBF1F702FB02F002EBD27100EBA4
:10847000610B254914467F1C09683244301BC96EC4
:108480000B684146984701253AE000BF05FB05F01F
:1084900004FB040159451CDDBC4219DD1A4B06EBF7
:1084A000050AA6EB05091B68AAF1010208EB040105
:1084B000DB6E09F101001B689847134BAAF101021A
:1084C000A8EB04011B6809F10100DB6E1B689847EB
:1084D000641E0D4806EB040AA6EB0409006808EBCD
:1084E00005015246C06E0368484698470648A8EB07
:1084F000050152460068C06E0368484698476D1CE7
:10850000BD42C3DDBDE8F09FBC0200202DE9FF4F56
:1085100040F6FF740F46664283B09B4681460021B9
:108520000BE000BF09EB8100B0F90200A04200DAC5
:108530000446B04200DD0646491CB942F2DB6848F9
:108540000068406900280DD0B0F906101A46A1EB6A
:108550000B01B14200DA0E46B0F90200801AA042C7
:1085600000DD0446B5E0DFF87CA100200546CAF82E
:10857000000089E0781E854201DA6B1C00E00023D0
:1085800009EB850C09EB8302BCF90200B2F9021079
:10859000A04245D1A14215D139F92330059A39F9C4
:1085A000251003EB020C4E4A05981268084404EBB0
:1085B0000B01D26E6045136801DA62462BE0024679
:1085C000604628E02846A4464FF000087A1E0BE0DB
:1085D00008B1401E00E0781E09EB8003B3F90230B9
:1085E000634504D108F101089045F1DB2346A3421D
:1085F00049D0A3EB040239F92500A1EB040C059B3B
:1086000092EA0C0209D4364A184404EB0B011268B2
:10861000D26E13680246984735E00EF0C9FB32E08F
:10862000A14230D001DBA04203DDA0422BDBA142FE
:1086300029DCE04688420ADC0346A04223DC0846E7
:10864000A14220DBB8F900C0B2F9001008E00B46E7
:10865000A14218DCA04216DBB2F900C0B8F9001044
:10866000E21AA1EB0C0151430029A0EB030202DD49
:1086700001EB620102E0A1EB6201491CC01A91FB0F
:10868000F0F06044C9E76D1CBD42FFF673AF05987A
:10869000009004EB0B00019000208046054613E09B
:1086A0001149B8F1000F31F915A009D0009901EB7B
:1086B0000A0208440A490968C96E0B68019998477B
:1086C00088F0010850466D1C064909688D42E7DBB9
:1086D000641CB4427FF747AF07B0BDE8F08F0000DD
:1086E000BC020020F00200200482002010B500200F
:1086F00002F094FA6FF07F4002F094FA012002F049
:10870000C3FA002002F0C8FA002002F0CFFA0020DD
:1087100002F08AFA0448006802F088FABDE81040C6
:10872000002002F08DBA0000B80200202DE9F84FB9
:108730000121052008F074FB0121092008F070FBDD
:108740000121112008F06CFB0121212008F068FBB9
:108750000121412008F064FB0121812008F060FB29
:10876000012140F2011008F05BFB1826ADF8006013
:1087700048278DF8037003248DF802406946BF48EE
:1087800000F08CF9BE484FF001084FF0280A80F83D
:108790000080ADF80080DFF8ECB28DF803A08DF812
:1087A00002406946584600F079F94FF48160ADF80F
:1087B00000004FF004098DF803908DF802406946DF
:1087C000584600F06BF94FF48170ADF800001025A9
:1087D0008DF803508DF802406946584600F05EF966
:1087E0004FF40170ADF800008DF803608DF8024081
:1087F0006946584600F052F9ADF800808DF803A0A4
:108800008DF802406946A04800F048F94020ADF8D4
:1088100000008DF803708DF8024069469A4800F018
:108820003DF9E801ADF800008DF803908DF80240A5
:108830006946954800F032F941F2A200ADF8000017
:108840008DF803508DF8024069468F4800F026F9F4
:108850004FF4806AADF800A08DF803608DF80240F7
:108860006946894800F01AF97420ADF800008DF8C7
:1088700003708DF802406946844800F00FF942F217
:108880003A00ADF800008DF803508DF802406946BB
:108890007E4800F003F92802ADF800008DF803606F
:1088A0008DF802406946794800F0F8F84FF470609E
:1088B000ADF800008DF803608DF8024069467348FA
:1088C00000F0ECF84FF48250ADF800008DF8037022
:1088D0008DF8024069466E4800F0E0F84FF0080B52
:1088E000ADF800B08DF803508DF802406946684835
:1088F00000F0D4F84EF63770ADF800008DF8036044
:108900008DF802406946624800F0C8F87C20ADF856
:1089100000008DF803508DF8024069465D4800F074
:10892000BDF84FF68370ADF800008DF803608DF848
:1089300002406946574800F0B1F848F2C020ADF84F
:1089400000008DF803508DF802406946524800F04F
:10895000A5F84FF45060ADF800008DF803708DF865
:10896000024069464C4800F099F847F23F00ADF8E4
:1089700000008DF803608DF802406946464800F01B
:108980008DF84AF22020ADF800008DF803508DF8E4
:1089900002406946394800F081F84FF48340ADF851
:1089A00000008DF803708DF802406946334800F0EE
:1089B00075F845F21F00ADF800008DF803608DF8E2
:1089C000024069462D4800F069F88020ADF80000AB
:1089D0008DF803608DF8024069462D4800F05EF87E
:1089E000ADF800A014208DF803008DF80240694610
:1089F000254800F053F8ADF800808DF803508DF84D
:108A000002406946214800F049F8A002ADF8000094
:108A10008DF803708DF802406946184800F03EF862
:108A20004FF41870ADF800008DF803508DF8024037
:108A30006946124800F032F8ADF800B08DF80350E6
:108A40008DF802406946134800F028F84FF4605052
:108A5000ADF800008DF803508DF8024069460C48CF
:108A600000F01CF8ADF800908DF803508DF802402E
:108A70006946024800F012F8BDE8F88F0020014076
:108A80000000002000080140000C014000100140DF
:108A90000014014000180140001C01402DE9F003C2
:108AA000CB7803F00F0213F0100F1CBF8B781A4322
:108AB0000B784FF00F0713F0FF0F4FF001081FD096
:108AC000046800235FF008050E8808FA03FC3CEAFE
:108AD000060611D19E0007FA06F924EA090402FAF3
:108AE00006F63443CE78282E08BFC0F814C003D051
:108AF000482E08BFC0F810C05B1C6D1EE4D1046096
:108B00000B88FF2B9CBFBDE8F003704744684FF013
:108B1000000C08250CF108030E8808FA03F333EA69
:108B2000060607D06D1E0CF1010CF3D14460BDE8C0
:108B3000F00370474FEA8C0607FA06F924EA0904A5
:108B400002FA06F63443CE78282E08BF4361CE7869
:108B5000482E08BF0361E5E7016170472DE9F04742
:108B60000446454888460025016BC5618561491C5E
:108B700005620163DFF8109140A148460CF0D4FE75
:108B80004FF47A70B4FBF0F0404EA6FB0021C90808
:108B9000494201EB810110EB410005D000F13001A9
:108BA00048460CF0A7FE01253948A0FB04104009F7
:108BB000A6FB0021C908494201EB810110EB4100ED
:108BC00006D000F1300148460CF094FE012504E087
:108BD0001DB1302148460CF08DFEA6FB0410C708DD
:108BE000A6FB0710C008404200EB800017EB4000D6
:108BF00006D000F1300148460CF07CFE012504E06F
:108C00001DB1302148460CF075FE784200EB800023
:108C100014EB400005D000F1300148460CF06AFE2C
:108C200004E01DB1302148460CF064FE0D214E4693
:108C300048460CF05FFE17A003F0AEFD00281CBFF5
:108C40000220BDE8F0870025002C07D918F8051090
:108C500030460CF04FFE6D1CAC42F7D84AF2FF5084
:108C600001F0E0FF04220B214FF4967001F060F94F
:108C70000020BDE8F08700008000002061742B63B5
:108C8000697073656E643D0000480040CDCCCCCC6B
:108C90001F85EB513E0000002DE9F047164C0746BA
:108CA0002568DFF85890164E4AF6AA2820688542B3
:108CB00003D82068401BC82802D30020BDE8F087F5
:108CC000B06998B10F48316A405C3870306A401C16
:108CD0003062B0F5966F24BF00203062B069002882
:108CE0001CBF401EB0610120BDE8F087012000F0EC
:108CF0003DFEC9F80080D9E7380000200030004070
:108D000080000020556000202DE9F047174C0746F1
:108D10002568DFF85CA0174E41F270784AF6AA2960
:108D20002068854203DC2068401B404502DB0020B0
:108D3000BDE8F087B06998B10F48316A405C38707F
:108D4000306A401C3062B0F5966F24BF002030625C
:108D5000B06900281CBF401EB0610120BDE8F0874B
:108D6000012000F003FECAF80090D9E73800002087
:108D700000300040800000205560002070B50C4697
:108D8000054600F0F1F8A8682168C16261680163D6
:108D9000A1684163490707D5D0E90021C0E9001265
:108DA000D0E90221C0E90212A18981842169002948
:108DB00003D001DC4FF00001016270BD2DE9F041EC
:108DC0001E4617468846054600F0CEF8AC68682275
:108DD000414604F58470FCF7C7FD2846B84728468D
:108DE000B047286980688047A062BDE8F081000034
:108DF00010B5044600F0B8F8A0680E494C30114A8E
:108E0000C1650D4981650D4901660D4981660021E5
:108E1000C166136843660C4BC0E91E315168416757
:108E200030F8261C21F0030120F8261C0749416474
:108E300010BD000021AE01088DAF0108E9AD0108A9
:108E40004FA90108380300201FAA01082DAD010811
:108E500010B5044600F088F8A4680C48903410213E
:108E600020650B4860650B48A0650B48E0650B4822
:108E7000E0600B482061206BA06654F890292046E2
:108E800090471020A0630748606410BDA5830108C7
:108E900029950108A98E0008D98F000809A90108A1
:108EA00009B3010894DD0208F8B5846815460F4639
:108EB00094F8260080074CD5D4F8FC30204698471B
:108EC0000646D4F800312A46394620469847D4F859
:108ED000943005461BB100220121204698472069A5
:108EE000B04201DD012000E00020A169B14201DAB9
:108EF000012100E0002108436169A94201DD01214F
:108F000000E000210843E169A94201DA012100E003
:108F1000002108430AD06068401E00902368D4F8FE
:108F2000A4705B1E002211462046B847D4F8A83032
:108F30002A46314620469847D4F89C102046884758
:108F4000D4F8943005466BB10122002120469847A1
:108F500008E0D4F8A83020469847D4F89C10204662
:108F6000884705462846F8BD70B504468068002845
:108F700012D14FF4B875284600F0BCFA2A460021F9
:108F8000A06003F089F9A0680221C1840121046472
:108F900001620249C0F8041170BD0000A18F0008F1
:108FA00010B590B0044620220A496846FCF7DCFC64
:108FB00008492022203108A8FCF7D6FC606B5DF838
:108FC0002010C4F8FC1008A951F82000C4F80001D2
:108FD00010B010BDC0E901082DE9F8438468984637
:108FE000154694F826000F46800740D5D4F8FC308B
:108FF000204698470646D4F800312A46394620468E
:10900000984705462069B04201DD012000E00020BC
:10901000A169B14201DA012100E000210843616940
:10902000A94201DD012100E000210843E169A942D4
:1090300001DA012100E0002108430AD06068401EE7
:1090400000902368D4F8A4705B1E002211462046CD
:10905000B847D4F8A8302A46314620469847D4F875
:10906000A02001B041462046BDE8F0431047D4F8A7
:10907000A830F2E72DE9F04FDFF828B191B04FF0BA
:10908000FF35DBF80030B3F922100691DE69B3F941
:1090900024A0F469A189814206D8E289824203D3DF
:1090A000471AD4F8008012E0D4E90181002970D079
:1090B0000A8882426DD84D8885426AD3801A82B26E
:1090C000486800EB8200B0F90070B0F90250781CDB
:1090D0005FD0307EA27C014600FB02F9207CCDE906
:1090E0000810B3F92A60304604F080FCC0B20E903C
:1090F000DBF8001007FB0980A37C8A6B0127CDE910
:109100000402CDE90273C869DDE90832C17E807EC0
:10911000CDE900015146069804F046F8681C18D0C5
:1091200046F0020004F062FCDBF80000A37C05FBC3
:109130000981826BCDE90273CDE90412C069DDE9D2
:109140000832C17E807ECDE900015146069804F0C8
:109150002BF8DBF800005D46C069417E007E81424D
:1091600014D9022E12D086F0040004F03FFC2868C7
:10917000C069027EC37E857E02FB03A1437E099AFD
:109180000698534402FB050204F09CF90E9804F083
:109190002DFCDBF80000627C418C1144418411B04D
:1091A000BDE8F08FBC02002004480068C069C069B7
:1091B00009B1027C0A60407C70470000BC020020BC
:1091C000022008807047C06982898A4202D8C28919
:1091D0008A4210D2806880B102888A420DD84388C2
:1091E0008B420AD3406800EB8100A0EB8200B0F90B
:1091F0000000002801DB01207047002070470000BC
:109200002DE9F0432F4C034687B020681946B0F98A
:109210002A80C069C06900F0EEF800284ED041688D
:109220000088181A01EBC0054046AE7804F0DEFB5A
:10923000814620686A680123816BCDE90236CDE959
:109240000421C169CB7E8A7ECDE900230B7EB0F973
:1092500024102A78B0F9220003F0A6FF2068C06924
:10926000477E067EB7421DD9C07E47434643B8F1CC
:10927000020F17D000F04EFF804600F033FF01F0E0
:10928000D1FC21682A78CB69B1F92200B1F9241008
:10929000DB7E02FB0302CB19314404F013F9404694
:1092A00001F0C0FC484604F0A1FB20686A78C3695D
:1092B000B0F922109B7E02FB0311418407B0BDE888
:1092C000F0830000BC0200202DE9F35F0E4600256C
:1092D00000F020FFDFF8A8808346D8F8000090F85F
:1092E0002A00400702D500F015FF01E000F0FAFE69
:1092F00001F098FCD8F800000024C269B0F922906F
:10930000B0F92470517ED27E01FB02FA1EE068465D
:1093100001F018FE0546D8F800002946C069C0696A
:1093200000F032F890B141680088281A00EB400044
:1093300001EB800090F9021000790844D8F8001081
:10934000C969897E4843002800DD0444761EDED5C5
:109350001DB1284602F0BCFD044407EB0A0309EBEB
:1093600004025B1E4846521E394604F0ABF85846CC
:1093700001F058FC034901200870BDE8FC9F000083
:10938000BC020020A004002006E002888A4202D825
:1093900042888A4202D280680028F6D170470000D5
:1093A00030B50E4C05460B4620682946C069C06999
:1093B00000F021F8002810D04168008824682A1A9B
:1093C0000120E46900EBC200085CA47E6043002B2E
:1093D00003D011F832106143196030BDBC02002087
:1093E00001200880704700B5C06900F004F800282B
:1093F00000D0012000BD06E002888A4202D84288DF
:109400008A4202D280680028F6D17047FEB50E4E1F
:10941000DDE908543668367C16F003060CD0012EC0
:1094200003D0022E0DD0032E05D1084ECDE90054F5
:1094300002960FF025FBFEBDCDE900540FF0CEFAE9
:10944000FEBD034EF2E70000BC020020ADDA0008CA
:1094500025DA0008002801D00DF002BD704738B5AC
:109460000546FFF7F7FF040009D000F0C5F82A46CB
:109470000021009002F010FF684600F007F9204636
:1094800038BD0000024A106021F0030050607047B0
:109490008081002010B5002814D004460A48006BD3
:1094A00010F8341000290DD002290BD2042101EB51
:1094B000C401415848680DF097FC2046BDE81040B3
:1094C00011F010BA10BD0000C4800020002805D0A3
:1094D000034A916B016001B14860906370470000DE
:1094E000C480002010B504460068FFF7D3FF0020B9
:1094F000206010BD2DE9F041044610F0A1FE264881
:10950000E41C24F00305C16B2D1DA94200D90D46B2
:10951000846B13E054F8042CAA420ED184B1216864
:1095200009B162684A60616809B122680A60826BA9
:10953000A2422ED1216881632BE02468002CE9D15E
:109540008046416B80680F1857F8040C3E1A30684B
:1095500038B1002011F0D0FA57F8040C3E1A3068E8
:10956000B8B97068A84214DB3044441B304611F08F
:109570007BFAD8F80810491BC8F80810D8F8101062
:109580002944C8F8101070683146401B0DF02CFCBF
:1095900020C42046BDE8F081C480002010B500241E
:1095A00010F04EFE0C490F2001EBC002126C1AB1F4
:1095B00001EBC000006C08E0401EF5D508E04168F2
:1095C000A14200D90C46806810B180680028F6D10D
:1095D000A4F10C0010BD0000C4800020002138B1AF
:1095E0000449042202EBC000096B085841680C3999
:1095F00008467047C480002005498A69521C8A6168
:10960000096B01EBC0010A78521C0A7000F056B8D1
:10961000C48000207CB506460C460846FFF71AFFBA
:1096200005001CD0DEB13046FFF7D8FFA04200DABB
:1096300004462846FFF7E0FF00903046FFF7DCFFC6
:109640000146019022460098FCF78EF9684600F02A
:109650001DF801A800F01AF83046FFF71BFF284656
:109660007CBD000010B5FFF799FF64220649B0F5F4
:10967000800F04D990FBF2F0C969484310BDC96955
:109680004143B1FBF2F010BDC48000200A490268DA
:109690000B6B52F8082C03EBC2021378022B03D396
:1096A0008B690BB15B1E8B611178491E1170002113
:1096B0000160084670470000C4800020002806D0E2
:1096C0000349042202EBC000096B085808307047B8
:1096D000C480002070B50C46054600F09DFDC1B267
:1096E00023462846BDE87040002200F001B8000083
:1096F000F0B52D271C68B0F1004F08D000250028D8
:109700000DDA661C1E6027704042012408E0661CCA
:1097100001251E606FF000402770491E01E0002403
:10972000091BC9B22AB3491EC9B222E00C46491E20
:10973000C9B2944205D1124C27781C68661C1E6081
:109740002770104C54F8216090FBF6F4E4B20A2C18
:1097500011D804FB160011B90DB1641CE4B20A2C37
:1097600002D10124491CC9B21E683034771C1F6025
:1097700034700029DAD1196800200870F0BD0000AB
:10978000B002002004D5020810B5C2B2CBB2D21A82
:1097900002D5C2F1000212B293B2C0F30722C1F3A4
:1097A000072403FB03F3121B01D5524212B2000C33
:1097B00092B2A0EB114002FB023200B2002801DAA3
:1097C000404200B280B200FB002010BD10B5002165
:1097D000084600F0E5FC40F6FF725042BDE810403C
:1097E00013460146AFF300802DE9FC4107461C46B5
:1097F00015460E46042004F0F9F880461148C0686A
:10980000C16C006D0F4406440D440444ADF8007073
:10981000ADF80450ADF80260ADF8064068460CF0B3
:10982000F9FE07E023462A463146384603F04AFE51
:109830000CF0B2FE0028F5D1404604F0D7F8BDE8A0
:10984000FC810000B00200202DE9F0411C461646C4
:109850000D460746022B02DB0020BDE8F0811C20EC
:10986000FFF748FE0028F8D00DB105610AE0094A6B
:1098700052F8241009B905E011460A68002AFBD104
:109880000969016184618682002101604160C0E94B
:109890000217E2E7D402002070B51D46FFF7D4FF9F
:1098A000040001D000F00EF8E068006820B9034819
:1098B000006800EB85008465204670BDBC02002076
:1098C000FFF704BE70B590B38269022A30DA1C4CEF
:1098D00054F8221019B944F822002FE019464B68B9
:1098E000002BFBD106E0CB68C5681B682D68AB4236
:1098F00003DD09680029F6D11AE0C1B1CB68C6685A
:109900001B683668B3420CD1838A012B05D008E06E
:109910001946DB681B68AB4203DB0B68002BF7D1F1
:1099200029B14B6833B118604A68426004E0FFE730
:10993000012070BD44F8220048600160002070BD25
:10994000D402002011F0B4BC022801DB00207047D3
:10995000054951F8200004E0C16809680029F6D0E3
:1099600000680028F8D17047D402002070B5044682
:1099700001F056FC051908E000F0C0FA052C01DDE5
:10998000052000E0204601F03FFC01F049FC2C1AC4
:10999000002CF1DC70BD7FB51E4614460D46CDF897
:1099A0000CD003AB00223146FFF7A2FE2246294627
:1099B000684600F081F87FBD2DE9FC4706005BD0CA
:1099C00000F0B0FB3B4C81462068B0F9228000F0EB
:1099D000BFFB216807468A8CD01B888441E000BF0A
:1099E00047F6FF71304602F03BFA824601463046A8
:1099F00002F00CFA2168054691F82C0000F00300F3
:109A000001283FD0022839D000204A8C101A4884FF
:109A1000ADF800006A1E1044ADF80400888CADF863
:109A20000200A9F101010844ADF806006A4651465A
:109A3000304601F0C3FF2168BDF80200888451461A
:109A4000304601F0ABFA064430780A281CD00D28C5
:109A50001AD0BDF80000216828444884307818B135
:109A6000761C30780028BBD12068818C39448184F1
:109A7000818D21F003018185BDE8FC8705EBD57060
:109A80004010C2E72846C0E7206890F82C1001F08B
:109A9000030101290BD0022909D0018C41843178BE
:109AA0000A29DBD1828C02EB09018184D6E7A0F878
:109AB0002280F4E7BC020020024B1B6859849A8480
:109AC000FFF77ABFBC0200202DE9FF4F85B090461A
:109AD0008A46070078D00C68DAF8046021B230B208
:109AE000401A401C029000F01DFB054618F00C0FB8
:109AF0001ED03846089A029901F06BFB08F00C0161
:109B0000042904D0082902D00C2911D104E0311411
:109B100000FB1510401C09E02114C1EB264200FB9C
:109B20001520401C00EBD07001EB600060F31F4477
:109B3000504601F075F8A5F1010B04903846089ADB
:109B4000029902F077FB03904FEA244909EB0B00DE
:109B500060F31F46CDE900463846039902F056F9F6
:109B600018F003010ED0012928D002290ED1BAF92C
:109B70000420BAF90010521A101A00EBD07001EB51
:109B8000600001E0BAF80000ADF800006A4638460F
:109B9000039901F013FF3846089A029902F040FB3E
:109BA000074409EB050060F31F4438780028C5D14D
:109BB000049809B0BDE8F04F01F032B8BAF80410CB
:109BC000081A401CE0E7FFE709B0BDE8F08F00008D
:109BD0002DE9F04F0C46164987B00D68DDE9109865
:109BE000E96C0F18286D8D180619C418ADF810709F
:109BF000ADF81450ADF81260ADF8164004A80CF0A2
:109C000009FD002811D0DFF82CB04FF0000ACDE993
:109C10000098CDE902BA2B462246394630460EF06E
:109C2000E2FF0CF0B9FC0028F1D107B0BDE8F08FDD
:109C3000BC02002071D400082DE9F04F174C87B00A
:109C40002568DDE91198EC6CDDF840A02718286D37
:109C5000A5184618C418ADF81470ADF81850ADF832
:109C60001660ADF81A4005A80CF0D4FC002812D0FC
:109C70004FF0010B0A49CDE900A9CDE90281234645
:109C80002A46CDF810B0314638460FF069F80CF08E
:109C900083FC0028EED107B0BDE8F08FBC020020A5
:109CA000B1D300082DE9F04F164C87B02568DDE9E7
:109CB0001098EC6C2718286DA5184618C418ADF834
:109CC0001070ADF81450ADF81260ADF8164004A84D
:109CD0000CF0A0FC002811D0DFF82CB04FF0010AE6
:109CE000CDE90098CDE902BA23462A4631463846E6
:109CF0000EF079FF0CF050FC0028F1D107B0BDE860
:109D0000F08F0000BC020020B1D300082DE9FC4117
:109D1000104F04463B68D86C4518196DADF80050DB
:109D20000E198418ADF80440ADF80260ADF8066075
:109D300068460CF06FFC08E0386822463146C06E79
:109D40000368284698470CF027FC0028F4D1BDE8AA
:109D5000FC810000BC0200202DE9F0410B4C25687D
:109D6000EC6C2718286DA5184618C41800200CF0B4
:109D700051FC07E023462A4631463846FEF7E4F90F
:109D80000CF00AFC0028F5D1BDE8F081BC020020EF
:109D90002DE9FC411C4C2468E66C94F818C0371877
:109DA000206DACF1010C4518C418A7EB0C0016444B
:109DB000ADF8000006EB0C00ADF80400A5EB0C00BC
:109DC000ADF8020004EB0C00ADF8060068460CF09C
:109DD00021FC15E032462946384603F0E9FA3246BE
:109DE0002146384603F0E4FA621E691C384603F047
:109DF0003FFB621E691C304603F03AFB0CF0CCFBC3
:109E00000028E7D1BDE8FC81BC0200202DE9FF4716
:109E1000DDE90C76012E15D0134C2468E56C246D19
:109E200005EB000804EB010915441C44ADF808805B
:109E3000ADF80C50ADF80A90ADF80E4002A80CF049
:109E4000E9FB0EE0009700F011F8BDE8FF87CDE9CF
:109E5000007623462A46494640460FF069F80CF042
:109E60009BFB0028F3D1F0E7BC0200202DE9FE4364
:109E7000114CDDF828802568EC6C2718286DA51892
:109E80004618C418ADF80470ADF80850ADF8066077
:109E9000ADF80A4001A80CF0BDFB09E023462A46B4
:109EA00031463846CDF800800FF0D4F80CF074FB42
:109EB0000028F3D1BDE8FE83BC0200207CB50E4B28
:109EC0001B68DC6C2618186DADF800604518841806
:109ED000ADF80460ADF80250ADF8064068460CF0ED
:109EE00099FB06E022462946304603F0C1FA0CF001
:109EF00053FB0028F6D17CBDBC02002010B5002425
:109F000000E0012400F004F80028FAD1204610BD3A
:109F1000064810B50068002410B1804700B1012444
:109F20000BF0CEFF00B10124204610BDDC02002062
:109F300070B51646094A1268D36C1C18106D451886
:109F400000200CF067FB06E0324629462046FEF76B
:109F50007FFA0CF021FB0028F6D170BDBC02002076
:109F60002DE9FC47164C814688462068C16C006D7F
:109F70008E18C51800200CF04DFB00281ED0114F84
:109F800020681121407C57F820000190C068426A87
:109F900001A890475FEA000C06D033464246494686
:109FA00000950198E04705E02B4632464146484679
:109FB000FEF7ACFA0CF0F0FA0028E1D1BDE8FC871E
:109FC000BC020020D40200202DE9FC410F4C256882
:109FD000EC6C2718286DA5184618C418ADF8007049
:109FE000ADF80450ADF80260ADF8064068460CF0DC
:109FF00011FB07E023462A463146384603F062FA51
:10A000000CF0CAFA0028F5D1BDE8FC81BC020020A2
:10A010002DE9F04F2D4C87B02568EC6C2D6D04EBCD
:10A02000000A04EB02096E1805EB0308ADF808A05E
:10A03000ADF80C90ADF80A60ADF80E8002A80CF0F7
:10A04000E9FA00283FD0A8EB0600401C0590109CC0
:10A050000598B0EB440F32DBA9EB0A00401CB0EBD3
:10A06000440F2CDB04FB04F02746354606EB040BBB
:10A0700004901AE0049807FB170002F050F90AEB6D
:10A080000401091A0191A9EB040108440246009059
:10A090002946019803F08CF9DDE90020A91BA8EB03
:10A0A000010103F085F96D1C7F1EAB45E2DAA8EBD8
:10A0B00004035B1E4A462946504603F003FA0CF09F
:10A0C0006BFA0028C3D107B0BDE8F08FBC020020B6
:10A0D000034951F82000C1688A6A0821104700002E
:10A0E000D402002010B503F01DFABDE8104003F0C3
:10A0F000CDBA000002490968C9694A6800211047C1
:10A10000BC020020024A1268D2695268104700005F
:10A11000BC02002010B503F00DFABDE8104003F0BA
:10A12000B5BA000002480068C069407E7047000070
:10A13000BC02002001F060BE01F0BCBE10B50446B8
:10A1400001F0AAFE01462046BDE8104001F05EBEC7
:10A150000A490020096891F82C2002F00C02042A18
:10A1600007D0082A01D00C2A02D1C869007E400815
:10A170007047C869007E401E70470000BC02002086
:10A18000024951F82000006900687047D40200209D
:10A19000024951F82000006940687047D40200204D
:10A1A00070B50D460FF0AEFF044628460FF0B2FF23
:10A1B000204370BD124810B5016821F00101016013
:10A1C0001048012181601049016000680F498842F0
:10A1D00000D0FEE701F0D8FB0D492E20087001F0F9
:10A1E00025F80C480FF0F4FF12F02BFA044600217A
:10A1F000084600F02DFD0BF0C7FE204610BD000004
:10A20000002000E000300240C2A507F4CDB5E8B55B
:10A21000B00200208C81002010B5011E01DD024635
:10A2200000E04A42064B012053F82040944202D8F5
:10A23000401C0A28F8DB002900DA401C10BD000091
:10A2400004D502081CB520B90C480068006E00282F
:10A2500012D0FFF7D1F9009044696846FFF716FA6B
:10A26000002C09D02046FFF7C7F901908168896862
:10A27000884701A8FFF70AFA1CBD0000BC020020B5
:10A2800001490A4600F002B801F0FFFF2DE9F04352
:10A2900087B015460C465FEA000842D0002000F067
:10A2A000C3FC814620480068066E4046FFF7A4F9CB
:10A2B00000900068806900F09FFC074640F6FF7040
:10A2C000001904D10098B0F90440B0F90650009884
:10A2D000611E0289ADF804401144ADF808104189AF
:10A2E000681E0844ADF80650ADF80A000BF056FCA5
:10A2F0006846FFF7CBF901A80CF08CF906E02A4676
:10A300002146404600F0F8FA0CF046F90028F6D154
:10A31000384600F071FC304600F048F9484600F03D
:10A3200083FC07B0BDE8F083BC0200202DE9FE4F9E
:10A33000834619488A46194900680C9E9846407C15
:10A340009146002751F82040E1680968042903D0AC
:10A350002468002CF8D100E014B9FFF7F5FA0446A0
:10A360000121E068C26A20469047050011D02469A7
:10A37000A0688047401C02D1094C46F001060096B7
:10A38000CDE9015443464A465146584600F09AF9F1
:10A3900007463846BDE8FE8FBC020020D4020020EC
:10A3A0003CD5020838B5040018D00D480068006E8E
:10A3B000A04201D100F016FC2046FFF71DF90090E5
:10A3C000406908B100F0F3FE00980068FFF778FAE2
:10A3D0006846FFF75BF92046FFF75CF838BD0000E0
:10A3E000BC0200202DE9FF4F83B0454CDDF840B0A2
:10A3F00098468A4607002BD002A901A8FFF79CFEC9
:10A40000B7F90060002E00DA0026B7F90250002DDF
:10A4100000DA00252068A146407C03F0F7F8019996
:10A420000144491EB7F904000FF0CDFF0446D9F8E6
:10A430000000407C03F0F0F802990144491EB7F98E
:10A4400006000FF0C0FFA71B7F1C441B641C0BE021
:10A45000206800263546407C03F0D8F8074620687F
:10A46000407C03F0D9F80446B8F1000F01D1C4F1E3
:10A470000008002F01DD002C03DC002007B0BDE840
:10A48000F08F43463A4629463046CDF800B0FFF7F4
:10A490004DFF5FEA000909D000F054F880464846B5
:10A4A00000F084F80027DFF85CB01FE05146059803
:10A4B00088470120E2E7E11B414502DA484600F007
:10A4C0005FF83FB1EA193146484600F099F848462E
:10A4D000FFF7B8FE514605988847DBF8001009B130
:10A4E000002088474846FFF7CBFE4744A742E2DBFF
:10A4F0004846FFF757FF002000F058F8BDE700007E
:10A50000BC0200207C04002038B5002460B1FFF7B5
:10A5100073F80090006800698068804703F0AEFC23
:10A5200004466846FFF7B2F8204638BD38B5FFF755
:10A5300063F800F1180400906846FFF7A7F820467A
:10A5400038BD000038B5002418B907480068006E0F
:10A5500038B1FFF751F80090B0F90A406846FFF7AC
:10A5600095F8204638BD0000BC02002010B50CF064
:10A570008BFF002803D0BDE8104000F06DB810BD7F
:10A5800038B50C4620B908480068006E00280AD08B
:10A59000FFF732F80090B0F90A10A14200DD4481C3
:10A5A0006846FFF773F838BDBC020020F8B5134EBB
:10A5B00005003068046E0CD00CB100F013FB0BF0FA
:10A5C000DDFB2846FFF718F8009031680A6E1AB1D3
:10A5D00006E000F007FB0EE0D1E90223C1E91923F0
:10A5E0000D660068FFF76EF96846FFF74FF803F055
:10A5F000D5FA03F0DBF92046F8BD0000BC020020CC
:10A600007CB515460C4620B912480068006E00283B
:10A610001FD0FEF7F1FF2DB20090C58024B28480D8
:10A6200003F0C4F90098406980B1FEF7E5FF009A95
:10A630000190B2F908108180B2F90A20C28011B1EC
:10A640000AB10480458001A8FFF720F86846FFF7AB
:10A650001DF87CBDBC02002001490A4600F002B88A
:10A6600001F0FFFF7FB515460C46060028D0FEF727
:10A67000C3FF40F6FF710190091903D1B0F90440FE
:10A68000B0F906500289611E1144ADF80840ADF8DA
:10A690000C104189681E0844ADF80E00ADF80A5050
:10A6A00001A8FEF7F3FF02A80BF0B4FF06E02A466C
:10A6B0002146304600F008F90BF06EFF0028F6D175
:10A6C0007FBD00002DE9FF4FDFF8E0B083B01C46EE
:10A6D000DBF80010DDE91060924600274B7C3A461B
:10A6E0001299FFF7B1F805005DD0286980688047AE
:10A6F00003F0C4FB81460AFB09F0C01D4FEAD008F5
:10A70000FEF7B0FFF10705D1C11700EB9170801083
:10A7100000EB4000002C06DC1838B0FBF8F0644277
:10A72000A04200DC0446F00707D10090DDE90301F8
:10A730002346524600F0B2FC0746002C03DC2846B4
:10A74000FFF7BEF82FE004FB08F01830F10702D045
:10A75000FEF780FE01E0FEF782FE06001CD0FEF749
:10A760004BFF01900560039981800499C180A0F896
:10A7700008A04481C0F80C80C0E9049701A8FEF746
:10A7800085FF1298AE602861DBF80000407CA8616C
:10A79000304607B0BDE8F08F2846FFF791F817B1B3
:10A7A0003846FEF777FE0020F3E70000BC020020E9
:10A7B0002DE9F74F92B090461298FEF71DFF0B90CF
:10A7C000B0F908100691B0F90A100D9100680069FF
:10A7D000D0F804B00BA8FEF759FF384C384D20686C
:10A7E000407C55F82000C1688A6A0821904781465C
:10A7F000182801D34FF020092068407C55F820002C
:10A800000069079003C80C902E48814201D00120B6
:10A8100000E000201090002000F009FD002849D140
:10A820000026DDE91207B2460FAB069C4546761CB2
:10A830000193FFF77BFE014604FB0AF001EB800267
:10A84000234629463846CDF800B001F00FF905003F
:10A8500030D01098D0B1DDE906134A46284600F002
:10A86000D9FF98B9DDE906702C46D0F810C0BCF1CC
:10A87000000F05D0294604233A460846E04705E084
:10A880000C992068884701C47F1EF9D10020CDE9CA
:10A890000305059001200090CDE9010941460346DA
:10A8A00008F10108069A139802F07EFC0D98401EEC
:10A8B0000D90B6D115B0BDE8F08F0000BC020020AD
:10A8C000D4020020ABD60008F8B515460E46074660
:10A8D000FEF792FE009000681621C068426A0020D0
:10A8E000904704466846FEF7D1FE002C03D02A4666
:10A8F00031463846A047F8BDF8B515460E4607461E
:10A90000FEF77AFE009044696846FEF7BFFE3846BF
:10A91000FFF7FAFD0346082800DD2CB12A46314630
:10A92000384610F007FDF8BD2A463146384610F08B
:10A9300099FEF8BD10B5002821D009B30AB3B1F9CA
:10A940000040B2F900309C4200DA23460380B1F99E
:10A950000240B2F902309C4200DA23464380B1F94A
:10A960000440B2F904309C4200DD23468380B1F9F3
:10A970000610B2F90620914200DC1146C18010BDDC
:10A9800011460A6802604968416010BD00280BD07A
:10A9900003880B44038083881944818041881144D3
:10A9A0004180C1881144C1807047000070B5094CD6
:10A9B0000020D4E900218A420AD0D2E9005610468C
:10A9C0000FF0BEFB2060314628460BF0C1FB012092
:10A9D00070BD0000F40200202DE9FC41154DDDE9B9
:10A9E00008742D68B5F90860864200DD3046B5F977
:10A9F0000C60964200DA3246824219DBB5F90A60F1
:10AA00008E4200DD3146B5F90E509D4200DA2B46EC
:10AA10008B420DDB00E02C46E5682D6825B1042D46
:10AA200002D02568002DF6D1CDE9007402F0A6FE13
:10AA3000BDE8FC81BC020020B0F90220B1F906306B
:10AA40009A4213DCB1F90220B0F906309A420DDCCB
:10AA5000B0F90020B1F904309A4207DCB1F90010D6
:10AA6000B0F90400814201DC0120704700207047EA
:10AA70000146024878220068FAF776BFBC0200203F
:10AA800038B515460090C8610C46684601F0A4FB35
:10AA90001649884228D1684601F095FB2076684621
:10AAA00001F091FB6076684601F08DFB84F8200090
:10AAB000684601F088FB84F82100684601F083FBBA
:10AAC00084F822000120A076E0762868206068687B
:10AAD0006060A868A060E868E06028692061686933
:10AAE0006061204600F0A2F838BD0000475549508B
:10AAF00038B50C4601460B4800250C220068C06999
:10AB000000F02EF8009058B124B1684601F05BFBCC
:10AB1000206001E0801C0090684601F054FB05466F
:10AB2000284638BDBC02002038B5C0690C46001D5F
:10AB30000090684601F047FBA070684601F043FBB7
:10AB4000E070684601F03FFB20710120208038BD95
:10AB500008B5C0690E300090684601F034FB08BDAE
:10AB60002DE9F8438846914606460024FFF7F0FF9A
:10AB7000F1690546103101EB85070091684601F047
:10AB800022FB064666F30F04684601F01CFB60F3E7
:10AB90001F44464508D8404506D3A1B2A8EB0101A1
:10ABA00009FB0170BDE8F883801B401C09FB00779E
:10ABB0006D1EE3D10020F5E7054810B500680C22B2
:10ABC000C069FFF7CDFF002800D0012010BD0000B4
:10ABD000BC020020024978220968FAF7C5BE0000CD
:10ABE000BC02002010B502F095FE02F0D7FFBDE8D0
:10ABF00010400AF0D3BF000070B504460548022C8F
:10AC00000068457C02D24474FFF7ECFF0248046000
:10AC1000284670BDBC0200209803002002F09CBEB4
:10AC20000BF0DEBB02F0D0BE02F0E0BE03490968C3
:10AC3000CA6900B1C861104670470000BC0200201C
:10AC4000024909688A7E887610467047BC02002057
:10AC5000094A30B41080094A1180094A1268537CAD
:10AC6000084A52F82330DA68146A0A46A4460146B4
:10AC700030BC184660470000EC020020EE020020C5
:10AC8000BC020020D4020020024909680A7E08762E
:10AC900010467047BC02002003490968B1F92C2016
:10ACA0008885104670470000BC02002003490968EF
:10ACB000B1F92A204885104670470000BC020020E8
:10ACC00002480068002800D0004770476004002058
:10ACD00002498A6802B98860FFF7F2BFF4020020D7
:10ACE00010B5040009D00FF0D9FE204610F0B8FAD4
:10ACF0002046BDE81040FEF7CDBB10BD38B50C4670
:10AD000060B1FEF779FC00908089204201D00124D7
:10AD100000E000246846FEF7B9FC00E0012420466C
:10AD200038BD000038B50546002028600648046894
:10AD300044B12046FEF760FC009000692860684638
:10AD4000FEF7A4FC204638BD4C04002038B50400B2
:10AD50004FF000000D46086011D02046FEF74CFC75
:10AD60000090846844B16846FEF790FC2046FEF7E8
:10AD700043FC0090006928606846FEF787FC204687
:10AD800038BD2DE9F041984617460D460646002489
:10AD900009E036F8021B384600F0BAF821184145A0
:10ADA00003DC07440C466D1EF3D22046BDE8F0815B
:10ADB0002DE9F04F3E4D061E3E4C3F4A3F4BDFF81B
:10ADC0000091DFF800A1DFF800B14049286846DDB6
:10ADD000AE46002869D125680D6015684D601D6874
:10ADE0008D60D9F80060CE60DAF800700F61DBF892
:10ADF00000C0C1F814C0DFF8DCC03549DFF8E480DA
:10AE0000CCF80010DFF8D4C04D463349DFF8D090BD
:10AE1000CCF80010C8F80090DFF8D080DFF8C8C088
:10AE2000C8F800C0DFF8CC80DFF8C4C0C8F800C0A4
:10AE3000DFF8C880DFF8C0C0C8F800C0DFF8C0C0C5
:10AE4000C4F800C011602F49C3F8009029602E4952
:10AE5000CAF800102D490122CBF8001023E024D1BC
:10AE6000AE46002821DD0D68002D1ED04E68002E54
:10AE70001BD08F68002F18D0D1F80CC0BCF1000F88
:10AE800013D0D1F81080B8F1000F0ED04969002915
:10AE90000BD0256016601F60C9F800C0CAF800809A
:10AEA0000022CBF80010CEF80020BDE8F08F0000A3
:10AEB00010040020480400202C040020300400204E
:10AEC000340400204004002044040020000300203B
:10AED00055B60008140400206DB4000818040020C2
:10AEE0006DB300081C0400205FB50008200400209A
:10AEF00069B200082404002043B60008280400209A
:10AF0000D1B6000841B3000891B50008D3B20008DB
:10AF1000014A1268D2681047C0020020014909683E
:10AF200009680847C00200200149096849680847C4
:10AF3000C0020020024901480860704770E901081A
:10AF4000C00200202DE9F041084E04460568306833
:10AF50000168284688470746306841682846884780
:10AF6000284420603846BDE8F0810000C00200207F
:10AF70002DE9F04100250E4680462C46064F06E09E
:10AF8000396808EB04004968884704446D1CA642F0
:10AF9000F6DC2846BDE8F081C00200202DE9F04132
:10AFA0000C4606460025064F05E0386841683046E5
:10AFB000884706440544641EF7D22846BDE8F08160
:10AFC000C00200202DE9F0411E46069C1746884627
:10AFD00005463A46A8687F1C3346D0F804C041466F
:10AFE0002846E047641EF4D1BDE8F08170B5B0F9A1
:10AFF0000040091BB0F904408C422CDD00F1140420
:10B00000B0F902500069521B02FB0040CA1800EB65
:10B01000E104521ED010B0EBE10501F007034FF040
:10B02000FF0102F0070221FA03F0C2F1070201FA60
:10B0300002F1CEB221780FD001436D1E04F8011B3E
:10B04000002D05DDFF2229462046FAF7AEFC2C44F0
:10B0500020783043207070BD30400143217070BDB6
:10B0600010B5B0F90030B0F90240C91A00F114036C
:10B070000069121B02FB003000EBE10001F0070346
:10B0800002788021D9400A43027010BDB0F9061041
:10B09000026951431430FAF78FBC00002DE9F843E0
:10B0A000804602F10F000011470003FB07F01C4629
:10B0B000154689461430FEF7D2F9060013D0FEF784
:10B0C0009BFA0090A0F80080A0F802908580C480D0
:10B0D000064981600121818107616846FEF7D6FA41
:10B0E0003046BDE8F8830020FBE70000CCE0020812
:10B0F00070B5B0F90660B0F904400B6800F11405B2
:10B10000964220DD0069A34202FB005000EBE302FF
:10B1100019DAA4F101044FEAE400A0EBE30512F808
:10B12000010B03F0070400FA04F0C4B208E055B1C3
:10B1300012F8014B03F10803A5F1010523F0070301
:10B14000002CF4D008E0002070BD00BF4FEA44603E
:10B150004FEA106403F101032006F7D5FF2C0AD053
:10B16000184605E04FEA44644FEA146400F1010018
:10B170006606F7D400E0D81DC443640706D007E094
:10B1800012F8014BFF2C0FD100F108006D1EF7D50E
:10B19000A0EB030000F101000B6070BD4FEA4462B8
:10B1A0004FEA126400F101002206F7D4F0E738B547
:10B1B0000546FEF721FA00908189491E0CB2848170
:10B1C0006846FEF763FA002C02D12846FEF762F9C2
:10B1D00038BD2DE9F04116460F460546002432469B
:10B1E0003946284601F01CF8054408B1641CF6E70E
:10B1F0002046BDE8F08100004FF470510148FEF791
:10B2000041B90000F81C002003490A6810440A688C
:10B21000821A002AFBDC70473800002070470000CB
:10B2200001480068704700003800002070470EB5E4
:10B2300008B102AA00E00022002301A9684600F03C
:10B2400093FD0EBD074910B5CC6818B10120C86048
:10B25000801E03E00020C8606FF07F4001F08EFF89
:10B26000204610BDA804002070B5D2B00D46064699
:10B270001446502129A8FAF79FFB50213DA8FAF760
:10B280009BFBA02101A8FAF797FB502D02DD0020BF
:10B2900052B070BD012301AA294630460CF0F0F9E6
:10B2A0000546024629A901A80EF010FE294629A844
:10B2B0000BF0A6FE0028EBD0002000902B463DAA04
:10B2C00029A901A80BF02AFE3DA8005D00F00100AD
:10B2D000DEE72DE9F343002783B089463D46019719
