:020000040800F2
:10580000E09300204559000885ED0008FDCD000813
:10581000E5EC0008816C0008396601080000000012
:10582000000000000000000000000000493C0108EA
:1058300053760008000000005B590008FD5E010877
:10584000A17901085F5900085F590008191401087F
:105850005F5900085F5900085F5900085F59000848
:105860005F5900085F5900085F5900085F59000838
:105870005F5900085F5900085F5900085F59000828
:105880005F5900085F5900085F5900085F59000818
:105890005F5900085F5900085F5900085F59000808
:1058A0005F5900085F5900085F5900085F590008F8
:1058B0005F5900085F5900085F5900085F590008E8
:1058C0005F5900085F5900085F5900085F590008D8
:1058D0005F590008196001089D600108CD61010849
:1058E0005F5900085F5900085F5900085F590008B8
:1058F0005F5900085F5900085F5900085F590008A8
:105900005F590008CD2301085F5900085F5900085E
:105910005F5900085F5900085F5900085F59000887
:105920005F5900085F5900085F5900085F59000877
:10593000DFF80CD000F082FC0048004731E001089D
:10594000E09300200648804706480047FEE7FEE750
:10595000FEE7FEE7FEE7FEE7FEE7FEE7FEE7FEE71F
:10596000195F01083159000810B5441A03469442E2
:1059700009D28418114403E011F8013D04F8013DF7
:10598000521EF9D210BD40EA0104A40703D009E079
:1059900010C9121F10C3042AFAD203E011F8014BF8
:1059A00003F8014B521EF9D210BDD2B201E000F84B
:1059B000012B491EFBD270470022F6E710B51346B3
:1059C0000A4604461946FFF7F0FF204610BD70B5A1
:1059D000064616F0CBFE046805460A220021304632
:1059E00000F0F6FA2C6070BD70B5064616F0BEFEEB
:1059F000046805460A220021304600F0E9FA2C60CE
:105A000070BD2DE9FE4F804681EA0300C00F0C46B1
:105A1000009021F0004123F00045B8EB0200A941BD
:105A200005D24046214690461C460B46024623F0CE
:105A30000040104347D0270DC7F30A00C3F30A51B3
:105A40000290401A019040286BDAC3F3130040F42F
:105A5000801B0098924620B10023D2EB030A63EB2F
:105A60000B0B01985946C0F14002504600F031FA44
:105A700006460D4650465946019A00F049FA10EB89
:105A800008006141002487EA115284EAE7731A434F
:105A900040D0009A62B3019A012A4FEA075215DCFE
:105AA000001B61EB02014FF0004202EA0752CDE910
:105AB0000042001C41F5801132462B4600F006FBE7
:105AC00003B0BDE8F08F40462146F9E7001B61EBCB
:105AD0000201001C41F5801300185B412018A2F55B
:105AE000001747EB030140EAD570B6196D4111E08C
:105AF0006D084FEA360645EAC0754FEA0752001BAB
:105B000061EB0201001C41F5801149084FEA3000A9
:105B10000019514132462B4603B0BDE8F04F00F06A
:105B2000C6BA0098012240000023D0EB020263EBCA
:105B3000E073009821464FEAE074B8EB000061EB97
:105B40000401E9E783F000435BE781F0004158E797
:105B50002DE9FE4F81EA030404F0004421F00041E6
:105B600000944FF0000B23F0004350EA01045ED094
:105B700052EA03045BD0C3F30A54C1F30A552C4420
:105B8000A4F2F3340194A0FB0254C1F3130141F4D5
:105B90008011C3F3130343F4801301FB024400FBA1
:105BA000034E840A970A44EA815447EA8357A4FBC8
:105BB000076802958D0A05FB07854FEA932C04FBC5
:105BC0000C542705029D4FEA065847EA1637B5EBF5
:105BD00008056EEB070C870E920E47EA811742EA22
:105BE0008312A7FB0201B6EB0B0164EB00042B0D43
:105BF00043EA0C335E1844EB1C50DA465146E7FB8F
:105C00000201C5F313044FEA0B3343EA14534FEA7E
:105C10000432019C43EA0603A4F10C040294009CA4
:105C2000CDE900B400F052FA03B0BDE8F08F0020D7
:105C30000146F9E72DE9F04D81EA030404F0004B39
:105C400021F0004514464FF0000A23F0004150EACD
:105C5000050220D054EA01021DD0C5F30A570246BE
:105C6000C5F31303C1F31300C1F30A5640F48015C2
:105C700043F48013A7EB0608101BD64608F2FD3844
:105C800073EB050002D308F1010801E092185B41B3
:105C9000B8F1000F03DA00200146BDE8F08D0020C6
:105CA0004FF48011064684460EE0171B73EB050780
:105CB00005D3121B63EB050306434CEA010C4908AC
:105CC0004FEA300092185B4150EA0107EDD152EAE9
:105CD000030012D082EA040083EA0501084305D0DC
:105CE000101BAB4106D20122002306E000224FF038
:105CF000004302E06FF0010253101AEB06004CEB78
:105D0000085110EB0A0041EB0B01BDE8F04D00F02B
:105D1000CEB9C10F80EAE0700844CA07962300217B
:105D200000F097B90EB5C10F80EAE0700844CA07C9
:105D3000002140F233438DE80E000A460B4600F086
:105D4000C5F903B000BD70B5C1F30A5201F00045BA
:105D50000024C1F3130140F2FF3341F480119A4251
:105D600001DA002070BD40F233439A42A2F233427E
:105D700003DC524200F0BCF800E090402C43F1D02C
:105D8000404270BDC1F30A5210B5C1F3130140F295
:105D9000FF3341F480119A4201DA002010BD40F235
:105DA00033439A42A2F2334203DC524200F0A0F89D
:105DB00010BD904010BD00F0004230F000400AD00D
:105DC000C10D01F56071C0F3160042EA0151C2082D
:105DD00040071143704700200146704730B5041E4C
:105DE00071F1000404DB4FF00044404264EB010118
:105DF000141E73F1000405DB1C464FF000435242B1
:105E000063EB0403994208BF904230BD01F00043A8
:105E100030B421F0004150EA010206D00A0DA2F58B
:105E20006072C1F31301002A02DC30BC002070470D
:105E3000440F44EAC104C100E01830BC00EBC2507A
:105E400000F0FEB830B50B460146002020220124A8
:105E500009E021FA02F59D4205D303FA02F5491B38
:105E600004FA02F52844151EA2F10102F1DC30BD4E
:105E70002DE9F05F0546002092469B46884606467F
:105E8000814640241BE0284641464746224600F012
:105E90002FF853465A46C01A914110D3114618465E
:105EA000224600F016F82D1A67EB01084F462246ED
:105EB0000120002100F00DF817EB00094E41201ED3
:105EC000A4F10104DFDC484631462A464346BDE8DA
:105ED000F09F202A04DB203A00FA02F100207047EC
:105EE0009140C2F1200320FA03F319439040704718
:105EF000202A04DB203A21FA02F00021704721FA1F
:105F000002F3D040C2F12002914008431946704785
:105F1000202A06DBCB17203A41FA02F043EAE0736D
:105F200006E041FA02F3D040C2F12002914008435A
:105F3000194670470FB4002300B589B00CA9009131
:105F40000B996FF00042CB601E4B06931E4B0793DC
:105F50000423CDE901321D4A089202466B46002017
:105F600000F00CFA09B05DF814FB70B586B0064677
:105F70004FF0FF300091CDE90101002015460C469D
:105F800004903246694604A8FFF7D4FF03460498FC
:105F9000211825B108B10A4600E022462A600028EF
:105FA0000DD0002B02DD0098884208D0081B009419
:105FB000CDE901043246694604A8FFF7BBFF06B0ED
:105FC00070BD0000B5650008D3650008696200086F
:105FD0002DE9F04791460F4680460446002614F806
:105FE000015B2DB100F03CF90068405DC007F6D1BF
:105FF0002B2D02D02D2D18D0641E4A46394620463E
:1060000000F0F8FA27B13968A14201D1C7F8008041
:1060100071054FF002040BD54042002803DD16F055
:10602000A5FB0460A007BDE8F08746F48066E4E7BE
:106030000028F8DA16F09AFB04606FF00040F2E7EF
:106040000029A8BF7047401C490008BF20F001008C
:10605000704710B4B0FA80FC00FA0CF050EA01046A
:1060600004BF10BC704749B1CCF1200421FA04F4FC
:1060700011FA0CF118BF012121430843A3EB0C01D5
:10608000CB1D4FEA00614FEA102042BF002010BC38
:10609000704700EBC35010440029A4BF10BC7047E8
:1060A000401C490008BF20F0010010BC704710B52B
:1060B000141E73F1000408DA401C41F1000192182B
:1060C0005B411A4301D120F0010010BD2DE9F04DD4
:1060D00092469B4611B1B1FA81F202E0B0FA80F229
:1060E00020329046FFF7F5FE04460F4640EA0A00CC
:1060F00041EA0B0153465A46084313D0114653EA6E
:10610000010019D0C8F140025046FFF7F1FE0546E4
:106110000E46504659464246FFF7DBFE084305D07F
:10612000012004E020463946BDE8F08D00200543FB
:1061300046EAE0762C4337430A986305E40AA0EB6D
:1061400008000022FD0A44EA47540A3002D5002024
:106150000146E9E7010510196941DDE90845001923
:106160006941BDE8F04DA2E72DE9F04D00231A4644
:106170001B1A8A4103DB00200146BDE8F08DC1F304
:106180000A52C1F3130141F480154FF0000BD107FF
:1061900002D100186D41521E0027044640F2FF1143
:1061A000384601EB620A3E468046024600204FF424
:1061B0008011FFF79DFEC2197141BB1846EB01002B
:1061C000B4EB030C75EB000C04D3E41A65EB00058B
:1061D00017460E46241908F101006D418046342807
:1061E000E3DDF91946EB0600091BA84103D24FF085
:1061F000FF32134601E0002213461BEB070046EB7B
:106200000A51BDE8F04DFFF752BFC1F30A52C1F386
:10621000130140F2FF3341F480119A4202DA002068
:106220000146704740F233439A42A2F2334202DC05
:106230005242FFF75DBEFFF74CBE0000064C074D13
:1062400006E0E06840F0010394E807009847103446
:10625000AC42F6D3FFF770FBA8F70208C8F70208B4
:10626000004870473CEE020810B50446FFF7F8FFFF
:106270000068005D00F0010010BD00002DE9FF4F37
:10628000087881B09946FF2805D0491C2D2804D0F4
:106290000024002308E000230BE00124F9E703EBCE
:1062A000830300EB4303491C0878FF28F7D104B1AE
:1062B0005B4200200090147801462D2C01D02B2C3D
:1062C00004D1521C2D2C12D00024009400251678E5
:1062D000FF2E0ED00A24A0FB04C801FB0481002776
:1062E00000FB0711521C16EB0C006941EFE701247B
:1062F000EBE7994450EA01020ED00024AA4D26464D
:10630000DFF8A88200F0D3F982468B46B9F100008D
:1063100009DAC9F100071BE001980021C0E900116A
:1063200005B0BDE8F08F074612E0F80707D0224617
:106330002B4630464146FFF70BFC06468846224670
:106340002B4610461946FFF703FC04460D467F1006
:10635000002FEAD1B9F1000F324643465046594664
:1063600002DAFFF767FC01E0FFF7F2FB009A0AB1DF
:1063700081F00041019AC2E90001D1E72DE9FF4F08
:106380001F468DB0D7E901464FF0FF382E20454615
:106390004FF000090B90B9696D1C0E988847396A57
:1063A000824688470028F6D1BAF1FF3F0AD024F48C
:1063B000D064002E11DDBAF12B0F08D0BAF12D0FE9
:1063C0000BD102E0404611B0ABE744F48064B969F8
:1063D0006D1C0E9888478246761E6946600501D579
:1063E0002D2000E02B208DF8000001F1010B0DF1B4
:1063F000200809E0B9696D1C0E98884782460F98FD
:1064000044F40074761E0560002E02DDBAF1300FF0
:10641000F0D00B998A453ED144F0800406E00F99F4
:10642000681CA9F1010944F400740860B9696D1C85
:10643000761E0E98884782463028F0D02BE00B99C4
:106440008A4505D1200603D444F08004761E18E066
:10645000504616F0C5FA08B30DF11301761E44F448
:1064600000748B4508D2AAF130000BF8010B20060E
:1064700007D5A9F1010003E0200602D409F10100CB
:106480008146A00502D50F99681C0860B9696D1C8A
:106490000E9888478246002ED1DC53E0002E51DD55
:1064A000BAF1650F02D0BAF1450F4BD1A00549D51D
:1064B000B9696D1C24F44074761E0E988847824694
:1064C000002E0CDD2B2804D0BAF12D0F07D144F497
:1064D0008074B9696D1C0E9888478246761EE00567
:1064E00001D52D2100E02B2108F8011BCDF82C80CF
:1064F00021E00DF12901761E44F4007488450CD288
:10650000AAF1300010F0FF0088F8000002D10B99CA
:10651000884509D908F1010806E0E00501D52448BD
:1065200001E042F20F708146B9696D1C0E988847F0
:1065300082460F980560002E04DD504616F050FA92
:106540000028D6D1F9690E988847FF208BF8000003
:1065500088F800000020069007904B466A4608A97C
:1065600006A8FFF78BFEA00502D46FF001002AE712
:1065700014F0240F0AD0E00714D1DDE906123868C0
:10658000031D3B600068C0E900120BE0DDE9060175
:10659000FFF73CFC0146E00704D13868021D3A6071
:1065A0000068016028460EE7000024400000F03F2C
:1065B000F1D8FFFF426842B1016811F8013B23B1F5
:1065C000521EC0E90012184670470121C160881EA2
:1065D000704742685AB1C368016843B983688B4207
:1065E00005D0491E521CC0E90012002070474FF030
:1065F000FF3070472DE9F05F82460078002715468E
:106600008B460AF10104B946302801D09DB113E050
:1066100014F8010B0127782803D0582801D045B180
:106620000AE00DB1102D07D10027102514F8010B39
:1066300002E0082500E00A250026B0460EE005FB32
:10664000080005FB06F1012701EB10461FFA80F850
:10665000B6F5803F00D3B94614F8010B294600F087
:1066600018F80028EBDABBF1000F05D00FB1641E5B
:1066700000E05446CBF80040B9F1000F06D016F008
:1066800075F802210160C81EBDE8F09F48EA064087
:10669000FAE73A2800D2303820F02002412A01D30C
:1066A000A2F13700884201D34FF0FF3070470EB59A
:1066B00040F2334202920022CDE900221346FFF756
:1066C00005FD03B000BD70B58C1810F8015B15F026
:1066D000070301D110F8013B2A1106D110F8012B54
:1066E00003E010F8016B01F8016B5B1EF9D12B0779
:1066F00005D40023521E0DD401F8013BFAE710F82F
:10670000013BCB1A921C03E013F8015B01F8015B1B
:10671000521EF9D5A142D8D3002070BD002800DC5C
:106720004042704707490020C1F8A4010120C1F888
:10673000AC010549C1F89C010449C1F88C01C1F8BC
:106740009801FEE70000244200002242008022421D
:106750002DE9F05FDFF8FCE04FF0000C67469EF893
:1067600000104FF0010A3C4D3C4EE346DFF8F0804C
:10677000DFF8F09007E037B1012F0BD0022F12D0D5
:10678000032F21D118E0C5F8A4B1C6F88CA1C5F833
:1067900094A10EE0C5F8A4A1C6F88CB1C5F894A1E7
:1067A000C5F898A110E0C5F8A4A1C6F88CA1C5F859
:1067B00094B1C5F898A107E0C5F8A4A1C6F88CA1CA
:1067C000C5F894A1C5F898B10020401CC0B20A28B1
:1067D000FBD3002009EB87030FE070B1012808BF4D
:1067E000D5F828210BD0022808BFD6F8182106D0EA
:1067F000032808BFD8F8182101E0D5F82C215CEA5D
:10680000020408BF195C401CC0B20428E5D3781C00
:10681000C7B2042FAFD3144874468EF8001071B17C
:10682000627892B900686268801A64280DD9617034
:1068300017F0DAFB84F800B06078BDE8F09F61786B
:1068400019B10068606084F801B08EF800B00020D3
:10685000BDE8F09F6C01002000002442008022422D
:106860000000224274ED01083800002010B501201C
:106870000AF01EFCBDE8104000200AF019BC81B0EF
:1068800000F1804000F5D8400090008801B07047CA
:106890002DE9F047ADF5187D0021BF4808F0B8FAA2
:1068A0004FF4407008F0AAFABC484FF47A714FF0E8
:1068B00000080068B0FBF1F0411EB1F1807F0AD200
:1068C0004FF0E0204161B64AF02182F8141DC0F873
:1068D000188007210161012140200AF0ADFB01F081
:1068E00045FFB048D0F82001AF4D012400280CBF6F
:1068F0002C7085F8008003F0CBFC042010F030FBF6
:10690000AA4808F099FB01200FF07EFB04F080FB01
:10691000012004F0BBFA022004F036FA0CF004FE69
:106920002878022601284FF01403009600F00E810B
:10693000E8225F21142008F0CEFA054600239CA22D
:106940006FF00E015FF0500005F092FD0121284626
:1069500008F080FB012003F03FF84FF4614017F08E
:1069600063FCDFF864A2504604F0CAF9DFF85C92D9
:1069700099F80000002800F0F780012800F0FA8064
:10698000FF2004F0BDF9DC22502191A003F0CAF8E9
:10699000F623322291A102A815F0D4FE02AFCDE970
:1069A0000078DC224FF4F07351000A200AF02AFB31
:1069B0000CF014FEA0F56F41163908BF07F0B2FBCA
:1069C0001E21284608F046FB8748006807F036FC81
:1069D0004FF0FF1004F094F984A0CDE900043223B5
:1069E00040F2D7120F2100200AF00CFB6FF07F401D
:1069F00004F086F984A0CDE9000419234FF48772CE
:106A00006FF0090100200AF0FDFA844804F078F9DB
:106A10004FF4165017F064FB4FF4E13017F0AAFB67
:106A200099F800107E48DFF8FC91002918BFC9F8DA
:106A30008C41C9F89441C0F8844118BFC9F8984105
:106A40004FF40A717848FEF7B7FF0BF08DFE014650
:106A500076482A2979D080F80080FF2004F050F988
:106A600073A000BF15F05EFEDC224FF4C87174A065
:106A700003F058F81421284608F0ECFA012002F03F
:106A8000ABFF0AF0E1FC7048C0F884414FF4F072AB
:106A90006E491CA8FEF768FF012148070AF0D8FAE2
:106AA000012105200AF0ECFA2020ADF800001820A2
:106AB0008DF8030003208DF802006946644802F057
:106AC00023F8012102200AF0B7FA00F03BFD94A858
:106AD00000F069FDCDF85082CDF8548294A91020C1
:106AE000CDF85C8200F03AFD0121102000F0D6FCC8
:106AF000C9F88C41574808F0BFFB28242146284696
:106B000008F0A8FA142002F067FF611C0CB2502CA8
:106B1000F4DB9F2408F01EF822464FA102A815F0CE
:106B200011FECDE90076DC234FF4F072A0210020A5
:106B30000AF068FA0BF0F8F928460FF09DFF03F011
:106B40004BFA0DF5187DBDE8F0871AE040F24912C6
:106B50004FF49671482008F0BEF9054600235021F5
:106B600013A2B420F0E600BF4FF4E6720A213CA065
:106B700004E000BF4FF4E6720A213BA002F0D2FF0E
:106B800006E70470504604F0BBF800220DA1264829
:106B900016F0F6FB36A065E700580008200000203C
:106BA0000FE000E00080234201000020B5EF000864
:106BB000303A616E692F41303030302F303032380A
:106BC0002E626D700000000080FF80000000002039
:106BD00048573A20556E6B6E6F776E005625642EBF
:106BE000253033640000000008000020D8B3D98AA3
:106BF000D985D8B1D8BA20D8ACD987D8A7D986DA60
:106C0000AFD8B3D8AAD8B100D8AFD8B1D8A820D8B7
:106C1000A7D8AAD988D8A8D988D8B30000FFFF0080
:106C20000000214200002342D81A00201D0000204D
:106C30000A0D4D6963726F5344204552524F520002
:106C40004D6963726F5344000000224280EB0108DB
:106C5000000801403C750008202564202A2000001F
:106C600048573A205631000048573A205632000023
:106C70000A0D4D6963726F5344204F4B00000000B2
:106C8000FEE7CA78120202608B781A441202026090
:106C90004B781A441202026009781144016070476F
:106CA0002DE9F04F8846824691460421052000F0E8
:106CB00003FB80210A200DF059FB0025274C0127FA
:106CC0002E46B8F1000F0FD91AF805B0C4F8B46118
:106CD000122017F0B5F9584617F0B2F9C4F8B4719C
:106CE000681CC5B2A845EFD80325C4F8B4610220DA
:106CF00017F0A6F9284617F0A3F9C4F8B471FF25D8
:106D00004FF08A08C4F8B461404617F099F90020A2
:106D100017F096F9C4F8B471691E11F0FF0502D09E
:106D200010F0040FEED0C4F8B461C42017F088F955
:106D3000002017F085F9C4F8B47189F80000C4F890
:106D4000B461C22017F07CF9002017F079F9C4F87B
:106D5000B47189F80100BDE8F08F00000000244202
:106D600010B582B00122002113A005F0BDFD040082
:106D700004BF02B010BD0122002113A005F0B4FD34
:106D8000002804BF02B010BD844208D11348C46477
:106D90000CF05CFF012008F045F802B010BD0421A2
:106DA0004FF47A70CDE90001002301220CA11846AE
:106DB0000DF084FF02B010BDD8B1D985D8B220D86B
:106DC000ACD8AFD98AD8AF00D8AADAA9D8B1D8A799
:106DD000D8B120D8B1D985D8B2000000EC04002089
:106DE000D8B1D985D8B220D8A7D8B4D8AAD8A8D82D
:106DF000A7D98720D8A7D8B3D8AA00002DE9F04793
:106E00000024DFF89491C2B02646274661A1484687
:106E10000FF0CAFB61A005F02DFD00281EBF012068
:106E200042B0BDE8F0875EA148460FF0BDFB5FA011
:106E300005F020FD00281EBF022042B0BDE8F0870B
:106E4000DFF8748198F8FD01022809D0032801D0E9
:106E5000142805D059A148460FF0A6FB5A4D0BE067
:106E60005AA148460FF0A0FBF8E748460FF082FB16
:106E7000601CC4B20C2C02D2295D0029F5D123215B
:106E800048460FF077FB0D2148460FF073FB43A0F7
:106E900005F0F0FC00281EBF032042B0BDE8F087DB
:106EA0004D4C2068DFF834A1C5B241F270792068FA
:106EB000854203DC2068401B484503DB42B00020CC
:106EC000BDE8F087DAF81800B8B102208DF80000AC
:106ED0000B208DF80100B8F800008DF80200000AC0
:106EE0008DF8030000208DF804008DF805001F20A8
:106EF0008DF8060007246D4611E0012002F06CFDBC
:106F0000D5E73046711CCEB20A2824BF9DF8000197
:106F1000202804D3C82802D82855601CC4B240A831
:106F200001F028FF002818BFDC2CEAD3A01FC117EE
:106F300000EB11618DF80400080A8DF80500601C53
:106F4000C0B22F55390A2954401CC0B2032129541C
:106F5000401CC6B22248007810B101280ED011E0C2
:106F60000024002E88BF1F4F0CD9295D38460FF032
:106F700001FB601CC4B2A642F7D803E06946304664
:106F800001F022FE012007F04DFF42B00020BDE8D5
:106F9000F087000061740A00004800404F4B000079
:106FA00061742B637265673F0A00000043524547D6
:106FB0003A20302C31000000EC0400206174642A77
:106FC0003134312A000000002B6000206174642AF3
:106FD0003134302A230000003800002088000020CF
:106FE000EB0100200038014030B5194CDFF864C0D7
:106FF00083B0FB2804BFA1F56852B2F1A20215D0FC
:10700000DCF80420824202BF002003B030BD12A38E
:107010000A22CDE900230B460246002102200DF092
:10702000CDFA0320606203B0012030BDDCF800001F
:107030000125012812BFCCF800500220CCF8000036
:10704000022007F0EFFE0CF001FE6562EBE70000A6
:10705000E0010020EC040020000000002DE9F04FCA
:107060006A4D002483B028782646AA284CD1286A85
:10707000002818BFB0F1FF3F46D065480027202107
:10708000078064480770644807706448FEF794FC02
:107090000CF0E6F900200CF0F3F9642002F09CFCFF
:1070A0005E4A202100200CF0EFFD0CF0D9F93420CD
:1070B0000CF0E6F9642002F08FFC00970023012217
:1070C00057A1022001970DF0F9FD5048DFF87091AB
:1070D000016AD9F8080081421AD0002300970122E2
:1070E00058A1184601970DF0E9FD484847624FF452
:1070F000FA60C9F8087002F06FFC5B490320086071
:1071000003B00120BDE8F08F03B00120BDE8F08F8F
:107110000025DFF858B1DFF804814AF6AA2A0028D2
:1071200003D817E0B0F5806F0BD1CBF800A04FF477
:10713000806205F5007139480CF026FAD9F808107C
:1071400000206D1C18F80020401C1644224494B204
:107150008D42E7D32D4D686AB04215D000230097C9
:10716000012243A1184601970DF0A8FD6F624FF46C
:10717000FA60C9F8087002F02FFC3B490320086050
:1071800003B00220BDE8F08FCBF800A0C22088F841
:10719000000088F80140200A88F80200D9F8081099
:1071A00088F803100A0A88F804200A0C88F80520D9
:1071B000090E88F80610552088F807000CF050F9E1
:1071C00000200CF05DF9642002F006FC134A202137
:1071D00000200CF059FD0CF043F934200CF050F96C
:1071E000642002F0F9FB002300971A4628A1022030
:1071F00001970DF063FD40F6B83002F0EDFB4FF45F
:10720000C07250217F2010F0D7FBFEE7807B00206A
:10721000F4010020ED010020E8010020EC7B0020BB
:10722000D8A8D8B1D8B1D8B3D98A20D986D8B3D8FC
:10723000AED98720D8ACD8AFD98AD8AF000000002B
:10724000CC010020D8AED8B7D8A720D8AFD8B1206D
:10725000D8ADD8ACD98520D8A7D8B7D984D8A7D8E5
:10726000B9D8A7D8AA0000000402002000300040CE
:10727000D8AED8B7D8A720D8B5D8ADD8AA20D8A727
:10728000D8B7D984D8A7D8B9D8A7D8AA0000000001
:10729000D8A8D8B1D986D8A7D985D98720D8ACD8CD
:1072A000AFD98AD8AF20D8AFD8B1D98AD8A7D981D9
:1072B000D8AA20D8B4D8AF002DE9F041114D00264E
:1072C0000F460446C5F8B461802040EA4400C0B2CD
:1072D00005F5DA7516F0B4FE002016F0B1FE4FF099
:1072E0000108C5F8008020EA07072E607E2000EA2A
:1072F000440016F0A5FE384616F0A2FEC5F8008040
:10730000BDE8F0810000244270B5464905462A24B4
:10731000486B10F0450F03D1486B10F0450FFBD0C0
:1073200010F0040F05D0032404200AF0E3FF2046E8
:1073300070BD10F0010F05D0012420460AF0DAFFDD
:10734000204670BD0BF016F8A84234D140F2FF5031
:107350000AF0D0FF00200BF02FF8334908425ED02E
:1073600010F0004F1CBF1C2070BD10F0804F1CBFE0
:10737000092070BD10F0005F1CBF0A2070BD10F026
:10738000805F1CBF0B2070BD10F0006F1CBF0C2075
:1073900070BD10F0806F1CBF0D2070BD10F0807F9D
:1073A0001CBF0E2070BD10F4000F1CBF0F2070BD5D
:1073B00010F4800F01D0102070BD10F4001F1CBF0E
:1073C000112070BD10F4801F1CBF122070BD10F47E
:1073D000002F1CBF132070BD10F4802F1CBF142081
:1073E00070BD10F4003F1CBF152070BD10F4803F2D
:1073F0001CBF162070BD10F4004F1CBF172070BDBD
:1074000010F4804F1CBF182070BD10F4005F1CBF2B
:10741000192070BD10F0080F1CBF1A2070BD204647
:1074200070BD00000080014008E0FFFD2DE9F00183
:107430000025DFF864C02C462026ACF1480720E088
:107440007A2B9DBF0B55621C94B2002217D900BF46
:107450001CF80280434504D0521C92B2242AF7D370
:1074600001E0242A02D30E55621C07E037F81220EF
:10747000130A0B55631C9BB2CA545A1C94B26A1C63
:1074800095B2435D002B18BFC82DD9D300200855F5
:10749000BDE8F0017047000060E60108054A0123DD
:1074A00003FA00F00029116814BF084321EA000024
:1074B000106070470074004000B5FDB04FF4F072EA
:1074C0001B496846FEF750FA0121480709F0C0FD44
:1074D0000121052009F0D4FD2020ADF8F00118208D
:1074E0008DF8F30103208DF8F2017CA9114801F019
:1074F0000BFB0121022009F09FFD00F023F878A882
:1075000000F051F80020789079907B9078A91020B5
:1075100000F024F801211020FFF7C0FF06490120E8
:10752000C1F88C0105A007F0A7FE7DB000BD0000EA
:1075300080EB0108000801400000234231322E7721
:107540006176000010B50121480709F08DFDBDE806
:10755000104000214FF0005009F086BD0B4B10B4D5
:107560001A6840F6FE7C0CFA00FC22EA0C02D1E913
:1075700000C44CEA040CD1E9024121434CEA010168
:1075800001FA00F01043186010BC7047007400400E
:10759000A0F6EC3081B000F1804000F50040009092
:1075A000016001B070470021016041608160C160ED
:1075B0007047000010F0805F19BF0249086002495F
:1075C000486070470404024000000240002901683E
:1075D00012BF41F001014FF6FE7211400160704789
:1075E000002110F0805F14BF034A044A126802426F
:1075F00018BF012108467047000402400000024005
:1076000010B40268D1F820C08B686FF30E1243EA01
:107610000C03D1E904C44CEA040C43EA0C03D1F88E
:1076200018C043EA0C03D1F81CC043EA0C03D1F89C
:1076300024C043EA0C03D1F828C043EA0C031A43E0
:107640000260CA6842600A6882604968C16010BC12
:107650007047704710B50C4C0AA120460EF0A4FFED
:107660000AA005F007F900281CBF012010BD08A1E1
:1076700020460EF099FF05A005F0FCF8002818BF81
:10768000022010BD61740A00004800404F4B00000A
:1076900061742B636D67643D312C340A0000000077
:1076A0002DE9F0478046494882B0914600780F4660
:1076B00000281CBF02B0BDE8F087DFF814A15046D7
:1076C00003F01EFB434D03240094287840F2DB12A4
:1076D00000F20F1300F1FA0140F2451002F006FD2E
:1076E0004FF6FF7003F00CFB0094287840F2DB1299
:1076F00000F20F1300F1FA0140F2451002F024FCF1
:107700006FF07F4003F0FCFA0226CDE9009640F2CC
:107710000F1340F2DB12F02140F2451009F072FC29
:10772000504603F0EDFA0094287840F23B1200F244
:107730000F1300F1FA01A52002F0D8FC4FF6FF70FC
:1077400003F0DEFA0094287840F23B1200F20F13A7
:1077500000F1FA01A52002F0F7FB6FF07F4003F083
:10776000CFFACDE9007640F20F1340F23B12F02140
:10777000A52009F047FC504603F0C2FA009428788F
:107780009B2200F20F1300F1FA01052002F0AEFC7B
:107790004FF6FF7003F0B4FA009428789B2200F2B1
:1077A0000F1300F1FA01052002F0CEFB6FF07F40CD
:1077B00003F0A6FACDE9008640F20F139B22F021D8
:1077C000052009F01FFC02B0BDE8F0870000002092
:1077D000006C0B00040000202DE9F04F83B09A46A6
:1077E000164689468346072A0FD22EB1062E08BFB9
:1077F000B9F1070F03D004E0B9F1070F01D34FF03F
:10780000010A0027002425468FE0B01F4FF0010A2F
:10781000C7B2F7E72234BAF1000F04D17819B042A9
:1078200018BF48457BD17819B04210D10620454A8F
:1078300000904549CDE9011204F1210340F2D7122D
:10784000A11C002002F066FA4FF6FF701CE0002039
:1078500003F056FA0620009004F1200340F2D712FC
:10786000E11C002002F042FC6FF07F4003F048FA78
:107870000620009004F1210340F2D712A11C002041
:1078800002F062FB4FF47F4003F03AFA98F81C00D4
:1078900018B3642816D3A0F16401012088402B4955
:1078A00080B24FF001030978884305D028A2A11DBA
:1078B000E62004F0DDFD16E026A2A11DE62004F07E
:1078C000D7FD10E021494FF001030978884205D126
:1078D00021A2A11DE62004F0CBFD04E01FA2A11D02
:1078E000E62004F0C5FD1E48D8F810C0002301783A
:1078F000ADF80030601A00F123020844ADF8020030
:1079000040F2CD138818ADF804304FF00108ADF8FF
:107910000600434642466946604602F00BF96D1C7C
:10792000072DA4BF03B0BDE8F08FE8190BEB40189A
:10793000D8F80000007800287FF46CAF03B0BDE8F1
:10794000F08F00000028280000DCDC00CB010020C4
:1079500030313000303131003031350030313400D9
:10796000040000202DE9F04F0027DFF8C4B0DFF855
:10797000C4A083B09146804623243D46E81908EB15
:10798000401630680078002804BF03B0BDE8F08FCF
:10799000781948450ED128492848CDE9000104F15D
:1079A000230340F2DF122146002002F0E9F94FF6EE
:1079B000FF700EE06FF07F412148CDE9000104F136
:1079C000230340F2DF122146002002F0D9F94FF4E0
:1079D000004003F095F9307F9BF80010884206D1F3
:1079E000012318A2611D40F2C71004F041FD0023DD
:1079F0003069ADF800304FF4E173ADF804309AF817
:107A0000003004F12301194403EB040C0122ADF80A
:107A10000610ADF802C01346694602F08BF804F177
:107A200023006D1CC4B2082DA8DB03B0BDE8F08FA5
:107A3000CB0100200400002041ACFF000160F700F2
:107A4000E4DFDA00303A69636F6E732F72312E62B1
:107A50006D70000000B583B00BF002FD00200BF04C
:107A60000FFD642001F0B8FF012200210FA004F0F7
:107A70003BFF39284FF000001CBF03B000BD009051
:107A8000002301901A4612A118460DF017F90BF0C9
:107A90000BFD06F0B1FC0BF0E3FC34200BF0F0FC26
:107AA000642001F099FF03B000BD0000212121D81E
:107AB000ADD8A7D981D8B8D98720D9BED8A7DAA997
:107AC00020D985D98A20D8B4D988D8AF21212100DE
:107AD000D8A2D985D8A7D8AFD98720D8B3D8A7D866
:107AE000B2D98A20D8ADD8A7D981D8B8D987000013
:107AF00010B56FF07F4003F003F90F21052208460F
:107B000002F084FA0E4CA07870B16078002808BFAB
:107B100010BD282020700B480078AA280DD0002026
:107B200020706070012010BD0AF0C0F9A078002814
:107B30001CBF60780028ECD1F4E70AF075F9F1E792
:107B4000CC010020807B0020024800218160416040
:107B5000C1607047B401002010B400220F4B012413
:107B6000944600BFC3F88841C8210020C1EB011131
:107B700000BF401CB0EB410FFAD3C3F888C15021BD
:107B80000020C1EB011100BF401CB0EB410FFAD344
:107B9000521CB2F5C87FE5D310BC704700002342E9
:107BA0002DE9F04F002583B00446A84601F044FEBD
:107BB000DFF86091DFF860A15848CDE900A90178AD
:107BC0004FF4887201F12303002002F0D9F8012359
:107BD0002A4600212046FFF7FFFD514E376844F644
:107BE000206B3068C01B584570D20CF0EDF80028AF
:107BF00018BF3768F5D00F2868D008DC0B2842D0B2
:107C00000C2828D00D280AD00E28EAD17DE01E28A5
:107C10007BD04C2837D052281DD07828E1D104EBF6
:107C20004511087F002852D0642838BF804660D3B1
:107C3000A0F164010120884080B230EA080103BF4E
:107C40004FF6FF71484000EA080848EA000018BFF4
:107C500000F0FF084DE004EB4510006A007850B1D9
:107C6000681CC2B20090002329462046FFF7B4FDED
:107C70000098C5B2B5E700231A4629462046FFF70B
:107C8000ABFD0025ADE7002D08BF00200AD0681E1F
:107C9000C2B20090002329462046FFF79DFD0098C0
:107CA000C5B29EE704EB40110968097800291CBFA2
:107CB000401C80B2F6D1401EC2B20090002329467B
:107CC0002046FFF789FD0098C5B28AE71DE0886964
:107CD00078B18047642814D00CF076F801F0ACFD40
:107CE000CDE900A9002123234FF48872084602F051
:107CF00047F837682A46012311462046FFF76CFDF6
:107D00006FE703B00020BDE8F08F03B04046BDE848
:107D1000F08F00000A0A0A00EAE6E30004000020EF
:107D200038000020F0B583B00F460546002401F06E
:107D300083FD23492348CDE9000123484FF4F07225
:107D40000178002001F1230302F01AF822460021F5
:107D50002846FFF707FE00BF0CF036F80F2808D0C2
:107D60000ADC0B2821D00C2811D00D280AD00E28AF
:107D7000F2D103B03846F0BD4C2816D0522806D0B8
:107D80007828E9D105EB4410007F03B0F0BD05EB86
:107D90004410006A00780028DED0661CF2B221464A
:107DA0002846FFF7DFFDF4B2D6E7002CD4D0661EDC
:107DB000F2B221462846FFF7D5FDF4B2CCE7000029
:107DC0000A0A0A00EAE6E300040000202DE9F04F69
:107DD0004FF000087D4FD1B04446C146C2464546EB
:107DE00079A138460EF0E0FB79A004F043FD0028AD
:107DF0001EBF012051B0BDE8F08F76A138460EF0CD
:107E0000D3FB77A004F036FD002817BF0220774E81
:107E100051B0BDE8F08F06E038460EF0ABFB601CB9
:107E2000C4B2322C02D2315D0029F5D168A004F031
:107E300021FD00281EBF032051B0BDE8F08F6C4C1F
:107E400026686C4F41F2707BB8690A2812D8206806
:107E5000864203D951B00420BDE8F08F2068801B12
:107E6000584503D351B00520BDE8F08F012001F043
:107E7000B3FDE9E702208DF800000B208DF801002A
:107E80005D4820210DF5987B00888DF80200000ADE
:107E90008DF8030000208DF804008DF805008DF8A2
:107EA0000610072407466E4651E000BF9DF82C01DE
:107EB000392804D010DCA0F1300108291ED8BAF10D
:107EC000010F04BF4FF0000A57460BF80700781C5B
:107ED000C7B2042D32D127E061281AD008DC41282E
:107EE00017D0492810D04C2818D052280AD005E0C5
:107EF000692809D06C2811D0722803D000254FF0D2
:107F0000010A1BE0012519E0012D08BF022515D04B
:107F100008E0022D08BF032510D003E0032D08BFA1
:107F2000042501D0002509E0B8F1000F06D100209A
:107F30000BF807004CA8FDF757FD80469DF82C0173
:107F4000202804D3C82802D83055601CC4B24BA8DE
:107F500000F0D8FE002818BFDC2CA7D3A01FC11743
:107F600000EB11618DF80400080A8DF80500601C13
:107F7000C0B206F804904FEA19213154401CC0B237
:107F800003213154401CC5B21C48007810B10128AF
:107F90000ED011E00024002D88BF194F0CD9315D9F
:107FA00038460EF0E7FA601CC4B2A542F7D803E0E9
:107FB0006946284600F008FE012006F033FF51B064
:107FC0004046BDE8F08F000061740A0000480040A0
:107FD0004F4B000061742B637265673F0A0000001D
:107FE000435245473A20302C310000002B600020DE
:107FF0003800002088000020EC040020EB01002065
:10800000003801408000A0F1C0400029016812BF83
:1080100041F00101014A114001607047FEFF0F006D
:10802000D0E901121143D0E903231A4311434269F5
:10803000114382691143C2691143026A1143426AC2
:108040001143826A1143C26A1143026B0A430168F9
:108050008900A1F1C0410A608168082907D101683F
:108060008900A1F1C0410A6842F040020A60416BF8
:10807000D1E9002342EA03128B68B1F80CC01B025D
:1080800043EA0C431A430B8A42EA03520B7D896987
:1080900042EA0362114302689200A2F1C0425160B9
:1080A000C16AB1F5804F08D000686FF07041800060
:1080B000A0F1C040C0F804117047816BD1E90023E2
:1080C00042EA03128B68B1F810C01B0243EA0C535A
:1080D0001A430B7D896942EA0362006811438000FC
:1080E000A0F1C040C0F80411704700002DE9F04332
:1080F0000446C56887B090468946002002F002FE1B
:10810000064625B1287910B146F0020001E026F0BC
:10811000020002F0F7FD2069012558B1D4E90212EE
:108120008DE8260003956388228804684146484606
:10813000A0471EE0124F134B214638681B68427C53
:10814000E068984730B9E088012801D0002001E0BC
:108150003868806BA288E388A1680095CDE9041097
:10816000CDE902320195638822884146484605F0F0
:1081700089F807B03046BDE8F04302F0C3BD000007
:10818000C4020020BC0200201CB50024019401ACF4
:10819000009400F0E7F81CBD2DE9FF4F83B0814645
:1081A00006988A46A0EB0A08109E00200090A2EBD9
:1081B00009043568934654EA080018D02046FEF7B3
:1081C000ADFA07464046FEF7A9FA87420BDA204689
:1081D000444680464846D14682465846DDF818B0A7
:1081E000069001200090002C07DD204606E007B035
:1081F0004846BDE8F04F00F03BB96042A0420AD0CB
:108200004846D9466442C8F1000883464FF0FF371C
:10821000DDF818A000E001275148B8F1000F11D097
:1082200004EBD4714FEA610B01DACBF1000B4C483F
:108230000068807E88B3002F02DA30682044306006
:1082400000257BE000990029016821D0897E11B1C9
:108250000027804615E007B05A4649465046BDE81B
:10826000F04F05F073B928466D1C13F0B7FB38B911
:10827000D8F8000009EB0701C06E426850469047ED
:108280007F1CA742EFDD6D1E356007B0BDE8F08FA3
:108290008A7E1AB10027804617E019E0C86E5A4658
:1082A0005146036807B04846BDE8F04F18472846D6
:1082B0006D1C13F093FB38B9D8F8001009EB0700D8
:1082C000C96E4A68514690477F1CA742EFDDDAE746
:1082D00000250FE008FB05B090FBF4F101EB0A006C
:1082E000009951B11E4A09EB05011268D26E52681D
:1082F00090476D1CA542EDDDC7E7194909EB050361
:108300000968C96E4A6801461846F1E708FB05B0DE
:1083100090FBF4F101EB0A000190306838443060C2
:1083200013F05CFB48B9009890B10D4809EB0501CA
:108330000068C06E4268019890476D1CA542E5DD5B
:108340003068002F01DA20443060C01B30609CE7A9
:10835000034909EB05000968C96E4A680199EBE712
:10836000C40200202DE9FF470F46404916468046CB
:1083700009680C981D460A7E012A1CD0A8EB06004D
:10838000791B50EA01031CD0A2F1010914F00EFA86
:1083900000F58060824604F03DF800FB09F4504689
:1083A00004F03CF800FB09F1002C0CDAC4F5007075
:1083B000801240420AE00090324639464046FFF7BC
:1083C000EBFEBDE8FF8704F50074A012002904DA73
:1083D000C1F5007189124C4202E001F500718C1266
:1083E000002804DD411C01EBD171491003E000EBD2
:1083F000D0714910401E00EBD0704210002C04DDFB
:10840000601C00EBD070401003E004EBD47040100F
:10841000641E04EBD47308EB0104ADF800403C1873
:10842000ADF80240A8EB02045B10B21AADF80440AC
:10843000ADF808203144FC1AEA1AADF80C102844B3
:10844000ADF80A20ADF80E000023ADF806401A463C
:108450000421684600F07AF83946404611F054FB92
:108460002946304611F050FBABE70000C402002063
:10847000064A13681A7E012A05D0521E02EBD272F8
:10848000521000F005B8DA6E52681047C40200209E
:108490002DE9F05F0646884640F2C32050434FF472
:1084A0007A7190FBF1F702FB02F002EBD27100EB64
:1084B000610B254914467F1C09683244301BC96E84
:1084C0000B684146984701253AE000BF05FB05F0DF
:1084D00004FB040159451CDDBC4219DD1A4B06EBB7
:1084E000050AA6EB05091B68AAF1010208EB0401C5
:1084F000DB6E09F101001B689847134BAAF10102DA
:10850000A8EB04011B6809F10100DB6E1B689847AA
:10851000641E0D4806EB040AA6EB0409006808EB8C
:1085200005015246C06E0368484698470648A8EBC6
:10853000050152460068C06E0368484698476D1CA6
:10854000BD42C3DDBDE8F09FC40200202DE9FF4F0E
:1085500040F6FF740F46664283B09B468146002179
:108560000BE000BF09EB8100B0F90200A04200DA85
:108570000446B04200DD0646491CB942F2DB6848B9
:108580000068406900280DD0B0F906101A46A1EB2A
:108590000B01B14200DA0E46B0F90200801AA04287
:1085A00000DD0446B5E0DFF87CA100200546CAF8EE
:1085B000000089E0781E854201DA6B1C00E0002390
:1085C00009EB850C09EB8302BCF90200B2F9021039
:1085D000A04245D1A14215D139F92330059A39F984
:1085E000251003EB020C4E4A05981268084404EB70
:1085F0000B01D26E6045136801DA62462BE0024639
:10860000604628E02846A4464FF000087A1E0BE09A
:1086100008B1401E00E0781E09EB8003B3F9023078
:10862000634504D108F101089045F1DB2346A342DC
:1086300049D0A3EB040239F92500A1EB040C059BFA
:1086400092EA0C0209D4364A184404EB0B01126872
:10865000D26E13680246984735E00FF0E9F932E030
:10866000A14230D001DBA04203DDA0422BDBA142BE
:1086700029DCE04688420ADC0346A04223DC0846A7
:10868000A14220DBB8F900C0B2F9001008E00B46A7
:10869000A14218DCA04216DBB2F900C0B8F9001004
:1086A000E21AA1EB0C0151430029A0EB030202DD09
:1086B00001EB620102E0A1EB6201491CC01A91FBCF
:1086C000F0F06044C9E76D1CBD42FFF673AF05983A
:1086D000009004EB0B00019000208046054613E05B
:1086E0001149B8F1000F31F915A009D0009901EB3B
:1086F0000A0208440A490968C96E0B68019998473B
:1087000088F0010850466D1C064909688D42E7DB78
:10871000641CB4427FF747AF07B0BDE8F08F00009C
:10872000C4020020F80200200C82002010B50020B6
:1087300002F0E2FA6FF07F4002F0E2FA012002F06C
:1087400011FB002002F016FB002002F01DFB0020B0
:1087500002F0D8FA0448006802F0D6FABDE81040EA
:10876000002002F0DBBA0000C00200202DE9F84F23
:108770000121052008F084FC0121092008F080FC7B
:108780000121112008F07CFC0121212008F078FC57
:108790000121412008F074FC0121812008F070FCC7
:1087A000012140F2011008F06BFC1825ADF80050D3
:1087B00048268DF8036003248DF802406946CA48B4
:1087C00000F0A2F9C94801274FF028080770ADF85A
:1087D0000070DFF81CA38DF803808DF80240694615
:1087E000504600F091F94FF48160ADF800004FF071
:1087F00004098DF803908DF802406946504600F058
:1088000083F94FF48170ADF8000010208DF803005B
:108810008DF802406946504600F076F94FF4017039
:10882000ADF800008DF803508DF8024069465046BF
:1088300000F06AF9ADF800708DF803808DF8024001
:108840006946AC4800F060F94020ADF800008DF8B2
:1088500003608DF802406946A64800F055F9F80219
:10886000ADF800008DF803908DF802406946A148EC
:1088700000F04AF941F2A200ADF8000010208DF896
:1088800003008DF8024069469A4800F03DF94FF424
:10889000806AADF800A08DF803508DF8024069465B
:1088A000944800F031F97420ADF800008DF80360B1
:1088B0008DF802406946904800F026F942F23A00ED
:1088C000ADF8000010208DF803008DF802406946D5
:1088D000894800F019F93803ADF800008DF803500D
:1088E0008DF802406946844800F00EF94FF470603C
:1088F000ADF800008DF803508DF8024069467E48BF
:1089000000F002F94FF48250ADF800008DF80360DA
:108910008DF802406946794800F0F6F80820ADF875
:10892000000010208DF803008DF80240694673485E
:1089300000F0EAF84EF63770ADF800008DF80350FD
:108940008DF8024069466D4800F0DEF87C20ADF8F5
:10895000000010208DF803008DF802406946684839
:1089600000F0D2F84FF68370ADF800008DF8035098
:108970008DF802406946624800F0C6F848F2C0200F
:10898000ADF8000010208DF803008DF80240694614
:108990005C4800F0B9F84FF4406BADF800B08DF8CA
:1089A00003608DF802406946564800F0ADF8380281
:1089B000ADF800008DF803808DF8024069465148FB
:1089C00000F0A2F847F23F00ADF800008DF8035028
:1089D0008DF8024069464B4800F096F84AF2202094
:1089E000ADF8000010208DF80300DFF8FC808DF852
:1089F00002406946404600F087F84FF48340ADF8E6
:108A000000008DF803608DF802406946404600F092
:108A10007BF845F21F00ADF800008DF803508DF88B
:108A200002406946404600F06FF88020ADF8000033
:108A30008DF803508DF802406946304800F064F824
:108A4000ADF800A014208DF803008DF802406946AF
:108A5000284800F059F8ADF8007010208DF8030098
:108A60008DF802406946244800F04EF8ADF800B099
:108A70008DF803608DF802406946404600F044F8E6
:108A80004FF41870ADF8000010208DF803008DF839
:108A900002406946404600F037F80820ADF8000073
:108AA00010208DF803008DF802406946144800F04C
:108AB0002BF84FF46050ADF8000010208DF8030043
:108AC0008DF8024069460D4800F01EF8ADF80090A0
:108AD00010208DF803008DF802406946404600F0F2
:108AE00013F8BDE8F88F00000020014000000020CE
:108AF00000080140000C014000100140001401403A
:108B000000180140001C01402DE9F003CB7803F070
:108B10000F0213F0100F1CBF8B781A430B784FF025
:108B20000F0713F0FF0F4FF001081FD00468002358
:108B30005FF008050E8808FA03FC3CEA060611D12E
:108B40009E0007FA06F924EA090402FA06F63443FD
:108B5000CE78282E08BFC0F814C003D0482E08BF16
:108B6000C0F810C05B1C6D1EE4D104600B88FF2BA5
:108B70009CBFBDE8F003704744684FF0000C082527
:108B80000CF108030E8808FA03F333EA060607D04F
:108B90006D1E0CF1010CF3D14460BDE8F003704789
:108BA0004FEA8C0607FA06F924EA090402FA06F6E7
:108BB0003443CE78282E08BF4361CE78482E08BFB4
:108BC0000361E5E7016170472DE9F0470446454838
:108BD00088460025016BC5618561491C05620163FA
:108BE000DFF8109140A148460DF0DEFC4FF47A709A
:108BF000B4FBF0F0404EA6FB0021C908494201EB4E
:108C0000810110EB410005D000F1300148460DF024
:108C1000B1FC01253948A0FB04104009A6FB002146
:108C2000C908494201EB810110EB410006D000F177
:108C3000300148460DF09EFC012504E01DB13021B5
:108C400048460DF097FCA6FB0410C708A6FB0710CA
:108C5000C008404200EB800017EB400006D000F156
:108C6000300148460DF086FC012504E01DB130219D
:108C700048460DF07FFC784200EB800014EB40008A
:108C800005D000F1300148460DF074FC04E01DB140
:108C9000302148460DF06EFC0D214E4648460DF041
:108CA00069FC17A003F0E6FD00281CBF0220BDE808
:108CB000F0870025002C07D918F8051030460DF074
:108CC00059FC6D1CAC42F7D84AF2FF5002F018F87C
:108CD00004220B214FF4967001F098F90020BDE8B2
:108CE000F08700008800002061742B636970736551
:108CF0006E643D0000480040CDCCCCCC1F85EB51CC
:108D00003E0000002DE9F047164C07462568DFF8C5
:108D10005890164E4AF6AA282068854203D8206843
:108D2000401BC82802D30020BDE8F087B06998B185
:108D30000F48316A405C3870306A401C3062B0F5D0
:108D4000966F24BF00203062B06900281CBF401E0F
:108D5000B0610120BDE8F087012000F03DFEC9F8B8
:108D60000080D9E738000020003000408800002053
:108D70005D6000202DE9F047174C07462568DFF8B5
:108D80005CA0174E41F270784AF6AA292068854205
:108D900003DC2068401B404502DB0020BDE8F08773
:108DA000B06998B10F48316A405C3870306A401C35
:108DB0003062B0F5966F24BF00203062B0690028A1
:108DC0001CBF401EB0610120BDE8F087012000F00B
:108DD00003FECAF80090D9E73800002000300040B8
:108DE000880000205D60002070B50C46054600F04C
:108DF000F1F8A8682168C16261680163A1684163F4
:108E0000490707D5D0E90021C0E90012D0E90221C5
:108E1000C0E90212A18981842169002903D001DC03
:108E20004FF00001016270BD2DE9F0411E4617466A
:108E30008846054600F0CEF8AC686822414604F545
:108E40008470FCF791FD2846B8472846B04728694A
:108E500080688047A062BDE8F081000010B504463C
:108E600000F0B8F8A0680E494C30114AC1650D49B0
:108E700081650D4901660D4981660021C16613684F
:108E800043660C4BC0E91E315168416730F8261C1F
:108E900021F0030120F8261C0749416410BD0000A1
:108EA000A1BA01080DBC010869BA0108CFB50108D3
:108EB000400300209FB60108ADB9010810B5044673
:108EC00000F088F8A4680C489034102120650B4805
:108ED00060650B48A0650B48E0650B48E0600B48F7
:108EE0002061206BA06654F89029204690471020FE
:108EF000A0630748606410BD25900108A9A101087E
:108F0000158F00084590000889B5010889BF010840
:108F100044EA0208F8B5846815460F4694F826001E
:108F200080074CD5D4F8FC30204698470646D4F844
:108F300000312A46394620469847D4F894300546F1
:108F40001BB100220121204698472069B04201DD73
:108F5000012000E00020A169B14201DA012100E016
:108F6000002108436169A94201DD012100E00021DF
:108F70000843E169A94201DA012100E00021084328
:108F80000AD06068401E00902368D4F8A4705B1E6D
:108F9000002211462046B847D4F8A8302A46314668
:108FA00020469847D4F89C1020468847D4F894303F
:108FB00005466BB1012200212046984708E0D4F80D
:108FC000A83020469847D4F89C102046884705468C
:108FD0002846F8BD70B504468068002812D14FF4C9
:108FE000B875284600F0BCFA2A460021A06003F0BC
:108FF000C1F9A0680221C18401210464016202490F
:10900000C0F8041170BD00000D90000810B590B0BC
:10901000044620220A496846FCF7A6FC084920229B
:10902000203108A8FCF7A0FC606B5DF82010C4F8A4
:10903000FC1008A951F82000C4F8000110B010BDC0
:1090400070F601082DE9F84384689846154694F8AF
:1090500026000F46800740D5D4F8FC3020469847BC
:109060000646D4F800312A46394620469847054638
:109070002069B04201DD012000E00020A169B14279
:1090800001DA012100E0002108436169A94201DD04
:10909000012100E000210843E169A94201DA012130
:1090A00000E0002108430AD06068401E0090236859
:1090B000D4F8A4705B1E002211462046B847D4F8AD
:1090C000A8302A46314620469847D4F8A02001B05F
:1090D00041462046BDE8F0431047D4F8A830F2E7F7
:1090E0002DE9F04FDFF828B191B04FF0FF35DBF8F4
:1090F0000030B3F922100691DE69B3F924A0F469B7
:10910000A189814206D8E289824203D3471AD4F862
:10911000008012E0D4E90181002970D00A888242DF
:109120006DD84D8885426AD3801A82B2486800EBB8
:109130008200B0F90070B0F90250781C5FD0307E28
:10914000A27C014600FB02F9207CCDE90810B3F9AE
:109150002A60304604F0B8FCC0B20E90DBF8001074
:1091600007FB0980A37C8A6B0127CDE90402CDE9C6
:109170000273C869DDE90832C17E807ECDE9000155
:109180005146069804F07EF8681C18D046F002009C
:1091900004F09AFCDBF80000A37C05FB0981826BDC
:1091A000CDE90273CDE90412C069DDE90832C17E60
:1091B000807ECDE900015146069804F063F8DBF8A3
:1091C00000005D46C069417E007E814214D9022EB6
:1091D00012D086F0040004F077FC2868C069027E93
:1091E000C37E857E02FB03A1437E099A0698534401
:1091F00002FB050204F0D4F90E9804F065FCDBF8DC
:109200000000627C418C1144418411B0BDE8F08FB4
:10921000C402002004480068C069C06909B1027C2A
:109220000A60407C70470000C402002002200880D1
:109230007047C06982898A4202D8C2898A4210D2A4
:10924000806880B102888A420DD843888B420AD355
:10925000406800EB8100A0EB8200B0F9000000281C
:1092600001DB012070470020704700002DE9F0432A
:109270002F4C034687B020681946B0F92A80C06990
:10928000C06900F0EEF800284ED041680088181A36
:1092900001EBC0054046AE7804F016FC814620681C
:1092A0006A680123816BCDE90236CDE90421C169E9
:1092B000CB7E8A7ECDE900230B7EB0F924102A787C
:1092C000B0F9220003F0DEFF2068C069477E067E09
:1092D000B7421DD9C07E47434643B8F1020F17D0AD
:1092E00000F086FF804600F06BFF01F009FD216869
:1092F0002A78CB69B1F92200B1F92410DB7E02FB98
:109300000302CB19314404F04BF9404601F0F8FC5C
:10931000484604F0D9FB20686A78C369B0F9221086
:109320009B7E02FB0311418407B0BDE8F08300007F
:10933000C40200202DE9F35F0E46002500F058FF1F
:10934000DFF8A8808346D8F8000090F82A0040078C
:1093500002D500F04DFF01E000F032FF01F0D0FC3B
:10936000D8F800000024C269B0F92290B0F9247046
:10937000517ED27E01FB02FA1EE0684601F050FEEB
:109380000546D8F800002946C069C06900F032F8E7
:1093900090B141680088281A00EB400001EB800082
:1093A00090F9021000790844D8F80010C969897E44
:1093B0004843002800DD0444761EDED51DB1284652
:1093C00002F0F4FD044407EB0A0309EB04025B1E00
:1093D0004846521E394604F0E3F8584601F090FC26
:1093E000034901200870BDE8FC9F0000C402002072
:1093F000A804002006E002888A4202D842888A42F5
:1094000002D280680028F6D17047000030B50E4CBB
:1094100005460B4620682946C069C06900F021F85E
:10942000002810D04168008824682A1A0120E469C5
:1094300000EBC200085CA47E6043002B03D011F84F
:1094400032106143196030BDC40200200120088041
:10945000704700B5C06900F004F8002800D0012072
:1094600000BD06E002888A4202D842888A4202D2BF
:1094700080680028F6D17047FEB50E4EDDE908542D
:109480003668367C16F003060CD0012E03D0022E6F
:109490000DD0032E05D1084ECDE90054029610F0F0
:1094A0002FF9FEBDCDE9005410F0D8F8FEBD034EF3
:1094B000F2E70000C402002089DB000801DB00089D
:1094C000002801D00EF00CBB704738B50546FFF7F9
:1094D000F7FF040009D000F0C5F82A4600210090EB
:1094E00002F048FF684600F007F9204638BD00004A
:1094F000024A106021F0030050607047888100200C
:1095000010B5002814D004460A48006B10F8341037
:1095100000290DD002290BD2042101EBC4014158CE
:1095200048680EF0A1FA2046BDE8104012F01AB8C3
:1095300010BD0000CC800020002805D0034A916BAC
:10954000016001B14860906370470000CC8000204A
:1095500010B504460068FFF7D3FF0020206010BD5F
:109560002DE9F041044611F0ABFC2648E41C24F040
:109570000305C16B2D1DA94200D90D46846B13E074
:1095800054F8042CAA420ED184B1216809B1626852
:109590004A60616809B122680A60826BA2422ED1DA
:1095A000216881632BE02468002CE9D18046416B5F
:1095B00080680F1857F8040C3E1A306838B1002044
:1095C00012F0DAF857F8040C3E1A3068B8B970682F
:1095D000A84214DB3044441B304612F085F8D8F81A
:1095E0000810491BC8F80810D8F810102944C8F80A
:1095F000101070683146401B0EF036FA20C4204629
:10960000BDE8F081CC80002010B5002411F058FC9A
:109610000C490F2001EBC002126C1AB101EBC00023
:10962000006C08E0401EF5D508E04168A14200D971
:109630000C46806810B180680028F6D1A4F10C00B7
:1096400010BD0000CC800020002138B10449042264
:1096500002EBC000096B085841680C390846704796
:10966000CC80002005498A69521C8A61096B01EB94
:10967000C0010A78521C0A7000F056B8CC80002055
:109680007CB506460C460846FFF71AFF05001CD0BD
:10969000DEB13046FFF7D8FFA04200DA0446284684
:1096A000FFF7E0FF00903046FFF7DCFF0146019036
:1096B00022460098FCF758F9684600F01DF801A80A
:1096C00000F01AF83046FFF71BFF28467CBD00006B
:1096D00010B5FFF799FF64220649B0F5800F04D951
:1096E00090FBF2F0C969484310BDC9694143B1FB21
:1096F000F2F010BDCC8000200A4902680B6B52F8D2
:10970000082C03EBC2021378022B03D38B690BB135
:109710005B1E8B611178491E1170002101600846A3
:1097200070470000CC800020002806D003490422A6
:1097300002EBC000096B085808307047CC8000204D
:1097400070B50C46054600F0D5FDC1B2234628464B
:10975000BDE87040002200F001B80000F0B52D27F0
:109760001C68B0F1004F08D0002500280DDA661CF7
:109770001E6027704042012408E0661C01251E601F
:109780006FF000402770491E01E00024091BC9B298
:109790002AB3491EC9B222E00C46491EC9B29442FE
:1097A00005D1124C27781C68661C1E602770104C6F
:1097B00054F8216090FBF6F4E4B20A2C11D804FBB3
:1097C000160011B90DB1641CE4B20A2C02D10124B7
:1097D000491CC9B21E683034771C1F6034700029E0
:1097E000DAD1196800200870F0BD0000B80200202E
:1097F000B4E1020810B5C2B2CBB2D21A02D5C2F19E
:10980000000212B293B2C0F30722C1F3072403FB94
:1098100003F3121B01D5524212B2000C92B2A0EB1C
:10982000114002FB023200B2002801DA404200B2CD
:1098300080B200FB002010BD10B50021084600F0EA
:109840001DFD40F6FF725042BDE810401346014630
:10985000AFF300802DE9FC4107461C4615460E4635
:10986000042004F031F980461148C068C16C006DD5
:109870000F4406440D440444ADF80070ADF80450A4
:10988000ADF80260ADF8064068460DF003FD07E054
:1098900023462A463146384603F082FE0DF0BCFCD2
:1098A0000028F5D1404604F00FF9BDE8FC81000026
:1098B000B80200202DE9F0411C4616460D46074629
:1098C000022B02DB0020BDE8F0811C20FFF748FEE0
:1098D0000028F8D00DB105610AE0094A52F82410B9
:1098E00009B905E011460A68002AFBD1096901613E
:1098F00084618682002101604160C0E90217E2E7CD
:10990000DC02002070B51D46FFF7D4FF040001D033
:1099100000F00EF8E068006820B90348006800EB2A
:1099200085008465204670BDC4020020FFF704BE98
:1099300070B590B38269022A30DA1C4C54F82210B8
:1099400019B944F822002FE019464B68002BFBD1CF
:1099500006E0CB68C5681B682D68AB4203DD09686B
:109960000029F6D11AE0C1B1CB68C6681B68366819
:10997000B3420CD1838A012B05D008E01946DB687D
:109980001B68AB4203DB0B68002BF7D129B14B6896
:1099900033B118604A68426004E0FFE7012070BDFF
:1099A00044F8220048600160002070BDDC02002005
:1099B00012F0BEBA022801DB00207047054951F8B9
:1099C000200004E0C16809680029F6D0006800287A
:1099D000F8D17047DC02002070B5044601F08EFC1F
:1099E000051908E000F0F8FA052C01DD052000E07B
:1099F000204601F077FC01F081FC2C1A002CF1DCF0
:109A000070BD7FB51E4614460D46CDF80CD003AB95
:109A100000223146FFF7A2FE22462946684600F0A2
:109A200081F87FBD2DE9FC4706005BD000F0E8FB24
:109A30003B4C81462068B0F9228000F0F7FB21689A
:109A400007468A8CD01B888441E000BF47F6FF712F
:109A5000304602F073FA82460146304602F044FA7C
:109A60002168054691F82C0000F0030001283FD042
:109A7000022839D000204A8C101A4884ADF8000022
:109A80006A1E1044ADF80400888CADF80200A9F1FC
:109A900001010844ADF806006A465146304601F01F
:109AA000FBFF2168BDF8020088845146304601F072
:109AB000E3FA064430780A281CD00D281AD0BDF8E5
:109AC0000000216828444884307818B1761C30782A
:109AD0000028BBD12068818C39448184818D21F09C
:109AE00003018185BDE8FC8705EBD5704010C2E716
:109AF0002846C0E7206890F82C1001F003010129E6
:109B00000BD0022909D0018C418431780A29DBD19C
:109B1000828C02EB09018184D6E7A0F82280F4E769
:109B2000C4020020024B1B6859849A84FFF77ABF55
:109B3000C40200202DE9FF4F85B090468A460700F9
:109B400078D00C68DAF8046021B230B2401A401CB8
:109B5000029000F055FB054618F00C0F1ED0384659
:109B6000089A029901F0A3FB08F00C01042904D023
:109B7000082902D00C2911D104E0311400FB151082
:109B8000401C09E02114C1EB264200FB1520401CBB
:109B900000EBD07001EB600060F31F44504601F011
:109BA000ADF8A5F1010B04903846089A029902F02D
:109BB000AFFB03904FEA244909EB0B0060F31F460B
:109BC000CDE900463846039902F08EF918F00301FA
:109BD0000ED0012928D002290ED1BAF90420BAF9F1
:109BE0000010521A101A00EBD07001EB600001E077
:109BF000BAF80000ADF800006A463846039901F053
:109C00004BFF3846089A029902F078FB074409EBAB
:109C1000050060F31F4438780028C5D1049809B0C6
:109C2000BDE8F04F01F06AB8BAF80410081A401CF9
:109C3000E0E7FFE709B0BDE8F08F00002DE9F04F45
:109C40000C46164987B00D68DDE91098E96C0F18CD
:109C5000286D8D180619C418ADF81070ADF81450A1
:109C6000ADF81260ADF8164004A80DF013FB002803
:109C700011D0DFF82CB04FF0000ACDE90098CDE903
:109C800002BA2B462246394630460FF0ECFD0DF065
:109C9000C3FA0028F1D107B0BDE8F08FC40200205C
:109CA0004DD500082DE9F04F0C46184987B00D68D6
:109CB000DDE91198E96CDDF840A00F18286D8D18CA
:109CC0000619C418ADF81470ADF81850ADF8166048
:109CD000ADF81A4005A80DF0DDFA002812D04FF0BB
:109CE000000B0B49CDE900A9CDE902812B462246A4
:109CF000CDF810B0394630460FF072FE0DF08CFAF8
:109D00000028EED107B0BDE8F08F0000C4020020AB
:109D10004DD500082DE9F04F174C87B02568DDE9D7
:109D20001198EC6CDDF840A02718286DA51846188E
:109D3000C418ADF81470ADF81850ADF81660ADF851
:109D40001A4005A80DF0A6FA002812D04FF0010B1A
:109D50000A49CDE900A9CDE9028123462A46CDF87A
:109D600010B0314638460FF03BFE0DF055FA002892
:109D7000EED107B0BDE8F08FC40200208DD40008FA
:109D80002DE9F04F164C87B02568DDE91098EC6C92
:109D90002718286DA5184618C418ADF81070ADF82E
:109DA0001450ADF81260ADF8164004A80DF072FA28
:109DB000002811D0DFF82CB04FF0010ACDE900984F
:109DC000CDE902BA23462A46314638460FF04BFD0C
:109DD0000DF022FA0028F1D107B0BDE8F08F0000A5
:109DE000C40200208DD400082DE9FC41104F044628
:109DF0003B68D86C4518196DADF800500E198418E1
:109E0000ADF80440ADF80260ADF8066068460DF0AC
:109E100041FA08E0386822463146C06E0368284699
:109E200098470DF0F9F90028F4D1BDE8FC81000055
:109E3000C40200202DE9F0410B4C2568EC6C27187A
:109E4000286DA5184618C41800200DF023FA07E065
:109E500023462A4631463846FEF796F90DF0DCF9DE
:109E60000028F5D1BDE8F081C40200202DE9FC41B5
:109E70001C4C2468E66C94F818C03718206DACF1BF
:109E8000010C4518C418A7EB0C001644ADF80000EF
:109E900006EB0C00ADF80400A5EB0C00ADF80200D9
:109EA00004EB0C00ADF8060068460DF0F3F915E080
:109EB00032462946384603F0E9FA3246214638460A
:109EC00003F0E4FA621E691C384603F03FFB621E91
:109ED000691C304603F03AFB0DF09EF90028E7D1EB
:109EE000BDE8FC81C40200202DE9FF47DDE90C76C6
:109EF000012E15D0134C2468E56C246D05EB000889
:109F000004EB010915441C44ADF80880ADF80C5071
:109F1000ADF80A90ADF80E4002A80DF0BBF90EE0C6
:109F2000009700F011F8BDE8FF87CDE900762346E1
:109F30002A46494640460FF03BFE0DF06DF90028D9
:109F4000F3D1F0E7C40200202DE9FE43114CDDF807
:109F500028802568EC6C2718286DA5184618C418A9
:109F6000ADF80470ADF80850ADF80660ADF80A40E1
:109F700001A80DF08FF909E023462A4631463846FC
:109F8000CDF800800FF0A6FE0DF046F90028F3D1C1
:109F9000BDE8FE83C40200207CB50E4B1B68DC6C60
:109FA0002618186DADF8006045188418ADF80460E7
:109FB000ADF80250ADF8064068460DF06BF906E0CA
:109FC00022462946304603F0C1FA0DF025F9002853
:109FD000F6D17CBDC402002010B5002400E00124AD
:109FE00000F004F80028FAD1204610BD064810B54C
:109FF0000068002410B1804700B101240CF0A0FDDE
:10A0000000B10124204610BDE402002070B51646C0
:10A01000094A1268D36C1C18106D451800200DF009
:10A0200039F906E0324629462046FEF731FA0DF0AE
:10A03000F3F80028F6D170BDC40200202DE9FC47DA
:10A04000164C814688462068C16C006D8E18C51874
:10A0500000200DF01FF900281ED0114F206811219B
:10A06000407C57F820000190C068426A01A89047E0
:10A070005FEA000C06D033464246494600950198F7
:10A08000E04705E02B46324641464846FEF75EFA79
:10A090000DF0C2F80028E1D1BDE8FC87C402002021
:10A0A000DC0200202DE9FC410F4C2568EC6C2718E0
:10A0B000286DA5184618C418ADF80070ADF8045006
:10A0C000ADF80260ADF8064068460DF0E3F807E031
:10A0D00023462A463146384603F062FA0DF09CF8D2
:10A0E0000028F5D1BDE8FC81C40200202DE9F04F25
:10A0F0002D4C87B02568EC6C2D6D04EB000A04EB49
:10A1000002096E1805EB0308ADF808A0ADF80C9035
:10A11000ADF80A60ADF80E8002A80DF0BBF800287B
:10A120003FD0A8EB0600401C0590109C0598B0EBB2
:10A13000440F32DBA9EB0A00401CB0EB440F2CDBD0
:10A1400004FB04F02746354606EB040B04901AE0A6
:10A15000049807FB170002F050F90AEB0401091AF2
:10A160000191A9EB04010844024600902946019898
:10A1700003F08CF9DDE90020A91BA8EB010103F035
:10A1800085F96D1C7F1EAB45E2DAA8EB04035B1E6C
:10A190004A462946504603F003FA0DF03DF80028E0
:10A1A000C3D107B0BDE8F08FC4020020034951F8C5
:10A1B0002000C1688A6A082110470000DC020020E4
:10A1C00010B503F01DFABDE8104003F0CDBA000051
:10A1D00002490968C9694A6800211047C402002081
:10A1E000024A1268D269526810470000C402002077
:10A1F00010B503F00DFABDE8104003F0B5BA000049
:10A2000002480068C069407E70470000C402002018
:10A2100001F060BE01F0BCBE10B5044601F0AAFE1C
:10A2200001462046BDE8104001F05EBE0A4900200C
:10A23000096891F82C2002F00C02042A07D0082AA1
:10A2400001D00C2A02D1C869007E40087047C86955
:10A25000007E401E70470000C4020020024951F8F1
:10A260002000006900687047DC020020024951F8B4
:10A270002000006940687047DC02002070B50D4680
:10A2800010F080FD0446284610F084FD204370BD88
:10A29000124810B5016821F0010101601048012148
:10A2A00081601049016000680F49884200D0FEE7D4
:10A2B00001F0D8FB0D492E20087001F025F80C485C
:10A2C00010F0C6FD12F0FDFF04460021084600F024
:10A2D0002DFD0CF099FC204610BD0000002000E090
:10A2E00000300240C2A507F4CDB5E8B5B8020020A1
:10A2F0009481002010B5011E01DD024600E04A42B3
:10A30000064B012053F82040944202D8401C0A28F2
:10A31000F8DB002900DA401C10BD0000B4E102089F
:10A320001CB520B90C480068006E002812D0FFF759
:10A3300099F9009044696846FFF7DEF9002C09D0CE
:10A340002046FFF78FF9019081688968884701A846
:10A35000FFF7D2F91CBD0000C402002001490A46E3
:10A3600000F002B801F0FFFF2DE9F04387B0154679
:10A370000C465FEA000842D0002000F0C3FC814692
:10A3800020480068066E4046FFF76CF900900068B0
:10A39000806900F09FFC074640F6FF70001904D169
:10A3A0000098B0F90440B0F906500098611E028987
:10A3B000ADF804401144ADF808104189681E084406
:10A3C000ADF80650ADF80A000CF028FA6846FFF721
:10A3D00093F901A80CF05EFF06E02A4621464046AC
:10A3E00000F0F8FA0CF018FF0028F6D1384600F01B
:10A3F00071FC304600F048F9484600F083FC07B095
:10A40000BDE8F083C40200202DE9FE4F83461948C1
:10A410008A46194900680C9E9846407C9146002760
:10A4200051F82040E1680968042903D02468002C11
:10A43000F8D100E014B9FFF7BDFA04460121E06845
:10A44000C26A20469047050011D02469A068804761
:10A45000401C02D1094C46F001060096CDE901549A
:10A4600043464A465146584600F09AF90746384650
:10A47000BDE8FE8FC4020020DC020020ECE10208EF
:10A4800038B5040018D00D480068006EA04201D114
:10A4900000F016FC2046FFF7E5F80090406908B18F
:10A4A00000F0F3FE00980068FFF740FA6846FFF7F7
:10A4B00023F92046FFF724F838BD0000C40200202D
:10A4C0002DE9FF4F83B0454CDDF840B098468A46F1
:10A4D00007002BD002A901A8FFF79CFEB7F9006086
:10A4E000002E00DA0026B7F90250002D00DA002510
:10A4F0002068A146407C03F0F7F801990144491E09
:10A50000B7F9040010F09FFD0446D9F80000407C24
:10A5100003F0F0F802990144491EB7F9060010F063
:10A5200092FDA71B7F1C441B641C0BE020680026C7
:10A530003546407C03F0D8F807462068407C03F09D
:10A54000D9F80446B8F1000F01D1C4F10008002F7A
:10A5500001DD002C03DC002007B0BDE8F08F43468E
:10A560003A4629463046CDF800B0FFF74DFF5FEA86
:10A57000000909D000F054F88046484600F084F8FD
:10A580000027DFF85CB01FE051460598884701209E
:10A59000E2E7E11B414502DA484600F05FF83FB1CF
:10A5A000EA193146484600F099F84846FFF7B8FEE8
:10A5B000514605988847DBF8001009B1002088470C
:10A5C0004846FFF7CBFE4744A742E2DB4846FFF789
:10A5D00057FF002000F058F8BDE70000C40200203B
:10A5E0008404002038B5002460B1FFF73BF80090E8
:10A5F000006800698068804703F0C0FC0446684634
:10A60000FFF77AF8204638BD38B5FFF72BF800F190
:10A61000180400906846FFF76FF8204638BD000028
:10A6200038B5002418B907480068006E38B1FFF744
:10A6300019F80090B0F90A406846FFF75DF8204627
:10A6400038BD0000C402002010B50DF05DFD0028EB
:10A6500003D0BDE8104000F06DB810BD38B50C4611
:10A6600020B908480068006E00280AD0FEF7FAFFFB
:10A670000090B0F90A10A14200DD44816846FFF75E
:10A680003BF838BDC4020020F8B5134E0500306811
:10A69000046E0CD00CB100F013FB0CF0AFF928469F
:10A6A000FEF7E0FF009031680A6E1AB106E000F094
:10A6B00007FB0EE0D1E90223C1E919230D6600680A
:10A6C000FFF736F96846FFF717F803F0D5FA03F0FD
:10A6D000DBF92046F8BD0000C40200207CB5154619
:10A6E0000C4620B912480068006E00281FD0FEF703
:10A6F000B9FF2DB20090C58024B2848003F0C4F964
:10A700000098406980B1FEF7ADFF009A0190B2F960
:10A7100008108180B2F90A20C28011B10AB1048008
:10A72000458001A8FEF7E8FF6846FEF7E5FF7CBD1F
:10A73000C402002001490A4600F002B801F0FFFF00
:10A740007FB515460C46060028D0FEF78BFF40F675
:10A75000FF710190091903D1B0F90440B0F9065016
:10A760000289611E1144ADF80840ADF80C10418912
:10A77000681E0844ADF80E00ADF80A5001A8FEF7B7
:10A78000BBFF02A80CF086FD06E02A4621463046B3
:10A7900000F008F90CF040FD0028F6D17FBD000064
:10A7A0002DE9FF4FDFF8E0B083B01C46DBF8001066
:10A7B000DDE91060924600274B7C3A461299FFF77C
:10A7C00079F805005DD028698068804703F0D6FBE2
:10A7D00081460AFB09F0C01D4FEAD008FEF778FF5A
:10A7E000F10705D1C11700EB9170801000EB40001C
:10A7F000002C06DC1838B0FBF8F06442A04200DC04
:10A800000446F00707D10090DDE9030123465246D4
:10A8100000F0B2FC0746002C03DC2846FFF786F860
:10A820002FE004FB08F01830F10702D0FEF748FED5
:10A8300001E0FEF74AFE06001CD0FEF713FF019070
:10A840000560039981800499C180A0F808A0448123
:10A85000C0F80C80C0E9049701A8FEF74DFF1298DC
:10A86000AE602861DBF80000407CA861304607B08C
:10A87000BDE8F08F2846FFF759F817B13846FEF7C4
:10A880003FFE0020F3E70000C40200202DE9F74F4F
:10A8900092B090461298FEF7E5FE0B90B0F90810C2
:10A8A0000691B0F90A100D9100680069D0F804B063
:10A8B0000BA8FEF721FF384C384D2068407C55F836
:10A8C0002000C1688A6A082190478146182801D370
:10A8D0004FF020092068407C55F82000006907905F
:10A8E00003C80C902E48814201D0012000E00020D6
:10A8F0001090002000F009FD002849D10026DDE974
:10A900001207B2460FAB069C4546761C0193FFF733
:10A910007BFE014604FB0AF001EB80022346294638
:10A920003846CDF800B001F00FF9050030D010988E
:10A93000D0B1DDE906134A46284600F0D9FF98B9A0
:10A94000DDE906702C46D0F810C0BCF1000F05D030
:10A95000294604233A460846E04705E00C9920685A
:10A96000884701C47F1EF9D10020CDE90305059079
:10A9700001200090CDE901094146034608F1010894
:10A98000069A139802F07EFC0D98401E0D90B6D1E9
:10A9900015B0BDE8F08F0000C4020020DC020020EA
:10A9A00087D70008F8B515460E460746FEF75AFE4B
:10A9B000009000681621C068426A00209047044653
:10A9C0006846FEF799FE002C03D02A4631463846E9
:10A9D000A047F8BDF8B515460E460746FEF742FEFD
:10A9E000009044696846FEF787FE3846FFF7FAFD97
:10A9F0000346082800DD2CB12A463146384611F0BE
:10AA0000D9FAF8BD2A463146384611F06BFCF8BD3C
:10AA100010B5002821D009B30AB3B1F90040B2F94A
:10AA200000309C4200DA23460380B1F90240B2F9BB
:10AA300002309C4200DA23464380B1F90440B2F967
:10AA400004309C4200DD23468380B1F90610B2F940
:10AA50000620914200DC1146C18010BD11460A68F3
:10AA600002604968416010BD00280BD003880B4488
:10AA70000380838819448180418811444180C188C2
:10AA80001144C1807047000070B5094C0020D4E922
:10AA900000218A420AD0D2E90056104610F090F9FF
:10AAA0002060314628460CF093F9012070BD00006B
:10AAB000FC0200202DE9FC41154DDDE908742D68EC
:10AAC000B5F90860864200DD3046B5F90C60964263
:10AAD00000DA3246824219DBB5F90A608E4200DDA7
:10AAE0003146B5F90E509D4200DA2B468B420DDB04
:10AAF00000E02C46E5682D6825B1042D02D02568BC
:10AB0000002DF6D1CDE9007402F0A6FEBDE8FC816F
:10AB1000C4020020B0F90220B1F906309A4213DCD9
:10AB2000B1F90220B0F906309A420DDCB0F90020EC
:10AB3000B1F904309A4207DCB1F90010B0F9040011
:10AB4000814201DC01207047002070470146024825
:10AB500078220068FAF708BFC402002038B515460D
:10AB60000090C8610C46684601F0A4FB1649884273
:10AB700028D1684601F095FB2076684601F091FBEC
:10AB80006076684601F08DFB84F82000684601F08D
:10AB900088FB84F82100684601F083FB84F82200DA
:10ABA0000120A076E0762868206068686060A86868
:10ABB000A060E868E06028692061686960612046FB
:10ABC00000F0A2F838BD00004755495038B50C4692
:10ABD00001460B4800250C220068C06900F02EF8E1
:10ABE000009058B124B1684601F05BFB206001E0A1
:10ABF000801C0090684601F054FB0546284638BD8D
:10AC0000C402002038B5C0690C46001D009068469B
:10AC100001F047FBA070684601F043FBE070684616
:10AC200001F03FFB20710120208038BD08B5C069CC
:10AC30000E300090684601F034FB08BD2DE9F84362
:10AC40008846914606460024FFF7F0FFF169054665
:10AC5000103101EB85070091684601F022FB0646A2
:10AC600066F30F04684601F01CFB60F31F44464581
:10AC700008D8404506D3A1B2A8EB010109FB017039
:10AC8000BDE8F883801B401C09FB00776D1EE3D1F3
:10AC90000020F5E7054810B500680C22C069FFF7F1
:10ACA000CDFF002800D0012010BD0000C40200200C
:10ACB000024978220968FAF757BE0000C402002052
:10ACC00010B502F095FE02F0D7FFBDE810400BF082
:10ACD000A5BD000070B504460548022C0068457CFF
:10ACE00002D24474FFF7ECFF02480460284670BDAE
:10ACF000C4020020A003002002F09CBE0CF0B0B9FA
:10AD000002F0D0BE02F0E0BE03490968CA6900B192
:10AD1000C861104670470000C4020020024909685B
:10AD20008A7E887610467047C4020020094A30B4F3
:10AD30001080094A1180094A1268537C084A52F867
:10AD40002330DA68146A0A46A446014630BC184625
:10AD500060470000F4020020F6020020C402002038
:10AD6000DC020020024909680A7E08761046704716
:10AD7000C402002003490968B1F92C2088851046D7
:10AD800070470000C402002003490968B1F92A2075
:10AD90004885104670470000C40200200248006841
:10ADA000002800D0004770476804002002498A68E4
:10ADB00002B98860FFF7F2BFFC02002010B5040062
:10ADC00009D010F0ABFC204611F08AF82046BDE80F
:10ADD0001040FEF795BB10BD38B50C4660B1FEF7CC
:10ADE00041FC00908089204201D0012400E0002431
:10ADF0006846FEF781FC00E00124204638BD0000D3
:10AE000038B50546002028600648046844B120464D
:10AE1000FEF728FC0090006928606846FEF76CFC8D
:10AE2000204638BD5404002038B504004FF000001F
:10AE30000D46086011D02046FEF714FC009084688F
:10AE400044B16846FEF758FC2046FEF70BFC009024
:10AE5000006928606846FEF74FFC204638BD2DE9A2
:10AE6000F041984617460D460646002409E036F89C
:10AE7000021B384600F0BAF82118414503DC0744AC
:10AE80000C466D1EF3D22046BDE8F0812DE9F04F4F
:10AE90003E4D061E3E4C3F4A3F4BDFF80091DFF827
:10AEA00000A1DFF800B14049286846DDAE46002821
:10AEB00069D125680D6015684D601D688D60D9F8F1
:10AEC0000060CE60DAF800700F61DBF800C0C1F8F6
:10AED00014C0DFF8DCC03549DFF8E480CCF800109E
:10AEE000DFF8D4C04D463349DFF8D090CCF80010DD
:10AEF000C8F80090DFF8D080DFF8C8C0C8F800C0FC
:10AF0000DFF8CC80DFF8C4C0C8F800C0DFF8C88024
:10AF1000DFF8C0C0C8F800C0DFF8C0C0C4F800C087
:10AF200011602F49C3F8009029602E49CAF800101B
:10AF30002D490122CBF8001023E024D1AE46002891
:10AF400021DD0D68002D1ED04E68002E1BD08F68AD
:10AF5000002F18D0D1F80CC0BCF1000F13D0D1F8DD
:10AF60001080B8F1000F0ED0496900290BD0256080
:10AF700016601F60C9F800C0CAF800800022CBF834
:10AF80000010CEF80020BDE8F08F0000180400206B
:10AF90005004002034040020380400203C04002029
:10AFA000480400204C0400200803002031B70008AA
:10AFB0001C04002049B500082004002049B4000802
:10AFC000240400203BB600082804002045B30008F4
:10AFD0002C0400201FB7000830040020ADB7000883
:10AFE0001DB400086DB60008AFB30008014A12682E
:10AFF000D2681047C802002001490968096808475B
:10B00000C80200200149096849680847C8020020B1
:10B01000024901480860704720F60108C802002074
:10B020002DE9F041084E044605683068016828465D
:10B03000884707463068416828468847284420608A
:10B040003846BDE8F0810000C80200202DE9F0413B
:10B0500000250E4680462C46064F06E0396808EB70
:10B0600004004968884704446D1CA642F6DC284663
:10B07000BDE8F081C80200202DE9F0410C460646EB
:10B080000025064F05E03868416830468847064489
:10B090000544641EF7D22846BDE8F081C8020020AE
:10B0A0002DE9F0411E46069C1746884605463A465D
:10B0B000A8687F1C3346D0F804C041462846E047C4
:10B0C000641EF4D1BDE8F08170B5B0F90040091BF1
:10B0D000B0F904408C422CDD00F11404B0F90250A8
:10B0E0000069521B02FB0040CA1800EBE104521E2B
:10B0F000D010B0EBE10501F007034FF0FF0102F0C3
:10B10000070221FA03F0C2F1070201FA02F1CEB2FE
:10B1100021780FD001436D1E04F8011B002D05DDC1
:10B12000FF2229462046FAF740FC2C442078304381
:10B13000207070BD30400143217070BD10B5B0F972
:10B140000030B0F90240C91A00F114030069121B63
:10B1500002FB003000EBE10001F0070302788021E0
:10B16000D9400A43027010BDB0F90610026951437C
:10B170001430FAF721BC00002DE9F843804602F1B3
:10B180000F000011470003FB07F01C4615468946D7
:10B190001430FEF79AF9060013D0FEF763FA009018
:10B1A000A0F80080A0F802908580C48006498160E4
:10B1B0000121818107616846FEF79EFA3046BDE8AD
:10B1C000F8830020FBE700007CED020870B5B0F9C1
:10B1D0000660B0F904400B6800F11405964220DDCA
:10B1E0000069A34202FB005000EBE30219DAA4F16C
:10B1F00001044FEAE400A0EBE30512F8010B03F0B1
:10B20000070400FA04F0C4B208E055B112F8014B8B
:10B2100003F10803A5F1010523F00703002CF4D086
:10B2200008E0002070BD00BF4FEA44604FEA1064A0
:10B2300003F101032006F7D5FF2C0AD0184605E0DC
:10B240004FEA44644FEA146400F101006606F7D443
:10B2500000E0D81DC443640706D007E012F8014B94
:10B26000FF2C0FD100F108006D1EF7D5A0EB0300F5
:10B2700000F101000B6070BD4FEA44624FEA1264B6
:10B2800000F101002206F7D4F0E738B50546FEF7D5
:10B29000E9F900908189491E0CB284816846FEF765
:10B2A0002BFA002C02D12846FEF72AF938BD2DE9E9
:10B2B000F04116460F4605460024324639462846D8
:10B2C00001F01CF8054408B1641CF6E72046BDE80F
:10B2D000F08100004FF470510148FEF709B90000F9
