:020000040800F2
:1058000090AC0020495900085B030108E9E3000857
:10581000590301088D6E00088D8F010800000000FB
:1058200000000000000000000000000039560108E0
:10583000AF780008000000005F590008998801084F
:10584000E1A301086359000863590008E931010820
:105850006359000863590008635900086359000838
:105860006359000863590008635900086359000828
:105870006359000863590008635900086359000818
:105880006359000863590008635900086359000808
:1058900063590008635900086359000863590008F8
:1058A00063590008635900086359000863590008E8
:1058B00063590008635900086359000863590008D8
:1058C00063590008635900086359000863590008C8
:1058D00063590008B5890108398A0108698B0108F4
:1058E00063590008635900086359000863590008A8
:1058F0006359000863590008635900086359000898
:1059000063590008B53D0108635900086359000850
:105910006359000863590008635900086359000877
:105920006359000863590008635900086359000867
:10593000DFF810D000F01AFD0048004749070208C0
:10594000AFF3008090AC002006488047064800472F
:10595000FEE7FEE7FEE7FEE7FEE7FEE7FEE7FEE71F
:10596000FEE7FEE7B5880108315900080048704796
:105970008437030810B50446FFF7F8FF0068005DA0
:1059800000F0010010BD00000649074A08685043B6
:1059900043F239021044086040087047014908602A
:1059A00070470000B81400206D4EC64110B5441A6F
:1059B0000346944209D28418114403E011F8013DD2
:1059C00004F8013D521EF9D210BD40EA0104A407BB
:1059D00003D009E010C9121F10C3042AFAD203E051
:1059E00011F8014B03F8014B521EF9D210BDD2B28F
:1059F00001E000F8012B491EFBD270470022F6E7B8
:105A000010B513460A4604461946FFF7F0FF204634
:105A100010BD30B505462A460B4612F8010B13F8A7
:105A2000014B08B1A042F8D01CB1002802D06D1C77
:105A3000F1E7284630BD10B5044604E00B7800F8C5
:105A4000013B03B1491C521EF8D2204610BDCAB218
:105A5000401E10F8011F8A4202D00029F9D100200F
:105A60007047421C10F8011B0029FBD1801A7047B7
:105A7000034611F8012B00F8012B002AF9D1184632
:105A80007047000070B500B91068002512E00B46A1
:105A900002E0A64203D05B1C1C78002CF9D1E3B2D3
:105AA0002B4305D02CB125B1002100F8011B04E0E7
:105AB0000546401C0678002EE9D11060284670BDCE
:105AC000004ADFE7BC14002070B5064619F042FB1F
:105AD000046805460A220021304600F0E1FA2C60F5
:105AE00070BD70B5064619F035FB046805460A22FC
:105AF0000021304600F00CFB2C6070BD2DE9FE4FFC
:105B0000804681EA0300C00F0C46009021F000415E
:105B100023F00045B8EB0200A94105D240462146DA
:105B200090461C460B46024623F00040104347D0E7
:105B3000270DC7F30A00C3F30A510290401A0190DF
:105B400040286BDAC3F3130040F4801B00989246A0
:105B500020B10023D2EB030A63EB0B0B01985946EB
:105B6000C0F14002504600F01CFA06460D46504671
:105B70005946019A00F034FA10EB08006141002404
:105B800087EA115284EAE7731A4340D0009A62B35D
:105B9000019A012A4FEA075215DC001B61EB020152
:105BA0004FF0004202EA0752CDE90042001C41F5E5
:105BB000801132462B4600F039FB03B0BDE8F08F70
:105BC00040462146F9E7001B61EB0201001C41F54C
:105BD000801300185B412018A2F5001747EB030162
:105BE00040EAD570B6196D4111E06D084FEA3606EE
:105BF00045EAC0754FEA0752001B61EB0201001C29
:105C000041F5801149084FEA3000001951413246F0
:105C10002B4603B0BDE8F04F00F0F9BA009801221E
:105C200040000023D0EB020263EBE07300982146B2
:105C30004FEAE074B8EB000061EB0401E9E783F0A0
:105C400000435BE781F0004158E72DE9FE4F81EA10
:105C5000030404F0004421F0004100944FF0000BD5
:105C600023F0004350EA01045ED052EA03045BD003
:105C7000C3F30A54C1F30A552C44A4F2F33401943B
:105C8000A0FB0254C1F3130141F48011C3F31303C9
:105C900043F4801301FB024400FB034E840A970A7D
:105CA00044EA815447EA8357A4FB076802958D0AAA
:105CB00005FB07854FEA932C04FB0C542705029D36
:105CC0004FEA065847EA1637B5EB08056EEB070CA6
:105CD000870E920E47EA811742EA8312A7FB020160
:105CE000B6EB0B0164EB00042B0D43EA0C335E189A
:105CF00044EB1C50DA465146E7FB0201C5F313049E
:105D00004FEA0B3343EA14534FEA0432019C43EA4F
:105D10000603A4F10C040294009CCDE900B400F049
:105D200085FA03B0BDE8F08F00200146F9E72DE9C0
:105D3000F04D81EA030404F0004B21F000451446C5
:105D40004FF0000A23F0004150EA050220D054EA47
:105D500001021DD0C5F30A570246C5F31303C1F370
:105D60001300C1F30A5640F4801543F48013A7EBE7
:105D70000608101BD64608F2FD3873EB050002D367
:105D800008F1010801E092185B41B8F1000F03DA55
:105D900000200146BDE8F08D00204FF4801106463A
:105DA00084460EE0171B73EB050705D3121B63EB4C
:105DB000050306434CEA010C49084FEA30009218EB
:105DC0005B4150EA0107EDD152EA030012D082EAAA
:105DD000040083EA0501084305D0101BAB4106D23D
:105DE0000122002306E000224FF0004302E06FF0A2
:105DF000010253101AEB06004CEB085110EB0A009D
:105E000041EB0B01BDE8F04D00F001BAC10F80EA93
:105E1000E0700844CA079623002100F0CAB90EB505
:105E2000C10F80EAE0700844CA07002140F2334302
:105E30008DE80E000A460B4600F0F8F903B000BDED
:105E400070B5C1F30A5201F000450024C1F31301FB
:105E500040F2FF3341F480119A4201DA002070BD14
:105E600040F233439A42A2F2334203DC524200F042
:105E7000A7F800E090402C43F1D0404270BDC1F340
:105E80000A5210B5C1F3130140F2FF3341F48011FF
:105E90009A4201DA002010BD40F233439A42A2F246
:105EA000334203DC524200F08BF810BD904010BD2D
:105EB00000F0004230F000400AD0C10D01F56071E1
:105EC000C0F3160042EA0151C2084007114370476F
:105ED000002001467047000030B5041E71F1000437
:105EE00004DB4FF00044404264EB0101141E73F1E7
:105EF000000405DB1C464FF00043524263EB0403F1
:105F0000994208BF904230BD01F0004330B421F007
:105F1000004150EA010206D00A0DA2F56072C1F3F9
:105F20001301002A02DC30BC00207047440F44EA11
:105F3000C104C100E01830BC00EBC25000F030B921
:105F40002DE9F05F0546002092469B4688460646AE
:105F5000814640241BE0284641464746224600F041
:105F60002FF853465A46C01A914110D3114618468D
:105F7000224600F016F82D1A67EB01084F4622461C
:105F80000120002100F00DF817EB00094E41201E02
:105F9000A4F10104DFDC484631462A464346BDE809
:105FA000F09F202A04DB203A00FA02F1002070471B
:105FB0009140C2F1200320FA03F319439040704747
:105FC000202A04DB203A21FA02F00021704721FA4E
:105FD00002F3D040C2F120029140084319467047B5
:105FE000202A06DBCB17203A41FA02F043EAE0739D
:105FF00006E041FA02F3D040C2F12002914008438A
:10600000194670470FB4002300B589B00CA9009160
:106010000B996FF00042CB601E4B06931E4B07930B
:106020000423CDE901321D4A089202466B46002046
:1060300000F042FA09B05DF814FB70B586B0064670
:106040004FF0FF300091CDE90101002015460C46CC
:1060500004903246694604A8FFF7D4FF024604982C
:10606000211825B108B1084600E0204628600498B0
:1060700000280DD0002A02DD0098884208D0081BB5
:106080000094CDE901043246694604A8FFF7BAFF3F
:1060900006B070BDF16600080F670008755900086A
:1060A0002DE9F04791460F4680460446002614F835
:1060B000015B2DB1FFF75AFC0068405DC007F6D1C7
:1060C0002B2D02D02D2D18D0641E4A46394620466D
:1060D00000F02EFB27B13968A14201D1C7F800803A
:1060E00071054FF002040BD54042002803DD19F082
:1060F00031F80460A007BDE8F08746F48066E4E765
:106100000028F8DA19F026F804606FF00040F2E792
:106110002DE9F04791460E4680460446002514F8C6
:10612000017B2FB1FFF722FC0068C05DC007F6D1EC
:106130002B2F02D02D2F1ED0641E4A4631462046FA
:1061400000F045FB26B13268A24201D1C6F80080BA
:106150006A054FF0020418D50023D0EB030563EB6A
:1061600001025D1B934109DB0023D0EB030063EBCD
:106170000101BDE8F08745F48065DEE718F0EAFF2D
:10618000046000204FF00041F3E7021E71F10002AD
:10619000EFDA18F0DFFF04604FF0FF304108E8E766
:1061A0000029A8BF7047401C490008BF20F001002B
:1061B000704710B4B0FA80FC00FA0CF050EA010409
:1061C00004BF10BC704749B1CCF1200421FA04F49B
:1061D00011FA0CF118BF012121430843A3EB0C0174
:1061E000CB1D4FEA00614FEA102042BF002010BCD7
:1061F000704700EBC35010440029A4BF10BC704787
:10620000401C490008BF20F0010010BC704710B5C9
:10621000141E73F1000408DA401C41F100019218C9
:106220005B411A4301D120F0010010BD2DE9F04D72
:1062300092469B4611B1B1FA81F202E0B0FA80F2C7
:1062400020329046FFF7ADFE04460F4640EA0A00B2
:1062500041EA0B0153465A46084313D0114653EA0C
:10626000010019D0C8F140025046FFF7A9FE0546CB
:106270000E46504659464246FFF793FE084305D066
:10628000012004E020463946BDE8F08D002005439A
:1062900046EAE0762C4337430A986305E40AA0EB0C
:1062A00008000022FD0A44EA47540A3002D50020C3
:1062B0000146E9E7010510196941DDE908450019C2
:1062C0006941BDE8F04DA2E72DE9F04D00231A46E3
:1062D0001B1A8A4103DB00200146BDE8F08DC1F3A3
:1062E0000A52C1F3130141F480154FF0000BD1079E
:1062F00002D100186D41521E0027044640F2FF11E2
:10630000384601EB620A3E468046024600204FF4C2
:106310008011FFF755FEC2197141BB1846EB010011
:10632000B4EB030C75EB000C04D3E41A65EB000529
:1063300017460E46241908F101006D4180463428A5
:10634000E3DDF91946EB0600091BA84103D24FF023
:10635000FF32134601E0002213461BEB070046EB19
:106360000A51BDE8F04DFFF752BF0000064C074D43
:1063700006E0E06840F0010394E807009847103415
:10638000AC42F6D3FFF7D8FAF841030818420308E5
:106390002DE9FF4F087883B09946FF2805D0491CA6
:1063A0002D2804D00024002008E000200BE0012468
:1063B000F9E700EB800003EB4000491C0B78FF2B52
:1063C000F7D104B1404200230293147819461D46C8
:1063D0002D2C01D02B2C04D1521C2D2C13D0002499
:1063E0000294AA461478FF2C0FD00A25A3FB057847
:1063F00001FB05814FF0000C03FB0C11521CE3194B
:106400004AEB0101EEE70124EAE7814453EA010087
:1064100002D019F5C87F06DA03980021C0E90011FF
:1064200007B0BDE8F08F0025AE4E2F46DFF8B882EA
:10643000184600F03BFACDE90001B9F1000002DA9C
:10644000C9F1000400E004460023A74A1AEB030B3D
:1064500042EB045A12E0E00707D02A46334638469A
:106460004146FFF7F2FB074688462A463346104668
:106470001946FFF7EAFB05460E466410002CEAD1E8
:10648000DDE90001B9F1000F5A46534606DAFFF77D
:106490004EFC3A464346FFF74AFC05E0FFF7D5FBC2
:1064A0003A464346FFF7D1FB029A0AB181F0004118
:1064B000039AC2E90001B3E72DE9FF4F1F468DB0F3
:1064C000D7E901464FF0FF382E2045464FF000092E
:1064D0000B90B9696D1C0E988847396A82468847C7
:1064E0000028F6D1BAF1FF3F0AD024F4D064002E80
:1064F00011DDBAF12B0F08D0BAF12D0F0BD102E04C
:10650000404611B08DE744F48064B9696D1C0E9863
:1065100088478246761E6946600501D52D2000E039
:106520002B208DF8000001F1010B0DF1200809E08E
:10653000B9696D1C0E98884782460F9844F4007420
:10654000761E0560002E02DDBAF1300FF0D00B99F7
:106550008A453ED144F0800406E00F99681CA9F1F9
:10656000010944F400740860B9696D1C761E0E9828
:10657000884782463028F0D02BE00B998A4505D118
:10658000200603D444F08004761E18E0504618F02C
:1065900069FE08B30DF11301761E44F400748B45B7
:1065A00008D2AAF130000BF8010B200607D5A9F19B
:1065B000010003E0200602D409F101008146A00594
:1065C00002D50F99681C0860B9696D1C0E98884740
:1065D0008246002ED1DC53E0002E51DDBAF1650F6A
:1065E00002D0BAF1450F4BD1A00549D5B9696D1C50
:1065F00024F44074761E0E9888478246002E0CDDE7
:106600002B2804D0BAF12D0F07D144F48074B96956
:106610006D1C0E9888478246761EE00501D52D2117
:1066200000E02B2108F8011BCDF82C8021E00DF1B2
:106630002901761E44F4007488450CD2AAF130007A
:1066400010F0FF0088F8000002D10B99884509D9A5
:1066500008F1010806E0E00501D5244801E042F216
:106660000F708146B9696D1C0E98884782460F9855
:106670000560002E04DD504618F0F4FD0028D6D148
:10668000F9690E988847FF208BF8000088F8000011
:106690000020069007904B466A4608A906A8FFF717
:1066A00077FEA00502D46FF001002AE714F0240F52
:1066B0000AD0E00714D1DDE906123868031D3B60FB
:1066C0000068C0E900120BE0DDE90601FFF71CFCE1
:1066D0000146E00704D13868021D3A600068016095
:1066E00028460EE7000014400000F03FF1D8FFFFFD
:1066F000426842B1016811F8013B23B1521EC0E962
:106700000012184670470121C160881E7047426818
:106710005AB1C368016843B983688B4205D0491EEA
:10672000521CC0E90012002070474FF0FF30704744
:106730002DE9F05F82460078002715468B460AF166
:106740000104B946302801D09DB113E014F8010BC3
:106750000127782803D0582801D045B10AE00DB1AF
:10676000102D07D10027102514F8010B02E0082591
:1067700000E00A250026B0460EE005FB080005FBF8
:1067800006F1012701EB10461FFA80F8B6F5803FAD
:1067900000D3B94614F8010B294600F079F8002817
:1067A000EBDABBF1000F05D00FB1641E00E05446D8
:1067B000CBF80040B9F1000F06D018F0CBFC022155
:1067C0000160C81EBDE8F09F48EA0640FAE72DE9DF
:1067D000F74F4FF00009009C1546CA4614F8010B0C
:1067E000302801D0ADB115E014F8010B4FF00109CC
:1067F000782803D0582801D04DB10BE00DB1102DF1
:1068000008D14FF00009102514F8010B02E008250B
:1068100000E00A2500273E46B8464FEAE57B16E031
:10682000A5FB07230BFB073105FB080005FB06163C
:10683000010C571846F100061FFA80F8381E4FF079
:10684000010976F5803000D3CA4614F8010B2946B9
:1068500000F01EF80028E3DA019838B1B9F1000F12
:1068600001D0641E00E0009C01980460BAF1000FA2
:1068700008D018F06FFC02210160C81E014603B069
:10688000BDE8F08F310441EA174148EA0740F6E7D6
:106890003A2800D2303820F02002412A01D3A2F158
:1068A0003700884201D34FF0FF3070470EB540F2F9
:1068B000334202920022CDE900221346FFF7B6FCD4
:1068C00003B000BD70B58C1810F8015B15F007031C
:1068D00001D110F8013B2A1106D110F8012B03E079
:1068E00010F8016B01F8016B5B1EF9D12B0705D481
:1068F0000023521E0DD401F8013BFAE710F8013BCA
:10690000CB1A921C03E013F8015B01F8015B521EE5
:10691000F9D5A142D8D3002070BD002800DC404248
:106920007047000007490020C1F8A4010120C1F808
:10693000AC010549C1F89C010449C1F88C01C1F8BA
:106940009801FEE70000244200002242008022421B
:106950002DE9F05FDFF834E14FF0000C67469EF858
:106960000010E3464FF0010A494D4A4EDFF82881F6
:10697000DFF8289107E037B1012F0BD0022F12D09A
:10698000032F21D118E0C5F8A4B1C6F88CA1C5F831
:1069900094A10EE0C5F8A4A1C6F88CB1C5F894A1E5
:1069A000C5F898A110E0C5F8A4A1C6F88CA1C5F857
:1069B00094B1C5F898A107E0C5F8A4A1C6F88CA1C8
:1069C000C5F894A1C5F898B10020401CC0B20A28AF
:1069D000FBD3002009EB87030FE070B1012808BF4B
:1069E000D5F828210BD0022808BFD6F8182106D0E8
:1069F000032808BFD8F8182101E0D5F82C215CEA5B
:106A0000020408BF195C401CC0B20428E5D3781CFE
:106A1000C7B2042FAFD38EF80010214A9EF80100B0
:106A200049B140BB1068DEF80420801A642888BF92
:106A30008EF8011025E0F0B11168DEF80430C91AB3
:106A4000B1F57A7F09D90B2808BF102003D00C2894
:106A500008BF0F2001D18EF801001068CEF80400A5
:106A60008EF800B09EF801408EF801B019F048FE93
:106A70002046BDE8F09FC0B2084304BF1068CEF8BE
:106A800004008EF800B00020BDE8F09F88000020D0
:106A9000000024420080224200002242C413020867
:106AA0003800002010B501200CF0EAF9BDE81040D4
:106AB00000200CF0E5B981B000F1804000F5D8402D
:106AC0000090008801B070472DE9F047ADF5187DC2
:106AD0000021B94809F086FC4FF4407009F078FCB9
:106AE000B6484FF47A714FF000080068B0FBF1F03F
:106AF000411EB1F1807F0AD24FF0E0204161B04ADF
:106B0000F02182F8141DC0F81880072101610121CD
:106B100040200CF079F903F061FAAA48D0F820017E
:106B2000A94D012400280CBF2C7085F8008085F841
:106B3000008004F0E5FE042012F03AFFA3480AF0BA
:106B400043FA012011F02EFF05F0A2FD012005F00F
:106B5000DDFC022005F058FC0EF0DEF92878022654
:106B600001284FF01403009600F00281E8225F2113
:106B700014200AF078F90546002395A26FF00E0163
:106B80005FF0500006F0B4FF012128460AF02AFA0F
:106B9000012004F041FA4FF461401AF06BF8DFF87D
:106BA00048A2504605F0E4FBDFF8409299F8000057
:106BB000002800F0E980012800F0EC80FF2005F0BB
:106BC000D7FBDC2250218AA004F0E4FA4FF483734F
:106BD00032228AA102A818F0A9FA02AFCDE9007802
:106BE000DC224FF4F07351000A200CF0F3F80EF0A1
:106BF000EDF9A0F56F41163908BF08F087FD1E2199
:106C000028460AF0EFF98048006808F0F5FD4FF0DB
:106C1000FF1005F0ADFB7DA0CDE90004322340F26A
:106C2000D7120F2100200CF0D5F86FF07F4005F04F
:106C30009FFB7D4805F09CFB4FF4165019F076FF42
:106C40004FF4E13019F0BCFF99F800107748DFF8F5
:106C5000E091002918BFC9F88C41C9F89441C0F8E7
:106C6000844118BFC9F898414FF40A717148FEF782
:106C7000C5FE0DF06DFA01466F482A2977D080F8DD
:106C80000080FF2005F074FB6CA000BF18F03EFAF6
:106C9000DC224FF4C8716DA004F07CFA1421284660
:106CA0000AF0A0F9012004F0B7F90CF0B5FA694830
:106CB000C0F884414FF4F07267491CA8FEF776FED5
:106CC000012148070CF0ACF8012105200CF0C0F8B8
:106CD0002020ADF8000018208DF8030003208DF867
:106CE000020069465D4803F047FB012102200CF0D9
:106CF0008BF800F055FD94A800F083FDCDF850828C
:106D0000CDF8548294A91020CDF85C8200F054FD97
:106D10000121102000F0F0FCC9F88C4150480AF025
:106D200073FA2824214628460AF05CF9142004F05E
:106D300073F9611C0CB2502CF4DB9F2409F0B2F9FA
:106D4000224648A102A818F0F1F9CDE90076DC232B
:106D50004FF4F072A02100200CF03CF8284612F00D
:106D6000B3FB04F071FC0DF5187DBDE8F08718E069
:106D700080224FF4967148200AF075F805460023EA
:106D8000502113A2B420FDE64FF4E6720A2137A089
:106D900004E000BF4FF4E6720A2136A004F0FAF9CD
:106DA00014E70470504605F0E3FA00220DA12148D3
:106DB00018F0D8FD31A069E7005800082000002035
:106DC0000FE000E00080234201000020450F010891
:106DD000303A616E692F41303030302F30303238E8
:106DE0002E626D700000000080FF80000000002017
:106DF00048573A20556E6B6E6F776E005625642E9D
:106E0000253033640000000008000020D8B3D98A80
:106E1000D985D8B1D8BA20D8ACD987D8A7D986DA3D
:106E2000AFD8B3D8AAD8B10000FFFF0000002142BC
:106E300000002342BC2A00201D0000200A0D4D69DD
:106E400063726F5344204552524F52004D69637232
:106E50006F53440000002242D01102080008014094
:106E600098770008202564202A20000048573A20FF
:106E70005631000048573A20563200000A0D4D693D
:106E800063726F5344204F4B00000000FEE7CA7846
:106E9000120202608B781A44120202604B781A4484
:106EA0001202026009781144016070477CB5214CE0
:106EB0000546216831F8220F4A8D10440880488821
:106EC000CA8D10444880284604F0BAFC2168498CD9
:106ED000ADF800104618284606F0A8FB3044401EC6
:106EE000ADF8040004F0CCFC2168898CADF80210E8
:106EF0000844401EADF80600684612F0F3FE04E0B8
:106F0000284602F00DFD12F0AFFE0028F8D10A2D40
:106F100004D0BDF804002168401C4884206830F883
:106F2000221F428D891A01804188C28D891A4180B1
:106F30007CBD0000941200202DE9F04F8846824667
:106F400091460421052000F0F7FA80210A200FF075
:106F50008FF80025274C01272E46B8F1000F0FD9D6
:106F60001AF805B0C4F8B461122019F04BFD584668
:106F700019F048FDC4F8B471681CC5B2A845EFD833
:106F80000325C4F8B461022019F03CFD284619F02D
:106F900039FDC4F8B471FF254FF08A08C4F8B46114
:106FA000404619F02FFD002019F02CFDC4F8B471F3
:106FB000691E11F0FF0502D010F0040FEED0C4F8E6
:106FC000B461C42019F01EFD002019F01BFDC4F8A7
:106FD000B47189F80000C4F8B461C22019F012FD40
:106FE000002019F00FFDC4F8B47189F80100BDE864
:106FF000F08F00000000244210B582B00122002171
:1070000013A006F0CBFF041E04BF02B010BD012286
:10701000002113A006F0C2FF002804BF02B010BD7B
:10702000844208D1134804650EF008FB012009F0E2
:10703000E3F902B010BD04214FF47A70CDE90001EC
:10704000002301220CA1184610F024FB02B010BD51
:10705000D8B1D985D8B220D8ACD8AFD98AD8AF00AA
:10706000D8AADAA9D8B1D8A7D8B120D8B1D985D8AB
:10707000B2000000CC140020D8B1D985D8B220D8F5
:10708000A7D8B4D8AAD8A8D8A7D98720D8A7D8B3C2
:10709000D8AA000010B5054C002205A0D4F8B01302
:1070A00006F07CFFC4F8B00310BD0000CC14002033
:1070B000D981D8B9D8A7D98420D8A8D988D8AFD9A8
:1070C0008620D8B1D984D987202D20D985D98AD9CD
:1070D00084D98A20D8ABD8A7D986D98AD987000085
:1070E00010B50A4C04F2E630FEF7EEFC0146002231
:1070F00007A006F053FF02460AA104F2E63018F09A
:1071000015F8012009F078F910BD0000CC1400201A
:10711000D8B1D985D8B220D988D8A7D98AD981D869
:10712000A7D98A002564000030B5194CDFF864C087
:1071300083B0FB2804BFA1F56852B2F1A20215D0BA
:10714000DCF80820824202BF002003B030BD12A349
:107150000A22CDE900230B460246002102200FF04F
:1071600033FE0320606403B0012030BDDCF8000072
:107170000125012812BFCCF800500220CCF80000F5
:10718000022009F039F90EF059FA6564EBE70000C6
:10719000A0110020CC14002000000000F0B5AC4D80
:1071A000B5B028780A2838BF01F05EFA28780324A1
:1071B0000A282ED0A748006808F01EFBA64805F054
:1071C000D7F81C2340F207120521EE20009404F0AA
:1071D000C5FAA24805F0CCF802230622F02128784F
:1071E00003F038FF9E48002180F8CB1180F8BB11D6
:1071F00080F8DB1180F8EB1128780B2824BF35B01C
:10720000F0BDDFE800F038444C5C6E8B9FDBEEFE97
:10721000FD00944805F0ACF81C2340F2071205214C
:10722000EE20009404F09AFA8F480068002814BFFA
:107230004FF40040FF2005F09BF804221021F420B9
:1072400004F01CFA0B234FF480721021F42004F098
:1072500029F904220B21900104F010FA16234FF4AF
:1072600080721021F42004F01DF9042216219001EF
:1072700004F004FAB6E77D4C0020C4F884016420D1
:1072800004F5C27403F0C8FE0120206013E078A169
:10729000794811F01DFE79A007F01AF80BE078A1EB
:1072A000754811F015FE75A007F012F8002818BFF8
:1072B000002040F0BA802878401C00F0B6B86E4C30
:1072C00073A1204611F004FE4FF4FA7003F0A4FEFF
:1072D00073A1204611F0FCFD4FF4FA7003F09CFE00
:1072E000E9E75F4C04F5EE7019F030FB064604F553
:1072F000E67019F02BFB074604F5D67019F026FB53
:1073000002463B466AA102A8009617F00FFF02A9A9
:10731000594811F0DDFD2878401C86E050486BA1EB
:1073200000F2E63300F56D7202A817F0FFFE02A925
:10733000514811F0CDFD2878401C2870002068705D
:1073400035B0F0BD674E4C4F0024347066A138460E
:1073500011F0BEFD68A006F0BBFF002808BF6C70EE
:10736000A9D0604867A1FEF754FB18B967A1FEF7E2
:1073700050FBB0B16978491CC9B269700A299CBF39
:1073800035B0F0BD61A1FEF744FB38B101F06CF9F6
:10739000347055A1384611F09BFD6C702C7035B0DF
:1073A000F0BD6878401CC0B2687003289CBF35B03F
:1073B000F0BD092028706C7035B0F0BD284C04F584
:1073C000DE7019F0C3FA024651A102A8D4F8EC31DC
:1073D00017F0ACFE02A9284811F07AFD2878401C6D
:1073E000287052A006F074FFE0B152A60024304687
:1073F000FEF737FB00280BD9305D0EF049FB01E0AA
:107400001CE015E03046641CFEF72BFBA042F3D8CD
:107410006878401CC0B268700A288EBF062035B05C
:10742000F0BD02E00020A8700920287035B0F0BD42
:107430000A2028700020A86035B0F0BDA868401C64
:10744000A8600A2884BF0020A870EED835B0F0BD2F
:1074500070110020180000204040400080FF800094
:10746000CC14002000FFFF00E011002000002242A9
:10747000415445300A0D0000004800404F4B0000C9
:1074800041542B4349504D55583D300A0D000000E2
:1074900041542B43574D4F44453D310A0D000000E8
:1074A00041542B4349504D4F44453D310A0D000096
:1074B00041542B4349505354413D222573222C22E1
:1074C0002573222C222573220A0D000041542B43E0
:1074D000574A41503D222573222C222573220A0D42
:1074E000000000008084002041542B434950535435
:1074F000415455530A0D00005354415455533A32E8
:10750000000000005354415455533A006275730013
:1075100041542B43495053544152543D22544350FB
:10752000222C222573222C25640A0D00434F4E4E37
:10753000454354002E0000002DE9F041114D002676
:107540000F460446C5F8B461802040EA4400C0B24A
:1075500005F5DA7519F056FA002019F053FA4FF0D4
:107560000108C5F8008020EA07072E607E2000EAA7
:10757000440019F047FA384619F044FAC5F800807B
:10758000BDE8F0810000244270B5464905462A2432
:10759000486B10F0450F03D1486B10F0450FFBD03E
:1075A00010F0040F05D0032404200CF097FB2046B4
:1075B00070BD10F0010F05D0012420460CF08EFBA9
:1075C000204670BD0CF0CAFBA84234D140F2FF50F7
:1075D0000CF084FB00200CF0E3FB334908425ED042
:1075E00010F0004F1CBF1C2070BD10F0804F1CBF5E
:1075F000092070BD10F0005F1CBF0A2070BD10F0A4
:10760000805F1CBF0B2070BD10F0006F1CBF0C20F2
:1076100070BD10F0806F1CBF0D2070BD10F0807F1A
:107620001CBF0E2070BD10F4000F1CBF0F2070BDDA
:1076300010F4800F01D0102070BD10F4001F1CBF8B
:10764000112070BD10F4801F1CBF122070BD10F4FB
:10765000002F1CBF132070BD10F4802F1CBF1420FE
:1076600070BD10F4003F1CBF152070BD10F4803FAA
:107670001CBF162070BD10F4004F1CBF172070BD3A
:1076800010F4804F1CBF182070BD10F4005F1CBFA9
:10769000192070BD10F0080F1CBF1A2070BD2046C5
:1076A00070BD00000080014008E0FFFD10B504F04F
:1076B0005FFE1048042210210078F42003F0DEFF62
:1076C0000B234FF480721021F42003F0EBFE042210
:1076D0000B21900103F0D2FF16234FF4807210218A
:1076E000F42003F0DFFE04221621BDE810409001D3
:1076F00003F0C4BF01000020054A012303FA00F093
:107700000029116814BF084321EA00001060704787
:107710000074004000B5FDB04FF4F0721B4968469C
:10772000FEF744F9012148070BF07AFB01210520FF
:107730000BF08EFB2020ADF8F00118208DF8F3013E
:1077400003208DF8F2017CA9114802F015FE0121F9
:1077500002200BF059FB00F023F878A800F051F854
:107760000020789079907B9078A9102000F024F880
:1077700001211020FFF7C0FF06490120C1F88C014C
:1077800005A009F041FD7DB000BD0000D011020848
:10779000000801400000234231322E77617600005C
:1077A00010B5012148070BF047FBBDE81040002150
:1077B0004FF000500BF040BB0B4B10B41A6840F672
:1077C000FE7C0CFA00FC22EA0C02D1E900C44CEA6F
:1077D000040CD1E9024121434CEA010101FA00F015
:1077E0001043186010BC704700740040A0F6EC30E5
:1077F00081B000F1804000F500400090016001B0D0
:1078000070470021016041608160C16070470000E5
:1078100010F0805F19BF0249086002494860704754
:1078200004040240000002400029016812BF41F038
:1078300001014FF6FE72114001607047002110F007
:10784000805F14BF034A044A1268024218BF012134
:1078500008467047000402400000024010B402686D
:10786000D1F820C08B686FF30E1243EA0C03D1E904
:1078700004C44CEA040C43EA0C03D1F818C043EAF0
:107880000C03D1F81CC043EA0C03D1F824C043EA2E
:107890000C03D1F828C043EA0C031A430260CA68FB
:1078A00042600A6882604968C16010BC70477047D6
:1078B0002DE9F00FC37890F802C084790CEB032314
:1078C00090F801C0857A0CEB032390F800C0867B0A
:1078D0000CEB0323D1F8A0C083EA0C0390F807C097
:1078E00004EB0C2C447904EB0C2C047904EB0C2CE9
:1078F000D1F8A4408CEA040CC47A4FEA1C6905EB69
:107900000424457A05EB0424057A05EB0424D1F818
:10791000A8506C40C57BC4F3074806EB0525467BA1
:10792000007B06EB052500EB0520D1F8AC50DEB25C
:107930004540FC48C5F307274FEA156B50F8266011
:1079400050F8277050F8288086EA376650F829905A
:1079500086EA384686EA3926D1F89070C3F30728BC
:107960007E4050F828900CF0FF07C5F3074850F808
:10797000277050F828A04FEA146887EA396750F852
:10798000288087EA3A4787EA3827D1F89480CCF3F1
:10799000072987EA080704F0FF08C3F3074A50F8ED
:1079A000288050F8299050F82AA050F82BB088EA87
:1079B000396888EA3A4888EA3B28EDB2C4F30724DC
:1079C000CCF3074C50F8255050F824401B0E50F8CB
:1079D0002CC050F8233085EA346484EA3C4C8CEAAD
:1079E0003323D1F89CC0D1F8989083EA0C04F3B209
:1079F00088EA090850F823C0C4F307234FEA146B40
:107A000050F82390C8F307438CEA396C50F82350A0
:107A10003B0E8CEA354C50F82330C4F307498CEA0E
:107A20003323D1F880C0C6F3072583EA0C0307F09F
:107A3000FF0C50F8255050F82CC050F829A08CEAC3
:107A4000356C8CEA3A4C4FEA1869D1F8845050F8FA
:107A50002990C6F3074A8CEA392C8CEA050C08F009
:107A6000FF05C7F30729E4B2C8F3072850F82440FC
:107A700050F8288050F8255050F82990C7F3074750
:107A800084EA3864360E50F82AA085EA396550F841
:107A9000277050F82BB050F8266085EA3A45D1F8A7
:107AA000889084EA374485EA3B2584EA362485EACF
:107AB0000905D1F88C60C5F30748744050F8289048
:107AC000DEB2C4F307274FEA1C6850F8266050F86E
:107AD000277050F8288086EA376686EA39460F6FA5
:107AE00086EA38267E400CF0FF074FEA146B50F808
:107AF0002780C3F3072750F82BB050F82790C4F322
:107B0000074788EA396850F827A02F0E88EA3A48D4
:107B100050F82770CCF3072988EA3727D1F874800A
:107B2000E4B287EA080705F0FF08C5F30725C3F3A9
:107B3000074ACCF3074C50F8244050F825501B0E50
:107B400050F82CC050F8233084EA356484EA3C4C69
:107B50008CEA3323D1F87CC050F8288050F8299063
:107B600083EA0C04F3B250F82AA088EA396850F886
:107B700023C088EA3A48D1F87890C4F3072388EA0A
:107B80003B2888EA090850F82350C8F307434FEA16
:107B9000176950F823308CEA356C50F829908CEA3C
:107BA0003343D1F860C083EA392383EA0C0307F03A
:107BB000FF0C50F82C50C6F3072C50F82C90C4F34F
:107BC000074C85EA396550F82CA04FEA186C85EA15
:107BD0003A4550F82CC0C7F3072985EA3C2C4D6E76
:107BE00050F829908CEA050C08F0FF05C6F3074A07
:107BF00050F825504FEA146BE4B2C8F30728C7F3D6
:107C0000074750F8244050F82880360E50F8277067
:107C100050F8266084EA386484EA374484EA3624DB
:107C2000CE6E50F82AA085EA396550F82BB0744022
:107C300085EA3A45D1F8689085EA3B25DEB2C4F37F
:107C4000072785EA090550F8266050F82770C5F324
:107C500007484FEA1C6950F8288086EA376650F8D2
:107C6000299086EA38460F6D86EA39267E400CF068
:107C7000FF074FEA146B50F82780C3F3072750F82B
:107C80002BB050F82790C4F3074788EA396850F8BA
:107C900027A02F0E88EA3A4850F82770CCF307291E
:107CA00088EA3727D1F85480E4B287EA080705F05C
:107CB000FF08C5F30725C3F3074ACCF3074C50F878
:107CC000244050F825501B0E50F82CC050F823309B
:107CD00084EA356484EA3C4C8CEA332350F82880EB
:107CE00050F82990D1F85CC050F82AA088EA396889
:107CF00083EA0C04F3B288EA3A48D1F8589088EA4B
:107D00003B2850F823C088EA0908C4F30723C8F3C6
:107D100007454FEA176950F8233050F8255050F8BE
:107D2000299001E0640900208CEA336383EA35433B
:107D3000D1F840C083EA392383EA0C0307F0FF0C33
:107D40004FEA146B50F82C50C6F3072C50F82BB0A8
:107D500050F82C90C4F3074C85EA396550F82CA0F4
:107D60004FEA186C85EA3A4550F82CC0C7F307294A
:107D700085EA3C2C4D6CC6F3074A8CEA050C08F0EA
:107D8000FF05E4B2C8F30728C7F3074750F82440BB
:107D900050F82880360E50F8277050F8266084EA94
:107DA000386484EA374450F8255050F8299084EA22
:107DB0003624CE6C50F82AA085EA3965744085EAED
:107DC0003A45D1F8489085EA3B25DEB2C4F307274F
:107DD00085EA090550F8266050F82770C5F3074872
:107DE0004FEA1C6950F8288086EA376650F82990D7
:107DF00086EA38460F6B86EA39267E400CF0FF078C
:107E000050F82780C3F3072750F82790C4F307479B
:107E100088EA396850F827A02F0E88EA3A4850F8C7
:107E20002770CCF3072988EA3727D1F8348050F837
:107E3000299087EA080705F0FF08C3F3074A50F8BE
:107E400028804FEA146BE4B2C5F30725CCF3074C46
:107E500050F8244050F825501B0E50F82CC050F814
:107E6000233084EA356484EA3C4C8CEA3323D1F82D
:107E70003CC050F82AA088EA396850F82BB083EA51
:107E80000C0588EA3A48D1F8389088EA3B28F3B2E2
:107E900088EA090850F82340C8F3074CC5F30723C4
:107EA00050F82C9050F823304FEA176C84EA336373
:107EB00050F82CC083EA394383EA3C23D1F820C030
:107EC00083EA0C04FBB250F823A0C6F3072350F852
:107ED00023C0C5F307438AEA3C6C50F823904FEA6D
:107EE00018638CEA394C50F823308CEA3323D1F8EC
:107EF00024C083EA0C0308F0FF0C50F82C90C7F361
:107F0000072CC7F3074750F82CA0C6F3074C89EAA3
:107F10003A6950F82CB04FEA156C89EA3B4950F8A1
:107F20002CC0EDB289EA3C2CD1F82890360E8CEAB0
:107F3000090C50F82590C8F3072550F8277050F821
:107F4000255050F8266089EA356585EA374585EA87
:107F50003625CE6A85EA0608E5B250F82550C8F302
:107F60000726CCF3074750F8266050F827901F0EDD
:107F700085EA366550F8277085EA39450E6985EA45
:107F800037257540DEB2C8F3074950F82670C4F3B0
:107F900007264FEA1C6A50F8266050F8299087EAB5
:107FA000366650F82AA086EA39464F6986EA3A26AC
:107FB0007E400CF0FF07CCF3072C50F82790C3F35A
:107FC0000727C3F3074350F827A0C4F3074750F827
:107FD0002CC050F827B04FEA186708F0FF0850F897
:107FE000277050F82880240E50F8233050F82400D1
:107FF00088EA3C6C8CEA334383EA3020CB6989EA17
:108000003A6989EA3B4980EA030889EA3727444804
:10801000D1F81890EBB287EA0907C8F3072CC7F329
:10802000074450F8233050F82CC050F82490340EF8
:1080300083EA3C6350F8244083EA394383EA3423DB
:10804000C5F30724D1F800C050F8249083EA0C034C
:10805000C8F3074406F0FF0C50F824A050F82CC0D9
:108060003C0E8CEA396C50F824408CEA3A4C8CEA8D
:10807000342C4C688CEA040CFCB2C7F3072750F888
:108080002490C6F30724C6F3074650F824A0C5F38E
:10809000074489EA3A6950F824B04FEA186408F0B6
:1080A000FF0850F8244089EA3B492D0E89EA342420
:1080B00050F8288050F8277050F82660D1F80890C2
:1080C00050F8250088EA376585EA3645C96885EAAB
:1080D00030204840190ED170190C9170190A517056
:1080E00013704FEA1C61D1714FEA1C4191714FEA44
:1080F0001C21517184EA090482F804C0210ED17256
:10810000210C9172210A51721472010ED173010C6B
:108110009173010A51731073BDE8F00F70470000AE
:10812000640D00202DE9F0478046494882B0914611
:1081300000780F4600281CBF02B0BDE8F087DFF8CA
:1081400014A1504604F014F9434D032400942878F8
:1081500040F2DB1200F20F1300F1FA0140F2451079
:1081600003F0FCFA4FF6FF7004F002F9009428784F
:1081700040F2DB1200F20F1300F1FA0140F2451059
:1081800003F01AFA6FF07F4004F0F2F80226CDE90E
:10819000009640F20F1340F2DB12F02140F245103E
:1081A0000AF018FE504604F0E3F80094287840F2F4
:1081B0003B1200F20F1300F1FA01A52003F0CEFAF2
:1081C0004FF6FF7004F0D4F80094287840F23B1288
:1081D00000F20F1300F1FA01A52003F0EDF96FF0A2
:1081E0007F4004F0C5F8CDE9007640F20F1340F26D
:1081F0003B12F021A5200AF0EDFD504604F0B8F83E
:10820000009428789B2200F20F1300F1FA01052058
:1082100003F0A4FA4FF6FF7004F0AAF8009428784F
:108220009B2200F20F1300F1FA01052003F0C4F9BC
:108230006FF07F4004F09CF8CDE9008640F20F1308
:108240009B22F02105200AF0C5FD02B0BDE8F087B1
:1082500000000020006C0B00040000202DE9F04F0E
:1082600083B09A46164689468346072A0FD22EB116
:10827000062E08BFB9F1070F03D004E0B9F1070FCC
:1082800001D34FF0010A00270024254691E0B01FDA
:108290004FF0010AC7B2F7E72234BAF1000F04D158
:1082A0007819B04218BF48457DD107EB0500B042B0
:1082B00010D10620454A00904549CDE9011204F14C
:1082C00021034FF48772A11C002003F05BF84FF6E6
:1082D000FF701CE0002004F04BF80620009004F131
:1082E00020034FF48772E11C002003F037FA6FF08F
:1082F0007F4004F03DF80620009004F121034FF484
:108300008772A11C002003F057F94FF47F4004F05E
:108310002FF898F81C0018B3642816D3A0F1640154
:10832000012088402B4980B24FF00103097888432F
:1083300005D029A2A11DE62005F0DAFB16E027A250
:10834000A11DE62005F0D4FB10E022494FF0010307
:108350000978884205D122A2A11DE62005F0C8FBBC
:1083600004E020A2A11DE62005F0C2FB1E49D8F8BA
:1083700010C000230878ADF800304FF48273ADF8D8
:108380000430201A097800F123020844ADF80200F5
:1083900088184FF00108ADF806004346424669468A
:1083A000604602F0FFFE6D1C072DA4BF03B0BDE8C0
:1083B000F08FE8190BEB4018D8F80000007800287F
:1083C0007FF46AAF03B0BDE8F08F000000282800FA
:1083D00000DCDC0090110020303130003031310001
:1083E0003031350030313400040000202DE9F04FE9
:1083F00083B09A461646884681460C2A0FD22EB183
:108400000B2E08BFB8F10C0F03D004E0B8F10C0F2D
:1084100001D34FF0010A002700252C4642E0A6F1C7
:108420000B004FF0010AC7B2F6E72335BAF1000F8F
:1084300004D13819B04218BF40452DD107EB0400D4
:10844000B0420CD11C491D48CDE9000105F12403BF
:108450004FF488722946002002F0CAFF0CE06FF04A
:108460007F411748CDE9000105F124034FF48872DC
:108470002946002002F0BCFF002003F079FF0C2108
:1084800009EB4B00CDE9000105F123034FF487729E
:10849000294600200AF09EFC641C0C2CA4BF03B0EB
:1084A000BDE8F08FE019C0EB001B19F81B00002895
:1084B000BBD103B0BDE8F08F41ACFF000160F70015
:1084C000E4DFDA0000B583B00CF0C2FC00200CF051
:1084D000CFFC642002F0A0FD012200210FA005F0D6
:1084E0005DFD39284FF000001CBF03B000BD0090B7
:1084F000002301901A4612A118460FF0CBF80CF099
:10850000CBFC07F08BFA0CF0A3FC34200CF0B0FC91
:10851000642002F081FD03B000BD0000212121D8BC
:10852000ADD8A7D981D8B8D98720D9BED8A7DAA91C
:1085300020D985D98A20D8B4D988D8AF2121210063
:10854000D8A2D985D8A7D8AFD98720D8B3D8A7D8EB
:10855000B2D98A20D8ADD8A7D981D8B8D987000098
:108560002DE9F05F6FF07F4003F002FF0F2105223D
:10857000084603F083F8344D344C354FA878002674
:108580004FF002084FF00E094FF0040A4FF0630B52
:1085900080B16878002808BFBDE8F09F28202870C7
:1085A0002C480078AA281CBF2E706E7026D001209F
:1085B000BDE8F09F84F8008084F801903888A070AE
:1085C000000AE07084F804A0667184F806B0A52063
:1085D000E071267266720922611C002017F0B8F85B
:1085E000A072000AE072032020730120A880A878FE
:1085F00000281CBF68780028D0D1D8E7A8880028B8
:10860000D5D084F8008084F801903988A1704FEAB1
:108610001121E17084F804A0667184F806B04FF06F
:10862000A501E17120724FEA102060724FF009023B
:1086300004F101014FF0000017F08AF8A072000A5F
:10864000E07203202073B2E7941100205C8F0020B9
:10865000CC140020308F002002480021816041604E
:10866000C1607047D000002070B51949012017A5DE
:10867000C1F8840100242846FDF7F3F9002808D941
:10868000285D0DF005FA2846641CFDF7EAF9A042C2
:10869000F6D8104D00242846FDF7E3F9002808D944
:1086A000285D0DF0F5F92846641CFDF7DAF9A042C3
:1086B000F6D8094800210161C1604161BDE8704000
:1086C0004FF496610348FDF799B900003C3C200047
:1086D0000000214280880020701100202DE9F00F59
:1086E000C37890F802C084790CEB032390F801C0A2
:1086F000857A0CEB032390F800C0867B0CEB0323F8
:10870000D1F800C083EA0C0390F807C04FEA136A5F
:1087100004EB0C2C447904EB0C2C047904EB0C2CAA
:108720004C688CEA040CC47ACCF3072705EB0424CC
:10873000457A4FEA1C6B05EB0424057A05EB04240B
:108740008D686C40C57B06EB0525467B007B06EB00
:10875000052500EB0520CD68DEB24540FB484FEA19
:10876000156950F8278050F82660C4F3074786EA59
:10877000386650F8277050F8299086EA37460F6916
:1087800086EA39267E400CF0FF07C4F3072850F82C
:10879000277050F82880C5F3074987EA386750F8F2
:1087A000299050F82AA087EA3947D1F8148087EA3F
:1087B0003A2787EA080704F0FF08C5F30729C3F33F
:1087C000074A50F8288050F8299050F82AA050F80D
:1087D0002BB088EA396888EA3A4888EA3B28EDB243
:1087E000C3F3072350F8255050F82330CCF3074C3F
:1087F000240E50F82CC085EA336350F8244083EAF5
:108800003C43D1F81CC083EA342383EA0C04F3B25E
:10881000D1F8189050F823C0C7F3072388EA090855
:1088200050F82330C8F307454FEA146950F8255033
:108830008CEA336350F8299083EA354383EA39237D
:10884000D1F820C0C4F3074983EA0C0307F0FF0CFA
:1088500050F8299050F82C50C8F3072C4FEA166AAC
:1088600050F82CC050F82AA085EA3C6C8CEA394CB0
:108870008CEA3A2CC4F307294D6AC6F3074A8CEAFE
:10888000050C08F0FF054FEA176BE4B2C6F30726A4
:1088900050F8244050F82660C7F3074750F8255099
:1088A00050F8299050F827704FEA186884EA366427
:1088B00050F82AA085EA396550F8288084EA3744C0
:1088C00050F82BB085EA3A45D1F8289084EA38244C
:1088D000CCF3072785EA3B2585EA0905CE6A50F8DF
:1088E0002780C5F30747744050F82790DEB2270E63
:1088F00050F8266050F8277086EA386686EA3946CE
:1089000086EA37260F6BC5F307287E400CF0FF0779
:1089100050F8289050F82770C4F3074887EA396761
:1089200050F828804FEA136A87EA384750F82AA09F
:10893000D1F8348087EA3A27C4F3072987EA080781
:10894000C3F3074A05F0FF084FEA1C6BE4B2C3F318
:108950000723CCF3074C50F8244050F8233050F84C
:108960002CC02D0E84EA336350F8288050F82990EB
:1089700050F8255083EA3C43D1F83CC050F82AA077
:1089800088EA396883EA352383EA0C0488EA3A489E
:10899000F3B250F82BB0D1F8389050F823C088EAE1
:1089A0003B28C7F3072388EA090850F82350C8F387
:1089B00007438CEA356C50F823304FEA14698CEA8F
:1089C000334350F82990D1F840C083EA392383EA31
:1089D0000C0307F0FF0CC8F3072550F82CC050F823
:1089E0002550C4F307494FEA166A50F829908CEADB
:1089F000356C50F82AA08CEA394C4D6C8CEA3A2C34
:108A00008CEA050C08F0FF05C4F3072950F825503F
:108A100050F82990C6F3074A4FEA176B50F82AA07E
:108A200085EA396550F82BB085EA3A4585EA3B2559
:108A3000D1F84890C6F3072685EA090550F8269034
:108A4000E4B2C7F3074650F8244050F826604FEAD6
:108A5000186784EA396450F8277084EA3644CE6C8B
:108A600084EA37247440DEB2C5F3074850F8267014
:108A7000CCF307264FEA146950F8266050F8288096
:108A800087EA366650F8299086EA38460F6D86EAFE
:108A900039267E400CF0FF074FEA1C6B50F8278008
:108AA000C5F30727CCF3074C50F82790C4F30747CA
:108AB00088EA396850F827A01F0E88EA3A4850F82B
:108AC0002770C4F3072988EA3727D1F85480C3F305
:108AD000074A87EA080705F0FF08E4B2C3F3072353
:108AE00050F8244050F8233050F82CC02D0E84EA62
:108AF000336350F8255083EA3C4350F8288050F8FF
:108B00002990D1F85CC083EA352350F82AA088EA7E
:108B1000396883EA0C0450F82BB0F3B288EA3A487B
:108B2000D1F8589088EA3B2850F8233088EA0908A1
:108B3000C7F3072C4FEA146950F82C50C8F3074CC0
:108B400050F8299050F82CC002E000006401002089
:108B500083EA356383EA3C43D1F860C083EA392372
:108B600083EA0C0307F0FF0C4FEA166A50F82C500A
:108B7000C8F3072C50F82AA050F82C90C4F3074CE7
:108B800085EA396550F82CC0C4F3072985EA3C4CC6
:108B90008CEA3A2C4D6EC6F3074A8CEA050C08F0B5
:108BA000FF05E4B2C6F307264FEA176B50F82440DE
:108BB00050F82660C7F307474FEA186850F8277047
:108BC00084EA366450F8288084EA3744CE6E84EA1A
:108BD0003824744050F8255050F82990DEB250F8EF
:108BE0002AA085EA396550F8267050F82BB0CCF3EE
:108BF000072685EA3A45D1F8689085EA3B2550F882
:108C0000268085EA0905C5F3074687EA386750F8E4
:108C10002690260E87EA394750F82660C5F30728C4
:108C200087EA36260F6F50F828907E40C4F3074835
:108C30000CF0FF0750F828A050F827704FEA13688F
:108C400087EA396750F8288087EA3A4787EA382761
:108C5000D1F87480C4F3072987EA080705F0FF08F4
:108C600050F8299050F82880C3F3074A4FEA1C6B4C
:108C700050F82AA088EA396850F82BB088EA3A48B8
:108C8000D1F8789088EA3B28C3F3072388EA0908DB
:108C900050F82390E4B2CCF3074350F824404FEA55
:108CA000156C50F8233050F82CC084EA396484EAFB
:108CB000334383EA3C23D1F87CC083EA0C05C7F335
:108CC000072CF3B250F82C40C8F3074C50F823306F
:108CD00050F82CC04FEA156983EA346350F82990A4
:108CE00083EA3C43D1F880C083EA392383EA0C0449
:108CF000FBB250F823C0C8F3072350F82390C5F304
:108D000007438CEA396C50F823A0330E8CEA3A4CB6
:108D100050F823304FEA17698CEA3323D1F884C026
:108D200050F8299083EA0C0308F0FF0C50F82CA0AF
:108D3000C5F3072CEDB250F82CB0C6F3074C8AEA05
:108D40003B6A50F82CC08AEA3C4C8CEA392CD1F8AA
:108D500088908CEA090C50F82590C6F30725C7F3D4
:108D6000074650F8255050F826604FEA186789EA00
:108D7000356550F8277085EA3645D1F88C6085EA6C
:108D8000372585EA0608E5B250F82550C3F30726D3
:108D9000CCF3074750F826604FEA186950F827705F
:108DA00085EA366550F8299085EA3745D1F8906014
:108DB00085EA39257540DEB24FEA146A50F826700C
:108DC000CCF3072650F82AA050F82690C8F307469F
:108DD00087EA396750F82660C8F3072987EA3646DC
:108DE00086EA3A26D1F89470C4F3074A7E400CF024
:108DF000FF074FEA136B50F8277050F8299050F88E
:108E00002AA050F82BB008F0FF08C4F30724C3F3DE
:108E100007434FEA1C6C50F8288050F8244050F863
:108E2000233050F82C0088EA346C8CEA334383EA10
:108E30003020D1F89C3087EA396780EA0308484837
:108E400087EA3A47D1F8989087EA3B2787EA0907EB
:108E5000EBB2C6F3072CC7F3074450F8233050F8A1
:108E60002CC050F824904FEA186483EA3C6350F811
:108E7000244083EA3943D1F8A0C083EA342383EA4B
:108E80000C0306F0FF0C4FEA156A50F82C40C7F3AC
:108E9000072C50F82AA050F82C90C8F3074C84EA0D
:108EA000396450F82CC084EA3C4C8CEA3A2CD1F856
:108EB000A440C5F3074A8CEA040407F0FF0C4FEA0C
:108EC000166B50F82C90C8F3072C08F0FF0850F8E8
:108ED0002CC0C5F3072550F82AA089EA3C6CC6F3DC
:108EE000074650F82BB050F8288050F825503F0E18
:108EF000D1F8A89050F8266050F8270088EA356528
:108F000085EA3645D1F8AC1085EA30204840190E84
:108F1000D170190C9170190A51701370210ED17112
:108F2000210C91718CEA3A4C210A8CEA3B2C51714C
:108F30008CEA090C14714FEA1C61D1724FEA1C4192
:108F400091724FEA1C21517282F808C0010ED17350
:108F5000010C9173010A51731073BDE8F00F704753
:108F60006405002010B400220F4B0124944600BF7A
:108F7000C3F88841C8210020C1EB011100BF401C8B
:108F8000B0EB410FFAD3C3F888C150210020C1EBE8
:108F9000011100BF401CB0EB410FFAD3521CB2F5D7
:108FA000C87FE5D310BC7047000023422DE9F04F85
:108FB000002583B00446A84601F05EFFDFF860910B
:108FC000DFF860A15848CDE900A901784FF4887214
:108FD00001F12303002002F00BFA01232A460021AD
:108FE0002046FFF73BF9514E376844F6206B306856
:108FF000C01B584570D20CF013FC002818BF37680E
:10900000F5D00F2868D008DC0B282AD00C2840D0D7
:109010000D280AD00E28EAD17DE01E287BD04C28EE
:109020001FD0522835D07828E1D104EB4511087FB4
:10903000002852D0642838BF804660D3A0F1640174
:109040000120884080B230EA080103BF4FF6FF716B
:10905000484000EA080848EA000018BF00F0FF088E
:109060004DE004EB4510006A007850B1681CC2B2B4
:109070000090002329462046FFF7F0F80098C5B27B
:10908000B5E700231A4629462046FFF7E7F80025F2
:10909000ADE7002D08BF00200AD0681EC2B20090C4
:1090A000002329462046FFF7D9F80098C5B29EE76D
:1090B00004EB40110968097800291CBF401C80B2EC
:1090C000F6D1401EC2B20090002329462046FFF789
:1090D000C5F80098C5B28AE71DE0886978B1804775
:1090E000642814D00CF09CFB01F0C6FECDE900A969
:1090F000002123234FF48872084602F079F937687B
:109100002A46012311462046FFF7A8F86FE703B06F
:109110000020BDE8F08F03B04046BDE8F08F0000AE
:109120000A0A0A00EAE6E3000400002038000020F2
:109130002DE9F04383B00746002401F09DFE2C4941
:109140002C48CDE90001002123234FF48872084602
:1091500002F04EF90123224600213846FFF746F976
:10916000254D2E6843F698282868801B40453BD241
:109170000CF056FB002818BF2E68F5D00E2833D00F
:1091800014DC0C2816D00D28EED1C4EB041007EB2C
:1091900040011A4E00254D7706F56D70FCF768FC0E
:1091A00086F8D15303B02046BDE8F0830F281BD0CA
:1091B0005228D9D1C4EB041007EB4000807F58B18E
:1091C00004F1010909F0FF02002321463846FFF7A8
:1091D0000DF909F0FF04C7E700231A462146384677
:1091E000FFF704F90024BFE703B0FF20BDE8F083D8
:1091F0000A0A0A00EAE6E30038000020CC14002046
:109200002DE9FF4F00278DB0994616468B46B8468C
:1092100017F052F81D990025E24C0D601E994AF690
:10922000AA2A0D60E048C0F800A0684605F08AF957
:1092300040B1684605F086F920B17F1C142FF1D3A8
:1092400000F0A2B9681CC5B20098002720600AF09F
:109250004FFA30B36168CBF800102C2819D00CDC21
:10926000042812D00B28DDD1A06830606068CBF8EC
:10927000000011B00B20BDE8F08F37280DD05A2820
:10928000D0D111B00620BDE8F08F11B00220BDE8AA
:10929000F08F11B00E20BDE8F08F11B00F20BDE8A7
:1092A000F08FDBF8000000281FBF616881420920B1
:1092B00011B018BFBDE8F08F6068CBF80000A0685F
:1092C0003168884218D0B9498A6841F6E7018A4274
:1092D00007BFA0F52062B2F1E60230600A201CBF91
:1092E00011B0BDE8F08F40F6E4426068A0F5E640BA
:1092F0003C38904298BF3160A0683060AC48AD49BE
:10930000AD4F00780978C0EB0010002601EB800B10
:10931000A44906EB0612002007EB82040A5C235CDA
:109320009A4204D1401CC0B20428F7D301E00428BB
:1093300028D3022E26D2207D617DC0EB001001EBE8
:109340008000BBEB000048BF40420A2806DA4422F6
:1093500021469448FCF72AFB4FF00108002060608A
:10936000A060E061A06120626073207320612075BD
:1093700060756062A062E06220636063A063E06386
:1093800020642060701CC6B2022EC1D3854C209987
:10939000B8F1000F607B08701F99208A08801D9823
:1093A000E16901603AD1E069C4F8189020620D9833
:1093B00060737F48007820757E48007860751C983F
:1093C0002061207B401CC0B22073122824BF0021E2
:1093D000217321462198227B02700D9800F00F0026
:1093E000012812D002281EBF052011B0BDE8F08F61
:1093F000C869484521BF1B9A8242A0EB0900E06181
:109400000AD211B00320BDE8F08FC8691B9A484406
:10941000904298BFE061F4D808F004F8012D18BF1D
:10942000002607D160480025C0F800A038E0012DD3
:1094300008BF02255C48C0F800A0012D30D968465D
:1094400005F080F898B1761C142EF0D3B8F1000F17
:1094500018BF00207DD000BF00EB001107EB810199
:109460004968A1B3401CC0B20228F5D381E021783D
:109470009DF80020204691420ED141789DF80120B0
:10948000914209D181789DF80220914204D1E0787F
:109490009DF80310884203D011B00420BDE8F08F7E
:1094A000207B46490026A1FB00214908494201EBE7
:1094B000C1010844C0B2092821D2DFE800F0050943
:1094C0000C0F1215181B1E004FF02C0B17E04EE06E
:1094D0004FF02D0B13E04FF02E0B10E04FF0300B40
:1094E0000DE04FF0310B0AE04FF0320B07E04FF088
:1094F000340B04E04FF0350B01E04FF0360B4FEA30
:109500009B00352104F072FF002890D1A14604F1A0
:109510003401584605F03EF808BBDFF8A48098F8FF
:10952000021098F8000004F061FFC0B909F12401AD
:1095300098F8010005F02EF888B904A998F8010000
:1095400004F0AEFF002808BF04A908D109EB00020F
:1095500000E019E092F824200B5C9A4202D04FF010
:10956000010864E7401CC0B21028EFD310E00228C5
:1095700000D3002000EB001007EB800044220949D3
:10958000FCF714FA142E03D311B00120BDE8F08FBC
:109590001D98E16901601E98216A016011B00020E8
:1095A000BDE8F08F8080002000300040CC14002007
:1095B0009400002095000020C4800020398EE338FC
:1095C0006411002070B4012200EB02110C6804F059
:1095D0008033A3EBD31303F01B3304F07F3C83EA07
:1095E0004C0303F0803CACEBDC1C0CF01B3C03F0A8
:1095F0007F358CEA450C0CF08035A5EBD51505F0D0
:109600001B350CF07F3685EA46056C4083EA0C0674
:109610007540634085EA33238CEA040C83EA3C43BB
:1096200083EA34630B604C6804F08033A3EBD313FC
:1096300003F01B3304F07F3C83EA4C0303F0803CCF
:10964000ACEBDC1C0CF01B3C03F07F358CEA450CCA
:109650000CF08035A5EBD51505F01B350CF07F36E9
:1096600085EA46056C4083EA0C067540634085EA4E
:1096700033238CEA040C83EA3C4383EA34634B6073
:109680008C6804F08033A3EBD31303F01B3304F096
:109690007F3C83EA4C0303F0803CACEBDC1C0CF019
:1096A0001B3C03F07F358CEA450C0CF08035A5EBB4
:1096B000D51505F01B350CF07F3685EA46056C4064
:1096C00083EA0C067540634085EA33238CEA040C78
:1096D00083EA3C4383EA34638B60CC68521C04F019
:1096E0008033A3EBD31303F01B3304F07F3C83EAF6
:1096F0004C0303F0803CACEBDC1C0CF01B3C03F097
:109700007F358CEA450C0CF08035A5EBD51505F0BE
:109710001B350CF07F3685EA46056C4083EA0C0663
:109720007540634085EA33238CEA040C83EA3C43AA
:1097300083EA3463CB60092A7FF646AF70BC70477A
:109740002DE9F003C27812020A6083781A441202EB
:109750000A6043781A4412020A6003781A440A60C5
:10976000C27912024A6083791A4412024A6043792C
:109770001A4412024A6003791A444A60C27A1202F9
:109780008A60837A1A4412028A60437A1A44120267
:109790008A60037A1A448A60C27B1202CA60837BA1
:1097A0001A441202CA60437B1A441202CA60007B48
:1097B000204B104400220124A3F27C49C1F80C0084
:1097C00001EB8200C5684FEA352C0CF0FF0653F818
:1097D0002680CCF3072653F82670CCF307464FEAD1
:1097E0001C6C53F8266053F82CC088EA376787EA68
:1097F000364686EA3C2C51F82260121D8CEA060C93
:1098000059F82460641C8CEA060CC0F810C0466845
:10981000282A86EA0C0CC0F814C0866886EA0C0C6C
:10982000C0F818C085EA0C0CC0F81CC0C8DBBDE845
:10983000F0037047640500208000A0F1C0400029BB
:10984000016812BF41F00101014A114001607047F7
:10985000FEFF0F00D0E901121143D0E903231A43A0
:1098600011434269114382691143C2691143026A7B
:109870001143426A1143826A1143C26A1143026B67
:109880000A4301688900A1F1C0410A608168082982
:1098900007D101688900A1F1C0410A6842F0400285
:1098A0000A60416BD1E9002342EA03128B68B1F8E8
:1098B0000CC01B0243EA0C431A430B8A42EA0352D0
:1098C0000B7D896942EA0362114302689200A2F1AA
:1098D000C0425160C16AB1F5804F08D000686FF096
:1098E00070418000A0F1C040C0F804117047816B46
:1098F000D1E9002342EA03128B68B1F810C01B02C1
:1099000043EA0C531A430B7D896942EA03620068FB
:1099100011438000A0F1C040C0F80411704700005E
:1099200010B504460A280FD00D2C11D00948006844
:10993000C06901682046884707480168002907D0A8
:109940002046BDE810400847BDE8104001F094BB38
:1099500010BD000094120020BC1200202DE9F0433D
:109960000446C56887B090468946002002F002FD93
:10997000064625B1287910B146F0020001E026F034
:10998000020002F0F7FC2069012558B1D4E9021267
:109990008DE826000395638822880468414648467E
:1099A000A0471EE0124F134B214638681B68427CCB
:1099B000E068984730B9E088012801D0002001E034
:1099C0003868806BA288E388A1680095CDE904100F
:1099D000CDE902320195638822884146484604F069
:1099E00045FF07B03046BDE8F04302F0C3BC0000BD
:1099F000941200208C1200201CB50024019401ACAC
:109A0000009400F0E7F81CBD2DE9FF4F83B08146BC
:109A100006988A46A0EB0A08109E00200090A2EB50
:109A200009043568934654EA080018D02046FCF72C
:109A300074FF07464046FCF770FF87420BDA20466A
:109A4000444680464846D14682465846DDF818B01E
:109A5000069001200090002C07DD204606E007B0AC
:109A60004846BDE8F04F00F03BB96042A0420AD042
:109A70004846D9466442C8F1000883464FF0FF3794
:109A8000DDF818A000E001275148B8F1000F11D00F
:109A900004EBD4714FEA610B01DACBF1000B4C48B7
:109AA0000068807E88B3002F02DA3068204430607E
:109AB00000257BE000990029016821D0897E11B141
:109AC0000027804615E007B05A4649465046BDE893
:109AD000F04F05F02FB828466D1C14F073FC38B910
:109AE000D8F8000009EB0701C06E42685046904765
:109AF0007F1CA742EFDD6D1E356007B0BDE8F08F1B
:109B00008A7E1AB10027804617E019E0C86E5A46CF
:109B10005146036807B04846BDE8F04F184728464D
:109B20006D1C14F04FFC38B9D8F8001009EB070091
:109B3000C96E4A68514690477F1CA742EFDDDAE7BD
:109B400000250FE008FB05B090FBF4F101EB0A00E3
:109B5000009951B11E4A09EB05011268D26E526894
:109B600090476D1CA542EDDDC7E7194909EB0503D8
:109B70000968C96E4A6801461846F1E708FB05B056
:109B800090FBF4F101EB0A0001903068384430603A
:109B900014F018FC48B9009890B10D4809EB050184
:109BA0000068C06E4268019890476D1CA542E5DDD3
:109BB0003068002F01DA20443060C01B30609CE721
:109BC000034909EB05000968C96E4A680199EBE78A
:109BD000941200202DE9FF470F4640491646804663
:109BE00009680C981D460A7E012A1CD0A8EB0600C5
:109BF000791B50EA01031CD0A2F1010915F0CAFA41
:109C000000F58060824603F045FF00FB09F45046F2
:109C100003F044FF00FB09F1002C0CDAC4F50070DE
:109C2000801240420AE00090324639464046FFF733
:109C3000EBFEBDE8FF8704F50074A012002904DAEA
:109C4000C1F5007189124C4202E001F500718C12DD
:109C5000002804DD411C01EBD171491003E000EB49
:109C6000D0714910401E00EBD0704210002C04DD72
:109C7000601C00EBD070401003E004EBD470401087
:109C8000641E04EBD47308EB0104ADF800403C18EB
:109C9000ADF80240A8EB02045B10B21AADF8044024
:109CA000ADF808203144FC1AEA1AADF80C1028442B
:109CB000ADF80A20ADF80E000023ADF806401A46B4
:109CC0000421684600F07AF83946404612F010FC4C
:109CD0002946304612F00CFCABE70000941200203D
:109CE000064A13681A7E012A05D0521E02EBD27270
:109CF000521000F005B8DA6E526810479412002036
:109D00002DE9F05F0646884640F2C32050434FF4E9
:109D10007A7190FBF1F702FB02F002EBD27100EBDB
:109D2000610B254914467F1C09683244301BC96EFB
:109D30000B684146984701253AE000BF05FB05F056
:109D400004FB040159451CDDBC4219DD1A4B06EB2E
:109D5000050AA6EB05091B68AAF1010208EB04013C
:109D6000DB6E09F101001B689847134BAAF1010251
:109D7000A8EB04011B6809F10100DB6E1B68984722
:109D8000641E0D4806EB040AA6EB0409006808EB04
:109D900005015246C06E0368484698470648A8EB3E
:109DA000050152460068C06E0368484698476D1C1E
:109DB000BD42C3DDBDE8F09F941200202DE9FF4FA6
:109DC00040F6FF740F46664283B09B4681460021F1
:109DD0000BE000BF09EB8100B0F90200A04200DAFD
:109DE0000446B04200DD0646491CB942F2DB684831
:109DF0000068406900280DD0B0F906101A46A1EBA2
:109E00000B01B14200DA0E46B0F90200801AA042FE
:109E100000DD0446B5E0DFF87CA100200546CAF865
:109E2000000089E0781E854201DA6B1C00E0002307
:109E300009EB850C09EB8302BCF90200B2F90210B0
:109E4000A04245D1A14215D139F92330059A39F9FB
:109E5000251003EB020C4E4A05981268084404EBE7
:109E60000B01D26E6045136801DA62462BE00246B0
:109E7000604628E02846A4464FF000087A1E0BE012
:109E800008B1401E00E0781E09EB8003B3F90230F0
:109E9000634504D108F101089045F1DB2346A34254
:109EA00049D0A3EB040239F92500A1EB040C059B72
:109EB00092EA0C0209D4364A184404EB0B011268EA
:109EC000D26E13680246984735E010F0A5FA32E0EA
:109ED000A14230D001DBA04203DDA0422BDBA14236
:109EE00029DCE04688420ADC0346A04223DC08461F
:109EF000A14220DBB8F900C0B2F9001008E00B461F
:109F0000A14218DCA04216DBB2F900C0B8F900107B
:109F1000E21AA1EB0C0151430029A0EB030202DD80
:109F200001EB620102E0A1EB6201491CC01A91FB46
:109F3000F0F06044C9E76D1CBD42FFF673AF0598B1
:109F4000009004EB0B00019000208046054613E0D2
:109F50001149B8F1000F31F915A009D0009901EBB2
:109F60000A0208440A490968C96E0B6801999847B2
:109F700088F0010850466D1C064909688D42E7DBF0
:109F8000641CB4427FF747AF07B0BDE8F08F000014
:109F900094120020C8120020BC99002010B50020A7
:109FA00002F0E2F96FF07F4002F0E2F9012002F0E6
:109FB00019FA002002F01EFA002002F025FA002013
:109FC00002F0D8F90448006802F0D6F9BDE8104064
:109FD000002002F0DBB90000901200202DE9F84FBC
:109FE0000121052008F034FF0121092008F030FF8D
:109FF0000121112008F02CFF0121212008F028FF69
:10A000000121412008F024FF0121812008F020FFD8
:10A01000012140F2011008F01BFF1825ADF8005097
:10A0200048268DF8036003248DF802406946CA482B
:10A0300000F0A2F9C94801274FF028080770ADF8D1
:10A040000070DFF81CA38DF803808DF8024069468C
:10A05000504600F091F94FF48160ADF800004FF0E8
:10A0600004098DF803908DF802406946504600F0CF
:10A0700083F94FF48170ADF8000010208DF80300D3
:10A080008DF802406946504600F076F94FF40170B1
:10A09000ADF800008DF803508DF802406946504637
:10A0A00000F06AF9ADF800708DF803808DF8024079
:10A0B0006946AC4800F060F94020ADF800008DF82A
:10A0C00003608DF802406946A64800F055F9F80291
:10A0D000ADF800008DF803908DF802406946A14864
:10A0E00000F04AF941F2A200ADF8000010208DF80E
:10A0F00003008DF8024069469A4800F03DF94FF49C
:10A10000806AADF800A08DF803508DF802406946D2
:10A11000944800F031F97420ADF800008DF8036028
:10A120008DF802406946904800F026F942F23A0064
:10A13000ADF8000010208DF803008DF8024069464C
:10A14000894800F019F93803ADF800008DF8035084
:10A150008DF802406946844800F00EF94FF47060B3
:10A16000ADF800008DF803508DF8024069467E4836
:10A1700000F002F94FF48250ADF800008DF8036052
:10A180008DF802406946794800F0F6F80820ADF8ED
:10A19000000010208DF803008DF8024069467348D6
:10A1A00000F0EAF84EF63770ADF800008DF8035075
:10A1B0008DF8024069466D4800F0DEF87C20ADF86D
:10A1C000000010208DF803008DF8024069466848B1
:10A1D00000F0D2F84FF68370ADF800008DF8035010
:10A1E0008DF802406946624800F0C6F848F2C02087
:10A1F000ADF8000010208DF803008DF8024069468C
:10A200005C4800F0B9F84FF4406BADF800B08DF841
:10A2100003608DF802406946564800F0ADF83802F8
:10A22000ADF800008DF803808DF802406946514872
:10A2300000F0A2F847F23F00ADF800008DF803509F
:10A240008DF8024069464B4800F096F84AF220200B
:10A25000ADF8000010208DF80300DFF8FC808DF8C9
:10A2600002406946404600F087F84FF48340ADF85D
:10A2700000008DF803608DF802406946404600F00A
:10A280007BF845F21F00ADF800008DF803508DF803
:10A2900002406946404600F06FF88020ADF80000AB
:10A2A0008DF803508DF802406946304800F064F89C
:10A2B000ADF800A014208DF803008DF80240694627
:10A2C000284800F059F8ADF8007010208DF8030010
:10A2D0008DF802406946244800F04EF8ADF800B011
:10A2E0008DF803608DF802406946404600F044F85E
:10A2F0004FF41870ADF8000010208DF803008DF8B1
:10A3000002406946404600F037F80820ADF80000EA
:10A3100010208DF803008DF802406946144800F0C3
:10A320002BF84FF46050ADF8000010208DF80300BA
:10A330008DF8024069460D4800F01EF8ADF8009017
:10A3400010208DF803008DF802406946404600F069
:10A3500013F8BDE8F88F0000002001400000002045
:10A3600000080140000C01400010014000140140B1
:10A3700000180140001C01402DE9F001CB780022BB
:10A3800003F00F0C13F0100F1CBF8B7843EA0C0C7A
:10A390000B784FF00F0613F0FF0F4FF0010518BFB9
:10A3A000046819D00F8805FA02F31F409F420FD1AD
:10A3B000970006FA07F824EA08040CFA07F73C436A
:10A3C000CF78282F08BF436102D0482F08BF036110
:10A3D000521C082AE6D304600A88FF2A87BF446813
:10A3E0000022BDE8F001704702F108030F8805FA6A
:10A3F00003F31F409F420FD1970006FA07F824EAA3
:10A4000008040CFA07F73C43CF78282F08BF4361B4
:10A41000CF78482F08BF0361521C082AE4D3446058
:10A42000BDE8F00170470161704770B50C46054604
:10A4300000F0F0F8A8682168C16261680163A16852
:10A440004163490707D5D0E90021C0E90012D0E9EE
:10A450000221C0E90212A18981842169002903D067
:10A4600001DC4FF00001016270BD2DE9F0411E4694
:10A4700017468846054600F0CDF8AC68682241468C
:10A4800004F58470FBF792FA2846B8472846B0478F
:10A49000286980688047A062BDE8F08110B5044655
:10A4A00000F0B8F8A0680E494C30114AC1650D495A
:10A4B00081650D4901660D4981660021C1661368F9
:10A4C00043660C4BC0E91E315168416730F8261CC9
:10A4D00021F0030120F8261C0749416410BD00004B
:10A4E00089E40108F5E5010851E40108B7DF010836
:10A4F0001013002087E0010895E3010810B5044619
:10A5000000F088F8A4680C489034102120650B48AE
:10A5100060650B48A0650B48E0650B48E0600B48A0
:10A520002061206BA06654F89029204690471020A7
:10A53000A0630748606410BD0DBA010891CB010803
:10A5400055A5000885A6000871DF010871E901081A
:10A550008C330308F8B5846815460F4694F8260036
:10A5600080074CD5D4F8FC30204698470646D4F8EE
:10A5700000312A46394620469847D4F8943005469B
:10A580001BB100220121204698472069B04201DD1D
:10A59000012000E00020A169B14201DA012100E0C0
:10A5A000002108436169A94201DD012100E0002189
:10A5B0000843E169A94201DA012100E000210843D2
:10A5C0000AD06068401E00902368D4F8A4705B1E17
:10A5D000002211462046B847D4F8A8302A46314612
:10A5E00020469847D4F89C1020468847D4F89430E9
:10A5F00005466BB1012200212046984708E0D4F8B7
:10A60000A83020469847D4F89C1020468847054635
:10A610002846F8BD70B504468068002812D14FF472
:10A62000B875284600F0BCFA2A460021A06003F065
:10A63000E1F9A0680221C184012104640162024998
:10A64000C0F8041170BD00004DA6000810B590B010
:10A65000044620220A496846FBF7A8F90849202247
:10A66000203108A8FBF7A2F9606B5DF82010C4F850
:10A67000FC1008A951F82000C4F8000110B010BD6A
:10A68000081F02082DE9F84384689846154694F897
:10A6900026000F46800740D5D4F8FC302046984766
:10A6A0000646D4F800312A463946204698470546E2
:10A6B0002069B04201DD012000E00020A169B14223
:10A6C00001DA012100E0002108436169A94201DDAE
:10A6D000012100E000210843E169A94201DA0121DA
:10A6E00000E0002108430AD06068401E0090236803
:10A6F000D4F8A4705B1E002211462046B847D4F857
:10A70000A8302A46314620469847D4F8A02001B008
:10A7100041462046BDE8F0431047D4F8A830F2E7A0
:10A720002DE9F04FDFF828B191B04FF0FF35DBF89D
:10A730000030B3F922100691DE69B3F924A0F46960
:10A74000A189814206D8E289824203D3471AD4F80C
:10A75000008012E0D4E90181002970D00A88824289
:10A760006DD84D8885426AD3801A82B2486800EB62
:10A770008200B0F90070B0F90250781C5FD0307ED2
:10A78000A27C014600FB02F9207CCDE90810B3F958
:10A790002A60304604F08CFCC0B20E90DBF800104A
:10A7A00007FB0980A37C8A6B0127CDE90402CDE970
:10A7B0000273C869DDE90832C17E807ECDE90001FF
:10A7C0005146069804F052F8681C18D046F0020072
:10A7D00004F06EFCDBF80000A37C05FB0981826BB2
:10A7E000CDE90273CDE90412C069DDE90832C17E0A
:10A7F000807ECDE900015146069804F037F8DBF879
:10A8000000005D46C069417E007E814214D9022E5F
:10A8100012D086F0040004F04BFC2868C069027E68
:10A82000C37E857E02FB03A1437E099A06985344AA
:10A8300002FB050204F0A8F90E9804F039FCDBF8DD
:10A840000000627C418C1144418411B0BDE8F08F5E
:10A850009412002004480068C069C06909B1027CF4
:10A860000A60407C7047000094120020022008809B
:10A870007047C06982898A4202D8C2898A4210D24E
:10A88000806880B102888A420DD843888B420AD3FF
:10A89000406800EB8100A0EB8200B0F900000028C6
:10A8A00001DB012070470020704700002DE9F043D4
:10A8B0002F4C034687B020681946B0F92A80C0693A
:10A8C000C06900F0EEF800284ED041680088181AE0
:10A8D00001EBC0054046AE7804F0EAFB81462068F3
:10A8E0006A680123816BCDE90236CDE90421C16993
:10A8F000CB7E8A7ECDE900230B7EB0F924102A7826
:10A90000B0F9220003F0B2FF2068C069477E067EDE
:10A91000B7421DD9C07E47434643B8F1020F17D056
:10A9200000F09EFF804600F083FF01F021FD2168CA
:10A930002A78CB69B1F92200B1F92410DB7E02FB41
:10A940000302CB19314404F01FF9404601F010FD19
:10A95000484604F0ADFB20686A78C369B0F922105C
:10A960009B7E02FB0311418407B0BDE8F083000029
:10A97000941200202DE9F35F0E46002500F070FFD1
:10A98000DFF8A8808346D8F8000090F82A00400736
:10A9900002D500F065FF01E000F04AFF01F0E8FC9D
:10A9A000D8F800000024C269B0F92290B0F92470F0
:10A9B000517ED27E01FB02FA1EE0684601F070FE75
:10A9C0000546D8F800002946C069C06900F032F891
:10A9D00090B141680088281A00EB400001EB80002C
:10A9E00090F9021000790844D8F80010C969897EEE
:10A9F0004843002800DD0444761EDED51DB12846FC
:10AA000002F014FE044407EB0A0309EB04025B1E88
:10AA10004846521E394604F0B7F8584601F0A8FCE3
:10AA2000034901200870BDE8FC9F0000941200203B
:10AA30007814002006E002888A4202D842888A42BE
:10AA400002D280680028F6D17047000030B50E4C65
:10AA500005460B4620682946C069C06900F021F808
:10AA6000002810D04168008824682A1A0120E4696F
:10AA700000EBC200085CA47E6043002B03D011F8F9
:10AA800032106143196030BD94120020012008800B
:10AA9000704700B5C06900F004F8002800D001201C
:10AAA00000BD06E002888A4202D842888A4202D269
:10AAB00080680028F6D17047FEB50E4EDDE90854D7
:10AAC0003668367C16F003060CD0012E03D0022E19
:10AAD0000DD0032E05D1084ECDE90054029611F099
:10AAE00003FBFEBDCDE9005411F0ACFAFEBD034EF0
:10AAF000F2E700009412002071F10008E9F000086C
:10AB0000002801D00FF0E0BC704738B50546FFF7CC
:10AB1000F7FF040009D000F0C5F82A460021009094
:10AB200002F068FF684600F007F9204638BD0000D3
:10AB3000024A106021F003005060704738990020ED
:10AB400010B5002814D004460A48006B10F83410E1
:10AB500000290DD002290BD2042101EBC401415878
:10AB600048680FF075FC2046BDE8104013F0EEB9C0
:10AB700010BD00007C980020002805D0034A916B8E
:10AB8000016001B148609063704700007C9800202C
:10AB900010B504460068FFF7D3FF0020206010BD09
:10ABA0002DE9F041044612F07FFE2648E41C24F013
:10ABB0000305C16B2D1DA94200D90D46846B13E01E
:10ABC00054F8042CAA420ED184B1216809B16268FC
:10ABD0004A60616809B122680A60826BA2422ED184
:10ABE000216881632BE02468002CE9D18046416B09
:10ABF00080680F1857F8040C3E1A306838B10020EE
:10AC000013F0AEFA57F8040C3E1A3068B8B9706801
:10AC1000A84214DB3044441B304613F059FAD8F8EC
:10AC20000810491BC8F80810D8F810102944C8F8B3
:10AC3000101070683146401B0FF00AFC20C42046FB
:10AC4000BDE8F0817C98002010B5002412F02CFEA5
:10AC50000C490F2001EBC002126C1AB101EBC000CD
:10AC6000006C08E0401EF5D508E04168A14200D91B
:10AC70000C46806810B180680028F6D1A4F10C0061
:10AC800010BD00007C980020002138B10449042246
:10AC900002EBC000096B085841680C390846704740
:10ACA0007C98002005498A69521C8A61096B01EB76
:10ACB000C0010A78521C0A7000F056B87C98002037
:10ACC0007CB506460C460846FFF71AFF05001CD067
:10ACD000DEB13046FFF7D8FFA04200DA044628462E
:10ACE000FFF7E0FF00903046FFF7DCFF01460190E0
:10ACF00022460098FAF75AFE684600F01DF801A8AF
:10AD000000F01AF83046FFF71BFF28467CBD000014
:10AD100010B5FFF799FF64220649B0F5800F04D9FA
:10AD200090FBF2F0C969484310BDC9694143B1FBCA
:10AD3000F2F010BD7C9800200A4902680B6B52F8B3
:10AD4000082C03EBC2021378022B03D38B690BB1DF
:10AD50005B1E8B611178491E11700021016008464D
:10AD6000704700007C980020002806D00349042288
:10AD700002EBC000096B0858083070477C9800202F
:10AD800070B50C46054600F0EDFDC1B223462846DD
:10AD9000BDE87040002200F001B80000F0B52D279A
:10ADA0001C68B0F1004F08D0002500280DDA661CA1
:10ADB0001E6027704042012408E0661C01251E60C9
:10ADC0006FF000402770491E01E00024091BC9B242
:10ADD0002AB3491EC9B222E00C46491EC9B29442A8
:10ADE00005D1124C27781C68661C1E602770104C19
:10ADF00054F8216090FBF6F4E4B20A2C11D804FB5D
:10AE0000160011B90DB1641CE4B20A2C02D1012460
:10AE1000491CC9B21E683034771C1F603470002989
:10AE2000DAD1196800200870F0BD000088120020F7
:10AE3000E41A030810B5C2B2CBB2D21A02D5C2F1DD
:10AE4000000212B293B2C0F30722C1F3072403FB3E
:10AE500003F3121B01D5524212B2000C92B2A0EBC6
:10AE6000114002FB023200B2002801DA404200B277
:10AE700080B200FB002010BD10B50021084600F094
:10AE800035FD40F6FF725042BDE8104013460146C2
:10AE9000AFF300802DE9FC4107461C4615460E46DF
:10AEA000042004F005F980461148C068C16C006DAB
:10AEB0000F4406440D440444ADF80070ADF804504E
:10AEC000ADF80260ADF8064068460EF00BFF07E0F3
:10AED00023462A463146384603F056FE0EF0C4FE9D
:10AEE0000028F5D1404604F0E3F8BDE8FC810000FD
:10AEF000881200202DE9F0411C4616460D460746F3
:10AF0000022B02DB0020BDE8F0811C20FFF748FE89
:10AF10000028F8D00DB105610AE0094A52F8241062
:10AF200009B905E011460A68002AFBD109690161E7
:10AF300084618682002101604160C0E90217E2E776
:10AF4000AC12002070B51D46FFF7D4FF040001D0FD
:10AF500000F00EF8E068006820B90348006800EBD4
:10AF600085008465204670BD94120020FFF704BE62
:10AF700070B590B38269022A30DA1C4C54F8221062
:10AF800019B944F822002FE019464B68002BFBD179
:10AF900006E0CB68C5681B682D68AB4203DD096815
:10AFA0000029F6D11AE0C1B1CB68C6681B683668C3
:10AFB000B3420CD1838A012B05D008E01946DB6827
:10AFC0001B68AB4203DB0B68002BF7D129B14B6840
:10AFD00033B118604A68426004E0FFE7012070BDA9
:10AFE00044F8220048600160002070BDAC120020CF
:10AFF00013F092BC022801DB00207047054951F88C
:10B00000200004E0C16809680029F6D00068002823
:10B01000F8D17047AC12002070B5044601F0AEFCC8
:10B02000051908E000F010FB052C01DD052000E00B
:10B03000204601F097FC01F0A1FC2C1A002CF1DC59
:10B0400070BD0000024B1B6859849A84FBF72EBF29
:10B05000941200207FB51E4614460D46CDF80CD044
:10B0600003AB00223146FFF799FE22462946684687
:10B0700000F090F87FBD000000B500F0F9FB044936
:10B0800009688A8C10448884088C488400BD0000BC
:10B09000941200202DE9FC4706005BD000F0E8FB8D
:10B0A0003B4C81462068B0F9228000F0F7FB216814
:10B0B00007468A8CD01B888441E000BF47F6FF71A9
:10B0C000304602F07BFA82460146304602F04CFAE6
:10B0D0002168054691F82C0000F0030001283FD0BC
:10B0E000022839D000204A8C101A4884ADF800009C
:10B0F0006A1E1044ADF80400888CADF80200A9F176
:10B1000001010844ADF806006A465146304602F097
:10B1100003F82168BDF8020088845146304601F0EA
:10B12000EBFA064430780A281CD00D281AD0BDF856
:10B130000000216828444884307818B1761C3078A3
:10B140000028BBD12068818C39448184818D21F015
:10B1500003018185BDE8FC8705EBD5704010C2E78F
:10B160002846C0E7206890F82C1001F0030101295F
:10B170000BD0022909D0018C418431780A29DBD116
:10B18000828C02EB09018184D6E7A0F82280F4E7E3
:10B1900094120020024B1B6859849A84FFF77ABFEF
:10B1A000941200202DE9FF4F85B090468A46070093
:10B1B00078D00C68DAF8046021B230B2401A401C32
:10B1C000029000F055FB054618F00C0F1ED03846D3
:10B1D000089A029901F0ABFB08F00C01042904D095
:10B1E000082902D00C2911D104E0311400FB1510FC
:10B1F000401C09E02114C1EB264200FB1520401C35
:10B2000000EBD07001EB600060F31F44504601F08A
:10B21000ADF8A5F1010B04903846089A029902F0A6
:10B22000B7FB03904FEA244909EB0B0060F31F467C
:10B23000CDE900463846039902F096F918F003016B
:10B240000ED0012928D002290ED1BAF90420BAF96A
:10B250000010521A101A00EBD07001EB600001E0F0
:10B26000BAF80000ADF800006A463846039901F0CC
:10B2700053FF3846089A029902F080FB074409EB15
:10B28000050060F31F4438780028C5D1049809B040
:10B29000BDE8F04F01F06AB8BAF80410081A401C73
:10B2A000E0E7FFE709B0BDE8F08F00002DE9F04FBF
:10B2B0000C46164987B00D68DDE91098E96C0F1847
:10B2C000286D8D180619C418ADF81070ADF814501B
:10B2D000ADF81260ADF8164004A80EF003FD00288A
