:020000040800F2
:1058000090A80020495900088305010801E6000816
:1058100081050108F9700008D18901080000000025
:1058200000000000000000000000000075540108A6
:105830006B7B0008000000005F59000849830108E5
:10584000C59D010863590008635900082530010807
:105850006359000863590008635900086359000838
:105860006359000863590008635900086359000828
:105870006359000863590008635900086359000818
:105880006359000863590008635900086359000808
:1058900063590008635900086359000863590008F8
:1058A00063590008635900086359000863590008E8
:1058B00063590008635900086359000863590008D8
:1058C00063590008635900086359000863590008C8
:1058D0006359000865840108E984010819860108F4
:1058E00063590008635900086359000863590008A8
:1058F0006359000863590008635900086359000898
:1059000063590008F13B0108635900086359000816
:105910006359000863590008635900086359000877
:105920006359000863590008635900086359000867
:10593000DFF810D000F0E8FE004800476D090208CB
:10594000AFF3008090A80020064880470648004733
:10595000FEE7FEE7FEE7FEE7FEE7FEE7FEE7FEE71F
:10596000FEE7FEE765830108315900080649074A4A
:105970000868504343F239021044086040087047F9
:105980000149086070470000C01400206D4EC641F8
:1059900010B5441A0346944209D28418114403E016
:1059A00011F8013D04F8013D521EF9D210BD40EA44
:1059B0000104A40703D009E010C9121F10C3042A70
:1059C000FAD203E011F8014B03F8014B521EF9D251
:1059D00010BDD2B201E000F8012B491EFBD2704786
:1059E0000022F6E710B513460A4604461946FFF7AB
:1059F000F0FF204610BD30B505462A460B4612F88A
:105A0000010B13F8014B08B1A042F8D01CB10028DB
:105A100002D06D1CF1E7284630BDCAB2401E10F816
:105A2000011F8A4202D00029F9D100207047421C90
:105A300010F8011B0029FBD1801A7047034611F8AA
:105A4000012B00F8012B002AF9D1184670470000FD
:105A50000FB400B58DB010A909900B9000914FF0D4
:105A6000FF300A9000200C900548069005480790EA
:105A70006A4609A80F9900F089FC0DB05DF814FB87
:105A8000A9630008C76300082DE9FF4F087883B0B9
:105A90009946FF2805D0491C2D2804D00024002059
:105AA00008E000200BE00124F9E700EB800003EBA5
:105AB0004000491C0B78FF2BF7D104B14042002372
:105AC0000293147819461D462D2C01D02B2C04D19D
:105AD000521C2D2C13D000240294AA461478FF2CBB
:105AE0000FD00A25A3FB057801FB05814FF0000CC0
:105AF00003FB0C11521CE3194AEB0101EEE70124F0
:105B0000EAE7814453EA010002D019F5C87F06DABA
:105B100003980021C0E9001107B0BDE8F08F00250F
:105B2000AE4E2F46DFF8B882184600F0C8FDCDE92A
:105B30000001B9F1000002DAC9F1000400E00446F6
:105B40000023A74A1AEB030B42EB045A12E0E007CA
:105B500007D02A4633463846414600F0F9F9074651
:105B600088462A4633461046194600F0F1F90546A4
:105B70000E466410002CEAD1DDE90001B9F1000FF6
:105B80005A46534606DA00F055FA3A46434600F0C4
:105B900051FA05E000F0DCF93A46434600F0D8F946
:105BA000029A0AB181F00041039AC2E90001B3E709
:105BB0002DE9FF4F1F468DB0D7E901464FF0FF3862
:105BC0002E2045464FF000090B90B9696D1C0E98C8
:105BD0008847396A824688470028F6D1BAF1FF3FE4
:105BE0000AD024F4D064002E11DDBAF12B0F08D0B6
:105BF000BAF12D0F0BD102E0404611B08DE744F40D
:105C00008064B9696D1C0E9888478246761E694685
:105C1000600501D52D2000E02B208DF8000001F15A
:105C2000010B0DF1200809E0B9696D1C0E98884739
:105C300082460F9844F40074761E0560002E02DD43
:105C4000BAF1300FF0D00B998A453ED144F0800470
:105C500006E00F99681CA9F1010944F4007408607A
:105C6000B9696D1C761E0E98884782463028F0D0A0
:105C70002BE00B998A4505D1200603D444F080041B
:105C8000761E18E0504619F017F908B30DF113010C
:105C9000761E44F400748B4508D2AAF130000BF84C
:105CA000010B200607D5A9F1010003E0200602D46C
:105CB00009F101008146A00502D50F99681C086012
:105CC000B9696D1C0E9888478246002ED1DC53E0DE
:105CD000002E51DDBAF1650F02D0BAF1450F4BD15C
:105CE000A00549D5B9696D1C24F44074761E0E9840
:105CF00088478246002E0CDD2B2804D0BAF12D0FE8
:105D000007D144F48074B9696D1C0E9888478246A7
:105D1000761EE00501D52D2100E02B2108F8011B9E
:105D2000CDF82C8021E00DF12901761E44F4007499
:105D300088450CD2AAF1300010F0FF0088F800006E
:105D400002D10B99884509D908F1010806E0E00560
:105D500001D5244801E042F20F708146B9696D1CFB
:105D60000E98884782460F980560002E04DD504645
:105D700019F0A2F80028D6D1F9690E988847FF20BB
:105D80008BF8000088F800000020069007904B4632
:105D90006A4608A906A8FFF777FEA00502D46FF0AF
:105DA00001002AE714F0240F0AD0E00714D1DDE93E
:105DB00006123868031D3B600068C0E900120BE062
:105DC000DDE9060100F048FA0146E00704D1386831
:105DD000021D3A600068016028460EE7000014408A
:105DE0000000F03FF1D8FFFF70B5064618F0C4FE82
:105DF000046805460A220021304600F043FB2C606F
:105E000070BD2DE9FE4F804681EA0300C00F0C46AD
:105E1000009021F0004123F00045B8EB0200A941B9
:105E200005D24046214690461C460B46024623F0CA
:105E30000040104347D0270DC7F30A00C3F30A51AF
:105E40000290401A019040286BDAC3F3130040F42B
:105E5000801B0098924620B10023D2EB030A63EB2B
:105E60000B0B01985946C0F14002504600F057FA1A
:105E700006460D4650465946019A00F06FFA10EB5F
:105E800008006141002487EA115284EAE7731A434B
:105E900040D0009A62B3019A012A4FEA075215DCFA
:105EA000001B61EB02014FF0004202EA0752CDE90C
:105EB0000042001C41F5801132462B4600F060FB89
:105EC00003B0BDE8F08F40462146F9E7001B61EBC7
:105ED0000201001C41F5801300185B412018A2F557
:105EE000001747EB030140EAD570B6196D4111E088
:105EF0006D084FEA360645EAC0754FEA0752001BA7
:105F000061EB0201001C41F5801149084FEA3000A5
:105F10000019514132462B4603B0BDE8F04F00F066
:105F200020BB0098012240000023D0EB020263EB6B
:105F3000E073009821464FEAE074B8EB000061EB93
:105F40000401E9E783F000435BE781F0004158E793
:105F50002DE9FE4F81EA030404F0004421F00041E2
:105F600000944FF0000B23F0004350EA01045ED090
:105F700052EA03045BD0C3F30A54C1F30A552C441C
:105F8000A4F2F3340194A0FB0254C1F3130141F4D1
:105F90008011C3F3130343F4801301FB024400FB9D
:105FA000034E840A970A44EA815447EA8357A4FBC4
:105FB000076802958D0A05FB07854FEA932C04FBC1
:105FC0000C542705029D4FEA065847EA1637B5EBF1
:105FD00008056EEB070C870E920E47EA811742EA1E
:105FE0008312A7FB0201B6EB0B0164EB00042B0D3F
:105FF00043EA0C335E1844EB1C50DA465146E7FB8B
:106000000201C5F313044FEA0B3343EA14534FEA7A
:106010000432019C43EA0603A4F10C040294009CA0
:10602000CDE900B400F0ACFA03B0BDE8F08F002079
:106030000146F9E72DE9F04D81EA030404F0004B35
:1060400021F0004514464FF0000A23F0004150EAC9
:10605000050220D054EA01021DD0C5F30A570246BA
:10606000C5F31303C1F31300C1F30A5640F48015BE
:1060700043F48013A7EB0608101BD64608F2FD3840
:1060800073EB050002D308F1010801E092185B41AF
:10609000B8F1000F03DA00200146BDE8F08D0020C2
:1060A0004FF48011064684460EE0171B73EB05077C
:1060B00005D3121B63EB050306434CEA010C4908A8
:1060C0004FEA300092185B4150EA0107EDD152EAE5
:1060D000030012D082EA040083EA0501084305D0D8
:1060E000101BAB4106D20122002306E000224FF034
:1060F000004302E06FF0010253101AEB06004CEB74
:10610000085110EB0A0041EB0B01BDE8F04D00F027
:1061100028BAC10F80EAE0700844CA07962300211C
:1061200000F0F1B90EB5C10F80EAE0700844CA076B
:10613000002140F233438DE80E000A460B4600F082
:106140001FFA03B000BD0EB540F2334102910021A9
:10615000CDE900110A460B4600F012FA03B000BD6B
:1061600070B5C1F30A5201F000450024C1F31301D8
:1061700040F2FF3341F480119A4201DA002070BDF1
:1061800040F233439A42A2F2334203DC524200F01F
:10619000D5F800E090402C43F1D0404270BDC1F3EF
:1061A0000A5210B5C1F3130140F2FF3341F48011DC
:1061B0009A4201DA002010BD40F233439A42A2F223
:1061C000334203DC524200F0B9F810BD904010BDDC
:1061D00000F0004230F000400AD0C10D01F56071BE
:1061E000C0F3160042EA0151C2084007114370474C
:1061F000002001467047000030B5041E71F1000414
:1062000004DB4FF00044404264EB0101141E73F1C3
:10621000000405DB1C464FF00043524263EB0403CD
:106220008B4208BF824230BD30B5041E71F10004BC
:1062300004DB4FF00044404264EB0101141E73F193
:10624000000405DB1C464FF00043524263EB04039D
:10625000994208BF904230BD01F0004330B421F0B4
:10626000004150EA010206D00A0DA2F56072C1F3A6
:106270001301002A02DC30BC00207047440F44EABE
:10628000C104C100E01830BC00EBC25000F032B9CC
:1062900030B50B46014600202022012409E021FAF6
:1062A00002F59D4205D303FA02F5491B04FA02F5F3
:1062B0002844151EA2F10102F1DC30BD2DE9F05F8A
:1062C0000546002092469B46884606468146402465
:1062D0001BE0284641464746224600F02FF8534629
:1062E0005A46C01A914110D311461846224600F072
:1062F00016F82D1A67EB01084F46224601200021AF
:1063000000F00DF817EB00094E41201EA4F1010426
:10631000DFDC484631462A464346BDE8F09F202A46
:1063200004DB203A00FA02F1002070479140C2F1EC
:10633000200320FA03F3194390407047202A04DB1E
:10634000203A21FA02F00021704721FA02F3D040EE
:10635000C2F120029140084319467047202A06DB0B
:10636000CB17203A41FA02F043EAE07306E041FA23
:1063700002F3D040C2F12002914008431946704711
:10638000026811441378016018467047D1600449CF
:1063900051610449116200211161114600F0D4B924
:1063A0008163000835670008426842B1016811F84E
:1063B000013B23B1521EC0E900121846704701216B
:1063C000C160881E704742685AB1C368016843B90A
:1063D00083688B4205D0491E521CC0E90012002080
:1063E00070474FF0FF3070470FB4002300B589B0FD
:1063F0000CA900910B996FF00042CB601E4B0693E5
:106400001E4B07930423CDE901321D4A0892024630
:106410006B460020FFF7CCFB09B05DF814FB70B5AC
:1064200086B006464FF0FF300091CDE90101002013
:1064300015460C4604903246694604A8FFF7D4FF7F
:1064400002460498211825B108B1084600E020460C
:106450002860049800280DD0002A02DD00988842A8
:1064600008D0081B0094CDE901043246694604A80F
:10647000FFF7BAFF06B070BDA9630008C763000844
:10648000356700082DE9F04791460F4680460446DF
:10649000002614F8015B2DB100F048F90068405D5A
:1064A000C007F6D12B2D02D02D2D18D0641E4A46E0
:1064B0003946204600F0E0FA27B13968A14201D1FF
:1064C000C7F8008071054FF002040BD54042002848
:1064D00003DD18F051FB0460A007BDE8F08746F427
:1064E0008066E4E70028F8DA18F046FB04606FF0F5
:1064F0000040F2E70029A8BF7047401C490008BFD0
:1065000020F00100704710B4B0FA80FC00FA0CF0E3
:1065100050EA010404BF10BC704749B1CCF120041B
:1065200021FA04F411FA0CF118BF012121430843A8
:10653000A3EB0C01CB1D4FEA00614FEA102042BFD4
:10654000002010BC704700EBC35010440029A4BFCA
:1065500010BC7047401C490008BF20F0010010BC6F
:10656000704710B5141E73F1000408DA401C41F1A5
:10657000000192185B411A4301D120F0010010BDC7
:106580002DE9F04D92469B4611B1B1FA81F202E03D
:10659000B0FA80F220329046FFF7C1FE04460F4663
:1065A00040EA0A0041EA0B0153465A46084313D019
:1065B000114653EA010019D0C8F140025046FFF7D6
:1065C000BDFE05460E46504659464246FFF7A7FE19
:1065D000084305D0012004E020463946BDE8F08D8F
:1065E0000020054346EAE0762C4337430A986305CA
:1065F000E40AA0EB08000022FD0A44EA47540A30EE
:1066000002D500200146E9E7010510196941DDE9DD
:10661000084500196941BDE8F04DA2E72DE9F04DAC
:1066200000231A461B1A8A4103DB00200146BDE8FD
:10663000F08DC1F30A52C1F3130141F480154FF0FC
:10664000000BD10702D100186D41521E00270446ED
:1066500040F2FF11384601EB620A3E468046024690
:1066600000204FF48011FFF769FEC2197141BB1879
:1066700046EB0100B4EB030C75EB000C04D3E41AF9
:1066800065EB000517460E46241908F101006D411F
:1066900080463428E3DDF91946EB0600091BA841C2
:1066A00003D24FF0FF32134601E0002213461BEBEA
:1066B000070046EB0A51BDE8F04DFFF752BF0EB59B
:1066C00040F2334202920022CDE900221346FFF746
:1066D00057FF03B000BDC1F30A52C1F3130140F2EA
:1066E000FF3341F480119A4202DA002001467047DC
:1066F00040F233439A42A2F2334202DC5242FFF7A5
:106700001DBEFFF70CBE0000064C074D06E0E0681A
:1067100040F0010394E8070098471034AC42F6D3E8
:10672000FFF70AF92C4B03084C4B0308004870474D
:10673000BC41030810B50446FFF7F8FF0068005D90
:1067400000F0010010BD00002DE9F34F8BB04FF0B9
:10675000000801F10C000C464FF0010B46460DF10C
:10676000080A01906269012101989047051E2DD009
:10677000252D2CD0216A8847C0B16269012101987A
:106780009047216A88470028F7D1411E6269019825
:10679000904700E0761CA1690B988847216A8847DA
:1067A0000028F7D1E1690B988847DBE7A1690B98CE
:1067B00088470746A84201D1761CD3E7E1690B98C8
:1067C00088477F1C02D1B8F1000F6FD047E1002746
:1067D00062693D463946019890472A2804D162698A
:1067E0000121019890470125DFF888926269012113
:1067F00001989047A0F130010A290AD24F45E5DC03
:1068000007EB870100EB4107303FDFD445F010056F
:10681000ECE7E90601D46FF000476C280AD04C2859
:1068200014D0682815D06A280DD074281CD07A2876
:106830001AD01DE062690121019890476C2802D0AE
:1068400045F0040514E045F002050DE045F0200593
:106850000AE06269012101989047682802D045F05A
:10686000080505E045F4006562690121019890473B
:10687000C4E9015765283DD019DC58287AD00CDCD2
:10688000452837D004DC252826D0412831D131E0F5
:1068900046282FD047282CD12CE05B2877D06128C0
:1068A00028D063287CD0642823D15AE0D1E06F2817
:1068B00048D008DC66281DD067281BD0692821D065
:1068C0006E2816D127E0702845D0732868D0752827
:1068D00047D078280DD14DE0A1690B98884705462F
:1068E00025283FF469AFE1690B9888476D1C3FF498
:1068F0006AAFB4E023466A466FF001000B99FFF7D8
:1069000057F99FE045F040006060A80723464FF02C
:10691000000236D43EE0E8077FF447AF2068011D4F
:1069200021600068290501D506701BE7290701D5FC
:10693000068017E7A90703D5F117C0E9006111E741
:1069400006600FE745F040006060A80723464FF05F
:10695000080216D41EE040F60E0125EA0100606030
:1069600016E045F040006060A80723464FF00A0299
:1069700007D40FE045F040006060A80708D5234623
:1069800010226FF001000B99AFF300805AE007E08E
:10699000234610226FF001000B99AFF3008051E005
:1069A0004FF000094F464B46632802D05B2807D0C2
:1069B00041E02079C00601D40120A06001273AE01F
:1069C00062690121019890475E2805D14FF00109C5
:1069D0006269494601989047216939B900210A4600
:1069E000534643F82120491C0829FADBB0B321693A
:1069F00069B9C11700EBD16253110AEB830122F090
:106A00001F02821A01200B68904003430B606269E9
:106A10000121019890475D28E8D1B9F1000F09D014
:106A20000020514651F82020D24341F82020401C3C
:106A30000828F7DB02AB224600976FF001000B99A4
:106A4000AFF3008000280CDA401C08D1BBF1000F26
:106A500005D04FF0FF300DB0BDE8F08FFFE74046A6
:106A6000F9E7E90701D108F1010806444FF0000BEE
:106A700078E60000CCCCCC0C2DE9F05F82460078A3
:106A8000002715468B460AF10104B946302801D08B
:106A90009DB113E014F8010B0127782803D0582882
:106AA00001D045B10AE00DB1102D07D10027102506
:106AB00014F8010B02E0082500E00A250026B04684
:106AC0000EE005FB080005FB06F1012701EB10466F
:106AD0001FFA80F8B6F5803F00D3B94614F8010BD1
:106AE000294600F018F80028EBDABBF1000F05D0BA
:106AF0000FB1641E00E05446CBF80040B9F1000F1E
:106B000006D018F039F802210160C81EBDE8F09FD8
:106B100048EA0640FAE73A2800D2303820F020024E
:106B2000412A01D3A2F13700884201D34FF0FF3050
:106B3000704770B58C1810F8015B15F0070301D190
:106B400010F8013B2A1106D110F8012B03E010F8D0
:106B5000016B01F8016B5B1EF9D12B0705D40023F3
:106B6000521E0DD401F8013BFAE710F8013BCB1A95
:106B7000921C03E013F8015B01F8015B521EF9D58A
:106B8000A142D8D3002070BD002800DC40427047ED
:106B900007490020C1F8A4010120C1F8AC01054952
:106BA000C1F89C010449C1F88C01C1F89801FEE7C5
:106BB0000000244200002242008022422DE9F05FC2
:106BC000DFF834E14FF0000C67469EF80010E34612
:106BD0004FF0010A494D4A4EDFF82881DFF828912D
:106BE00007E037B1012F0BD0022F12D0032F21D194
:106BF00018E0C5F8A4B1C6F88CA1C5F894A10EE0C0
:106C0000C5F8A4A1C6F88CB1C5F894A1C5F898A19F
:106C100010E0C5F8A4A1C6F88CA1C5F894B1C5F8D8
:106C200098A107E0C5F8A4A1C6F88CA1C5F894A165
:106C3000C5F898B10020401CC0B20A28FBD3002040
:106C400009EB87030FE070B1012808BFD5F82821B0
:106C50000BD0022808BFD6F8182106D0032808BF99
:106C6000D8F8182101E0D5F82C215CEA020408BF0D
:106C7000195C401CC0B20428E5D3781CC7B2042FAD
:106C8000AFD38EF80010214A9EF8010049B140BBF5
:106C90001068DEF80420801A642888BF8EF801107E
:106CA00025E0F0B11168DEF80430C91AB1F57A7F39
:106CB00009D90B2808BF102003D00C2808BF0F20CB
:106CC00001D18EF801001068CEF804008EF800B0F3
:106CD0009EF801408EF801B019F024FE2046BDE870
:106CE000F09FC0B2084304BF1068CEF804008EF8CD
:106CF00000B00020BDE8F09F880000200000244282
:106D00000080224200002242441E02083800002077
:106D100010B501200BF0D2FFBDE8104000200BF0B1
:106D2000CDBF81B000F1804000F5D84000900088D0
:106D300001B070472DE9F047ADF5187D0021B94845
:106D400009F064FC4FF4407009F056FCB6484FF46B
:106D50007A714FF000080068B0FBF1F0411EB1F10C
:106D6000807F0AD24FF0E0204161B04AF02182F8E2
:106D7000141DC0F8188007210161012140200BF08B
:106D800061FF03F057FAAA48D0F82001A94D012469
:106D900000280CBF2C7085F8008085F8008004F076
:106DA000DBFE042012F0F6FAA3480AF021FA0120D3
:106DB00011F050FB05F090FD012005F0CBFC022006
:106DC00005F046FC0DF0C6FF2878022601284FF09A
:106DD0001403009600F00281E8225F2114200AF0DB
:106DE00056F90546002395A26FF00E015FF05000A2
:106DF00006F0A2FF012128460AF008FA012004F05B
:106E000037FA4FF461401AF077FADFF848A250469B
:106E100005F0DAFBDFF8409299F80000002800F056
:106E2000E980012800F0EC80FF2005F0CDFBDC229A
:106E300050218AA004F0DAFA4FF4837332228AA137
:106E400002A817F07FFE02AFCDE90078DC224FF4F4
:106E5000F07351000A200BF0DBFE0DF0D5FFA0F51A
:106E60006F41163908BF08F05DFD1E2128460AF063
:106E7000CDF98048006808F0CBFD4FF0FF1005F019
:106E8000A3FB7DA0CDE90004322340F2D7120F21ED
:106E900000200BF0BDFE6FF07F4005F095FB7D48B4
:106EA00005F092FB4FF416501AF082F94FF4E130DE
:106EB0001AF0C8F999F800107748DFF8E091002936
:106EC00018BFC9F88C41C9F89441C0F8844118BF73
:106ED000C9F898414FF40A717148FEF781FD0DF031
:106EE00055F801466F482A2977D080F80080FF20A6
:106EF00005F06AFB6CA000BF17F014FEDC224FF413
:106F0000C8716DA004F072FA142128460AF07EF9C7
:106F1000012004F0ADF90CF09DF86948C0F88441F7
:106F20004FF4F07267491CA8FEF732FD01214807B3
:106F30000BF094FE012105200BF0A8FE2020ADF8F7
:106F4000000018208DF8030003208DF80200694628
:106F50005D4803F03DFB012102200BF073FE00F0C1
:106F60007DFD94A800F0ABFDCDF85082CDF85482A1
:106F700094A91020CDF85C8200F07CFD0121102046
:106F800000F018FDC9F88C4150480AF051FA282445
:106F9000214628460AF03AF9142004F069F9611CE8
:106FA0000CB2502CF4DB9F2409F088F9224648A14A
:106FB00002A817F0C7FDCDE90076DC234FF4F0728C
:106FC000A02100200BF024FE284611F06FFF04F0F2
:106FD00067FC0DF5187DBDE8F08718E080224FF4BE
:106FE000967148200AF053F805460023502113A259
:106FF000B420FDE64FF4E6720A2137A004E000BF9A
:107000004FF4E6720A2136A004F0F0F914E7047098
:10701000504605F0D9FA00220DA1214818F0ACFD28
:1070200031A069E700580008200000200FE000E0D0
:1070300000802342010000206D110108303A616E8A
:10704000692F41303030302F303032382E626D7041
:107050000000000080FF80000000002048573A2018
:10706000556E6B6E6F776E005625642E2530336437
:107070000000000008000020D8B3D98AD985D8B113
:10708000D8BA20D8ACD987D8A7D986DAAFD8B3D8A0
:10709000AAD8B10000FFFF000000214200002342F7
:1070A000C02A00201D0000200A0D4D6963726F5335
:1070B00044204552524F52004D6963726F53440051
:1070C00000002242501C020800080140547A0008C7
:1070D000202564202A20000048573A20563100001D
:1070E00048573A20563200000A0D4D6963726F53BB
:1070F00044204F4B00000000FEE7CA7812020260F5
:107100008B781A44120202604B781A441202026011
:1071100009781144016070477CB5214C054621680F
:1071200031F8220F4A8D104408804888CA8D1044D7
:107130004880284604F0B0FC2168498CADF8001066
:107140004618284606F096FB3044401EADF8040071
:1071500004F0C2FC2168898CADF802100844401E7E
:10716000ADF80600684612F0AFFA04E0284602F0D7
:1071700003FD12F06BFA0028F8D10A2D04D0BDF8F7
:1071800004002168401C4884206830F8221F428D8A
:10719000891A01804188C28D891A41807CBD000016
:1071A0009C1200202DE9F04F88468246914604212A
:1071B000052000F01FFB80210A200EF091FE002523
:1071C000274C01272E46B8F1000F0FD91AF805B049
:1071D000C4F8B461122019F09BFF584619F098FFCB
:1071E000C4F8B471681CC5B2A845EFD80325C4F82B
:1071F000B461022019F08CFF284619F089FFC4F809
:10720000B471FF254FF08A08C4F8B461404619F004
:107210007FFF002019F07CFFC4F8B471691E11F0E3
:10722000FF0502D010F0040FEED0C4F8B461C42002
:1072300019F06EFF002019F06BFFC4F8B47189F8E3
:107240000000C4F8B461C22019F062FF002019F0F8
:107250005FFFC4F8B47189F80100BDE8F08F000049
:107260000000244210B582B00122002113A006F0D4
:10727000B9FF041E04BF02B010BD0122002113A0FB
:1072800006F0B0FF002804BF02B010BD844208D150
:10729000134804650EF0F0F8012009F0C1F902B0BE
:1072A00010BD04214FF47A70CDE9000100230122C2
:1072B0000CA1184610F016F802B010BDD8B1D9854F
:1072C000D8B220D8ACD8AFD98AD8AF00D8AADAA91A
:1072D000D8B1D8A7D8B120D8B1D985D8B20000008C
:1072E000D0140020D8B1D985D8B220D8A7D8B4D826
:1072F000AAD8A8D8A7D98720D8A7D8B3D8AA0000D9
:1073000010B5054C002205A0D4F8B01306F06AFFB2
:10731000C4F8B00310BD0000D0140020D981D8B942
:10732000D8A7D98420D8A8D988D8AFD98620D8B1F1
:10733000D984D987202D20D985D98AD984D98A2082
:10734000D8ABD8A7D986D98AD987000010B50A4CFE
:1073500004F2E630FEF748FD0146002207A006F0E1
:1073600041FF02460AA104F2E63017F0EBFB0120D0
:1073700009F056F910BD0000D0140020D8B1D9850D
:10738000D8B220D988D8A7D98AD981D8A7D98A00D4
:1073900025640000F0B5C84C0325B5B020780A2854
:1073A0002ED0C648006808F033FBC54805F00CF93C
:1073B0001C2340F207120521EE20009504F0FAFA92
:1073C000C04805F001F902230622F021207803F0DD
:1073D0006DFFBD48002180F8CB1180F8BB1180F80B
:1073E000DB1180F8EB1120780B2824BF35B0F0BDFD
:1073F000DFE800F038444C5C758FABF9F7F6F50028
:10740000B24805F0E1F81C2340F207120521EE20F6
:10741000009504F0CFFAAE480068002814BF4FF47E
:107420000040FF2005F0D0F804221021F42004F0E1
:1074300051FA0B234FF480721021F42004F05EF90E
:1074400004220B21900104F045FA16234FF48072B8
:107450001021F42004F052F904221621900104F0C6
:1074600039FAB6E79B4D0020C5F88401642005F584
:10747000C27503F0FDFE0120286013E096A1984834
:1074800011F06EFA97A007F047F80BE096A1944828
:1074900011F066FA93A007F03FF8002818BF00200B
:1074A00040F0D2802078401C00F0CEB80025256145
:1074B000E5604FF4966190486561FEF791FA884E59
:1074C0008EA1304611F04CFA2561E5604FF49661CB
:1074D00089486561FEF784FA8CA1304616E00020E9
:1074E0002061E06060614FF496618348FEF778FAAE
:1074F0008A480090A0F5EE7000F5E67300F5D672AC
:1075000087A102A817F01EFB02A9754811F028FAFE
:10751000C8E700252561E5604FF49661764865610E
:10752000FEF75EFA684885A100F2E63300F56D7259
:1075300002A817F007FB02A9694811F011FA207898
:10754000401C2070657035B0F0BD00252561E560F8
:107550004FF4966168486561FEF742FA7D4E604FD0
:107560007DA13570384611F0FBF97FA006F0D4FFFD
:10757000002808BF657095D076487EA1FEF73BFADB
:1075800018B97EA1FEF737FAE0B16178491CC9B29B
:1075900061700A299CBF35B0F0BD78A1FEF72BFAC7
:1075A00068B12561E5604FF4966153486561FEF767
:1075B00017FA357068A1384611F0D2F96570257058
:1075C00035B0F0BD6078401CC0B2607003289CBF2D
:1075D00035B0F0BD09202070657035B0F0BD60E0B9
:1075E00034E01FE0FFE700202061E06060614FF4BD
:1075F00096614148FEF7F4F9334840F2BC4300F588
:10760000DE72C0F8EC315EA102A817F09BFA63A10C
:1076100002A817F097FA02A9314811F0A1F92078D1
:10762000401C11E067A006F077FF40B16078401C75
:1076300010F0FF00607018BF0620CED004E02FA12C
:10764000274811F08DF909202070C6E70025256133
:10765000E5604FF4966128486561FEF7C1F9204E58
:107660002AA1304611F07CF91EA006F055FF57A163
:10767000304611F075F92561E5604FF496611E48BA
:107680006561FEF7ADF9334855A10570304611F03C
:1076900067F957A006F040FF2078401C2070A560D5
:1076A0009BE70120A070A068401CA060242884BF34
:1076B0000020A070C8D890E77011002018000020AA
:1076C0004040400080FF8000D014002000FFFF00F9
:1076D000D411002000002242415445300A0D000020
:1076E000004800404F4B000041542B4349504D553A
:1076F000583D300A0D0000008488002041542B437F
:10770000574D4F44453D310A0D00000041542B4375
:1077100049504D4F44453D310A0D0000AC16002044
:1077200041542B4349505354413D222573222C226E
:107730002573222C222573220A0D000041542B436D
:10774000574A41503D222573222C222573220A0DCF
:10775000000000008484002041542B4349505354BE
:10776000415455530A0D00005354415455533A3275
:10777000000000005354415455533A0062757300A1
:1077800041542B43495053544152543D2254435089
:10779000222C222573222C25640A0D0041542B43F0
:1077A000495053544152543D22544350222C2231CB
:1077B00039322E3136382E312E3132222C313231BF
:1077C000320A0D00434F4E4E4543540041542B4363
:1077D00049505345525645523D312C3132313200D9
:1077E00041542B43495053454E440A0D00000000BC
:1077F0003E0000002DE9F041114D00260F460446E1
:10780000C5F8B461802040EA4400C0B205F5DA75DD
:1078100019F07EFC002019F07BFC4FF00108C5F840
:10782000008020EA07072E607E2000EA440019F05D
:107830006FFC384619F06CFCC5F80080BDE8F0819B
:107840000000244270B5464905462A24486B10F0D2
:10785000450F03D1486B10F0450FFBD010F0040F1B
:1078600005D0032404200CF057F9204670BD10F019
:10787000010F05D0012420460CF04EF9204670BDC2
:107880000CF08AF9A84234D140F2FF500CF044F9D0
:1078900000200CF0A3F9334908425ED010F0004FED
:1078A0001CBF1C2070BD10F0804F1CBF092070BD94
:1078B00010F0005F1CBF0A2070BD10F0805F1CBF7D
:1078C0000B2070BD10F0006F1CBF0C2070BD10F0BD
:1078D000806F1CBF0D2070BD10F0807F1CBF0E207C
:1078E00070BD10F4000F1CBF0F2070BD10F4800F8E
:1078F00001D0102070BD10F4001F1CBF112070BDFE
:1079000010F4801F1CBF122070BD10F4002F1CBF8C
:10791000132070BD10F4802F1CBF142070BD10F414
:10792000003F1CBF152070BD10F4803F1CBF162007
:1079300070BD10F4004F1CBF172070BD10F4804FB5
:107940001CBF182070BD10F4005F1CBF192070BD53
:1079500010F0080F1CBF1A2070BD204670BD00003B
:107960000080014008E0FFFD10B504F02DFE104836
:10797000042210210078F42003F0ACFF0B234FF415
:1079800080721021F42003F0B9FE04220B21900133
:1079900003F0A0FF16234FF480721021F42003F0AF
:1079A000ADFE04221621BDE81040900103F092BF05
:1079B00001000020054A012303FA00F000291168A4
:1079C00014BF084321EA00001060704700740040B3
:1079D00000B5FDB04FF4F0721B496846FDF7D8FFC3
:1079E000012148070BF03AF9012105200BF04EF96F
:1079F0002020ADF8F00118208DF8F30103208DF858
:107A0000F2017CA9114802F0E3FD012102200BF0F4
:107A100019F900F023F878A800F051F800207890C8
:107A200079907B9078A9102000F024F80121102093
:107A3000FFF7C0FF06490120C1F88C0105A009F03D
:107A4000F7FC7DB000BD0000501C0208000801409A
:107A50000000234231322E776176000010B50121FB
:107A600048070BF007F9BDE8104000214FF0005027
:107A70000BF000B90B4B10B41A6840F6FE7C0CFA00
:107A800000FC22EA0C02D1E900C44CEA040CD1E962
:107A9000024121434CEA010101FA00F01043186051
:107AA00010BC704700740040A0F6EC3081B000F1CB
:107AB000804000F500400090016001B07047002157
:107AC000016041608160C1607047000010F0805F1C
:107AD00019BF024908600249486070470404024027
:107AE000000002400029016812BF41F001014FF679
:107AF000FE72114001607047002110F0805F14BFDA
:107B0000034A044A1268024218BF0121084670471E
:107B1000000402400000024010B40268D1F820C006
:107B20008B686FF30E1243EA0C03D1E904C44CEAEC
:107B3000040C43EA0C03D1F818C043EA0C03D1F853
:107B40001CC043EA0C03D1F824C043EA0C03D1F86B
:107B500028C043EA0C031A430260CA6842600A68FC
:107B600082604968C16010BC704770472DE9F00F12
:107B7000C37890F802C084790CEB032390F801C01D
:107B8000857A0CEB032390F800C0867B0CEB032373
:107B9000D1F8A0C083EA0C0390F807C004EB0C2CCA
:107BA000447904EB0C2C047904EB0C2CD1F8A440A0
:107BB0008CEA040CC47A4FEA1C6905EB0424457A6C
:107BC00005EB0424057A05EB0424D1F8A8506C4099
:107BD000C57BC4F3074806EB0525467B007B06EB17
:107BE000052500EB0520D1F8AC50DEB24540FC483D
:107BF000C5F307274FEA156B50F8266050F8277039
:107C000050F8288086EA376650F8299086EA384688
:107C100086EA3926D1F89070C3F307287E4050F8E1
:107C200028900CF0FF07C5F3074850F8277050F86C
:107C300028A04FEA146887EA396750F8288087EA55
:107C40003A4787EA3827D1F89480CCF3072987EAA6
:107C5000080704F0FF08C3F3074A50F8288050F8DB
:107C6000299050F82AA050F82BB088EA396888EAA1
:107C70003A4888EA3B28EDB2C4F30724CCF3074C1A
:107C800050F8255050F824401B0E50F82CC050F8E6
:107C9000233085EA346484EA3C4C8CEA3323D1F8FF
:107CA0009CC0D1F8989083EA0C04F3B288EA0908E2
:107CB00050F823C0C4F307234FEA146B50F8239005
:107CC000C8F307438CEA396C50F823503B0E8CEA1A
:107CD000354C50F82330C4F307498CEA3323D1F8EC
:107CE00080C0C6F3072583EA0C0307F0FF0C50F8A9
:107CF000255050F82CC050F829A08CEA356C8CEA3D
:107D00003A4C4FEA1869D1F8845050F82990C6F3DC
:107D1000074A8CEA392C8CEA050C08F0FF05C7F3FA
:107D20000729E4B2C8F3072850F8244050F8288007
:107D300050F8255050F82990C7F3074784EA386473
:107D4000360E50F82AA085EA396550F8277050F8A9
:107D50002BB050F8266085EA3A45D1F8889084EA3D
:107D6000374485EA3B2584EA362485EA0905D1F8BB
:107D70008C60C5F30748744050F82890DEB2C4F315
:107D800007274FEA1C6850F8266050F8277050F813
:107D9000288086EA376686EA39460F6F86EA3826F3
:107DA0007E400CF0FF074FEA146B50F82780C3F3B6
:107DB000072750F82BB050F82790C4F3074788EAFC
:107DC000396850F827A02F0E88EA3A4850F82770F3
:107DD000CCF3072988EA3727D1F87480E4B287EA20
:107DE000080705F0FF08C5F30725C3F3074ACCF3DE
:107DF000074C50F8244050F825501B0E50F82CC06A
:107E000050F8233084EA356484EA3C4C8CEA33230E
:107E1000D1F87CC050F8288050F8299083EA0C04EF
:107E2000F3B250F82AA088EA396850F823C088EAEB
:107E30003A48D1F87890C4F3072388EA3B2888EAC7
:107E4000090850F82350C8F307434FEA176950F860
:107E500023308CEA356C50F829908CEA3343D1F802
:107E600060C083EA392383EA0C0307F0FF0C50F863
:107E70002C50C6F3072C50F82C90C4F3074C85EA1D
:107E8000396550F82CA04FEA186C85EA3A4550F84D
:107E90002CC0C7F3072985EA3C2C4D6E50F8299079
:107EA0008CEA050C08F0FF05C6F3074A50F8255088
:107EB0004FEA146BE4B2C8F30728C7F3074750F83A
:107EC000244050F82880360E50F8277050F826606D
:107ED00084EA386484EA374484EA3624CE6E50F863
:107EE0002AA085EA396550F82BB0744085EA3A45F6
:107EF000D1F8689085EA3B25DEB2C4F3072785EA0E
:107F0000090550F8266050F82770C5F307484FEA76
:107F10001C6950F8288086EA376650F8299086EA6E
:107F200038460F6D86EA39267E400CF0FF074FEA8F
:107F3000146B50F82780C3F3072750F82BB050F884
:107F40002790C4F3074788EA396850F827A02F0E16
:107F500088EA3A4850F82770CCF3072988EA37278F
:107F6000D1F85480E4B287EA080705F0FF08C5F3AA
:107F70000725C3F3074ACCF3074C50F8244050F8C8
:107F800025501B0E50F82CC050F8233084EA35647D
:107F900084EA3C4C8CEA332350F8288050F829902E
:107FA000D1F85CC050F82AA088EA396883EA0C044A
:107FB000F3B288EA3A48D1F8589088EA3B2850F85A
:107FC00023C088EA0908C4F30723C8F307454FEA2A
:107FD000176950F8233050F8255050F8299001E0E7
:107FE000640900208CEA336383EA3543D1F840C04A
:107FF00083EA392383EA0C0307F0FF0C4FEA146B82
:1080000050F82C50C6F3072C50F82BB050F82C9099
:10801000C4F3074C85EA396550F82CA04FEA186C78
:1080200085EA3A4550F82CC0C7F3072985EA3C2C6D
:108030004D6CC6F3074A8CEA050C08F0FF05E4B264
:10804000C8F30728C7F3074750F8244050F82880A2
:10805000360E50F8277050F8266084EA386484EAB7
:10806000374450F8255050F8299084EA3624CE6CD5
:1080700050F82AA085EA3965744085EA3A45D1F876
:10808000489085EA3B25DEB2C4F3072785EA090557
:1080900050F8266050F82770C5F307484FEA1C696E
:1080A00050F8288086EA376650F8299086EA3846E4
:1080B0000F6B86EA39267E400CF0FF0750F82780C8
:1080C000C3F3072750F82790C4F3074788EA3968B5
:1080D00050F827A02F0E88EA3A4850F82770CCF3C2
:1080E000072988EA3727D1F8348050F8299087EAA1
:1080F000080705F0FF08C3F3074A50F828804FEA45
:10810000146BE4B2C5F30725CCF3074C50F82440B8
:1081100050F825501B0E50F82CC050F8233084EA3C
:10812000356484EA3C4C8CEA3323D1F83CC050F8E7
:108130002AA088EA396850F82BB083EA0C0588EA4F
:108140003A48D1F8389088EA3B28F3B288EA09081F
:1081500050F82340C8F3074CC5F3072350F82C9080
:1081600050F823304FEA176C84EA336350F82CC080
:1081700083EA394383EA3C23D1F820C083EA0C0424
:10818000FBB250F823A0C6F3072350F823C0C5F371
:1081900007438AEA3C6C50F823904FEA18638CEA54
:1081A000394C50F823308CEA3323D1F824C083EAC9
:1081B0000C0308F0FF0C50F82C90C7F3072CC7F302
:1081C000074750F82CA0C6F3074C89EA3A6950F8E3
:1081D0002CB04FEA156C89EA3B4950F82CC0EDB23F
:1081E00089EA3C2CD1F82890360E8CEA090C50F81C
:1081F0002590C8F3072550F8277050F8255050F8FF
:10820000266089EA356585EA374585EA3625CE6AEE
:1082100085EA0608E5B250F82550C8F30726CCF3E6
:10822000074750F8266050F827901F0E85EA3665FC
:1082300050F8277085EA39450E6985EA372575407B
:10824000DEB2C8F3074950F82670C4F307264FEA98
:108250001C6A50F8266050F8299087EA366650F874
:108260002AA086EA39464F6986EA3A267E400CF013
:10827000FF07CCF3072C50F82790C3F30727C3F36D
:10828000074350F827A0C4F3074750F82CC050F814
:1082900027B04FEA186708F0FF0850F8277050F829
:1082A0002880240E50F8233050F8240088EA3C6CD3
:1082B0008CEA334383EA3020CB6989EA3A6989EA58
:1082C0003B4980EA030889EA37274448D1F81890E7
:1082D000EBB287EA0907C8F3072CC7F3074450F845
:1082E000233050F82CC050F82490340E83EA3C63BD
:1082F00050F8244083EA394383EA3423C5F3072442
:10830000D1F800C050F8249083EA0C03C8F3074466
:1083100006F0FF0C50F824A050F82CC03C0E8CEA5C
:10832000396C50F824408CEA3A4C8CEA342C4C6876
:108330008CEA040CFCB2C7F3072750F82490C6F36C
:108340000724C6F3074650F824A0C5F3074489EA7A
:108350003A6950F824B04FEA186408F0FF0850F862
:10836000244089EA3B492D0E89EA342450F82880BC
:1083700050F8277050F82660D1F8089050F8250082
:1083800088EA376585EA3645C96885EA302048407D
:10839000190ED170190C9170190A517013704FEAAF
:1083A0001C61D1714FEA1C4191714FEA1C2151713E
:1083B00084EA090482F804C0210ED172210C917262
:1083C000210A51721472010ED173010C9173010ACA
:1083D00051731073BDE8F00F70470000640D00206A
:1083E0002DE9F0478046494882B0914600780F4613
:1083F00000281CBF02B0BDE8F087DFF814A150468A
:1084000004F0E2F8434D03240094287840F2DB1294
:1084100000F20F1300F1FA0140F2451003F0CAFA1E
:108420004FF6FF7004F0D0F80094287840F2DB1289
:1084300000F20F1300F1FA0140F2451003F0E8F9E1
:108440006FF07F4004F0C0F80226CDE9009640F2BC
:108450000F1340F2DB12F02140F245100AF0D8FB76
:10846000504604F0B1F80094287840F23B1200F234
:108470000F1300F1FA01A52003F09CFA4FF6FF70EC
:1084800004F0A2F80094287840F23B1200F20F1397
:1084900000F1FA01A52003F0BBF96FF07F4004F072
:1084A00093F8CDE9007640F20F1340F23B12F02131
:1084B000A5200AF0ADFB504604F086F80094287819
:1084C0009B2200F20F1300F1FA01052003F072FA6B
:1084D0004FF6FF7004F078F8009428789B2200F2A1
:1084E0000F1300F1FA01052003F092F96FF07F40BD
:1084F00004F06AF8CDE9008640F20F139B22F021C8
:1085000005200AF085FB02B0BDE8F08700000020DE
:10851000006C0B00040000202DE9F04F83B09A4658
:10852000164689468346072A0FD22EB1062E08BF6B
:10853000B9F1070F03D004E0B9F1070F01D34FF0F1
:10854000010A00270024254691E0B01F4FF0010AE0
:10855000C7B2F7E72234BAF1000F04D17819B0425C
:1085600018BF48457DD107EB0500B04210D1062069
:10857000454A00904549CDE9011204F121034FF429
:108580008772A11C002003F029F84FF6FF701CE051
:10859000002004F019F80620009004F120034FF4A5
:1085A0008772E11C002003F005FA6FF07F4004F0B1
:1085B0000BF80620009004F121034FF48772A11CF0
:1085C000002003F025F94FF47F4003F0FDFF98F8F9
:1085D0001C0018B3642816D3A0F164010120884060
:1085E0002B4980B24FF001030978884305D029A2B6
:1085F000A11DE62005F0A0FB16E027A2A11DE620A4
:1086000005F09AFB10E022494FF0010309788842F7
:1086100005D122A2A11DE62005F08EFB04E020A2D8
:10862000A11DE62005F088FB1E49D8F810C00023E4
:108630000878ADF800304FF48273ADF80430201A9A
:10864000097800F123020844ADF8020088184FF0C1
:108650000108ADF80600434642466946604602F00E
:10866000CDFE6D1C072DA4BF03B0BDE8F08FE81947
:108670000BEB4018D8F80000007800287FF46AAFB0
:1086800003B0BDE8F08F00000028280000DCDC000B
:108690008C11002030313000303131003031350064
:1086A00030313400040000202DE9F04F83B09A46A9
:1086B0001646884681460C2A0FD22EB10B2E08BFD3
:1086C000B8F10C0F03D004E0B8F10C0F01D34FF058
:1086D000010A002700252C4642E0A6F10B004FF0CE
:1086E000010AC7B2F6E72335BAF1000F04D13819F1
:1086F000B04218BF40452DD107EB0400B0420CD169
:108700001C491D48CDE9000105F124034FF488728E
:108710002946002002F098FF0CE06FF07F411748D7
:10872000CDE9000105F124034FF4887229460020A9
:1087300002F08AFF002003F047FF0C2109EB4B00F9
:10874000CDE9000105F123034FF48772294600208B
:108750000AF05EFA641C0C2CA4BF03B0BDE8F08FD5
:10876000E019C0EB001B19F81B000028BBD103B0B7
:10877000BDE8F08F41ACFF000160F700E4DFDA00F4
:1087800000B583B00CF082FA00200CF08FFA642060
:1087900002F06EFD012200210FA005F023FD392813
:1087A0004FF000001CBF03B000BD009000230190FB
:1087B0001A4612A118460EF095FD0CF08BFA07F040
:1087C00039FA0CF063FA34200CF070FA642002F0ED
:1087D0004FFD03B000BD0000212121D8ADD8A7D99D
:1087E00081D8B8D98720D9BED8A7DAA920D985D908
:1087F0008A20D8B4D988D8AF21212100D8A2D98520
:10880000D8A7D8AFD98720D8B3D8A7D8B2D98A20CB
:10881000D8ADD8A7D981D8B8D98700002DE9F05FA5
:108820006FF07F4003F0D0FE0F210522084603F0D1
:1088300051F8384D384C394FA87800264FF00208CF
:108840004FF00E094FF0040A4FF0630B80B16878C7
:10885000002808BFBDE8F09F282028703048007825
:10886000AA281CBF2E706E702AD00120BDE8F09F90
:1088700084F8008084F801903888A070000AE070C5
:1088800084F804A0667184F806B0A520E071267211
:1088900066720922611C002017F032F8A072000AEB
:1088A000E072032020731C490D2010F083F9012091
:1088B000A880A87800281CBF68780028CCD1D4E70D
:1088C000A8880028D1D084F8008084F801903988E5
:1088D000A1704FEA1121E17084F804A0667184F858
:1088E00006B04FF0A501E17120724FEA10206072CE
:1088F0004FF0090204F101014FF0000017F000F8F9
:10890000A072000AE0720320207303490D2010F0CA
:1089100051F9AAE790110020608F0020D0140020A8
:10892000348F00200248002181604160C16070479F
:10893000D00000202DE9F00FC37890F802C08479B0
:108940000CEB032390F801C0857A0CEB032390F81D
:1089500000C0867B0CEB0323D1F800C083EA0C0334
:1089600090F807C04FEA136A04EB0C2C447904EB2F
:108970000C2C047904EB0C2C4C688CEA040CC47AA3
:10898000CCF3072705EB0424457A4FEA1C6B05EB73
:108990000424057A05EB04248D686C40C57B06EB46
:1089A0000525467B007B06EB052500EB0520CD6801
:1089B000DEB24540FB484FEA156950F8278050F871
:1089C0002660C4F3074786EA386650F8277050F8E7
:1089D000299086EA37460F6986EA39267E400CF0F0
:1089E000FF07C4F3072850F8277050F82880C5F314
:1089F000074987EA386750F8299050F82AA087EA93
:108A00003947D1F8148087EA3A2787EA080704F043
:108A1000FF08C5F30729C3F3074A50F8288050F828
:108A2000299050F82AA050F82BB088EA396888EAD3
:108A30003A4888EA3B28EDB2C3F3072350F82550A3
:108A400050F82330CCF3074C240E50F82CC085EAA4
:108A5000336350F8244083EA3C43D1F81CC083EAD6
:108A6000342383EA0C04F3B2D1F8189050F823C0F1
:108A7000C7F3072388EA090850F82330C8F30745ED
:108A80004FEA146950F825508CEA336350F8299066
:108A900083EA354383EA3923D1F820C0C4F3074978
:108AA00083EA0C0307F0FF0C50F8299050F82C5083
:108AB000C8F3072C4FEA166A50F82CC050F82AA0C9
:108AC00085EA3C6C8CEA394C8CEA3A2CC4F30729D1
:108AD0004D6AC6F3074A8CEA050C08F0FF054FEA19
:108AE000176BE4B2C6F3072650F8244050F826600E
:108AF000C7F3074750F8255050F8299050F82770D1
:108B00004FEA186884EA366450F82AA085EA396585
:108B100050F8288084EA374450F82BB085EA3A456B
:108B2000D1F8289084EA3824CCF3072785EA3B253E
:108B300085EA0905CE6A50F82780C5F307477440D7
:108B400050F82790DEB2270E50F8266050F82770B4
:108B500086EA386686EA394686EA37260F6BC5F319
:108B600007287E400CF0FF0750F8289050F8277037
:108B7000C4F3074887EA396750F828804FEA136A38
:108B800087EA384750F82AA0D1F8348087EA3A2794
:108B9000C4F3072987EA0807C3F3074A05F0FF086B
:108BA0004FEA1C6BE4B2C3F30723CCF3074C50F835
:108BB000244050F8233050F82CC02D0E84EA336343
:108BC00050F8288050F8299050F8255083EA3C430B
:108BD000D1F83CC050F82AA088EA396883EA3523E6
:108BE00083EA0C0488EA3A48F3B250F82BB0D1F883
:108BF000389050F823C088EA3B28C7F3072388EA57
:108C0000090850F82350C8F307438CEA356C50F834
:108C100023304FEA14698CEA334350F82990D1F895
:108C200040C083EA392383EA0C0307F0FF0CC8F342
:108C3000072550F82CC050F82550C4F307494FEAD7
:108C4000166A50F829908CEA356C50F82AA08CEA04
:108C5000394C4D6C8CEA3A2C8CEA050C08F0FF0577
:108C6000C4F3072950F8255050F82990C6F3074A55
:108C70004FEA176B50F82AA085EA396550F82BB0F7
:108C800085EA3A4585EA3B25D1F84890C6F30726A0
:108C900085EA090550F82690E4B2C7F3074650F874
:108CA000244050F826604FEA186784EA396450F887
:108CB000277084EA3644CE6C84EA37247440DEB2EE
:108CC000C5F3074850F82670CCF307264FEA14691D
:108CD00050F8266050F8288087EA366650F82990C8
:108CE00086EA38460F6D86EA39267E400CF0FF078B
:108CF0004FEA1C6B50F82780C5F30727CCF3074CCD
:108D000050F82790C4F3074788EA396850F827A03D
:108D10001F0E88EA3A4850F82770C4F3072988EAFA
:108D20003727D1F85480C3F3074A87EA080705F0CC
:108D3000FF08E4B2C3F3072350F8244050F823306F
:108D400050F82CC02D0E84EA336350F8255083EA86
:108D50003C4350F8288050F82990D1F85CC083EA51
:108D6000352350F82AA088EA396883EA0C0450F8C1
:108D70002BB0F3B288EA3A48D1F8589088EA3B28F9
:108D800050F8233088EA0908C7F3072C4FEA146922
:108D900050F82C50C8F3074C50F8299050F82CC0CC
:108DA00002E000006401002083EA356383EA3C436B
:108DB000D1F860C083EA392383EA0C0307F0FF0C83
:108DC0004FEA166A50F82C50C8F3072C50F82AA026
:108DD00050F82C90C4F3074C85EA396550F82CC044
:108DE000C4F3072985EA3C4C8CEA3A2C4D6EC6F355
:108DF000074A8CEA050C08F0FF05E4B2C6F3072623
:108E00004FEA176B50F8244050F82660C7F3074725
:108E10004FEA186850F8277084EA366450F82880C2
:108E200084EA3744CE6E84EA3824744050F82550E2
:108E300050F82990DEB250F82AA085EA396550F83A
:108E4000267050F82BB0CCF3072685EA3A45D1F8C6
:108E5000689085EA3B2550F8268085EA0905C5F328
:108E6000074687EA386750F82690260E87EA394782
:108E700050F82660C5F3072887EA36260F6F50F8AA
:108E800028907E40C4F307480CF0FF0750F828A054
:108E900050F827704FEA136887EA396750F828803E
:108EA00087EA3A4787EA3827D1F87480C4F307295C
:108EB00087EA080705F0FF0850F8299050F8288045
:108EC000C3F3074A4FEA1C6B50F82AA088EA3968B6
:108ED00050F82BB088EA3A48D1F8789088EA3B28D5
:108EE000C3F3072388EA090850F82390E4B2CCF3CF
:108EF000074350F824404FEA156C50F8233050F8DF
:108F00002CC084EA396484EA334383EA3C23D1F8F1
:108F10007CC083EA0C05C7F3072CF3B250F82C4051
:108F2000C8F3074C50F8233050F82CC04FEA1569AD
:108F300083EA346350F8299083EA3C43D1F880C037
:108F400083EA392383EA0C04FBB250F823C0C8F348
:108F5000072350F82390C5F307438CEA396C50F887
:108F600023A0330E8CEA3A4C50F823304FEA1769AD
:108F70008CEA3323D1F884C050F8299083EA0C039B
:108F800008F0FF0C50F82CA0C5F3072CEDB250F8F8
:108F90002CB0C6F3074C8AEA3B6A50F82CC08AEA28
:108FA0003C4C8CEA392CD1F888908CEA090C50F8AA
:108FB0002590C6F30725C7F3074650F8255050F80B
:108FC00026604FEA186789EA356550F8277085EA08
:108FD0003645D1F88C6085EA372585EA0608E5B282
:108FE00050F82550C3F30726CCF3074750F8266006
:108FF0004FEA186950F8277085EA366550F82990CD
:1090000085EA3745D1F8906085EA39257540DEB2AA
:109010004FEA146A50F82670CCF3072650F82AA0BD
:1090200050F82690C8F3074687EA396750F826605B
:10903000C8F3072987EA364686EA3A26D1F89470BB
:10904000C4F3074A7E400CF0FF074FEA136B50F859
:10905000277050F8299050F82AA050F82BB008F04B
:10906000FF08C4F30724C3F307434FEA1C6C50F80E
:10907000288050F8244050F8233050F82C0088EA1B
:10908000346C8CEA334383EA3020D1F89C3087EA91
:10909000396780EA0308484887EA3A47D1F8989048
:1090A00087EA3B2787EA0907EBB2C6F3072CC7F329
:1090B000074450F8233050F82CC050F824904FEA61
:1090C000186483EA3C6350F8244083EA3943D1F8BA
:1090D000A0C083EA342383EA0C0306F0FF0C4FEAB6
:1090E000156A50F82C40C7F3072C50F82AA050F806
:1090F0002C90C8F3074C84EA396450F82CC084EAF9
:109100003C4C8CEA3A2CD1F8A440C5F3074A8CEACF
:10911000040407F0FF0C4FEA166B50F82C90C8F3CC
:10912000072C08F0FF0850F82CC0C5F3072550F8AD
:109130002AA089EA3C6CC6F3074650F82BB050F8D9
:10914000288050F825503F0ED1F8A89050F826609E
:1091500050F8270088EA356585EA3645D1F8AC1025
:1091600085EA30204840190ED170190C9170190A07
:1091700051701370210ED171210C91718CEA3A4C0F
:10918000210A8CEA3B2C51718CEA090C14714FEACC
:109190001C61D1724FEA1C4191724FEA1C2151723D
:1091A00082F808C0010ED173010C9173010A51734A
:1091B0001073BDE8F00F70476405002010B4002262
:1091C0000F4B0124944600BFC3F88841C8210020FA
:1091D000C1EB011100BF401CB0EB410FFAD3C3F843
:1091E00088C150210020C1EB011100BF401CB0EB31
:1091F000410FFAD3521CB2F5C87FE5D310BC7047BB
:10920000000023422DE9F04F002583B00446A84614
:1092100001F05EFFDFF86091DFF860A15848CDE90A
:1092200000A901784FF4887201F12303002002F0B5
:109230000BFA01232A4600212046FFF76DF9514E13
:10924000376844F6206B3068C01B584570D20CF06C
:1092500005FA002818BF3768F5D00F2868D008DC59
:109260000B282AD00C2840D00D280AD00E28EAD18D
:109270007DE01E287BD04C281FD0522835D078287E
:10928000E1D104EB4511087F002852D0642838BF93
:10929000804660D3A0F164010120884080B230EAAA
:1092A000080103BF4FF6FF71484000EA080848EA8A
:1092B000000018BF00F0FF084DE004EB4510006A05
:1092C000007850B1681CC2B20090002329462046A5
:1092D000FFF722F90098C5B2B5E700231A462946E0
:1092E0002046FFF719F90025ADE7002D08BF002043
:1092F0000AD0681EC2B20090002329462046FFF71C
:109300000BF90098C5B29EE704EB40110968097893
:1093100000291CBF401C80B2F6D1401EC2B2009092
:10932000002329462046FFF7F7F80098C5B28AE7E0
:109330001DE0886978B18047642814D00CF08EF95C
:1093400001F0C6FECDE900A9002123234FF4887265
:10935000084602F079F937682A460123114620466B
:10936000FFF7DAF86FE703B00020BDE8F08F03B035
:109370004046BDE8F08F00000A0A0A00EAE6E30072
:1093800004000020380000202DE9F04383B0074698
:10939000002401F09DFE2C492C48CDE9000100215C
:1093A00023234FF48872084602F04EF90123224627
:1093B00000213846FFF778F9254D2E6843F69828A6
:1093C0002868801B40453BD20CF048F9002818BFA4
:1093D0002E68F5D00E2833D014DC0C2816D00D28BA
:1093E000EED1C4EB041007EB40011A4E00254D7777
:1093F00006F56D70FCF722FB86F8D15303B02046CA
:10940000BDE8F0830F281BD05228D9D1C4EB04103B
:1094100007EB4000807F58B104F1010909F0FF0219
:10942000002321463846FFF73FF909F0FF04C7E75C
:1094300000231A4621463846FFF736F90024BFE7D5
:1094400003B0FF20BDE8F0830A0A0A00EAE6E30061
:1094500038000020D01400202DE9FF4F00278DB0E8
:1094600016468946B84617F031F81D990024DFF8F2
:109470008CB30C601E99E24D4AF6AA2AC1F800404E
:10948000CBF800A0684605F069F940B1684605F0E0
:1094900065F920B17F1C142FF2D300F0A1B9601C34
:1094A000C4B20098002728600AF040F830B3696819
:1094B000C9F800102C2819D00CDC042812D00B2875
:1094C000DED1A86830606868C9F8000011B00B20D0
:1094D000BDE8F08F37280DD05A28D1D111B0062021
:1094E000BDE8F08F11B00220BDE8F08F11B00E2062
:1094F000BDE8F08F11B00F20BDE8F08FD9F8000063
:1095000000281FBF69688142092011B018BFBDE85B
:10951000F08F6868C9F80000A8683168884218D0E0
:10952000B8498A6841F6E7018A4207BFA0F5206280
:10953000B2F1E60230600A201CBF11B0BDE8F08F26
:1095400040F6E4426868A0F5E6403C38904298BF97
:109550003160A8683060AC48AC49AD4F00780978FC
:10956000C0EB0010002601EB8009A54906EB0612AE
:10957000002007EB82050A5C2B5C9A4204D1401C58
:10958000C0B20428F7D301E0042828D3022E26D243
:10959000287D697DC0EB001001EB8000B9EB000075
:1095A00048BF40420A2806DA294644229448FCF77C
:1095B000EFF94FF0010800206860A860E861A86139
:1095C0002862687328732861287568756862A862C4
:1095D000E86228636863A863E86328642860701CF5
:1095E000C6B2022EC1D3864D2098B8F1000F697B18
:1095F00001701F98298A01801D98E969016037D19F
:10960000E86928621098A8610D9868737E48007810
:1096100028757E48007868751C982861287B401C56
:10962000C0B22873122824BF002028732946C2B272
:10963000219802700D9800F00F0001280FD0022829
:109640001EBF052011B0BDE8F08FCB6910981A9AA3
:10965000181A904214DB1B9A934211D805E0CA698C
:10966000109810441B9A90420AD8E86107F0EEFF68
:10967000012C06BF0024CBF800A000263CD006E059
:1096800011B00320BDE8F08F012C08BF0224CBF8F5
:1096900000A0012C30D9684605F060F898B1761C1E
:1096A000142EF1D3B8F1000F18BF00207DD000BFF9
:1096B00000EB001107EB81014968A1B3401CC0B267
:1096C0000228F5D381E028789DF8001088420FD158
:1096D00069789DF801202846914209D181789DF84A
:1096E0000220914204D1E8789DF80310884203D00B
:1096F00011B00420BDE8F08F287B46490026A1FB6D
:1097000000214908494201EBC1010844C0B20928BF
:1097100021D2DFE800F005090C0F1215181B1E00FE
:109720004FF02C0917E04EE04FF02D0913E04FF0F9
:109730002E0910E04FF030090DE04FF031090AE03A
:109740004FF0320907E04FF0340904E04FF03509DB
:1097500001E04FF036094FEA9900352104F052FF3D
:10976000002891D105F13401484605F01FF810BBDF
:10977000DFF8A48098F8021098F8000004F042FF87
:10978000C8B9A94605F1240198F8010005F00EF8C2
:1097900088B904A998F8010004F08EFF002808BFDA
:1097A00004AA08D109EB000100E019E091F82410A7
:1097B000135C994202D04FF0010865E7401CC0B22B
:1097C0001028EFD310E0022800D3002000EB001097
:1097D00007EB800044220A49FCF7DAF8142E03D381
:1097E00011B00120BDE8F08F1D98E96901601E9855
:1097F000296A016011B00020BDE8F08F0030004000
:1098000084800020D01400209400002095000020C7
:10981000C8800020398EE3386411002070B4012222
:1098200000EB02110C6804F08033A3EBD31303F0B8
:109830001B3304F07F3C83EA4C0303F0803CACEB29
:10984000DC1C0CF01B3C03F07F358CEA450C0CF063
:109850008035A5EBD51505F01B350CF07F3685EA74
:1098600046056C4083EA0C067540634085EA332365
:109870008CEA040C83EA3C4383EA34630B604C6853
:1098800004F08033A3EBD31303F01B3304F07F3CCD
:1098900083EA4C0303F0803CACEBDC1C0CF01B3C7B
:1098A00003F07F358CEA450C0CF08035A5EBD5151F
:1098B00005F01B350CF07F3685EA46056C4083EADF
:1098C0000C067540634085EA33238CEA040C83EA76
:1098D0003C4383EA34634B608C6804F08033A3EB31
:1098E000D31303F01B3304F07F3C83EA4C0303F0F3
:1098F000803CACEBDC1C0CF01B3C03F07F358CEAAD
:10990000450C0CF08035A5EBD51505F01B350CF09A
:109910007F3685EA46056C4083EA0C067540634055
:1099200085EA33238CEA040C83EA3C4383EA3463FC
:109930008B60CC68521C04F08033A3EBD31303F08C
:109940001B3304F07F3C83EA4C0303F0803CACEB18
:10995000DC1C0CF01B3C03F07F358CEA450C0CF052
:109960008035A5EBD51505F01B350CF07F3685EA63
:1099700046056C4083EA0C067540634085EA332354
:109980008CEA040C83EA3C4383EA3463CB60092A03
:109990007FF646AF70BC70472DE9F003C278120223
:1099A0000A6083781A4412020A6043781A44120249
:1099B0000A6003781A440A60C27912024A60837905
:1099C0001A4412024A6043791A4412024A60037927
:1099D0001A444A60C27A12028A60837A1A441202D6
:1099E0008A60437A1A4412028A60037A1A448A60AF
:1099F000C27B1202CA60837B1A441202CA60437B94
:109A00001A441202CA60007B204B10440022012439
:109A1000A3F27C49C1F80C0001EB8200C5684FEA53
:109A2000352C0CF0FF0653F82680CCF3072653F8AC
:109A30002670CCF307464FEA1C6C53F8266053F8A7
:109A40002CC088EA376787EA364686EA3C2C51F80C
:109A50002260121D8CEA060C59F82460641C8CEA02
:109A6000060CC0F810C04668282A86EA0C0CC0F81C
:109A700014C0866886EA0C0CC0F818C085EA0C0C85
:109A8000C0F81CC0C8DBBDE8F003704764050020C7
:109A90008000A0F1C0400029016812BF41F001011F
:109AA000014A114001607047FEFF0F00D0E901122A
:109AB0001143D0E903231A431143426911438269D8
:109AC0001143C2691143026A1143426A1143826A17
:109AD0001143C26A1143026B0A4301688900A1F174
:109AE000C0410A608168082907D101688900A1F195
:109AF000C0410A6842F040020A60416BD1E900238C
:109B000042EA03128B68B1F80CC01B0243EA0C4313
:109B10001A430B8A42EA03520B7D896942EA0362C7
:109B2000114302689200A2F1C0425160C16AB1F5CE
:109B3000804F08D000686FF070418000A0F1C040F5
:109B4000C0F804117047816BD1E9002342EA031287
:109B50008B68B1F810C01B0243EA0C531A430B7D0B
:109B6000896942EA0362006811438000A0F1C040A5
:109B7000C0F804117047000010B504460A280FD041
:109B80000D2C11D009480068C0690168204688473B
:109B900007480168002907D02046BDE81040084763
:109BA000BDE8104001F094BB10BD00009C120020E5
:109BB000C41200202DE9F0430446C56887B09046E2
:109BC0008946002002F002FD064625B1287910B131
:109BD00046F0020001E026F0020002F0F7FC2069E6
:109BE000012558B1D4E902128DE826000395638857
:109BF0002288046841464846A0471EE0124F134B96
:109C0000214638681B68427CE068984730B9E08894
:109C1000012801D0002001E03868806BA288E38829
:109C2000A1680095CDE90410CDE902320195638861
:109C300022884146484604F025FF07B03046BDE87B
:109C4000F04302F0C3BC00009C12002094120020DC
:109C50001CB50024019401AC009400F0E7F81CBD91
:109C60002DE9FF4F83B0814606988A46A0EB0A088B
:109C7000109E00200090A2EB09043568934654EA38
:109C8000080018D02046FCF77FFF07464046FCF747
:109C90007BFF87420BDA2046444680464846D14641
:109CA00082465846DDF818B0069001200090002C3E
:109CB00007DD204606E007B04846BDE8F04F00F05B
:109CC0003BB96042A0420AD04846D9466442C8F136
:109CD000000883464FF0FF37DDF818A000E00127A9
:109CE0005148B8F1000F11D004EBD4714FEA610B69
:109CF00001DACBF1000B4C480068807E88B3002F5E
:109D000002DA30682044306000257BE000990029A9
:109D1000016821D0897E11B10027804615E007B087
:109D20005A4649465046BDE8F04F05F00FB8284660
:109D30006D1C14F053F838B9D8F8000009EB07018E
:109D4000C06E4268504690477F1CA742EFDD6D1EF3
:109D5000356007B0BDE8F08F8A7E1AB100278046D3
:109D600017E019E0C86E5A465146036807B04846E6
:109D7000BDE8F04F184728466D1C14F02FF838B98D
:109D8000D8F8001009EB0700C96E4A6851469047A1
:109D90007F1CA742EFDDDAE700250FE008FB05B0E6
:109DA00090FBF4F101EB0A00009951B11E4A09EB56
:109DB00005011268D26E526890476D1CA542EDDD18
:109DC000C7E7194909EB05030968C96E4A680146E6
:109DD0001846F1E708FB05B090FBF4F101EB0A002F
:109DE000019030683844306013F0F8FF48B90098AB
:109DF00090B10D4809EB05010068C06E42680198FA
:109E000090476D1CA542E5DD3068002F01DA204443
:109E10003060C01B30609CE7034909EB050009680E
:109E2000C96E4A680199EBE79C1200202DE9FF47B3
:109E30000F4640491646804609680C981D460A7E22
:109E4000012A1CD0A8EB0600791B50EA01031CD0A4
:109E5000A2F1010914F006FF00F58060824603F0CC
:109E60003DFF00FB09F4504603F03CFF00FB09F105
:109E7000002C0CDAC4F50070801240420AE0009019
:109E8000324639464046FFF7EBFEBDE8FF8704F552
:109E90000074A012002904DAC1F5007189124C4245
:109EA00002E001F500718C12002804DD411C01EB79
:109EB000D171491003E000EBD0714910401E00EB56
:109EC000D0704210002C04DD601C00EBD0704010FC
:109ED00003E004EBD4704010641E04EBD47308EB71
:109EE0000104ADF800403C18ADF80240A8EB0204B4
:109EF0005B10B21AADF80440ADF808203144FC1AEA
:109F0000EA1AADF80C102844ADF80A20ADF80E009E
:109F10000023ADF806401A460421684600F07AF89E
:109F20003946404611F0F0FF2946304611F0ECFF6B
:109F3000ABE700009C120020064A13681A7E012A33
:109F400005D0521E02EBD272521000F005B8DA6E44
:109F5000526810479C1200202DE9F05F06468846A3
:109F600040F2C32050434FF47A7190FBF1F702FBAB
:109F700002F002EBD27100EB610B254914467F1C05
:109F800009683244301BC96E0B6841469847012569
:109F90003AE000BF05FB05F004FB040159451CDD58
:109FA000BC4219DD1A4B06EB050AA6EB05091B6836
:109FB000AAF1010208EB0401DB6E09F101001B6844
:109FC0009847134BAAF10102A8EB04011B6809F1A1
:109FD0000100DB6E1B689847641E0D4806EB040AFF
:109FE000A6EB0409006808EB05015246C06E036841
:109FF000484698470648A8EB050152460068C06EDF
:10A000000368484698476D1CBD42C3DDBDE8F09F1C
:10A010009C1200202DE9FF4F40F6FF740F46664268
:10A0200083B09B46814600210BE000BF09EB810015
:10A03000B0F90200A04200DA0446B04200DD064654
:10A04000491CB942F2DB68480068406900280DD01D
:10A05000B0F906101A46A1EB0B01B14200DA0E4628
:10A06000B0F90200801AA04200DD0446B5E0DFF836
:10A070007CA100200546CAF8000089E0781E8542D0
:10A0800001DA6B1C00E0002309EB850C09EB83026D
:10A09000BCF90200B2F90210A04245D1A14215D18B
:10A0A00039F92330059A39F9251003EB020C4E4A91
:10A0B00005981268084404EB0B01D26E60451368E2
:10A0C00001DA62462BE00246604628E02846A446B4
:10A0D0004FF000087A1E0BE008B1401E00E0781E29
:10A0E00009EB8003B3F90230634504D108F101089C
:10A0F0009045F1DB2346A34249D0A3EB040239F992
:10A100002500A1EB040C059B92EA0C0209D4364A07
:10A11000184404EB0B011268D26E1368024698478C
:10A1200035E00FF085FE32E0A14230D001DBA042E5
:10A1300003DDA0422BDBA14229DCE04688420ADC99
:10A140000346A04223DC0846A14220DBB8F900C048
:10A15000B2F9001008E00B46A14218DCA04216DB61
:10A16000B2F900C0B8F90010E21AA1EB0C0151439A
:10A170000029A0EB030202DD01EB620102E0A1EB8A
:10A180006201491CC01A91FBF0F06044C9E76D1CE4
:10A19000BD42FFF673AF0598009004EB0B000190F1
:10A1A00000208046054613E01149B8F1000F31F94F
:10A1B00015A009D0009901EB0A0208440A49096870
:10A1C000C96E0B680199984788F0010850466D1CCC
:10A1D000064909688D42E7DB641CB4427FF747AF4C
:10A1E00007B0BDE8F08F00009C120020D0120020C4
:10A1F000C095002010B5002002F0E2F96FF07F401A
:10A2000002F0E2F9012002F011FA002002F016FA41
:10A21000002002F01DFA002002F0D8F9044800687E
:10A2200002F0D6F9BDE81040002002F0DBB90000D2
:10A23000981200202DE9F84F0121052008F026FD95
:10A240000121092008F022FD0121112008F01EFD46
:10A250000121212008F01AFD0121412008F016FDFE
:10A260000121812008F012FD012140F2011008F0C7
:10A270000DFD1825ADF8005048268DF80360032425
:10A280008DF802406946CA4800F0A2F9C948012782
:10A290004FF028080770ADF80070DFF81CA38DF8A8
:10A2A00003808DF802406946504600F091F94FF462
:10A2B0008160ADF800004FF004098DF803908DF82F
:10A2C00002406946504600F083F94FF48170ADF8C2
:10A2D000000010208DF803008DF8024069465046BA
:10A2E00000F076F94FF40170ADF800008DF80350DE
:10A2F0008DF802406946504600F06AF9ADF80070EA
:10A300008DF803808DF802406946AC4800F060F992
:10A310004020ADF800008DF803608DF802406946DA
:10A32000A64800F055F9F802ADF800008DF803904A
:10A330008DF802406946A14800F04AF941F2A200B6
:10A34000ADF8000010208DF803008DF8024069463A
:10A350009A4800F03DF94FF4806AADF800A08DF8FE
:10A3600003508DF802406946944800F031F974209A
:10A37000ADF800008DF803608DF802406946904802
:10A3800000F026F942F23A00ADF8000010208DF8F6
:10A3900003008DF802406946894800F019F9380336
:10A3A000ADF800008DF803508DF8024069468448EE
:10A3B00000F00EF94FF47060ADF800008DF8035016
:10A3C0008DF8024069467E4800F002F94FF4825051
:10A3D000ADF800008DF803608DF8024069467948B9
:10A3E00000F0F6F80820ADF8000010208DF803000A
:10A3F0008DF802406946734800F0EAF84EF637706F
:10A40000ADF800008DF803508DF8024069466D48A4
:10A4100000F0DEF87C20ADF8000010208DF803007D
:10A420008DF802406946684800F0D2F84FF6837014
:10A43000ADF800008DF803508DF80240694662487F
:10A4400000F0C6F848F2C020ADF8000010208DF8EA
:10A4500003008DF8024069465C4800F0B9F84FF4FB
:10A46000406BADF800B08DF803608DF8024069468E
:10A47000564800F0ADF83802ADF800008DF80380C2
:10A480008DF802406946514800F0A2F847F23F00BB
:10A49000ADF800008DF803508DF8024069464B4836
:10A4A00000F096F84AF22020ADF8000010208DF858
:10A4B0000300DFF8FC808DF802406946404600F05A
:10A4C00087F84FF48340ADF800008DF803608DF8F5
:10A4D00002406946404600F07BF845F21F00ADF8A7
:10A4E00000008DF803508DF802406946404600F0A8
:10A4F0006FF88020ADF800008DF803508DF8024011
:10A500006946304800F064F8ADF800A014208DF8DA
:10A5100003008DF802406946284800F059F8ADF86C
:10A52000007010208DF803008DF802406946244821
:10A5300000F04EF8ADF800B08DF803608DF80240E1
:10A540006946404600F044F84FF41870ADF800003A
:10A5500010208DF803008DF802406946404600F057
:10A5600037F80820ADF8000010208DF803008DF8B2
:10A5700002406946144800F02BF84FF46050ADF8E3
:10A58000000010208DF803008DF8024069460D4848
:10A5900000F01EF8ADF8009010208DF803008DF843
:10A5A00002406946404600F013F8BDE8F88F00000D
:10A5B000002001400000002000080140000C014084
:10A5C000001001400014014000180140001C01402F
:10A5D0002DE9F001CB78002203F00F0C13F0100FDF
:10A5E0001CBF8B7843EA0C0C0B784FF00F0613F06E
:10A5F000FF0F4FF0010518BF046819D00F8805FA46
:10A6000002F31F409F420FD1970006FA07F824EA91
:10A6100008040CFA07F73C43CF78282F08BF4361A2
:10A6200002D0482F08BF0361521C082AE6D30460F9
:10A630000A88FF2A87BF44680022BDE8F0017047FE
:10A6400002F108030F8805FA03F31F409F420FD160
:10A65000970006FA07F824EA08040CFA07F73C43C7
:10A66000CF78282F08BF4361CF78482F08BF0361F8
:10A67000521C082AE4D34460BDE8F0017047016130
:10A68000704770B50C46054600F0F0F8A8682168E0
:10A69000C16261680163A1684163490707D5D0E9D8
:10A6A0000021C0E90012D0E90221C0E90212A1890B
:10A6B00081842169002903D001DC4FF0000101628F
:10A6C00070BD2DE9F0411E4617468846054600F04C
:10A6D000CDF8AC686822414604F58470FBF758F960
:10A6E0002846B8472846B047286980688047A06256
:10A6F000BDE8F08110B5044600F0B8F8A0680E4936
:10A700004C30114AC1650D4981650D4901660D49FD
:10A7100081660021C166136843660C4BC0E91E3197
:10A720005168416730F8261C21F0030120F8261CEF
:10A730000749416410BD0000A1DE01080DE00108D9
:10A7400069DE0108CFD90108181300209FDA01083B
:10A75000ADDD010810B5044600F088F8A4680C4887
:10A760009034102120650B4860650B48A0650B48AC
:10A77000E0650B48E0600B482061206BA06654F850
:10A780009029204690471020A0630748606410BDC0
:10A7900025B40108A9C50108ADA70008DDA8000877
:10A7A00089D9010889E30108C43D0308F8B5846824
:10A7B00015460F4694F8260080074CD5D4F8FC3097
:10A7C000204698470646D4F800312A4639462046A6
:10A7D0009847D4F8943005461BB100220121204649
:10A7E00098472069B04201DD012000E00020A16906
:10A7F000B14201DA012100E0002108436169A94268
:10A8000001DD012100E000210843E169A94201DAEC
:10A81000012100E0002108430AD06068401E00903A
:10A820002368D4F8A4705B1E002211462046B84766
:10A83000D4F8A8302A46314620469847D4F89C10D0
:10A8400020468847D4F8943005466BB10122002198
:10A850002046984708E0D4F8A83020469847D4F816
:10A860009C102046884705462846F8BD70B504462A
:10A870008068002812D14FF4B875284600F0BCFA61
:10A880002A460021A06003F0D9F9A0680221C18402
:10A890000121046401620249C0F8041170BD000086
:10A8A000A5A8000810B590B0044620220A496846C1
:10A8B000FBF76EF808492022203108A8FBF768F85A
:10A8C000606B5DF82010C4F8FC1008A951F8200056
:10A8D000C4F8000110B010BD402902082DE9F8436A
:10A8E00084689846154694F826000F46800740D5A0
:10A8F000D4F8FC30204698470646D4F800312A4662
:10A9000039462046984705462069B04201DD0120BE
:10A9100000E00020A169B14201DA012100E000213C
:10A9200008436169A94201DD012100E000210843DB
:10A93000E169A94201DA012100E0002108430AD0BF
:10A940006068401E00902368D4F8A4705B1E00224B
:10A9500011462046B847D4F8A8302A46314620464A
:10A960009847D4F8A02001B041462046BDE8F04306
:10A970001047D4F8A830F2E72DE9F04FDFF828B1FE
:10A9800091B04FF0FF35DBF80030B3F9221006919B
:10A99000DE69B3F924A0F469A189814206D8E2896D
:10A9A000824203D3471AD4F8008012E0D4E901812F
:10A9B000002970D00A8882426DD84D8885426AD3BA
:10A9C000801A82B2486800EB8200B0F90070B0F9DA
:10A9D0000250781C5FD0307EA27C014600FB02F959
:10A9E000207CCDE90810B3F92A60304604F06CFCF5
:10A9F000C0B20E90DBF8001007FB0980A37C8A6BC5
:10AA00000127CDE90402CDE90273C869DDE9083206
:10AA1000C17E807ECDE900015146069804F032F8EF
:10AA2000681C18D046F0020004F04EFCDBF8000071
:10AA3000A37C05FB0981826BCDE90273CDE9041289
:10AA4000C069DDE90832C17E807ECDE90001514652
:10AA5000069804F017F8DBF800005D46C069417EF7
:10AA6000007E814214D9022E12D086F0040004F038
:10AA70002BFC2868C069027EC37E857E02FB03A191
:10AA8000437E099A0698534402FB050204F088F9B4
:10AA90000E9804F019FCDBF80000627C418C114434
:10AAA000418411B0BDE8F08F9C120020044800687A
:10AAB000C069C06909B1027C0A60407C704700002F
:10AAC0009C120020022008807047C06982898A4257
:10AAD00002D8C2898A4210D2806880B102888A4234
:10AAE0000DD843888B420AD3406800EB8100A0EB6D
:10AAF0008200B0F90000002801DB0120704700202F
:10AB0000704700002DE9F0432F4C034687B02068C2
:10AB10001946B0F92A80C069C06900F0EEF8002833
:10AB20004ED041680088181A01EBC0054046AE7847
:10AB300004F0CAFB814620686A680123816BCDE975
:10AB40000236CDE90421C169CB7E8A7ECDE900239E
:10AB50000B7EB0F924102A78B0F9220003F092FF9E
:10AB60002068C069477E067EB7421DD9C07E474334
:10AB70004643B8F1020F17D000F09EFF804600F068
:10AB800083FF01F021FD21682A78CB69B1F9220009
:10AB9000B1F92410DB7E02FB0302CB19314404F02F
:10ABA000FFF8404601F010FD484604F08DFB206898
:10ABB0006A78C369B0F922109B7E02FB03114184BD
:10ABC00007B0BDE8F08300009C1200202DE9F35F80
:10ABD0000E46002500F070FFDFF8A8808346D8F805
:10ABE000000090F82A00400702D500F065FF01E060
:10ABF00000F04AFF01F0E8FCD8F800000024C26928
:10AC0000B0F92290B0F92470517ED27E01FB02FA95
:10AC10001EE0684601F068FE0546D8F800002946A7
:10AC2000C069C06900F032F890B141680088281A04
:10AC300000EB400001EB800090F90210007908441D
:10AC4000D8F80010C969897E4843002800DD044413
:10AC5000761EDED51DB1284602F00CFE044407EB3B
:10AC60000A0309EB04025B1E4846521E394604F0F3
:10AC700097F8584601F0A8FC034901200870BDE888
:10AC8000FC9F00009C1200208014002006E0028837
:10AC90008A4202D842888A4202D280680028F6D1CD
:10ACA0007047000030B50E4C05460B46206829461B
:10ACB000C069C06900F021F8002810D04168008800
:10ACC00024682A1A0120E46900EBC200085CA47E13
:10ACD0006043002B03D011F832106143196030BD7E
:10ACE0009C12002001200880704700B5C06900F068
:10ACF00004F8002800D0012000BD06E002888A4246
:10AD000002D842888A4202D280680028F6D1704771
:10AD1000FEB50E4EDDE908543668367C16F00306A3
:10AD20000CD0012E03D0022E0DD0032E05D1084EDB
:10AD3000CDE90054029610F0E3FEFEBDCDE90054CB
:10AD400010F08CFEFEBD034EF2E700009C120020C6
:10AD500089F3000801F30008002801D00FF0C0B803
:10AD6000704738B50546FFF7F7FF040009D000F03B
:10AD7000C5F82A460021009002F060FF684600F006
:10AD800007F9204638BD0000024A106021F0030098
:10AD9000506070473C95002010B5002814D0044640
:10ADA0000A48006B10F8341000290DD002290BD28C
:10ADB000042101EBC401415848680FF055F82046C2
:10ADC000BDE8104012F0CEBD10BD00008094002000
:10ADD000002805D0034A916B016001B1486090637F
:10ADE000704700008094002010B504460068FFF70B
:10ADF000D3FF0020206010BD2DE9F041044612F081
:10AE00005FFA2648E41C24F00305C16B2D1DA942FE
:10AE100000D90D46846B13E054F8042CAA420ED1DD
:10AE200084B1216809B162684A60616809B1226829
:10AE30000A60826BA2422ED1216881632BE02468D4
:10AE4000002CE9D18046416B80680F1857F8040C3C
:10AE50003E1A306838B1002012F08EFE57F8040C0C
:10AE60003E1A3068B8B97068A84214DB3044441BFD
:10AE7000304612F039FED8F80810491BC8F80810FF
:10AE8000D8F810102944C8F8101070683146401BDB
:10AE90000EF0EAFF20C42046BDE8F0818094002037
:10AEA00010B5002412F00CFA0C490F2001EBC0027F
:10AEB000126C1AB101EBC000006C08E0401EF5D521
:10AEC00008E04168A14200D90C46806810B1806852
:10AED0000028F6D1A4F10C0010BD000080940020E1
:10AEE000002138B10449042202EBC000096B085864
:10AEF00041680C39084670478094002005498A69EA
:10AF0000521C8A61096B01EBC0010A78521C0A705D
:10AF100000F056B8809400207CB506460C460846E2
:10AF2000FFF71AFF05001CD0DEB13046FFF7D8FF4F
:10AF3000A04200DA04462846FFF7E0FF00903046C2
:10AF4000FFF7DCFF0146019022460098FAF720FD4A
:10AF5000684600F01DF801A800F01AF83046FFF727
:10AF60001BFF28467CBD000010B5FFF799FF642247
:10AF70000649B0F5800F04D990FBF2F0C969484347
:10AF800010BDC9694143B1FBF2F010BD80940020AF
:10AF90000A4902680B6B52F8082C03EBC2021378C3
:10AFA000022B03D38B690BB15B1E8B611178491E99
:10AFB0001170002101600846704700008094002055
:10AFC000002806D00349042202EBC000096B085890
:10AFD000083070478094002070B50C46054600F09C
:10AFE000EDFDC1B223462846BDE87040002200F0C6
:10AFF00001B80000F0B52D271C68B0F1004F08D053
:10B00000002500280DDA661C1E60277040420124CE
:10B0100008E0661C01251E606FF000402770491E85
:10B0200001E00024091BC9B22AB3491EC9B222E0BB
:10B030000C46491EC9B2944205D1124C27781C68AF
:10B04000661C1E602770104C54F8216090FBF6F4CB
:10B05000E4B20A2C11D804FB160011B90DB1641C1E
:10B06000E4B20A2C02D10124491CC9B21E68303452
:10B07000771C1F6034700029DAD11968002008702D
:10B08000F0BD0000901200201C25030810B5C2B2CC
:10B09000CBB2D21A02D5C2F1000212B293B2C0F3FF
:10B0A0000722C1F3072403FB03F3121B01D552420D
:10B0B00012B2000C92B2A0EB114002FB023200B2BD
:10B0C000002801DA404200B280B200FB002010BD2F
:10B0D00010B50021084600F035FD40F6FF725042E1
:10B0E000BDE8104013460146AFF300802DE9FC4156
:10B0F00007461C4615460E46042004F0E5F8804637
:10B100001148C068C16C006D0F4406440D440444EE
:10B11000ADF80070ADF80450ADF80260ADF806402F
:10B1200068460EF0D1FA07E023462A4631463846F3
:10B1300003F036FE0EF08AFA0028F5D1404604F0FE
:10B14000C3F8BDE8FC810000901200202DE9F04119
:10B150001C4616460D460746022B02DB0020BDE8C2
:10B16000F0811C20FFF748FE0028F8D00DB10561E2
:10B170000AE0094A52F8241009B905E011460A68A4
:10B18000002AFBD109690161846186820021016086
:10B190004160C0E90217E2E7B412002070B51D4615
:10B1A000FFF7D4FF040001D000F00EF8E06800685B
:10B1B00020B90348006800EB85008465204670BD17
:10B1C0009C120020FFF704BE70B590B38269022A7A
:10B1D00030DA1C4C54F8221019B944F822002FE040
:10B1E00019464B68002BFBD106E0CB68C5681B688D
:10B1F0002D68AB4203DD09680029F6D11AE0C1B120
:10B20000CB68C6681B683668B3420CD1838A012BB1
:10B2100005D008E01946DB681B68AB4203DB0B680E
:10B22000002BF7D129B14B6833B118604A684260EE
:10B2300004E0FFE7012070BD44F82200486001608F
:10B24000002070BDB412002013F072B8022801DB98
:10B2500000207047054951F8200004E0C1680968E2
:10B260000029F6D000680028F8D17047B4120020F9
:10B2700070B5044601F0A6FC051908E000F010FBCB
:10B28000052C01DD052000E0204601F08FFC01F0D7
:10B2900099FC2C1A002CF1DC70BD0000024B1B68DD
:10B2A00059849A84FBF738BF9C1200207FB51E4654
:10B2B00014460D46CDF80CD003AB00223146FFF703
:10B2C00099FE22462946684600F090F87FBD0000AE
:10B2D00000B500F0F9FB044909688A8C10448884A1
