:020000040800F2
:10580000387B0020455900089BE20008FDC90008CC
:1058100099E20008B9700008814201080000000008
:10582000000000000000000000000000712C0108D2
:105830007B7A0008000000005B590008893B0108E2
:10584000D95501085F5900085F590008010D01088A
:105850005F5900085F5900085F5900085F59000848
:105860005F5900085F5900085F5900085F59000838
:105870005F5900085F5900085F5900085F59000828
:105880005F5900085F5900085F5900085F59000818
:105890005F5900085F5900085F5900085F59000808
:1058A0005F5900085F5900085F5900085F590008F8
:1058B0005F5900085F5900085F5900085F590008E8
:1058C0005F5900085F5900085F5900085F590008D8
:1058D0005F590008A53C0108293D0108593E01080F
:1058E0005F5900085F5900085F5900085F590008B8
:1058F0005F5900085F5900085F5900085F590008A8
:105900005F590008451401085F5900085F590008F5
:105910005F5900085F5900085F5900085F59000887
:105920005F5900085F5900085F5900085F59000877
:10593000DFF80CD000F028FE00480047CDC1010878
:10594000387B00200648804706480047FEE7FEE710
:10595000FEE7FEE7FEE7FEE7FEE7FEE7FEE7FEE71F
:10596000A53B01083159000810B5441A034694427A
:1059700009D28418114403E011F8013D04F8013DF7
:10598000521EF9D210BD40EA0104A40703D009E079
:1059900010C9121F10C3042AFAD203E011F8014BF8
:1059A00003F8014B521EF9D210BDD2B201E000F84B
:1059B000012B491EFBD270470022F6E710B51346B3
:1059C0000A4604461946FFF7F0FF204610BD10B501
:1059D000002200E0521C835C8C5CA34201D1002BAE
:1059E000F8D1D8B2E1B2401A10BD034611F8012B2C
:1059F00000F8012B002AF9D11846704730B505464A
:105A00000020034600E05B1C934205D2EC5CC85CBE
:105A1000201A01D1002CF6D130BD70B5064614F025
:105A2000D7FB046805460A220021304600F034FC0A
:105A30002C6070BD70B5064614F0CAFB04680546BC
:105A40000A220021304600F027FC2C6070BDF0B423
:105A500080EA0102D40F4200B2EB410F02D20246AB
:105A6000084611464A0042D0C30DDDB2C1F3C75209
:105A7000AD1A202D35DAC1F3160141F4000204B14C
:105A80005242C5F1200602FA06F12A411044B3EB56
:105A9000D05F23D0C4B1012DA0EBC35009DCF0BC12
:105AA0004FF0004202EAC352DBB200F5000000F002
:105AB00034BC400000F1807000EBC350A0F1807056
:105AC00040EAD170490009E0490841EAC071A0EB01
:105AD000C35000F50000400800EBC350F0BC00F0DC
:105AE00013BC6142012202EB4101001BF6E7F0BC4E
:105AF000704781F00041AAE780F00040A7E780EA04
:105B0000010210B502F00043400022D04A001FD02D
:105B1000010E01EB1261C0F35600C2F3560240F4CD
:105B2000000042F40002A0FB022000047F391404AC
:105B300000D0401C50EA124001D44000491EC2B2BD
:105B40000C0604EBD010401C4008802A02D003E071
:105B5000002010BD20F00100002900DA00201843C9
:105B600010BD30B480EA010202F0004530F000427E
:105B700021F0004013D090B1C30DD40DC2F3160133
:105B8000C0F31600E41A41F4000140F400027D3431
:105B9000914201D3641C00E04900002C02DA30BCC1
:105BA000002070474FF400000023914201D3891A6E
:105BB000034340084FEA4101F7D151B1914202D16C
:105BC0004FF0004105E002D24FF0010101E06FF01B
:105BD000010103EBC450284430BC00F095BB4200E7
:105BE00005D0C0F3C7525242914201DC00207047F9
:105BF00000EBC15070472DE9FE4F804681EA03005B
:105C0000C00F0C46009021F0004123F00045B8EB96
:105C10000200A94105D24046214690461C460B464B
:105C2000024623F00040104347D0270DC7F30A0077
:105C3000C3F30A510290401A019040286BDAC3F373
:105C4000130040F4801B0098924620B10023D2EB51
:105C5000030A63EB0B0B01985946C0F14002504612
:105C600000F09BFA06460D4650465946019A00F050
:105C7000B3FA10EB08006141002487EA115284EA6C
:105C8000E7731A4340D0009A62B3019A012A4FEA9F
:105C9000075215DC001B61EB02014FF0004202EAE3
:105CA0000752CDE90042001C41F5801132462B46D7
:105CB00000F070FB03B0BDE8F08F40462146F9E7E5
:105CC000001B61EB0201001C41F5801300185B41D1
:105CD0002018A2F5001747EB030140EAD570B6196A
:105CE0006D4111E06D084FEA360645EAC0754FEA8E
:105CF0000752001B61EB0201001C41F580114908AD
:105D00004FEA30000019514132462B4603B0BDE83E
:105D1000F04F00F030BB0098012240000023D0EB90
:105D2000020263EBE073009821464FEAE074B8EB9F
:105D3000000061EB0401E9E783F000435BE781F0D9
:105D4000004158E72DE9FE4F81EA030404F00044C6
:105D500021F0004100944FF0000B23F0004350EA83
:105D600001045ED052EA03045BD0C3F30A54C1F3CA
:105D70000A552C44A4F2F3340194A0FB0254C1F35D
:105D8000130141F48011C3F3130343F4801301FBA7
:105D9000024400FB034E840A970A44EA815447EA0E
:105DA0008357A4FB076802958D0A05FB07854FEA18
:105DB000932C04FB0C542705029D4FEA065847EA32
:105DC0001637B5EB08056EEB070C870E920E47EA07
:105DD000811742EA8312A7FB0201B6EB0B0164EBC9
:105DE00000042B0D43EA0C335E1844EB1C50DA46DA
:105DF0005146E7FB0201C5F313044FEA0B3343EAB4
:105E000014534FEA0432019C43EA0603A4F10C0444
:105E10000294009CCDE900B400F0BCFA03B0BDE8E8
:105E2000F08F00200146F9E72DE9F04D81EA0304E7
:105E300004F0004B21F0004514464FF0000A23F017
:105E4000004150EA050220D054EA01021DD0C5F3FA
:105E50000A570246C5F31303C1F31300C1F30A56F0
:105E600040F4801543F48013A7EB0608101BD646B8
:105E700008F2FD3873EB050002D308F1010801E0D8
:105E800092185B41B8F1000F03DA00200146BDE82B
:105E9000F08D00204FF48011064684460EE0171B5B
:105EA00073EB050705D3121B63EB050306434CEAAE
:105EB000010C49084FEA300092185B4150EA010793
:105EC000EDD152EA030012D082EA040083EA050110
:105ED000084305D0101BAB4106D20122002306E087
:105EE00000224FF0004302E06FF0010253101AEB62
:105EF00006004CEB085110EB0A0041EB0B01BDE82A
:105F0000F04D00F038BA70B521F0004303430CD0D7
:105F1000C1F30A550024D5EB040564EB0403D6173E
:105F2000AD1AB34102DB0020014670BD201841EBE1
:105F3000025170BDC10F80EAE0700844CA07962381
:105F4000002100F0EAB996230022114600F0E5B9DD
:105F50000EB5C10F80EAE0700844CA07002140F284
:105F600033438DE80E000A460B4600F013FA03B0E7
:105F700000BD0EB540F2334102910021CDE9001180
:105F80000A460B4600F006FA03B000BD20F00040C0
:105F9000C10DC0F3160040F400007F2901DA002093
:105FA0007047962903DCC1F19601C84070479639C5
:105FB0008840704770B5C1F30A5201F000450024D3
:105FC000C1F3130140F2FF3341F480119A4201DA28
:105FD000002070BD40F233439A42A2F2334203DC08
:105FE000524200F0E9F800E090402C43F1D04042EA
:105FF00070BDC1F30A5210B5C1F3130140F2FF3373
:1060000041F480119A4201DA002010BD40F233437E
:106010009A42A2F2334203DC524200F0CDF810BDA6
:10602000904010BD00F0004230F000400AD0C10D99
:1060300001F56071C0F3160042EA0151C208400741
:1060400011437047002001467047000030B5041E20
:1060500071F1000404DB4FF00044404264EB0101A5
:10606000141E73F1000405DB1C464FF0004352423E
:1060700063EB04038B4208BF824230BD30B5041E7F
:1060800071F1000404DB4FF00044404264EB010175
:10609000141E73F1000405DB1C464FF0004352420E
:1060A00063EB0403994208BF904230BD01F0004306
:1060B00030B421F0004150EA010206D00A0DA2F5E9
:1060C0006072C1F31301002A02DC30BC002070476B
:1060D000440F44EAC104C100E01830BC00EBC250D8
:1060E00000F012B9002801DBC0F10040002901DBFB
:1060F000C1F1004181427047002801DBC0F100403E
:10610000002901DBC1F100418842704730B50B46E0
:10611000014600202022012409E021FA02F59D42D7
:1061200005D303FA02F5491B04FA02F52844151EAB
:10613000A2F10102F1DC30BD2DE9F05F054600203F
:1061400092469B4688460646814640241BE02846E8
:1061500041464746224600F02FF853465A46C01A99
:10616000914110D311461846224600F016F82D1A18
:1061700067EB01084F4622460120002100F00DF890
:1061800017EB00094E41201EA4F10104DFDC484654
:1061900031462A464346BDE8F09F202A04DB203AD8
:1061A00000FA02F1002070479140C2F1200320FA6A
:1061B00003F3194390407047202A04DB203A21FA68
:1061C00002F00021704721FA02F3D040C2F1200210
:1061D0009140084319467047202A06DBCB17203A26
:1061E00041FA02F043EAE07306E041FA02F3D040DC
:1061F000C2F1200291400843194670470FB40023B2
:1062000000B589B00CA900910B996FF00042CB60EA
:106210001E4B06931E4B07930423CDE901321D4A02
:10622000089202466B46002000F04EFA09B05DF875
:1062300014FB70B586B006464FF0FF300091CDE9F3
:106240000101002015460C4604903246694604A818
:10625000FFF7D4FF03460498211825B108B10A4678
:1062600000E022462A6000280DD0002B02DD0098B5
:10627000884208D0081B0094CDE9010432466946E3
:1062800004A8FFF7BBFF06B070BD0000016900085D
:106290001F690008B56500082DE9F04791460F46D3
:1062A00080460446002614F8015B2DB100F07EF90B
:1062B0000068405DC007F6D12B2D02D02D2D18D0DF
:1062C000641E4A463946204600F03AFB27B1396839
:1062D000A14201D1C7F8008071054FF002040BD52F
:1062E0004042002803DD13F073FF0460A007BDE8FF
:1062F000F08746F48066E4E70028F8DA13F068FFD8
:1063000004606FF00040F2E70029A8BF7047401C0E
:10631000490008BF20F00100704710B4B0FA80FCBB
:1063200000FA0CF050EA010404BF10BC704749B1F8
:10633000CCF1200421FA04F411FA0CF118BF012168
:1063400021430843A3EB0C01CB1D4FEA00614FEA48
:10635000102042BF002010BC704700EBC350104417
:106360000029A4BF10BC7047401C490008BF20F0A2
:10637000010010BC704710B5141E73F1000408DA58
:10638000401C41F1000192185B411A4301D120F0F9
:10639000010010BD2DE9F04D92469B4611B1B1FAB6
:1063A00081F202E0B0FA80F220329046FFF7F5FE6B
:1063B00004460F4640EA0A0041EA0B0153465A469A
:1063C000084313D0114653EA010019D0C8F1400226
:1063D0005046FFF7F1FE05460E46504659464246E6
:1063E000FFF7DBFE084305D0012004E020463946D4
:1063F000BDE8F08D0020054346EAE0762C433743A4
:106400000A986305E40AA0EB08000022FD0A44EAAA
:1064100047540A3002D500200146E9E7010510196A
:106420006941DDE9084500196941BDE8F04DA2E781
:106430002DE9F04D00231A461B1A8A4103DB002088
:106440000146BDE8F08DC1F30A52C1F3130141F4D6
:1064500080154FF0000BD10702D100186D41521E7C
:106460000027044640F2FF11384601EB620A3E461F
:106470008046024600204FF48011FFF79DFEC219AE
:106480007141BB1846EB0100B4EB030C75EB000C3B
:1064900004D3E41A65EB000517460E46241908F1EB
:1064A00001006D4180463428E3DDF91946EB060012
:1064B000091BA84103D24FF0FF32134601E000222E
:1064C00013461BEB070046EB0A51BDE8F04DFFF702
:1064D00052BF2DE9FE4FC3F30A5701F000450024D7
:1064E000C1F30A56C3F31303C1F3130143F480133A
:1064F00012EB020AA64641F48011009543EB030C0F
:10650000A7F1010B16E0B0EB0A0061EB0C01071ECE
:1065100071F1000707DA4FF00008D0EB080085F0B2
:10652000004568EB0101171A73EB0107EBD3761EE8
:10653000001849415E45F6DA50EA010209D0CDE97A
:1065400000E5002213460296FFF724FF03B0BDE8E2
:10655000F08F20460099F9E7C1F30A52C1F3130105
:1065600040F2FF3341F480119A4202DA00200146E2
:10657000704740F233439A42A2F2334202DC524265
:10658000FFF71ABEFFF709BE064C074D06E0E068AC
:1065900040F0010394E8070098471034AC42F6D36A
:1065A000FFF7CAF940FB020860FB02080048704789
:1065B00004F3020810B50446FFF7F8FF0068005D19
:1065C00000F0010010BD00002DE9FF4F087881B0F8
:1065D0009946FF2805D0491C2D2804D0002400230B
:1065E00008E000230BE00124F9E703EB830300EB51
:1065F0004303491C0878FF28F7D104B15B4200200F
:106600000090147801462D2C01D02B2C04D1521C63
:106610002D2C12D00024009400251678FF2E0ED0C9
:106620000A24A0FB04C801FB0481002700FB07111A
:10663000521C16EB0C006941EFE70124EBE799448B
:1066400050EA01020ED00024AA4D2646DFF8A882A7
:1066500000F0D3F982468B46B9F1000009DAC9F19E
:1066600000071BE001980021C0E9001105B0BDE85A
:10667000F08F074612E0F80707D022462B46304637
:106680004146FFF75FFB0646884622462B461046EA
:106690001946FFF757FB04460D467F10002FEAD13D
:1066A000B9F1000F324643465046594602DAFFF729
:1066B000BBFB01E0FFF746FB009A0AB181F0004105
:1066C000019AC2E90001D1E72DE9FF4F1F468DB0C5
:1066D000D7E901464FF0FF382E2045464FF000091C
:1066E0000B90B9696D1C0E988847396A82468847B5
:1066F0000028F6D1BAF1FF3F0AD024F4D064002E6E
:1067000011DDBAF12B0F08D0BAF12D0F0BD102E039
:10671000404611B0ABE744F48064B9696D1C0E9833
:1067200088478246761E6946600501D52D2000E027
:106730002B208DF8000001F1010B0DF1200809E07C
:10674000B9696D1C0E98884782460F9844F400740E
:10675000761E0560002E02DDBAF1300FF0D00B99E5
:106760008A453ED144F0800406E00F99681CA9F1E7
:10677000010944F400740860B9696D1C761E0E9816
:10678000884782463028F0D02BE00B998A4505D106
:10679000200603D444F08004761E18E0504614F01E
:1067A00037F908B30DF11301761E44F400748B45DC
:1067B00008D2AAF130000BF8010B200607D5A9F189
:1067C000010003E0200602D409F101008146A00582
:1067D00002D50F99681C0860B9696D1C0E9888472E
:1067E0008246002ED1DC53E0002E51DDBAF1650F58
:1067F00002D0BAF1450F4BD1A00549D5B9696D1C3E
:1068000024F44074761E0E9888478246002E0CDDD4
:106810002B2804D0BAF12D0F07D144F48074B96944
:106820006D1C0E9888478246761EE00501D52D2105
:1068300000E02B2108F8011BCDF82C8021E00DF1A0
:106840002901761E44F4007488450CD2AAF1300068
:1068500010F0FF0088F8000002D10B99884509D993
:1068600008F1010806E0E00501D5244801E042F204
:106870000F708146B9696D1C0E98884782460F9843
:106880000560002E04DD504614F0C2F80028D6D171
:10689000F9690E988847FF208BF8000088F80000FF
:1068A0000020069007904B466A4608A906A8FFF705
:1068B0008BFEA00502D46FF001002AE714F0240F2C
:1068C0000AD0E00714D1DDE906123868031D3B60E9
:1068D0000068C0E900120BE0DDE90601FFF7E6FB06
:1068E0000146E00704D13868021D3A600068016083
:1068F00028460EE7000024400000F03FF1D8FFFFDB
:10690000426842B1016811F8013B23B1521EC0E94F
:106910000012184670470121C160881E7047426806
:106920005AB1C368016843B983688B4205D0491ED8
:10693000521CC0E90012002070474FF0FF30704732
:106940002DE9F05F82460078002715468B460AF154
:106950000104B946302801D09DB113E014F8010BB1
:106960000127782803D0582801D045B10AE00DB19D
:10697000102D07D10027102514F8010B02E008257F
:1069800000E00A250026B0460EE005FB080005FBE6
:1069900006F1012701EB10461FFA80F8B6F5803F9B
:1069A00000D3B94614F8010B294600F018F8002866
:1069B000EBDABBF1000F05D00FB1641E00E05446C6
:1069C000CBF80040B9F1000F06D013F001FC022112
:1069D0000160C81EBDE8F09F48EA0640FAE73A2881
:1069E00000D2303820F02002412A01D3A2F1370032
:1069F000884201D34FF0FF3070470EB540F233426A
:106A000002920022CDE900221346FFF7C3FC03B037
:106A100000BD70B58C1810F8015B15F0070301D1AB
:106A200010F8013B2A1106D110F8012B03E010F8F1
:106A3000016B01F8016B5B1EF9D12B0705D4002314
:106A4000521E0DD401F8013BFAE710F8013BCB1AB6
:106A5000921C03E013F8015B01F8015B521EF9D5AB
:106A6000A142D8D3002070BD2DE9F05FDFF820E10E
:106A70004FF0000C67469EF800204FF00109DFF848
:106A800014A14549454EE34606E0052F3AD2DFE81A
:106A900007F0031019242F00C1F8A4B1C1F8AC917C
:106AA000C6F89C91CAF88C91CAF89891DFF8F080EA
:106AB00028E0C1F8A491C1F8ACB1C6F89C91CAF81D
:106AC0008C9112E0C1F8A491C1F8AC91C6F89CB1C8
:106AD000CAF88C91CAF8989114E0C1F8A491C1F851
:106AE000AC91C6F89C91CAF88CB1CAF8989109E0AB
:106AF000C1F8A491C1F8AC91C6F89C91CAF88C91E8
:106B0000CAF898B10020401CC0B20A28FBD300206C
:106B100008EB87040FE070B1012808BFD1F81C31E1
:106B20000BD0022808BFD1F8203106D0032808BFB7
:106B3000D6F8183101E0D1F818315CEA030508BF36
:106B4000225C401CC0B20428E5D3781CC7B2052FD4
:106B50009BD38EF8002013489EF8011074466AB14A
:106B600089B900686168401A64280CD9627015F010
:106B70005BF984F800B06078BDE8F09F19B1006857
:106B8000606084F801B08EF800B00020BDE8F09F8E
:106B900048010020008022420000244200002242DE
:106BA00064E90108180000202DE9F05FDFF8FCE03F
:106BB0004FF0000C67469EF800104FF0010A3C4D64
:106BC0003C4EE346DFF8F080DFF8F09007E037B1A5
:106BD000012F0BD0022F12D0032F21D118E0C5F8BE
:106BE000A4B1C6F88CA1C5F894A10EE0C5F8A4A183
:106BF000C6F88CB1C5F894A1C5F898A110E0C5F805
:106C0000A4A1C6F88CA1C5F894B1C5F898A107E075
:106C1000C5F8A4A1C6F88CA1C5F894A1C5F898B18F
:106C20000020401CC0B20A28FBD3002009EB8703D8
:106C30000FE070B1012808BFD5F828210BD0022839
:106C400008BFD6F8182106D0032808BFD8F81821A5
:106C500001E0D5F82C215CEA020408BF195C401C55
:106C6000C0B20428E5D3781CC7B2042FAFD31448B0
:106C700074468EF8001071B1627892B9006862684B
:106C8000801A64280DD9617015F0CEF884F800B030
:106C90006078BDE8F09F617819B10068606084F8A1
:106CA00001B08EF800B00020BDE8F09F4801002040
:106CB00000002442008022420000224278E90108BC
:106CC0001800002010B5012009F030FEBDE810408A
:106CD000002009F02BBE81B000F1804000F5D840C3
:106CE0000090008801B0704781B000F1804000F54D
:106CF000D8400090016001B0704700002DE9F043DA
:106D0000ADF5197D0021AA4807F0F4FB4FF440705F
:106D100007F0E6FBA7484FF47A7100250068B0FB46
:106D2000F1F0411EB1F1807F09D24FF0E0204161C6
:106D3000A14AF02182F8141D85610721016101211A
:106D4000402009F0B7FD01F07BF903F0BFF8042003
:106D50000DF02AFF994807F0E1FC01200CF09AFFA2
:106D600003F074FF012003F0AFFE022003F02AFEBF
:106D70000BF0FCFB4FF0020814234FF496728C21A9
:106D80006420CDF8008007F018FC064600238CA292
:106D90005021B42005F05CF90121304607F0CCFC0D
:106DA000012002F05FFD4FF4E13017F061FCDFF8E5
:106DB0002892484603F0C2FD884F3878002800F03A
:106DC000E180012800F0E280FF2003F0B7FDDC2223
:106DD000502183A002F0DCFD0BF022FCA0F56F41F6
:106DE000163908BF06F02EFE1E21304607F0A4FC1F
:106DF0007E48006806F09AFE4FF0FF1003F09EFDFB
:106E000001247BA0CDE9000432234FF4EB720F2163
:106E1000002009F035FD6FF07F4003F08FFD7CA06E
:106E2000CDE9000419234FF4EB726FF00901002043
:106E300009F026FD7D4803F081FD7DA102A813F035
:106E40009BF902A8CDE90008DC234FF4F072A021E1
:106E5000002009F015FD4FF4165017F065FB4FF4B4
:106E6000E13017F0ABFBDFF8F481C8F88C41C8F8CB
:106E7000845139787A487B4F002918BFC7F88C4174
:106E8000C7F89441C0F8844118BFC7F898414FF43F
:106E90000A717548FEF790FD0AF0A2FC014673489E
:106EA0002A2979D00570FF2003F048FD70A000BFAB
:106EB00013F052F9DC224FF4C87171A002F068FDA2
:106EC0001421304607F038FC012002F0CBFC09F019
:106ED0003BFFC8F884414FF4F0726B491CA8FEF7E1
:106EE00043FD0121480709F0F1FC0121052009F0CB
:106EF00005FD2020ADF8000018208DF803000320C8
:106F00008DF802006946614801F0B2FB01210220C0
:106F100009F0D0FC00F02AFD94A800F058FD9495EB
:106F2000959594A91020979500F02CFD0121102033
:106F300000F0C8FCC7F88C41554807F05FFF2824D3
:106F40002146304607F0F8FB142002F08BFC611C50
:106F50000CB2502CF4DB30460DF0B2FB4D4845F23C
:106F6000555101600521416040F6C31181604AF628
:106F7000AA2101604CF6CC4101600DF5197DBDE8F8
:106F8000F08309E0DC22502143A002E0DC22502102
:106F900043A002F0FDFC1FE70470484603F0CEFC5E
:106FA00000220CA1304814F0D9FB3FA080E700007C
:106FB00000580008000000200FE000E099E60008FB
:106FC000303A616E692F41303030302F30303238F6
:106FD0002E626D700000000080FF8000C301002061
:106FE00048573A20556E6B6E6F776E00C8010020CF
:106FF000D9BED98AD8B4DAAFD8A7D985D8A7D986C7
:1070000020D985D8A7D986D8AFDAAFD8A7D8B1000C
:10701000D8AAD8A7DAA9D8B3D98AD985D8AAD8B195
:1070200020D8B3D98AD985D8B1D8BA0000FFFF00DB
:10703000D8B3D8A7D8B2D985D8A7D98620D8AAD806
:10704000A7DAA9D8B3D98AD8B1D8A7D986D98A203E
:10705000DAA9D8A7D8B4D8A7D98600000000224260
:107060000000214200002342E8040020D501002056
:107070000A0D4D6963726F5344204552524F5200BE
:107080004D6963726F53440084E7010800080140B2
:10709000647900080030004048573A20563100001B
:1070A00048573A20563200000A0D4D6963726F53FB
:1070B00044204F4B00000000FEE700002DE9F047A0
:1070C0000024DFF89491C2B02646274661A14846C5
:1070D0000DF09EF861A005F009F900281EBF0120FF
:1070E00042B0BDE8F0875EA148460DF091F85FA080
:1070F00005F0FCF800281EBF022042B0BDE8F08772
:10710000DFF8748198F8B906022809D0032801D065
:10711000142805D059A148460DF07AF85A4D0BE0D5
:107120005AA148460DF074F8F8E748460DF056F8B5
:10713000601CC4B20C2C02D2295D0029F5D1232198
:1071400048460DF04BF80D2148460DF047F843A096
:1071500005F0CCF800281EBF032042B0BDE8F08740
:107160004D4C2068DFF834A1C5B241F27079206837
:10717000854203DC2068401B484503DB42B0002009
:10718000BDE8F087DAF81800B8B102208DF80000E9
:107190000B208DF80100B8F800008DF80200000AFD
:1071A0008DF8030000208DF804008DF805001F20E5
:1071B0008DF8060007246D4611E0012002F052FB15
:1071C000D5E73046711CCEB20A2824BF9DF80001D5
:1071D000202804D3C82802D82855601CC4B240A86F
:1071E00001F00EFD002818BFDC2CEAD3A01FC11748
:1071F00000EB11618DF80400080A8DF80500601C91
:10720000C0B22F55390A2954401CC0B20321295459
:10721000401CC6B22248007810B101280ED011E0FF
:107220000024002E88BF1F4F0CD9295D38460CF072
:10723000D5FF601CC4B2A642F7D803E069463046C9
:1072400001F076FA012007F05FF942B00020BDE8B6
:10725000F087000061740A00004800404F4B0000B6
:1072600061742B637265673F0A0000004352454713
:107270003A20302C31000000C44700206174642A99
:107280003134312A000000003B2E00206174642A52
:107290003134302A23000000180000206400002050
:1072A000E20100200038014030B50446A0F5C85086
:1072B000AB389BB00D464FF0000004BF1BB030BD93
:1072C0000090002301901A460EA118460CF0FAFB1C
:1072D000194803F033FB2B46224618A102A812F0EE
:1072E0004BFF022102A8CDE90001DC234FF4C87254
:1072F000BE21502009F0C4FA1C49032008631BB0CA
:10730000012030BDDAA9D8A7D8B1D8AA20D985D80C
:10731000B1D8A8D988D8B720D8A8D98720D8A7D9D4
:107320008AD98620D985D8B1DAA9D8B220D986D908
:107330008AD8B3D8AA0000004040400020DAA9D87B
:10734000AF20D8B3D8A7D8B2D985D8A7D986203A44
:10735000202564202020DAA9D8AF20DAA9D8A7D820
:10736000B1D8AA203A20256420000000D8010020CE
:107370002DE9F041594C02260127E06A401CE062E9
:10738000E17A0E20002541B1657427702573E572FE
:1073900025726572A572257419E0227A0D2152B109
:1073A0006574227C521CD2B22274022A02D9617006
:1073B000267025742572627A1AB165746170267020
:1073C0006572A17A19B1657460702670A572216B1F
:1073D000032901D9217C19B12078022808D102E0C3
:1073E000607026702563032000F06EFB07F0B6FA8C
:1073F0002078012809D1E06AB0F5616F05D9042031
:10740000E5622070012005F0F1F8A079DFF8D08066
:1074100058B1A5712770022005F0E8F8C8F80000FF
:1074200065730028A4BF2F49C8622078042807D0BC
:10743000A0782D4F401CC0B2A07003280CD00FE0E4
:10744000E06A0A2898BFBDE8F08127704FF0FF304E
:10745000C8F80000BDE8F08124A138460CF0D8FE41
:107460002078012818D1A078401CC0B2A07006284E
:1074700012D9607C401CC0B26074032808D95A201D
:10748000607026706574032000F01EFB07F066FA3A
:1074900018A138460CF0BCFE2078012808BF4FF434
:1074A0007F4006D0022807D0042808BF4FF47F0091
:1074B00005D103F043FA02E0FF2003F03FFA114840
:1074C0000422007800F10B014FF4967002F050FC9A
:1074D000A078062888BFA570BDE8F0816400002070
:1074E00010020020C46300200048004041542B4398
:1074F00053510A0041542B4349505354415455535E
:107500000A000000C40100202DE9F04FDFF86C8173
:10751000002683B098F80C003446002804BF03B05E
:10752000BDE8F08F002700973B46012254A10220BE
:1075300001970CF0C7FA5A48A8F81C7088F80C702C
:107540008763C763076447648764C76407654765E3
:107550000AF0C2FF00200AF0CFFF642002F082F997
:10756000504A202100200BF0B1FB0AF0B5FF342077
:107570000AF0C2FF642002F075F9DFF82CA1D8F8F8
:1075800048004FF0030BDAF8201081420DD00023A1
:107590000097012245A1184601970CF093FAC8F80C
:1075A00030B003B00120BDE8F08F0025DFF8F49083
:1075B000002804D816E000BFB0F5806F09D14FF461
:1075C000806205F5007137480BF000F8D8F84810D4
:1075D00000206D1C19F80020401C1644224494B26F
:1075E0008D42E9D3DAF82400B0420DD00023009791
:1075F000012237A1184601970CF064FAC8F830B0A0
:1076000003B00220BDE8F08FC22089F8000089F89D
:107610000140200A89F80200D8F8480089F80300E0
:10762000010A89F80410010C89F80510000E89F888
:107630000600552089F807000AF04EFF00200AF0E6
:107640005BFF642002F00EF9164A202100200BF0A7
:107650003DFB0AF041FF34200AF04EFF642002F0A7
:1076600001F9002300971A4621A1022001970CF08E
:1076700029FA03B00020BDE8F08F0000D8010020F7
:10768000D8A8D8B1D8B1D8B3D98A20D986D8B3D898
:10769000AED98720D8ACD8AFD98AD8AF00000000C7
:1076A000DC5E0020145F0020E85E0020D8AED8B772
:1076B000D8A720D8AFD8B120D8ADD8ACD98520D89C
:1076C000A7D8B7D984D8A7D8B9D8A7D8AA00000016
:1076D000D8AED8B7D8A720D8B5D8ADD8AA20D8A7C3
:1076E000D8B7D984D8A7D8B9D8A7D8AA000000009D
:1076F000D8A8D8B1D986D8A7D985D98720D8ACD869
:10770000AFD98AD8AF20D8AFD8B1D98AD8A7D98174
:10771000D8AA20D8B4D8AF002DE9F0470E4690463D
:1077200001034FF480521D480AF050FF00241B4F04
:10773000002E88BF4FF6FF7917D93D19FA22294646
:10774000002013F081FF95F8FB1095F8FA2009EA64
:107750000121114489B2814202D00120BDE8F087A5
:1077600004F5807084B2B442E7D3B8F1000F18BFBB
:1077700000200FD031187A5CFF2A03D139444978B0
:10778000FF2902D00220BDE8F087801C80B2B0F54E
:10779000807FEFD30020BDE8F08700008437002011
:1077A00070B5464905462A24486B10F0450F03D1B1
:1077B000486B10F0450FFBD010F0040F05D00324E8
:1077C000042009F0D3FD204670BD10F0010F05D054
:1077D0000124204609F0CAFD204670BD09F006FECE
:1077E000A84234D140F2FF5009F0C0FD002009F05A
:1077F0001FFE334908425ED010F0004F1CBF1C2012
:1078000070BD10F0804F1CBF092070BD10F0005FEC
:107810001CBF0A2070BD10F0805F1CBF0B2070BD24
:1078200010F0006F1CBF0C2070BD10F0806F1CBFEB
:107830000D2070BD10F0807F1CBF0E2070BD10F4B5
:10784000000F1CBF0F2070BD10F4800F01D010205E
:1078500070BD10F4001F1CBF112070BD10F4801FFC
:107860001CBF122070BD10F4002F1CBF132070BD70
:1078700010F4802F1CBF142070BD10F4003F1CBFFB
:10788000152070BD10F4803F1CBF162070BD10F491
:10789000004F1CBF172070BD10F4804F1CBF182074
:1078A00070BD10F4005F1CBF192070BD10F0080FF0
:1078B0001CBF1A2070BD204670BD00000080014032
:1078C00008E0FFFD054A012303FA00F000291168D2
:1078D00014BF084321EA00001060704700740040A4
:1078E00000B5FDB04FF4F0721B496846FEF73CF856
:1078F0000121480708F0EAFF0121052008F0FEFFFA
:107900002020ADF8F00118208DF8F30103208DF848
:10791000F2017CA9114800F0ABFE0121022008F021
:10792000C9FF00F023F878A800F051F80020789003
:1079300079907B9078A9102000F024F80121102084
:10794000FFF7C0FF06490120C1F88C0105A007F030
:1079500055FA7DB000BD000084E701080008014031
:107960000000234230312E776176000010B50121EE
:10797000480708F0B7FFBDE8104000214FF0005065
:1079800008F0B0BF0B4B10B41A6840F6FE7C0CFA3E
:1079900000FC22EA0C02D1E900C44CEA040CD1E953
:1079A000024121434CEA010101FA00F01043186042
:1079B00010BC704700740040A0F6EC3081B000F1BC
:1079C000804000F500400090016001B07047002148
:1079D000016041608160C1607047000010F0805F0D
:1079E00019BF024908600249486070470404024018
:1079F000000002400029016812BF41F001014FF66A
:107A0000FE72114001607047002110F0805F14BFCA
:107A1000034A044A1268024218BF0121084670470F
:107A2000000402400000024010B40268D1F820C0F7
:107A30008B686FF30E1243EA0C03D1E904C44CEADD
:107A4000040C43EA0C03D1F818C043EA0C03D1F844
:107A50001CC043EA0C03D1F824C043EA0C03D1F85C
:107A600028C043EA0C031A430260CA6842600A68ED
:107A700082604968C16010BC7047704710B50C4CFB
:107A80000AA120460CF0C4FB0AA004F02FFC002839
:107A90001CBF012010BD08A120460CF0B9FB05A0B9
:107AA00004F024FC002818BF022010BD61740A00F5
:107AB000004800404F4B000061742B636D67643DCC
:107AC000312C340A000000007047000002480021F9
:107AD00081604160C16070479001002010B40022B5
:107AE0000F4B0124944600BFC3F88841C8210020F1
:107AF000C1EB011100BF401CB0EB410FFAD3C3F83A
:107B000088C150210020C1EB011100BF401CB0EB27
:107B1000410FFAD3521CB2F5C87FE5D310BC7047B1
:107B20000000234270B50D460446C0F30B01060B5E
:107B300000223046FFF7F0FD60B1204609F064FAFC
:107B4000C4F30B0100223046FFF7E6FD00281CBFFE
:107B5000012070BD4FF48072214628460AF036FDA0
:107B6000FA222946002013F06FFD95F8FB104FF61E
:107B7000FF7202EA012195F8FA20114489B281428C
:107B800014BF0220002070BD2DE9F04F4FF0000817
:107B90007D4FD1B04446C146C246454679A13846DC
:107BA0000CF036FB79A004F0A1FB00281EBF0120D9
:107BB00051B0BDE8F08F76A138460CF029FB77A0D4
:107BC00004F094FB002817BF0220774E51B0BDE8A7
:107BD000F08F06E038460CF001FB601CC4B2322C7A
:107BE00002D2315D0029F5D168A004F07FFB0028A6
:107BF0001EBF032051B0BDE8F08F6C4C26686C4F5F
:107C000041F2707BB8690A2812D82068864203D9ED
:107C100051B00420BDE8F08F2068801B584503D385
:107C200051B00520BDE8F08F012001F01BFEE9E70F
:107C300002208DF800000B208DF801005D48202106
:107C40000DF5987B00888DF80200000A8DF803007E
:107C500000208DF804008DF805008DF8061007242B
:107C600007466E4651E000BF9DF82C01392804D02C
:107C700010DCA0F1300108291ED8BAF1010F04BFB1
:107C80004FF0000A57460BF80700781CC7B2042DC6
:107C900032D127E061281AD008DC412817D04928C2
:107CA00010D04C2818D052280AD005E0692809D0F5
:107CB0006C2811D0722803D000254FF0010A1BE078
:107CC000012519E0012D08BF022515D008E0022D7D
:107CD00008BF032510D003E0032D08BF042501D001
:107CE000002509E0B8F1000F06D100200BF80700CD
:107CF0004CA8FDF79FFE80469DF82C01202804D358
:107D0000C82802D83055601CC4B24BA800F040FF10
:107D1000002818BFDC2CA7D3A01FC11700EB1161EE
:107D20008DF80400080A8DF80500601CC0B206F842
:107D300004904FEA19213154401CC0B20321315440
:107D4000401CC5B21C48007810B101280ED011E0CB
:107D50000024002D88BF194F0CD9315D38460CF036
:107D60003DFA601CC4B2A542F7D803E06946284634
:107D700000F0DEFC012006F0C7FB51B04046BDE834
:107D8000F08F000061740A00004800404F4B000073
:107D900061742B637265673F0A00000043524547D8
:107DA0003A20302C310000003B2E0020180000202B
:107DB00064000020C4470020E20100200038014098
:107DC0008000A0F1C0400029016812BF41F001010C
:107DD000014A114001607047FEFF0F00D0E9011217
:107DE0001143D0E903231A431143426911438269C5
:107DF0001143C2691143026A1143426A1143826A04
:107E00001143C26A1143026B0A4301688900A1F160
:107E1000C0410A608168082907D101688900A1F181
:107E2000C0410A6842F040020A60416BD1E9002378
:107E300042EA03128B68B1F80CC01B0243EA0C4300
:107E40001A430B8A42EA03520B7D896942EA0362B4
:107E5000114302689200A2F1C0425160C16AB1F5BB
:107E6000804F08D000686FF070418000A0F1C040E2
:107E7000C0F804117047816BD1E9002342EA031274
:107E80008B68B1F810C01B0243EA0C531A430B7DF8
:107E9000896942EA0362006811438000A0F1C04092
:107EA000C0F80411704700002DE9F0430446C5688E
:107EB00087B090468946002002F042FD064625B173
:107EC000287910B146F0020001E026F0020002F02D
:107ED00037FD2069012558B1D4E902128DE826004A
:107EE000039563882288046841464846A0471EE0FF
:107EF000124F134B214638681B68427CE068984754
:107F000030B9E088012801D0002001E03868806B9A
:107F1000A288E388A1680095CDE90410CDE902327A
:107F20000195638822884146484604F0B3FE07B0B5
:107F30003046BDE8F04302F003BD0000C40200205B
:107F4000BC0200202DE9F05F0646884640F2C320BF
:107F500050434FF47A7190FBF1F702FB02F002EB11
:107F6000D27100EB610B254914467F1C096832442D
:107F7000301BC96E0B684146984701253AE000BFA7
:107F800005FB05F004FB040159451CDDBC4219DD6D
:107F90001A4B06EB050AA6EB05091B68AAF10102BC
:107FA00008EB0401DB6E09F101001B689847134BD5
:107FB000AAF10102A8EB04011B6809F10100DB6EC4
:107FC0001B689847641E0D4806EB040AA6EB0409DB
:107FD000006808EB05015246C06E036848469847A2
:107FE0000648A8EB050152460068C06E0368484683
:107FF00098476D1CBD42C3DDBDE8F09FC402002060
:1080000010B5002002F096FC6FF07F4002F096FC65
:10801000012002F0C5FC002002F0CAFC002002F0A2
:10802000D1FC002002F08CFC0448006802F08AFCBD
:10803000BDE81040002002F08FBC0000C00200200C
:108040002DE9F84F0121052008F058FC01210920F5
:1080500008F054FC0121112008F050FC01212120DE
:1080600008F04CFC0121412008F048FC012181204E
:1080700008F044FC012140F2011008F03FFC1820F8
:10808000ADF8000048208DF8030003208DF80200B1
:108090006946FE4800F0ECFAFD48D0F80C11FD48A6
:1080A0002826DFF8F4A3DFF8F483DFF8F4934FF425
:1080B000816B042529B9F649D1F81011002900F087
:1080C0002381002101700124ADF800408DF8036088
:1080D00003278DF802706946EF4800F0C9FAADF841
:1080E00000B08DF803508DF802706946EA4800F040
:1080F000BFFA4FF48170ADF800004FF0100B8DF80F
:1081000003B08DF802706946E34800F0B1FA4FF40D
:108110000170ADF800004FF0180A8DF803A08DF83B
:1081200002706946DC4800F0A3FAADF800408DF813
:1081300003608DF802706946404600F099FA4020CD
:10814000ADF8000048248DF803408DF802706946B0
:10815000404600F08DFA4FF40060ADF800008DF855
:1081600003508DF802706946404600F081FA41F2F2
:10817000B200ADF800008DF803B08DF802706946CA
:10818000404600F075FA4FF48060ADF800008DF8BD
:1081900003A08DF802706946404600F069FA70202D
:1081A000ADF800008DF803408DF80270694648462E
:1081B00000F05EFAADF800508DF803408DF80270C3
:1081C0006946484600F054FA42F2BA00ADF80000A1
:1081D0008DF803B08DF802706946484600F048FA01
:1081E0004FF48050ADF800008DF803A08DF80270B8
:1081F0006946484600F03CFA4FF47060ADF8000064
:108200008DF803A08DF802706946484600F030FAF8
:10821000ADF80040A34D8DF803B08DF802706946AB
:10822000284600F025FA4FF63770ADF800008DF8BB
:1082300003A08DF802706946284600F019FA7C20E8
:10824000ADF80000984D8DF803B08DF802706946C6
:10825000284600F00DFA4FF68370ADF800008DF857
:1082600003A08DF802706946284600F001FA4FF429
:108270003070ADF800008D4D8DF803B08DF80270B0
:108280006946284600F0F4F94FF45060ADF800005C
:108290008DF803408DF802706946284600F0E8F931
:1082A0004FF23F00ADF800008DF803A08DF802708A
:1082B0006946284600F0DCF94FF42A40ADF800008A
:1082C000724D8DF803B08DF802706946284600F0B3
:1082D000CFF944F2C010ADF800008DF803408DF8DE
:1082E00002706946284600F0C3F945F23F40ADF8F8
:1082F00000008DF803A08DF8027069464FEA050072
:1083000000F0B6F9BDE8F88F01270770ADF80070EE
:108310008DF8036003248DF802406946504600F052
:10832000A7F9ADF800B08DF803508DF8024069460A
:10833000504600F09DF94FF48170ADF80000102018
:108340008DF803008DF802406946504600F090F920
:108350004FF40170ADF800004FF0180B8DF803B02A
:108360008DF802406946504600F082F9ADF8007081
:108370008DF803608DF802406946484800F078F9AE
:108380004FF04008ADF8008048268DF803608DF866
:1083900002406946414800F06BF9F802ADF8000070
:1083A0008DF803508DF8024069463C4800F060F9B2
:1083B00041F2A200ADF8000010208DF803008DF806
:1083C00002406946354800F053F94FF4806AADF831
:1083D00000A08DF803B08DF8024069462F4800F0E8
:1083E00047F93420ADF800008DF803608DF80240A5
:1083F00069462B4800F03CF942F27A00ADF80000E3
:1084000010208DF803008DF802406946244800F0E2
:108410002FF94FF48059ADF800908DF803B08DF826
:10842000024069461E4800F023F94FF47060ADF831
:1084300000008DF803B08DF802406946184800F03E
:1084400017F9ADF800808DF803608DF80240694699
:10845000134800F00DF9ADF80090DFF848908DF862
:1084600003608DF802406946484600F001F9ADF816
:10847000006010208DF803008DF8024069464846E0
:1084800000F0F6F84EF6377012E0000000200140D0
:1084900000002442C301002000080140000C0140FC
:1084A000001001400014014000180140001C014070
:1084B000ADF800008DF803B08DF8024069464846DB
:1084C00000F0D6F8ADF800808DF803608DF802401A
:1084D0006946484600F0CCF87C20ADF8000010203A
:1084E0008DF803008DF8024069465C4800F0C0F842
:1084F0004FF68370ADF800008DF803B08DF80240A0
:108500006946564800F0B4F848F2C020ADF80000C3
:1085100010208DF80300DFF848818DF8024069468D
:10852000404600F0A5F84FF45060ADF800008DF81B
:1085300003608DF802406946404600F099F847F222
:108540003F00ADF800008DF803B08DF80240694699
:10855000404600F08DF84AF62060ADF8000010208B
:108560008DF80300DFF8FC808DF802406946404634
:1085700000F07EF844F2C010ADF800008DF8036002
:108580008DF802406946404600F072F845F21F003F
:10859000ADF800008DF803B08DF802406946404602
:1085A00000F066F88020ADF800008DF803B08DF87B
:1085B00002406946484600F05BF8ADF800A0142080
:1085C0008DF803008DF802406946274800F050F806
:1085D000ADF8007010208DF803008DF80240694658
:1085E000224800F045F8A002ADF800008DF80360C5
:1085F0008DF802406946404600F03AF84FF4187092
:10860000ADF8000010208DF803008DF80240694697
:10861000404600F02DF80820ADF8000010208DF83D
:1086200003008DF8024069460C4800F021F84FF431
:108630006050ADF8000010208DF803008DF8024066
:108640006946484600F014F8ADF8005010208DF847
:1086500003008DF802406946404651E6001801408B
:10866000001C014000200140000C014000100140AE
:108670002DE9F003CB7803F00F0213F0100F1CBFAD
:108680008B781A430B784FF00F0713F0FF0F4FF062
:1086900001081FD0046800235FF008050E8808FA5F
:1086A00003FC3CEA060611D19E0007FA06F924EA0B
:1086B000090402FA06F63443CE78282E08BFC0F823
:1086C00014C003D0482E08BFC0F810C05B1C6D1E3C
:1086D000E4D104600B88FF2B9CBFBDE8F00370471A
:1086E00044684FF0000C08250CF108030E8808FAC6
:1086F00003F333EA060607D06D1E0CF1010CF3D12B
:108700004460BDE8F00370474FEA8C0607FA06F9AB
:1087100024EA090402FA06F63443CE78282E08BF6C
:108720004361CE78482E08BF0361E5E701617047D9
:108730002DE9F0470446454888460025016BC56190
:108740008561491C05620163DFF8109140A148462C
:108750000BF05EFD4FF47A70B4FBF0F0404EA6FBD8
:108760000021C908494201EB810110EB410005D00D
:1087700000F1300148460BF031FD01253948A0FBDE
:1087800004104009A6FB0021C908494201EB810100
:1087900010EB410006D000F1300148460BF01EFD01
:1087A000012504E01DB1302148460BF017FDA6FB62
:1087B0000410C708A6FB0710C008404200EB800069
:1087C00017EB400006D000F1300148460BF006FDE3
:1087D000012504E01DB1302148460BF0FFFC784232
:1087E00000EB800014EB400005D000F1300148465A
:1087F0000BF0F4FC04E01DB1302148460BF0EEFC18
:108800000D214E4648460BF0E9FC17A003F06EFD23
:1088100000281CBF0220BDE8F0870025002C07D9E6
:1088200018F8051030460BF0D9FC6D1CAC42F7D897
:108830004AF2FF5002F082F804220B214FF49670A6
:1088400001F096FA0020BDE8F087000064000020E7
:1088500061742B63697073656E643D00004800406D
:10886000CDCCCCCC1F85EB513E0000002DE9F04F64
:108870007D4883B002784178303A02EB82036FF092
:108880002F0202EB430319448378CCB2303BC1780A
:1088900003EB830302EB430319440379CDB2303B6E
:1088A000417903EB830302EB4303194490F8A430AE
:1088B00001F0FF08303B90F8A51003EB830302EBB7
:1088C0004303194490F8A23001F5FA6C303B90F85C
:1088D000A31003EB830302EB4303194490F8A13088
:1088E00090F8A000C9B2303800EB800002EB4000E5
:1088F0001844C2B2ACF2DE70072822BF022003B0D7
:10890000BDE8F08F1FFA8CF90F461646574B6046AC
:1089100013F0DCF9554ADFF858C1EA465178DCE932
:10892000003C50681278CDE9003CDFF848C10023D4
:10893000ACFB00BC4FEADC0CCCF1000C0CEB4C1C8B
:108940000CEB000C1AF803B0DC4501D1012304E064
:108950005B1CDBB2082BF5D30023A1F1010CBCF1A9
:10896000050F94BF04F1040C04F1030C0CF0FF0498
:10897000062902BF1F2AA4F1010C0CF0FF0405F127
:108980001E0C0CF0FF053C2D0FD3DFF8ECC0ACFB48
:1089900005AC4FEA5C1CACEB0C1C05EB8C0C0CF032
:1089A000FF0504F1010C0CF0FF04182C3ED3DFF896
:1089B000CCC01F2AACFB04AC4FEA1C1CACEB8C0CEB
:1089C00004EBCC0C0CF0FF0402D2062900D871B9DC
:1089D0001E2A06D20B2901D8072908D20BB10C296F
:1089E00005D01D2A06D2002B08BF0C291ED1521C0F
:1089F000D2B21BE01F2A07D01E2A09D01D2A04BFAD
:108A0000002B0C290FD011E006290FD821B90DE059
:108A10000B2905D8072903D30122491CC9B205E057
:108A200023B10C2902D101221146401C144B80B203
:108A30001880144B1970144B1A70144B1C70144B83
:108A40001D70144B83F8008003F020FC124932465D
:108A500023460870CDE900583946484608F0D8F951
:108A600003B00020BDE8F08F6027002060010020E7
:108A70003CCC0008E1830F3E89888888ABAAAAAA6B
:108A80005C0100205201002053010020540100200D
:108A9000550100205601002057010020344991F86B
:108AA000A52002F5FA6391F8A420303A02EB820C7B
:108AB0006FF02F0202EB4C0C63449BB2A3F2DE7307
:108AC000072B24BF0220704710B591F800C04B78E7
:108AD000ACF1300C0CEB8C0C8C7802EB4C0C63443E
:108AE000303C91F803C004EB840402EB4404A4443A
:108AF0004C790979DBB2303901EB810102EB41019C
:108B00002144CCB20CF11E01CAB23C2A0AD3194945
:108B1000A1FB02C14909A1EB011102EB8101CAB21B
:108B2000591CCBB214490978062994BF191DD91CC8
:108B3000C9B2172908D9114BA3FB01C31B09A3EB29
:108B4000830301EBC301C9B2DFF834C00A238CF8F8
:108B500001300C4B1B788B4206D128B10A480270B9
:108B60000A480470002010BDFFF780FEFAE70000FD
:108B7000602700208988888852010020ABAAAAAA11
:108B8000380000205401002055010020560100202B
:108B90002DE9F047164C07462568DFF85890164E29
:108BA0004AF6AA282068854203D82068401BC828B6
:108BB00002D30020BDE8F087B06998B10F48316A50
:108BC000405C3870306A401C3062B0F5966F24BF4C
:108BD00000203062B06900281CBF401EB061012037
:108BE000BDE8F087012000F03DFEC9F80080D9E71C
:108BF0001800002000300040640000206D2E00208E
:108C00002DE9F047174C07462568DFF85CA0174EA2
:108C100041F270784AF6AA292068854203DC206870
:108C2000401B404502DB0020BDE8F087B06998B1E9
:108C30000F48316A405C3870306A401C3062B0F5D1
:108C4000966F24BF00203062B06900281CBF401E10
:108C5000B0610120BDE8F087012000F003FECAF8F2
:108C60000090D9E718000020003000406400002088
:108C70006D2E002070B50C46054600F0F1F8A8688E
:108C80002168C16261680163A1684163490707D532
:108C9000D0E90021C0E90012D0E90221C0E90212A6
:108CA000A18981842169002903D001DC4FF00001F2
:108CB000016270BD2DE9F0411E4617468846054603
:108CC00000F0CEF8AC686822414604F58470FCF7E9
:108CD0004BFE2846B8472846B04728698068804739
:108CE000A062BDE8F081000010B5044600F0B8F8BD
:108CF000A0680E494C30114AC1650D4981650D4986
:108D000001660D4981660021C166136843660C4BFC
:108D1000C0E91E315168416730F8261C21F003017B
:108D200020F8261C0749416410BD0000D5940108B5
:108D3000419601089D9401087B9001083C030020A6
:108D40004B9101085994010810B5044600F088F8C9
:108D5000A4680C489034102120650B4860650B48CE
:108D6000A0650B48E0650B48E0600B482061206B74
:108D7000A06654F89029204690471020A063074829
:108D8000606410BD096C0108557C0108A18D0008C4
:108D9000D18E000835900108BD99010810ED020838
:108DA000F8B5846815460F4694F8260080074CD520
:108DB000D4F8FC30204698470646D4F800312A46BD
:108DC000394620469847D4F8943005461BB1002216
:108DD0000121204698472069B04201DD012000E0D2
:108DE0000020A169B14201DA012100E0002108431D
:108DF0006169A94201DD012100E000210843E16928
:108E0000A94201DA012100E0002108430AD060688C
:108E1000401E00902368D4F8A4705B1E0022114607
:108E20002046B847D4F8A8302A463146204698470D
:108E3000D4F89C1020468847D4F8943005466BB18E
:108E4000012200212046984708E0D4F8A8302046A7
:108E50009847D4F89C102046884705462846F8BD18
:108E600070B504468068002812D14FF4B8752846C2
:108E700000F0BCFA2A460021A06003F099F8A0682F
:108E80000221C1840121046401620249C0F8041175
:108E900070BD0000998E000810B590B004462022E5
:108EA0000A496846FCF760FD08492022203108A8DD
:108EB000FCF75AFD606B5DF82010C4F8FC1008A99F
:108EC00051F82000C4F8000110B010BD3CF90108B1
:108ED0002DE9F84384689846154694F826000F4615
:108EE000800740D5D4F8FC30204698470646D4F891
:108EF00000312A4639462046984705462069B04247
:108F000001DD012000E00020A169B14201DA012168
:108F100000E0002108436169A94201DD012100E070
:108F200000210843E169A94201DA012100E00021A2
:108F300008430AD06068401E00902368D4F8A470EB
:108F40005B1E002211462046B847D4F8A8302A46B6
:108F5000314620469847D4F8A02001B0414620462B
:108F6000BDE8F0431047D4F8A830F2E72DE9F04F00
:108F7000DFF828B191B04FF0FF35DBF80030B3F9DE
:108F800022100691DE69B3F924A0F469A189814217
:108F900006D8E289824203D3471AD4F8008012E04F
:108FA000D4E90181002970D00A8882426DD84D88A9
:108FB00085426AD3801A82B2486800EB8200B0F919
:108FC0000070B0F90250781C5FD0307EA27C014660
:108FD00000FB02F9207CCDE90810B3F92A60304685
:108FE00004F07AFAC0B20E90DBF8001007FB09809B
:108FF000A37C8A6B0127CDE90402CDE90273C8691D
:10900000DDE90832C17E807ECDE900015146069837
:1090100003F040FE681C18D046F0020004F05CFA31
:10902000DBF80000A37C05FB0981826BCDE90273AC
:10903000CDE90412C069DDE90832C17E807ECDE948
:1090400000015146069803F025FEDBF800005D465E
:10905000C069417E007E814214D9022E12D086F072
:10906000040004F039FA2868C069027EC37E857E58
:1090700002FB03A1437E099A0698534402FB0502B2
:1090800003F096FF0E9804F027FADBF80000627CEC
:10909000418C1144418411B0BDE8F08FC40200201E
:1090A00004480068C069C06909B1027C0A60407C5C
:1090B00070470000C4020020022008807047C06989
:1090C00082898A4202D8C2898A4210D2806880B1DD
:1090D00002888A420DD843888B420AD3406800EB4D
:1090E0008100A0EB8200B0F90000002801DB012024
:1090F00070470020704700002DE9F0432F4C0346D5
:1091000087B020681946B0F92A80C069C06900F0AC
:10911000EEF800284ED041680088181A01EBC0050F
:109120004046AE7804F0D8F9814620686A68012389
:10913000816BCDE90236CDE90421C169CB7E8A7EFF
:10914000CDE900230B7EB0F924102A78B0F9220073
:1091500003F0A0FD2068C069477E067EB7421DD996
:10916000C07E47434643B8F1020F17D000F05EFEC1
:10917000804600F043FE01F0E1FB21682A78CB69CC
:10918000B1F92200B1F92410DB7E02FB0302CB19F6
:10919000314403F00DFF404601F0D0FB484604F097
:1091A0009BF920686A78C369B0F922109B7E02FBA4
:1091B0000311418407B0BDE8F0830000C402002021
:1091C0002DE9F35F0E46002500F030FEDFF8A880A1
:1091D0008346D8F8000090F82A00400702D500F036
:1091E00025FE01E000F00AFE01F0A8FBD8F800001F
:1091F0000024C269B0F92290B0F92470517ED27E69
:1092000001FB02FA1EE0684601F028FD0546D8F889
:1092100000002946C069C06900F032F890B1416889
:109220000088281A00EB400001EB800090F9021042
:1092300000790844D8F80010C969897E484300289D
:1092400000DD0444761EDED51DB1284602F0CCFCBC
:10925000044407EB0A0309EB04025B1E4846521E56
:10926000394603F0A5FE584601F068FB034901208A
:109270000870BDE8FC9F0000C4020020A404002088
:1092800006E002888A4202D842888A4202D2806876
:109290000028F6D17047000030B50E4C05460B464D
:1092A00020682946C069C06900F021F8002810D064
:1092B0004168008824682A1A0120E46900EBC20092
:1092C000085CA47E6043002B03D011F83210614388
:1092D000196030BDC402002001200880704700B52D
:1092E000C06900F004F8002800D0012000BD06E0AD
:1092F00002888A4202D842888A4202D280680028C4
:10930000F6D17047FEB50E4EDDE908543668367C5E
:1093100016F003060CD0012E03D0022E0DD0032E22
:1093200005D1084ECDE9005402960DF0DBFFFEBDDD
:10933000CDE900540DF084FFFEBD034EF2E70000BE
:10934000C402002099D5000811D50008002801D0DA
:109350000CF0B8B9704738B50546FFF7F7FF0400C1
:1093600009D000F0C5F82A460021009002F020FE46
:10937000684600F007F9204638BD0000024A106038
:1093800021F0030050607047F868002010B50028F5
:1093900014D004460A48006B10F8341000290DD090
:1093A00002290BD2042101EBC401415848680CF09A
:1093B0004DF92046BDE810400FF02ABE10BD000058
:1093C0003C680020002805D0034A916B016001B180
:1093D00048609063704700003C68002010B5044668
:1093E0000068FFF7D3FF0020206010BD2DE9F04199
:1093F00004460FF0BBFA2648E41C24F00305C16BB9
:109400002D1DA94200D90D46846B13E054F8042C9D
:10941000AA420ED184B1216809B162684A606168CC
:1094200009B122680A60826BA2422ED12168816351
:109430002BE02468002CE9D18046416B80680F182E
:1094400057F8040C3E1A306838B100200FF0EAFEDD
:1094500057F8040C3E1A3068B8B97068A84214DB9B
:109460003044441B30460FF095FED8F80810491BD5
:10947000C8F80810D8F810102944C8F810107068FF
:109480003146401B0CF0E2F820C42046BDE8F081D4
:109490003C68002010B500240FF068FA0C490F203A
:1094A00001EBC002126C1AB101EBC000006C08E0C5
:1094B000401EF5D508E04168A14200D90C468068FD
:1094C00010B180680028F6D1A4F10C0010BD000096
:1094D0003C680020002138B10449042202EBC0009E
:1094E000096B085841680C39084670473C680020F1
:1094F00005498A69521C8A61096B01EBC0010A782F
:10950000521C0A7000F056B83C6800207CB5064634
:109510000C460846FFF71AFF05001CD0DEB13046A6
:10952000FFF7D8FFA04200DA04462846FFF7E0FF25
:1095300000903046FFF7DCFF01460190224600987C
:10954000FCF712FA684600F01DF801A800F01AF8BE
:109550003046FFF71BFF28467CBD000010B5FFF723
:1095600099FF64220649B0F5800F04D990FBF2F010
:10957000C969484310BDC9694143B1FBF2F010BD50
:109580003C6800200A4902680B6B52F8082C03EB78
:10959000C2021378022B03D38B690BB15B1E8B6164
:1095A0001178491E117000210160084670470000C3
:1095B0003C680020002806D00349042202EBC000CA
:1095C000096B0858083070473C68002070B50C469D
:1095D000054600F0ADFCC1B223462846BDE8704008
:1095E000002200F001B80000F0B52D271C68B0F192
:1095F000004F08D0002500280DDA661C1E60277079
:109600004042012408E0661C01251E606FF0004006
:109610002770491E01E00024091BC9B22AB3491E64
:10962000C9B222E00C46491EC9B2944205D1124C7F
:1096300027781C68661C1E602770104C54F8216047
:1096400090FBF6F4E4B20A2C11D804FB160011B911
:109650000DB1641CE4B20A2C02D10124491CC9B228
:109660001E683034771C1F6034700029DAD1196805
:1096700000200870F0BD0000B802002080E402085D
:1096800010B5C2B2CBB2D21A02D5C2F1000212B2E8
:1096900093B2C0F30722C1F3072403FB03F3121BA9
:1096A00001D5524212B2000C92B2A0EB114002FB63
:1096B000023200B2002801DA404200B280B200FB60
:1096C000002010BD10B50021084600F0F5FB40F663
:1096D000FF725042BDE8104013460146AFF30080D0
:1096E0002DE9FC4107461C4615460E46042003F0B2
:1096F000F3FE80461148C068C16C006D0F440644FB
:109700000D440444ADF80070ADF80450ADF80260AB
:10971000ADF8064068460BF0E1FB07E023462A4619
:109720003146384603F044FC0BF09AFB0028F5D193
:10973000404603F0D1FEBDE8FC810000B8020020E5
:109740002DE9F0411C4616460D460746022B02DB6A
:109750000020BDE8F0811C20FFF748FE0028F8D06B
:109760000DB105610AE0094A52F8241009B905E073
:1097700011460A68002AFBD1096901618461868269
:10978000002101604160C0E90217E2E7DC0200202D
:1097900070B51D46FFF7D4FF040001D000F00EF8AD
:1097A000E068006820B90348006800EB8500846524
:1097B000204670BDC4020020FFF704BE70B590B310
:1097C0008269022A30DA1C4C54F8221019B944F884
:1097D00022002FE019464B68002BFBD106E0CB6836
:1097E000C5681B682D68AB4203DD09680029F6D106
:1097F0001AE0C1B1CB68C6681B683668B3420CD1A9
:10980000838A012B05D008E01946DB681B68AB4250
:1098100003DB0B68002BF7D129B14B6833B118601B
:109820004A68426004E0FFE7012070BD44F822006E
:1098300048600160002070BDDC02002010F092B88A
:10984000022801DB00207047054951F8200004E0A0
:10985000C16809680029F6D000680028F8D170476F
:10986000DC02002070B5044601F066FB051908E033
:1098700000F064FA052C01DD052000E0204601F02F
:109880004FFB01F059FB2C1A002CF1DC70BD0000DD
:109890002DE9FC4706005BD000F0D0FA3B4C814636
:1098A0002068B0F9228000F0DFFA216807468A8C30
:1098B000D01B888441E000BF47F6FF71304602F0BC
:1098C0005BF982460146304602F02CF921680546D4
:1098D00091F82C0000F0030001283FD0022839D075
:1098E00000204A8C101A4884ADF800006A1E10440B
:1098F000ADF80400888CADF80200A9F1010108441C
:10990000ADF806006A465146304601F0E3FE216894
:10991000BDF8020088845146304601F0CBF9064478
:1099200030780A281CD00D281AD0BDF80000216814
:1099300028444884307818B1761C30780028BBD190
:109940002068818C39448184818D21F003018185D7
:10995000BDE8FC8705EBD5704010C2E72846C0E79C
:10996000206890F82C1001F0030101290BD0022986
:1099700009D0018C418431780A29DBD1828C02EB39
:1099800009018184D6E7A0F82280F4E7C402002010
:10999000024B1B6859849A84FFF77ABFC4020020E7
:1099A0002DE9FF4F85B090468A46070078D00C68B5
:1099B000DAF8046021B230B2401A401C029000F084
:1099C0003DFA054618F00C0F1ED03846089A029949
:1099D00001F08BFA08F00C01042904D0082902D008
:1099E0000C2911D104E0311400FB1510401C09E0D2
:1099F0002114C1EB264200FB1520401C00EBD07067
:109A000001EB600060F31F44504600F095FFA5F1A4
:109A1000010B04903846089A029902F097FA0390D5
:109A20004FEA244909EB0B0060F31F46CDE90046DD
:109A30003846039902F076F818F003010ED0012998
:109A400028D002290ED1BAF90420BAF90010521A0E
:109A5000101A00EBD07001EB600001E0BAF80000D2
:109A6000ADF800006A463846039901F033FE3846E7
:109A7000089A029902F060FA074409EB050060F3C6
:109A80001F4438780028C5D1049809B0BDE8F04FCC
:109A900000F052BFBAF80410081A401CE0E7FFE7D4
:109AA00009B0BDE8F08F00002DE9F04F0C461649D3
:109AB00087B00D68DDE91098E96C0F18286D8D18D6
:109AC0000619C418ADF81070ADF81450ADF8126056
:109AD000ADF8164004A80BF001FA002811D0DFF809
:109AE0002CB04FF0000ACDE90098CDE902BA2B4620
:109AF0002246394630460DF0A8FC0BF0B1F900289B
:109B0000F1D107B0BDE8F08FC40200205DCF00089E
:109B10002DE9F04F174C87B02568DDE91198EC6C02
:109B2000DDF840A02718286DA5184618C418ADF810
:109B30001470ADF81850ADF81660ADF81A4005A8CD
:109B40000BF0CCF9002812D04FF0010B0A49CDE9F7
:109B500000A9CDE9028123462A46CDF810B031464E
:109B600038460DF02FFD0BF07BF90028EED107B041
:109B7000BDE8F08FC40200209DCE00082DE9F04F13
:109B8000164C87B02568DDE91098EC6C2718286D15
:109B9000A5184618C418ADF81070ADF81450ADF8FB
:109BA0001260ADF8164004A80BF098F9002811D007
:109BB000DFF82CB04FF0010ACDE90098CDE902BAE8
:109BC00023462A46314638460DF03FFC0BF048F953
:109BD0000028F1D107B0BDE8F08F0000C4020020DA
:109BE0009DCE00082DE9FC41104F04463B68D86C1F
:109BF0004518196DADF800500E198418ADF80440E1
:109C0000ADF80260ADF8066068460BF067F908E051
:109C1000386822463146C06E0368284698470BF0E4
:109C20001FF90028F4D1BDE8FC810000C402002027
:109C30002DE9FC411C4C2468E66C94F818C03718D8
:109C4000206DACF1010C4518C418A7EB0C001644AC
:109C5000ADF8000006EB0C00ADF80400A5EB0C001D
:109C6000ADF8020004EB0C00ADF8060068460BF0FE
:109C700035F915E032462946384603F00FF93246E9
:109C80002146384603F00AF9621E691C384603F083
:109C900065F9621E691C304603F060F90BF0E0F8CC
:109CA0000028E7D1BDE8FC81C40200202DE9FE4375
:109CB000114CDDF828802568EC6C2718286DA51854
:109CC0004618C418ADF80470ADF80850ADF8066039
:109CD000ADF80A4001A80BF001F909E023462A4635
:109CE00031463846CDF800800DF04AFD0BF0B8F84B
:109CF0000028F3D1BDE8FE83C40200207CB50E4BE2
:109D00001B68DC6C2618186DADF8006045188418C7
:109D1000ADF80460ADF80250ADF8064068460BF0AF
:109D2000DDF806E022462946304603F017F90BF02D
:109D300097F80028F6D17CBDC402002010B500249D
:109D400000E0012400F004F80028FAD1204610BDFC
:109D5000064810B50068002410B1804700B1012406
:109D60000AF012FD00B10124204610BDE4020020DB
:109D700070B51646094A1268D36C1C18106D451848
:109D800000200BF0ABF806E0324629462046FEF7ED
:109D9000D9F80BF065F80028F6D170BDC402002098
:109DA0002DE9FC410F4C2568EC6C2718286DA5188F
:109DB0004618C418ADF80070ADF80450ADF8026054
:109DC000ADF8064068460BF089F807E023462A46BE
:109DD0003146384603F0ECF80BF042F80028F5D194
:109DE000BDE8FC81C4020020034951F82000C1688D
:109DF0008A6A082110470000DC02002010B503F039
:109E000007F9BDE8104003F0B7B90000024909683E
:109E1000C9694A6800211047C4020020024A12683A
:109E2000D269526810470000C402002010B503F048
:109E3000F7F8BDE8104003F09FB900000248006841
:109E4000C069407E70470000C402002001F060BE7F
:109E500001F0BCBE10B5044601F0AAFE0146204642
:109E6000BDE8104001F05EBE0A490020096891F883
:109E70002C2002F00C02042A07D0082A01D00C2A58
:109E800002D1C869007E40087047C869007E401E44
:109E900070470000C4020020024951F82000006908
:109EA00000687047DC020020024951F82000006978
:109EB00040687047DC02002070B50D460EF0B8FC1B
:109EC000044628460EF0BCFC204370BD124810B575
:109ED000016821F0010101601048012181601049F1
:109EE000016000680F49884200D0FEE701F0D8FB0E
:109EF0000D492E20087001F025F80C480EF0FEFCEC
:109F000011F0E7FB04460021084600F02DFD0AF0A1
:109F10009FFC204610BD0000002000E00030024001
:109F2000C2A507F4CDB5E8B5B80200200469002049
:109F300010B5011E01DD024600E04A42064B012039
:109F400053F82040944202D8401C0A28F8DB00292C
:109F500000DA401C10BD000080E402081CB520B9E6
:109F60000C480068006E002812D0FFF7C1FA00907C
:109F700044696846FFF706FB002C09D02046FFF72E
:109F8000B7FA019081688968884701A8FFF7FAFA53
:109F90001CBD0000C402002001490A4600F002B8BE
:109FA00001F0FFFF2DE9F04387B015460C465FEA4C
:109FB000000842D0002000F0C3FC81462048006821
:109FC000066E4046FFF794FA00900068806900F042
:109FD0009FFC074640F6FF70001904D10098B0F9C5
:109FE0000440B0F906500098611E0289ADF80440A3
:109FF0001144ADF808104189681E0844ADF80650B8
:10A00000ADF80A000AF02EFA6846FFF7BBFA01A87D
:10A010000AF064FF06E02A462146404600F0F8FABE
:10A020000AF01EFF0028F6D1384600F071FC3046D9
:10A0300000F048F9484600F083FC07B0BDE8F08323
:10A04000C40200202DE9FE4F834619488A4619496B
:10A0500000680C9E9846407C9146002751F82040AD
:10A06000E1680968042903D02468002CF8D100E0D5
:10A0700014B9FFF7E5FB04460121E068C26A2046F7
:10A080009047050011D02469A0688047401C02D188
:10A09000094C46F001060096CDE9015443464A4674
:10A0A0005146584600F09AF907463846BDE8FE8FFB
:10A0B000C4020020DC020020B8E4020838B5040025
:10A0C00018D00D480068006EA04201D100F016FCC7
:10A0D0002046FFF70DFA0090406908B100F0F3FE4A
:10A0E00000980068FFF768FB6846FFF74BFA2046C8
:10A0F000FFF74CF938BD0000C40200202DE9FF4FE6
:10A1000083B0454CDDF840B098468A4607002BD016
:10A1100002A901A8FFF79CFEB7F90060002E00DA43
:10A120000026B7F90250002D00DA00252068A1466C
:10A13000407C02F0E1FF01990144491EB7F9040097
:10A140000EF0D7FC0446D9F80000407C02F0DAFF9C
:10A1500002990144491EB7F906000EF0CAFCA71B7C
:10A160007F1C441B641C0BE0206800263546407CA5
:10A1700002F0C2FF07462068407C02F0C3FF04469D
:10A18000B8F1000F01D1C4F10008002F01DD002C4F
:10A1900003DC002007B0BDE8F08F43463A4629466D
:10A1A0003046CDF800B0FFF74DFF5FEA000909D057
:10A1B00000F054F88046484600F084F80027DFF8A5
:10A1C0005CB01FE05146059888470120E2E7E11B9B
:10A1D000414502DA484600F05FF83FB1EA193146DE
:10A1E000484600F099F84846FFF7B8FE51460598F2
:10A1F0008847DBF8001009B1002088474846FFF780
:10A20000CBFE4744A742E2DB4846FFF757FF00205A
:10A2100000F058F8BDE70000C402002080040020D0
:10A2200038B5002460B1FFF763F900900068006959
:10A230008068804703F098FB04466846FFF7A2F960
:10A24000204638BD38B5FFF753F900F118040090E7
:10A250006846FFF797F9204638BD000038B500245E
:10A2600018B907480068006E38B1FFF741F900904F
:10A27000B0F90A406846FFF785F9204638BD00006E
:10A28000C402002010B50BF031FD002803D0BDE85A
:10A29000104000F06DB810BD38B50C4620B9084824
:10A2A0000068006E00280AD0FFF722F90090B0F98C
:10A2B0000A10A14200DD44816846FFF763F938BD0A
:10A2C000C4020020F8B5134E05003068046E0CD0AF
:10A2D0000CB100F013FB0AF0B5F92846FFF708F9B6
:10A2E000009031680A6E1AB106E000F007FB0EE03C
:10A2F000D1E90223C1E919230D660068FFF75EFA70
:10A300006846FFF73FF903F0BFF903F0C5F82046B0
:10A31000F8BD0000C40200207CB515460C4620B9EB
:10A3200012480068006E00281FD0FFF7E1F82DB238
:10A330000090C58024B2848003F0AEF80098406994
:10A3400080B1FFF7D5F8009A0190B2F9081081802A
:10A35000B2F90A20C28011B10AB10480458001A877
:10A36000FFF710F96846FFF70DF97CBDC402002025
:10A3700001490A4600F002B801F0FFFF7FB515461B
:10A380000C46060028D0FFF7B3F840F6FF710190A5
:10A39000091903D1B0F90440B0F906500289611ED1
:10A3A0001144ADF80840ADF80C104189681E08440E
:10A3B000ADF80E00ADF80A5001A8FFF7E3F802A8C7
:10A3C0000AF08CFD06E02A462146304600F008F9E6
:10A3D0000AF046FD0028F6D17FBD00002DE9FF4FB1
:10A3E000DFF8E0B083B01C46DBF80010DDE9106058
:10A3F000924600274B7C3A461299FFF7A1F90500D7
:10A400005DD028698068804703F0AEFA81460AFB78
:10A4100009F0C01D4FEAD008FFF7A0F8F10705D1F9
:10A42000C11700EB9170801000EB4000002C06DC9F
:10A430001838B0FBF8F06442A04200DC0446F00794
:10A4400007D10090DDE903012346524600F0B2FC3B
:10A450000746002C03DC2846FFF7AEF92FE004FB8B
:10A4600008F01830F10702D0FEF770FF01E0FEF7A8
:10A4700072FF06001CD0FFF73BF8019005600399BE
:10A4800081800499C180A0F808A04481C0F80C80A4
:10A49000C0E9049701A8FFF775F81298AE6028612B
:10A4A000DBF80000407CA861304607B0BDE8F08FC3
:10A4B0002846FFF781F917B13846FEF767FF0020FD
:10A4C000F3E70000C40200202DE9F74F92B0904658
:10A4D0001298FFF70DF80B90B0F908100691B0F93B
:10A4E0000A100D9100680069D0F804B00BA8FFF7BE
:10A4F00049F8384C384D2068407C55F82000C16838
:10A500008A6A082190478146182801D34FF0200914
:10A510002068407C55F820000069079003C80C9023
:10A520002E48814201D0012000E000201090002040
:10A5300000F009FD002849D10026DDE91207B246E6
:10A540000FAB069C4546761C0193FFF77BFE014648
:10A5500004FB0AF001EB8002234629463846CDF879
:10A5600000B001F00FF9050030D01098D0B1DDE94E
:10A5700006134A46284600F0D9FF98B9DDE906706F
:10A580002C46D0F810C0BCF1000F05D0294604239A
:10A590003A460846E04705E00C992068884701C420
:10A5A0007F1EF9D10020CDE9030505900120009020
:10A5B000CDE901094146034608F10108069A1398BE
:10A5C00002F068FB0D98401E0D90B6D115B0BDE8A5
:10A5D000F08F0000C4020020DC02002097D10008A8
:10A5E000F8B515460E460746FEF782FF0090006854
:10A5F0001621C068426A0020904704466846FEF76C
:10A60000C1FF002C03D02A4631463846A047F8BD8A
:10A61000F8B515460E460746FEF76AFF00904469F6
:10A620006846FEF7AFFF3846FFF7FAFD03460828F5
:10A6300000DD2CB12A46314638460FF0D5F9F8BD79
:10A640002A46314638460FF067FBF8BD10B50028A2
:10A6500021D009B30AB3B1F90040B2F900309C42ED
:10A6600000DA23460380B1F90240B2F902309C427D
:10A6700000DA23464380B1F90440B2F904309C4229
:10A6800000DD23468380B1F90610B2F9062091421D
:10A6900000DC1146C18010BD11460A68026049689D
:10A6A000416010BD00280BD003880B4403808388D1
:10A6B00019448180418811444180C1881144C1807E
:10A6C0007047000070B5094C0020D4E900218A428F
:10A6D0000AD0D2E9005610460EF0C8F82060314684
:10A6E00028460AF099F9012070BD0000F802002008
:10A6F0002DE9FC41154DDDE908742D68B5F90860B8
:10A70000864200DD3046B5F90C60964200DA3246EA
:10A71000824219DBB5F90A608E4200DD3146B5F997
:10A720000E509D4200DA2B468B420DDB00E02C469A
:10A73000E5682D6825B1042D02D02568002DF6D1DD
:10A74000CDE9007402F090FDBDE8FC81C402002058
:10A75000B0F90220B1F906309A4213DCB1F90220B7
:10A76000B0F906309A420DDCB0F90020B1F904309E
:10A770009A4207DCB1F90010B0F90400814201DC13
:10A780000120704700207047014602487822006887
:10A79000FBF7EAB8C402002038B515460090C8613E
:10A7A0000C46684601F0A4FB1649884228D1684649
:10A7B00001F095FB2076684601F091FB60766846D3
:10A7C00001F08DFB84F82000684601F088FB84F8D6
:10A7D0002100684601F083FB84F822000120A07666
:10A7E000E0762868206068686060A868A060E86813
:10A7F000E0602869206168696061204600F0A2F885
:10A8000038BD00004755495038B50C4601460B4845
:10A8100000250C220068C06900F02EF8009058B1A5
:10A8200024B1684601F05BFB206001E0801C0090D1
:10A83000684601F054FB0546284638BDC402002096
:10A8400038B5C0690C46001D0090684601F047FB12
:10A85000A070684601F043FBE070684601F03FFBE2
:10A8600020710120208038BD08B5C0690E300090ED
:10A87000684601F034FB08BD2DE9F843884691464F
:10A8800006460024FFF7F0FFF1690546103101EBA1
:10A8900085070091684601F022FB064666F30F0427
:10A8A000684601F01CFB60F31F44464508D840454C
:10A8B00006D3A1B2A8EB010109FB0170BDE8F88342
:10A8C000801B401C09FB00776D1EE3D10020F5E7DB
:10A8D000054810B500680C22C069FFF7CDFF0028BD
:10A8E00000D0012010BD0000C402002002497822DF
:10A8F0000968FBF739B80000C402002010B502F067
:10A900007FFD02F0C1FEBDE8104009F0ABBD0000C4
:10A9100070B504460548022C0068457C02D2447498
:10A92000FFF7ECFF02480460284670BDC402002017
:10A930009C03002002F086BD0AF0B6B902F0BABD51
:10A9400002F0CABD03490968CA6900B1C86110466E
:10A9500070470000C4020020024909688A7E887698
:10A9600010467047C4020020094A30B41080094ADA
:10A970001180094A1268537C084A52F82330DA6879
:10A98000146A0A46A446014630BC184660470000D7
:10A99000F4020020F6020020C4020020DC020020A5
:10A9A000024909680A7E087610467047C4020020F2
:10A9B00003490968B1F92C208885104670470000CA
:10A9C000C402002003490968B1F92A2048851046CD
:10A9D00070470000C402002002480068002800D030
:10A9E000004770476404002002498A6802B9886001
:10A9F000FFF7F2BFF802002010B5040009D00EF0F6
:10AA0000E3FB20460EF086FF2046BDE81040FEF72F
:10AA1000BDBC10BD38B50C4660B1FEF769FD0090B5
:10AA20008089204201D0012400E000246846FEF71E
:10AA3000A9FD00E00124204638BD000038B50546D8
:10AA4000002028600648046844B12046FEF750FD07
:10AA50000090006928606846FEF794FD204638BDE6
:10AA60005004002038B504004FF000000D46086087
:10AA700011D02046FEF73CFD0090846844B1684642
:10AA8000FEF780FD2046FEF733FD00900069286048
:10AA90006846FEF777FD204638BD2DE9F04198461F
:10AAA00017460D460646002409E036F8021B3846D4
:10AAB00000F0BAF82118414503DC07440C466D1E2E
:10AAC000F3D22046BDE8F0812DE9F04F3E4D061E41
:10AAD0003E4C3F4A3F4BDFF80091DFF800A1DFF822
:10AAE00000B14049286846DDAE46002869D1256896
:10AAF0000D6015684D601D688D60D9F80060CE60EE
:10AB0000DAF800700F61DBF800C0C1F814C0DFF89C
:10AB1000DCC03549DFF8E480CCF80010DFF8D4C0A1
:10AB20004D463349DFF8D090CCF80010C8F80090BB
:10AB3000DFF8D080DFF8C8C0C8F800C0DFF8CC80EC
:10AB4000DFF8C4C0C8F800C0DFF8C880DFF8C0C0B4
:10AB5000C8F800C0DFF8C0C0C4F800C011602F49B9
:10AB6000C3F8009029602E49CAF800102D4901222F
:10AB7000CBF8001023E024D1AE46002821DD0D687B
:10AB8000002D1ED04E68002E1BD08F68002F18D0CD
:10AB9000D1F80CC0BCF1000F13D0D1F81080B8F17F
:10ABA000000F0ED0496900290BD0256016601F6088
:10ABB000C9F800C0CAF800800022CBF80010CEF817
:10ABC0000020BDE8F08F0000140400204C04002099
:10ABD0003004002034040020380400204404002005
:10ABE00048040020040300206DB30008180400206E
:10ABF00085B100081C04002085B000082004002056
:10AC000077B200082404002081AF00082804002047
:10AC10005BB300082C040020E9B3000859B0000819
:10AC2000A9B20008EBAF0008014A1268D2681047C9
:10AC3000C80200200149096809680847C8020020C5
:10AC40000149096849680847C802002002490148CB
:10AC500008607047ECF80108C80200202DE9F041B7
:10AC6000084E04460568306801682846884707464C
:10AC70003068416828468847284420603846BDE847
:10AC8000F0810000C80200202DE9F04100250E46A9
:10AC900080462C46064F06E0396808EB04004968F8
:10ACA000884704446D1CA642F6DC2846BDE8F081C6
:10ACB000C80200202DE9F0410C4606460025064F4B
:10ACC00005E0386841683046884706440544641EFC
:10ACD000F7D22846BDE8F081C80200202DE9F041F6
:10ACE0001E46069C1746884605463A46A8687F1CBD
:10ACF0003346D0F804C041462846E047641EF4D1EC
:10AD0000BDE8F08170B5B0F90040091BB0F904400E
:10AD10008C422CDD00F11404B0F902500069521B82
:10AD200002FB0040CA1800EBE104521ED010B0EB49
:10AD3000E10501F007034FF0FF0102F0070221FADD
:10AD400003F0C2F1070201FA02F1CEB221780FD06E
:10AD500001436D1E04F8011B002D05DDFF2229466D
:10AD60002046FAF722FE2C4420783043207070BD34
:10AD700030400143217070BD10B5B0F90030B0F91A
:10AD80000240C91A00F114030069121B02FB0030D3
:10AD900000EBE10001F0070302788021D9400A436B
:10ADA000027010BDB0F90610026951431430FAF771
:10ADB00003BE00002DE9F843804602F10F000011A8
:10ADC000470003FB07F01C46154689461430FEF782
:10ADD000C2FA060013D0FEF78BFB0090A0F80080AB
:10ADE000A0F802908580C48006498160012181819C
:10ADF00007616846FEF7C6FB3046BDE8F8830020D1
:10AE0000FBE7000048F0020870B5B0F90660B0F941
:10AE100004400B6800F11405964220DD0069A3424E
:10AE200002FB005000EBE30219DAA4F101044FEA3F
:10AE3000E400A0EBE30512F8010B03F0070400FAAD
:10AE400004F0C4B208E055B112F8014B03F1080355
:10AE5000A5F1010523F00703002CF4D008E0002041
:10AE600070BD00BF4FEA44604FEA106403F1010374
:10AE70002006F7D5FF2C0AD0184605E04FEA4464B7
:10AE80004FEA146400F101006606F7D400E0D81D13
:10AE9000C443640706D007E012F8014BFF2C0FD122
:10AEA00000F108006D1EF7D5A0EB030000F10100D2
:10AEB0000B6070BD4FEA44624FEA126400F101007A
:10AEC0002206F7D4F0E738B50546FEF711FB0090EF
:10AED0008189491E0CB284816846FEF753FB002C21
:10AEE00002D12846FEF752FA38BD2DE9F041164648
:10AEF0000F460546002432463946284601F01CF824
:10AF0000054408B1641CF6E72046BDE8F081000066
:10AF10004FF400510148FEF731BA0000100700203D
:10AF200003490A6810440A68821A002AFBDC704749
:10AF300018000020704700000148006870470000BA
:10AF40001800002070470EB508B102AA00E00022E8
:10AF5000002301A9684600F093FD0EBD074910B516
:10AF6000CC6818B10120C860801E03E00020C860D2
:10AF70006FF07F4001F078FE204610BDAC04002049
:10AF800070B5D2B00D4606461446502129A8FAF7EE
:10AF900013FD50213DA8FAF70FFDA02101A8FAF7F3
:10AFA0000BFD502D02DD002052B070BD012301AA1F
:10AFB000294630460AF096FF0546024629A901A80F
:10AFC0000DF01AFB294629A80AF04CFC0028EBD00A
:10AFD000002000902B463DAA29A901A80AF0D0FB29
:10AFE0003DA8005D00F00100DEE72DE9F3430027F6
:10AFF00083B089463D460197ADF808703E46B84695
:10B0000003AA02A930460DF02BFB040020D00198C2
:10B0100010B1CDF8048018E0204600F0A3FE50B136
:10B020000398009001AB3246BDF80810204600F0AE
:10B03000E7FD064600E026463046FEF7E7FE0744F9
:10B040000DB14F4504DC0A2E02D06D1C2646D7E711
:10B0500005B02846BDE8F0832DE9F04116460F46BD
:10B060000A461C468046314600F005F905462CB1DB
:10B070003A4631464046FFF783FF20602846BDE848
:10B08000F08100002DE9F043F9B00C460646174662
:10B090000025502151A8FAF78FFC502165A8FAF736
:10B0A0008BFCA02101A8FAF787FCA02129A8FAF7B8
:10B0B00083FC502C47DC012301AA214630460AF0CC
:10B0C00011FF0446024651A901A80DF095FA214648
:10B0D00051A80AF0C7FB88B301200090234665AA57
:10B0E00051A901A80AF04CFB064600200DF1A40866
:10B0F00003E000BF28F81000401CA042FADBF3B2C6
:10B10000224665A901A80AF0BAFBF3B2224665A956
:10B1100029A80AF0B4FB00260DF1040911E000BFD4
:10B1200039F81600FEF772FE2844AF4207DB87426B
:10B1300005DC38F8160079B0BDE8F08305E0054677
:10B14000761CA642ECDB0020F5E70025B0460FE0B8
:10B150003046FFF76FFD8146FEF758FE0544B9F112
:10B16000000F08D0BD4206DC3046FFF769FD0644FB
:10B17000641E002CECDC4046A6EB0801FFF784FDC2
:10B18000D9E700002DE9F047FAB00C46064617460D
:10B190000025502165A8FAF70FFC502151A8FAF7B5
:10B1A0000BFCA02101A8FAF707FCA02129A8FAF7B7
:10B1B00003FC502C03DD00207AB0BDE8F0870123AA
:10B1C00001AA214630460AF08DFE0646024665A9D0
:10B1D00001A80DF011FA314665A80AF043FBA0B3AF
:10B1E00001200090334651AA65A901A80AF0C8FAC7
:10B1F000044651A80DF1A409C05D00F0010800202B
:10B2000003E000BF29F81000401CB042FADBE3B2B3
:10B21000324651A901A80AF032FBE3B2324651A9E5
:10B2200029A80AF02CFB01A8CA460024814613E095
:10B230003AF81400B84209D1B8F1000F19D039F822
:10B240001400FEF7E3FD2844B6E708E039F81400DF
:10B25000FEF7DCFD0544641CB442E9DB09E001AC07
:10B2600005E000BF34F8020BFEF7D0FD05447F1E59
:10B27000F8D22846A0E770B5A8B00D460646144699
:10B28000A0216846FAF798FB502D0BDC01236A4693
:10B29000294630460AF026FE844203DA3DF81400BF
:10B2A00028B070BD0020FBE72DE9F74F002784B0E0
:10B2B0003D463E46B9460197ADF80870BA46B846D5
:10B2C00004AA02A950460DF0CBF90446019810B12A
:10B2D000002001902DE0204600F044FD5FEA000BC5
